{
	"contracts/FundMe.sol": {
		"FundMe": {
			"abi": [
				{
					"inputs": [],
					"name": "MINIMUM_USD",
					"outputs": [
						{
							"internalType": "uint256",
							"name": "",
							"type": "uint256"
						}
					],
					"stateMutability": "view",
					"type": "function"
				},
				{
					"inputs": [
						{
							"internalType": "address",
							"name": "",
							"type": "address"
						}
					],
					"name": "addressToamountFunded",
					"outputs": [
						{
							"internalType": "uint256",
							"name": "",
							"type": "uint256"
						}
					],
					"stateMutability": "view",
					"type": "function"
				},
				{
					"inputs": [],
					"name": "fund",
					"outputs": [],
					"stateMutability": "payable",
					"type": "function"
				},
				{
					"inputs": [
						{
							"internalType": "uint256",
							"name": "",
							"type": "uint256"
						}
					],
					"name": "funders",
					"outputs": [
						{
							"internalType": "address",
							"name": "",
							"type": "address"
						}
					],
					"stateMutability": "view",
					"type": "function"
				},
				{
					"inputs": [],
					"name": "withdraw",
					"outputs": [],
					"stateMutability": "nonpayable",
					"type": "function"
				}
			],
			"devdoc": {
				"kind": "dev",
				"methods": {},
				"version": 1
			},
			"evm": {
				"assembly": "    /* \"contracts/FundMe.sol\":89:841  contract FundMe{... */\n  mstore(0x40, 0x80)\n  callvalue\n  dup1\n  iszero\n  tag_1\n  jumpi\n  0x00\n  dup1\n  revert\ntag_1:\n  pop\n  dataSize(sub_0)\n  dup1\n  dataOffset(sub_0)\n  0x00\n  codecopy\n  0x00\n  return\nstop\n\nsub_0: assembly {\n        /* \"contracts/FundMe.sol\":89:841  contract FundMe{... */\n      mstore(0x40, 0x80)\n      jumpi(tag_1, lt(calldatasize, 0x04))\n      shr(0xe0, calldataload(0x00))\n      dup1\n      0x2398fa15\n      eq\n      tag_2\n      jumpi\n      dup1\n      0x3ccfd60b\n      eq\n      tag_3\n      jumpi\n      dup1\n      0x6b69a592\n      eq\n      tag_4\n      jumpi\n      dup1\n      0xb60d4288\n      eq\n      tag_5\n      jumpi\n      dup1\n      0xdc0d3dff\n      eq\n      tag_6\n      jumpi\n    tag_1:\n      0x00\n      dup1\n      revert\n        /* \"contracts/FundMe.sol\":234:290  mapping(address => uint256) public addressToamountFunded */\n    tag_2:\n      callvalue\n      dup1\n      iszero\n      tag_7\n      jumpi\n      0x00\n      dup1\n      revert\n    tag_7:\n      pop\n      tag_8\n      0x04\n      dup1\n      calldatasize\n      sub\n      dup2\n      add\n      swap1\n      tag_9\n      swap2\n      swap1\n      tag_10\n      jump\t// in\n    tag_9:\n      tag_11\n      jump\t// in\n    tag_8:\n      mload(0x40)\n      tag_12\n      swap2\n      swap1\n      tag_13\n      jump\t// in\n    tag_12:\n      mload(0x40)\n      dup1\n      swap2\n      sub\n      swap1\n      return\n        /* \"contracts/FundMe.sol\":518:838  function withdraw() public{... */\n    tag_3:\n      callvalue\n      dup1\n      iszero\n      tag_14\n      jumpi\n      0x00\n      dup1\n      revert\n    tag_14:\n      pop\n      tag_15\n      tag_16\n      jump\t// in\n    tag_15:\n      stop\n        /* \"contracts/FundMe.sol\":153:197  uint256 public constant MINIMUM_USD=50* 1e18 */\n    tag_4:\n      callvalue\n      dup1\n      iszero\n      tag_17\n      jumpi\n      0x00\n      dup1\n      revert\n    tag_17:\n      pop\n      tag_18\n      tag_19\n      jump\t// in\n    tag_18:\n      mload(0x40)\n      tag_20\n      swap2\n      swap1\n      tag_13\n      jump\t// in\n    tag_20:\n      mload(0x40)\n      dup1\n      swap2\n      sub\n      swap1\n      return\n        /* \"contracts/FundMe.sol\":297:512  function fund() public payable{... */\n    tag_5:\n      tag_21\n      tag_22\n      jump\t// in\n    tag_21:\n      stop\n        /* \"contracts/FundMe.sol\":204:228  address[] public funders */\n    tag_6:\n      callvalue\n      dup1\n      iszero\n      tag_23\n      jumpi\n      0x00\n      dup1\n      revert\n    tag_23:\n      pop\n      tag_24\n      0x04\n      dup1\n      calldatasize\n      sub\n      dup2\n      add\n      swap1\n      tag_25\n      swap2\n      swap1\n      tag_26\n      jump\t// in\n    tag_25:\n      tag_27\n      jump\t// in\n    tag_24:\n      mload(0x40)\n      tag_28\n      swap2\n      swap1\n      tag_29\n      jump\t// in\n    tag_28:\n      mload(0x40)\n      dup1\n      swap2\n      sub\n      swap1\n      return\n        /* \"contracts/FundMe.sol\":234:290  mapping(address => uint256) public addressToamountFunded */\n    tag_11:\n      mstore(0x20, 0x01)\n      dup1\n      0x00\n      mstore\n      keccak256(0x00, 0x40)\n      0x00\n      swap2\n      pop\n      swap1\n      pop\n      sload\n      dup2\n      jump\t// out\n        /* \"contracts/FundMe.sol\":518:838  function withdraw() public{... */\n    tag_16:\n        /* \"contracts/FundMe.sol\":558:565  uint8 i */\n      0x00\n        /* \"contracts/FundMe.sol\":554:656  for(uint8 i = 0; i< funders.length; i++){... */\n    tag_31:\n        /* \"contracts/FundMe.sol\":574:581  funders */\n      0x00\n        /* \"contracts/FundMe.sol\":574:588  funders.length */\n      dup1\n      sload\n      swap1\n      pop\n        /* \"contracts/FundMe.sol\":571:572  i */\n      dup2\n        /* \"contracts/FundMe.sol\":571:588  i< funders.length */\n      0xff\n      and\n      lt\n        /* \"contracts/FundMe.sol\":554:656  for(uint8 i = 0; i< funders.length; i++){... */\n      iszero\n      tag_32\n      jumpi\n        /* \"contracts/FundMe.sol\":644:645  0 */\n      0x00\n        /* \"contracts/FundMe.sol\":608:629  addressToamountFunded */\n      0x01\n        /* \"contracts/FundMe.sol\":608:641  addressToamountFunded[funders[i]] */\n      0x00\n        /* \"contracts/FundMe.sol\":630:637  funders */\n      dup1\n        /* \"contracts/FundMe.sol\":638:639  i */\n      dup5\n        /* \"contracts/FundMe.sol\":630:640  funders[i] */\n      0xff\n      and\n      dup2\n      sload\n      dup2\n      lt\n      tag_34\n      jumpi\n      tag_35\n      tag_36\n      jump\t// in\n    tag_35:\n    tag_34:\n      swap1\n      0x00\n      mstore\n      keccak256(0x00, 0x20)\n      add\n      0x00\n      swap1\n      sload\n      swap1\n      0x0100\n      exp\n      swap1\n      div\n      0xffffffffffffffffffffffffffffffffffffffff\n      and\n        /* \"contracts/FundMe.sol\":608:641  addressToamountFunded[funders[i]] */\n      0xffffffffffffffffffffffffffffffffffffffff\n      and\n      0xffffffffffffffffffffffffffffffffffffffff\n      and\n      dup2\n      mstore\n      0x20\n      add\n      swap1\n      dup2\n      mstore\n      0x20\n      add\n      0x00\n      keccak256\n        /* \"contracts/FundMe.sol\":608:645  addressToamountFunded[funders[i]] = 0 */\n      dup2\n      swap1\n      sstore\n      pop\n        /* \"contracts/FundMe.sol\":590:593  i++ */\n      dup1\n      dup1\n      tag_38\n      swap1\n      tag_39\n      jump\t// in\n    tag_38:\n      swap2\n      pop\n      pop\n        /* \"contracts/FundMe.sol\":554:656  for(uint8 i = 0; i< funders.length; i++){... */\n      jump(tag_31)\n    tag_32:\n      pop\n        /* \"contracts/FundMe.sol\":689:690  0 */\n      0x00\n        /* \"contracts/FundMe.sol\":675:691  new address[](0) */\n      0xffffffffffffffff\n      dup2\n      gt\n      iszero\n      tag_40\n      jumpi\n      tag_41\n      tag_42\n      jump\t// in\n    tag_41:\n    tag_40:\n      mload(0x40)\n      swap1\n      dup1\n      dup3\n      mstore\n      dup1\n      0x20\n      mul\n      0x20\n      add\n      dup3\n      add\n      0x40\n      mstore\n      dup1\n      iszero\n      tag_43\n      jumpi\n      dup2\n      0x20\n      add\n      0x20\n      dup3\n      mul\n      dup1\n      calldatasize\n      dup4\n      calldatacopy\n      dup1\n      dup3\n      add\n      swap2\n      pop\n      pop\n      swap1\n      pop\n    tag_43:\n      pop\n        /* \"contracts/FundMe.sol\":665:672  funders */\n      0x00\n        /* \"contracts/FundMe.sol\":665:691  funders = new address[](0) */\n      swap1\n      dup1\n      mload\n      swap1\n      0x20\n      add\n      swap1\n      tag_44\n      swap3\n      swap2\n      swap1\n      tag_45\n      jump\t// in\n    tag_44:\n      pop\n        /* \"contracts/FundMe.sol\":702:718  bool callSuccess */\n      0x00\n        /* \"contracts/FundMe.sol\":731:741  msg.sender */\n      caller\n        /* \"contracts/FundMe.sol\":723:747  payable(msg.sender).call */\n      0xffffffffffffffffffffffffffffffffffffffff\n      and\n        /* \"contracts/FundMe.sol\":755:776  address(this).balance */\n      selfbalance\n        /* \"contracts/FundMe.sol\":723:781  payable(msg.sender).call{value: address(this).balance}(\"\") */\n      mload(0x40)\n      tag_46\n      swap1\n      tag_47\n      jump\t// in\n    tag_46:\n      0x00\n      mload(0x40)\n      dup1\n      dup4\n      sub\n      dup2\n      dup6\n      dup8\n      gas\n      call\n      swap3\n      pop\n      pop\n      pop\n      returndatasize\n      dup1\n      0x00\n      dup2\n      eq\n      tag_50\n      jumpi\n      mload(0x40)\n      swap2\n      pop\n      and(add(returndatasize, 0x3f), not(0x1f))\n      dup3\n      add\n      0x40\n      mstore\n      returndatasize\n      dup3\n      mstore\n      returndatasize\n      0x00\n      0x20\n      dup5\n      add\n      returndatacopy\n      jump(tag_49)\n    tag_50:\n      0x60\n      swap2\n      pop\n    tag_49:\n      pop\n        /* \"contracts/FundMe.sol\":701:781  (bool callSuccess,) = payable(msg.sender).call{value: address(this).balance}(\"\") */\n      pop\n      swap1\n      pop\n        /* \"contracts/FundMe.sol\":799:810  callSuccess */\n      dup1\n        /* \"contracts/FundMe.sol\":791:833  require(callSuccess, \"There was an error\") */\n      tag_51\n      jumpi\n      mload(0x40)\n      0x08c379a000000000000000000000000000000000000000000000000000000000\n      dup2\n      mstore\n      0x04\n      add\n      tag_52\n      swap1\n      tag_53\n      jump\t// in\n    tag_52:\n      mload(0x40)\n      dup1\n      swap2\n      sub\n      swap1\n      revert\n    tag_51:\n        /* \"contracts/FundMe.sol\":544:838  {... */\n      pop\n        /* \"contracts/FundMe.sol\":518:838  function withdraw() public{... */\n      jump\t// out\n        /* \"contracts/FundMe.sol\":153:197  uint256 public constant MINIMUM_USD=50* 1e18 */\n    tag_19:\n        /* \"contracts/FundMe.sol\":189:197  50* 1e18 */\n      0x02b5e3af16b1880000\n        /* \"contracts/FundMe.sol\":153:197  uint256 public constant MINIMUM_USD=50* 1e18 */\n      dup2\n      jump\t// out\n        /* \"contracts/FundMe.sol\":297:512  function fund() public payable{... */\n    tag_22:\n        /* \"contracts/FundMe.sol\":189:197  50* 1e18 */\n      0x02b5e3af16b1880000\n        /* \"contracts/FundMe.sol\":345:377  (msg.value).getConversionRate( ) */\n      tag_55\n        /* \"contracts/FundMe.sol\":346:355  msg.value */\n      callvalue\n        /* \"contracts/FundMe.sol\":345:374  (msg.value).getConversionRate */\n      tag_56\n        /* \"contracts/FundMe.sol\":345:377  (msg.value).getConversionRate( ) */\n      jump\t// in\n    tag_55:\n        /* \"contracts/FundMe.sol\":345:391  (msg.value).getConversionRate( ) > MINIMUM_USD */\n      gt\n        /* \"contracts/FundMe.sol\":337:415  require((msg.value).getConversionRate( ) > MINIMUM_USD, \"Did not send enough\") */\n      tag_57\n      jumpi\n      mload(0x40)\n      0x08c379a000000000000000000000000000000000000000000000000000000000\n      dup2\n      mstore\n      0x04\n      add\n      tag_58\n      swap1\n      tag_59\n      jump\t// in\n    tag_58:\n      mload(0x40)\n      dup1\n      swap2\n      sub\n      swap1\n      revert\n    tag_57:\n        /* \"contracts/FundMe.sol\":425:432  funders */\n      0x00\n        /* \"contracts/FundMe.sol\":438:448  msg.sender */\n      caller\n        /* \"contracts/FundMe.sol\":425:449  funders.push(msg.sender) */\n      swap1\n      dup1\n      0x01\n      dup2\n      sload\n      add\n      dup1\n      dup3\n      sstore\n      dup1\n      swap2\n      pop\n      pop\n      0x01\n      swap1\n      sub\n      swap1\n      0x00\n      mstore\n      keccak256(0x00, 0x20)\n      add\n      0x00\n      swap1\n      swap2\n      swap1\n      swap2\n      swap1\n      swap2\n      0x0100\n      exp\n      dup2\n      sload\n      dup2\n      0xffffffffffffffffffffffffffffffffffffffff\n      mul\n      not\n      and\n      swap1\n      dup4\n      0xffffffffffffffffffffffffffffffffffffffff\n      and\n      mul\n      or\n      swap1\n      sstore\n      pop\n        /* \"contracts/FundMe.sol\":496:505  msg.value */\n      callvalue\n        /* \"contracts/FundMe.sol\":459:480  addressToamountFunded */\n      0x01\n        /* \"contracts/FundMe.sol\":459:492  addressToamountFunded[msg.sender] */\n      0x00\n        /* \"contracts/FundMe.sol\":481:491  msg.sender */\n      caller\n        /* \"contracts/FundMe.sol\":459:492  addressToamountFunded[msg.sender] */\n      0xffffffffffffffffffffffffffffffffffffffff\n      and\n      0xffffffffffffffffffffffffffffffffffffffff\n      and\n      dup2\n      mstore\n      0x20\n      add\n      swap1\n      dup2\n      mstore\n      0x20\n      add\n      0x00\n      keccak256\n      0x00\n        /* \"contracts/FundMe.sol\":459:505  addressToamountFunded[msg.sender] += msg.value */\n      dup3\n      dup3\n      sload\n      tag_61\n      swap2\n      swap1\n      tag_62\n      jump\t// in\n    tag_61:\n      swap3\n      pop\n      pop\n      dup2\n      swap1\n      sstore\n      pop\n        /* \"contracts/FundMe.sol\":297:512  function fund() public payable{... */\n      jump\t// out\n        /* \"contracts/FundMe.sol\":204:228  address[] public funders */\n    tag_27:\n      0x00\n      dup2\n      dup2\n      sload\n      dup2\n      lt\n      tag_63\n      jumpi\n      0x00\n      dup1\n      revert\n    tag_63:\n      swap1\n      0x00\n      mstore\n      keccak256(0x00, 0x20)\n      add\n      0x00\n      swap2\n      pop\n      sload\n      swap1\n      0x0100\n      exp\n      swap1\n      div\n      0xffffffffffffffffffffffffffffffffffffffff\n      and\n      dup2\n      jump\t// out\n        /* \"contracts/PriceConverter.sol\":694:825  function getConversionRate(uint256 ethAmount) internal view returns(uint256){... */\n    tag_56:\n        /* \"contracts/PriceConverter.sol\":762:769  uint256 */\n      0x00\n        /* \"contracts/PriceConverter.sol\":814:818  1e18 */\n      0x0de0b6b3a7640000\n        /* \"contracts/PriceConverter.sol\":801:810  ethAmount */\n      dup3\n        /* \"contracts/PriceConverter.sol\":788:798  getPrice() */\n      tag_66\n        /* \"contracts/PriceConverter.sol\":788:796  getPrice */\n      tag_67\n        /* \"contracts/PriceConverter.sol\":788:798  getPrice() */\n      jump\t// in\n    tag_66:\n        /* \"contracts/PriceConverter.sol\":788:810  getPrice() * ethAmount */\n      tag_68\n      swap2\n      swap1\n      tag_69\n      jump\t// in\n    tag_68:\n        /* \"contracts/PriceConverter.sol\":787:818  (getPrice() * ethAmount) / 1e18 */\n      tag_70\n      swap2\n      swap1\n      tag_71\n      jump\t// in\n    tag_70:\n        /* \"contracts/PriceConverter.sol\":780:818  return (getPrice() * ethAmount) / 1e18 */\n      swap1\n      pop\n        /* \"contracts/PriceConverter.sol\":694:825  function getConversionRate(uint256 ethAmount) internal view returns(uint256){... */\n      swap2\n      swap1\n      pop\n      jump\t// out\n        /* \"contracts/PriceConverter.sol\":165:529  function getPrice() view internal returns(uint256){... */\n    tag_67:\n        /* \"contracts/PriceConverter.sol\":207:214  uint256 */\n      0x00\n        /* \"contracts/PriceConverter.sol\":271:283  int256 price */\n      dup1\n        /* \"contracts/PriceConverter.sol\":422:464  0xD4a33860578De61DBAbDc8BFdb98FD742fA7028e */\n      0xd4a33860578de61dbabdc8bfdb98fd742fa7028e\n        /* \"contracts/PriceConverter.sol\":400:481  AggregatorV3Interface(0xD4a33860578De61DBAbDc8BFdb98FD742fA7028e).latestRoundData */\n      0xffffffffffffffffffffffffffffffffffffffff\n      and\n      0xfeaf968c\n        /* \"contracts/PriceConverter.sol\":400:483  AggregatorV3Interface(0xD4a33860578De61DBAbDc8BFdb98FD742fA7028e).latestRoundData() */\n      mload(0x40)\n      dup2\n      0xffffffff\n      and\n      0xe0\n      shl\n      dup2\n      mstore\n      0x04\n      add\n      0xa0\n      mload(0x40)\n      dup1\n      dup4\n      sub\n      dup2\n      dup7\n      dup1\n      extcodesize\n      iszero\n      dup1\n      iszero\n      tag_73\n      jumpi\n      0x00\n      dup1\n      revert\n    tag_73:\n      pop\n      gas\n      staticcall\n      iszero\n      dup1\n      iszero\n      tag_75\n      jumpi\n      returndatasize\n      0x00\n      dup1\n      returndatacopy\n      revert(0x00, returndatasize)\n    tag_75:\n      pop\n      pop\n      pop\n      pop\n      mload(0x40)\n      returndatasize\n      not(0x1f)\n      0x1f\n      dup3\n      add\n      and\n      dup3\n      add\n      dup1\n      0x40\n      mstore\n      pop\n      dup2\n      add\n      swap1\n      tag_76\n      swap2\n      swap1\n      tag_77\n      jump\t// in\n    tag_76:\n        /* \"contracts/PriceConverter.sol\":225:483  (... */\n      pop\n      pop\n      pop\n      swap2\n      pop\n      pop\n        /* \"contracts/PriceConverter.sol\":516:520  1e10 */\n      0x02540be400\n        /* \"contracts/PriceConverter.sol\":508:513  price */\n      dup2\n        /* \"contracts/PriceConverter.sol\":508:520  price * 1e10 */\n      tag_78\n      swap2\n      swap1\n      tag_79\n      jump\t// in\n    tag_78:\n        /* \"contracts/PriceConverter.sol\":493:521  return uint256(price * 1e10) */\n      swap2\n      pop\n      pop\n        /* \"contracts/PriceConverter.sol\":165:529  function getPrice() view internal returns(uint256){... */\n      swap1\n      jump\t// out\n    tag_45:\n      dup3\n      dup1\n      sload\n      dup3\n      dup3\n      sstore\n      swap1\n      0x00\n      mstore\n      keccak256(0x00, 0x20)\n      swap1\n      dup2\n      add\n      swap3\n      dup3\n      iszero\n      tag_80\n      jumpi\n      swap2\n      0x20\n      mul\n      dup3\n      add\n    tag_81:\n      dup3\n      dup2\n      gt\n      iszero\n      tag_82\n      jumpi\n      dup3\n      mload\n      dup3\n      exp(0x0100, 0x00)\n      dup2\n      sload\n      dup2\n      0xffffffffffffffffffffffffffffffffffffffff\n      mul\n      not\n      and\n      swap1\n      dup4\n      0xffffffffffffffffffffffffffffffffffffffff\n      and\n      mul\n      or\n      swap1\n      sstore\n      pop\n      swap2\n      0x20\n      add\n      swap2\n      swap1\n      0x01\n      add\n      swap1\n      jump(tag_81)\n    tag_82:\n    tag_80:\n      pop\n      swap1\n      pop\n      tag_83\n      swap2\n      swap1\n      tag_84\n      jump\t// in\n    tag_83:\n      pop\n      swap1\n      jump\t// out\n    tag_84:\n    tag_85:\n      dup1\n      dup3\n      gt\n      iszero\n      tag_86\n      jumpi\n      0x00\n      dup2\n      0x00\n      swap1\n      sstore\n      pop\n      0x01\n      add\n      jump(tag_85)\n    tag_86:\n      pop\n      swap1\n      jump\t// out\n        /* \"#utility.yul\":7:146   */\n    tag_88:\n        /* \"#utility.yul\":53:58   */\n      0x00\n        /* \"#utility.yul\":91:97   */\n      dup2\n        /* \"#utility.yul\":78:98   */\n      calldataload\n        /* \"#utility.yul\":69:98   */\n      swap1\n      pop\n        /* \"#utility.yul\":107:140   */\n      tag_90\n        /* \"#utility.yul\":134:139   */\n      dup2\n        /* \"#utility.yul\":107:140   */\n      tag_91\n      jump\t// in\n    tag_90:\n        /* \"#utility.yul\":7:146   */\n      swap3\n      swap2\n      pop\n      pop\n      jump\t// out\n        /* \"#utility.yul\":152:293   */\n    tag_92:\n        /* \"#utility.yul\":208:213   */\n      0x00\n        /* \"#utility.yul\":239:245   */\n      dup2\n        /* \"#utility.yul\":233:246   */\n      mload\n        /* \"#utility.yul\":224:246   */\n      swap1\n      pop\n        /* \"#utility.yul\":255:287   */\n      tag_94\n        /* \"#utility.yul\":281:286   */\n      dup2\n        /* \"#utility.yul\":255:287   */\n      tag_95\n      jump\t// in\n    tag_94:\n        /* \"#utility.yul\":152:293   */\n      swap3\n      swap2\n      pop\n      pop\n      jump\t// out\n        /* \"#utility.yul\":299:438   */\n    tag_96:\n        /* \"#utility.yul\":345:350   */\n      0x00\n        /* \"#utility.yul\":383:389   */\n      dup2\n        /* \"#utility.yul\":370:390   */\n      calldataload\n        /* \"#utility.yul\":361:390   */\n      swap1\n      pop\n        /* \"#utility.yul\":399:432   */\n      tag_98\n        /* \"#utility.yul\":426:431   */\n      dup2\n        /* \"#utility.yul\":399:432   */\n      tag_99\n      jump\t// in\n    tag_98:\n        /* \"#utility.yul\":299:438   */\n      swap3\n      swap2\n      pop\n      pop\n      jump\t// out\n        /* \"#utility.yul\":444:587   */\n    tag_100:\n        /* \"#utility.yul\":501:506   */\n      0x00\n        /* \"#utility.yul\":532:538   */\n      dup2\n        /* \"#utility.yul\":526:539   */\n      mload\n        /* \"#utility.yul\":517:539   */\n      swap1\n      pop\n        /* \"#utility.yul\":548:581   */\n      tag_102\n        /* \"#utility.yul\":575:580   */\n      dup2\n        /* \"#utility.yul\":548:581   */\n      tag_99\n      jump\t// in\n    tag_102:\n        /* \"#utility.yul\":444:587   */\n      swap3\n      swap2\n      pop\n      pop\n      jump\t// out\n        /* \"#utility.yul\":593:734   */\n    tag_103:\n        /* \"#utility.yul\":649:654   */\n      0x00\n        /* \"#utility.yul\":680:686   */\n      dup2\n        /* \"#utility.yul\":674:687   */\n      mload\n        /* \"#utility.yul\":665:687   */\n      swap1\n      pop\n        /* \"#utility.yul\":696:728   */\n      tag_105\n        /* \"#utility.yul\":722:727   */\n      dup2\n        /* \"#utility.yul\":696:728   */\n      tag_106\n      jump\t// in\n    tag_105:\n        /* \"#utility.yul\":593:734   */\n      swap3\n      swap2\n      pop\n      pop\n      jump\t// out\n        /* \"#utility.yul\":740:1069   */\n    tag_10:\n        /* \"#utility.yul\":799:805   */\n      0x00\n        /* \"#utility.yul\":848:850   */\n      0x20\n        /* \"#utility.yul\":836:845   */\n      dup3\n        /* \"#utility.yul\":827:834   */\n      dup5\n        /* \"#utility.yul\":823:846   */\n      sub\n        /* \"#utility.yul\":819:851   */\n      slt\n        /* \"#utility.yul\":816:935   */\n      iszero\n      tag_108\n      jumpi\n        /* \"#utility.yul\":854:933   */\n      tag_109\n      tag_110\n      jump\t// in\n    tag_109:\n        /* \"#utility.yul\":816:935   */\n    tag_108:\n        /* \"#utility.yul\":974:975   */\n      0x00\n        /* \"#utility.yul\":999:1052   */\n      tag_111\n        /* \"#utility.yul\":1044:1051   */\n      dup5\n        /* \"#utility.yul\":1035:1041   */\n      dup3\n        /* \"#utility.yul\":1024:1033   */\n      dup6\n        /* \"#utility.yul\":1020:1042   */\n      add\n        /* \"#utility.yul\":999:1052   */\n      tag_88\n      jump\t// in\n    tag_111:\n        /* \"#utility.yul\":989:1052   */\n      swap2\n      pop\n        /* \"#utility.yul\":945:1062   */\n      pop\n        /* \"#utility.yul\":740:1069   */\n      swap3\n      swap2\n      pop\n      pop\n      jump\t// out\n        /* \"#utility.yul\":1075:1404   */\n    tag_26:\n        /* \"#utility.yul\":1134:1140   */\n      0x00\n        /* \"#utility.yul\":1183:1185   */\n      0x20\n        /* \"#utility.yul\":1171:1180   */\n      dup3\n        /* \"#utility.yul\":1162:1169   */\n      dup5\n        /* \"#utility.yul\":1158:1181   */\n      sub\n        /* \"#utility.yul\":1154:1186   */\n      slt\n        /* \"#utility.yul\":1151:1270   */\n      iszero\n      tag_113\n      jumpi\n        /* \"#utility.yul\":1189:1268   */\n      tag_114\n      tag_110\n      jump\t// in\n    tag_114:\n        /* \"#utility.yul\":1151:1270   */\n    tag_113:\n        /* \"#utility.yul\":1309:1310   */\n      0x00\n        /* \"#utility.yul\":1334:1387   */\n      tag_115\n        /* \"#utility.yul\":1379:1386   */\n      dup5\n        /* \"#utility.yul\":1370:1376   */\n      dup3\n        /* \"#utility.yul\":1359:1368   */\n      dup6\n        /* \"#utility.yul\":1355:1377   */\n      add\n        /* \"#utility.yul\":1334:1387   */\n      tag_96\n      jump\t// in\n    tag_115:\n        /* \"#utility.yul\":1324:1387   */\n      swap2\n      pop\n        /* \"#utility.yul\":1280:1397   */\n      pop\n        /* \"#utility.yul\":1075:1404   */\n      swap3\n      swap2\n      pop\n      pop\n      jump\t// out\n        /* \"#utility.yul\":1410:2381   */\n    tag_77:\n        /* \"#utility.yul\":1513:1519   */\n      0x00\n        /* \"#utility.yul\":1521:1527   */\n      dup1\n        /* \"#utility.yul\":1529:1535   */\n      0x00\n        /* \"#utility.yul\":1537:1543   */\n      dup1\n        /* \"#utility.yul\":1545:1551   */\n      0x00\n        /* \"#utility.yul\":1594:1597   */\n      0xa0\n        /* \"#utility.yul\":1582:1591   */\n      dup7\n        /* \"#utility.yul\":1573:1580   */\n      dup9\n        /* \"#utility.yul\":1569:1592   */\n      sub\n        /* \"#utility.yul\":1565:1598   */\n      slt\n        /* \"#utility.yul\":1562:1682   */\n      iszero\n      tag_117\n      jumpi\n        /* \"#utility.yul\":1601:1680   */\n      tag_118\n      tag_110\n      jump\t// in\n    tag_118:\n        /* \"#utility.yul\":1562:1682   */\n    tag_117:\n        /* \"#utility.yul\":1721:1722   */\n      0x00\n        /* \"#utility.yul\":1746:1809   */\n      tag_119\n        /* \"#utility.yul\":1801:1808   */\n      dup9\n        /* \"#utility.yul\":1792:1798   */\n      dup3\n        /* \"#utility.yul\":1781:1790   */\n      dup10\n        /* \"#utility.yul\":1777:1799   */\n      add\n        /* \"#utility.yul\":1746:1809   */\n      tag_103\n      jump\t// in\n    tag_119:\n        /* \"#utility.yul\":1736:1809   */\n      swap6\n      pop\n        /* \"#utility.yul\":1692:1819   */\n      pop\n        /* \"#utility.yul\":1858:1860   */\n      0x20\n        /* \"#utility.yul\":1884:1947   */\n      tag_120\n        /* \"#utility.yul\":1939:1946   */\n      dup9\n        /* \"#utility.yul\":1930:1936   */\n      dup3\n        /* \"#utility.yul\":1919:1928   */\n      dup10\n        /* \"#utility.yul\":1915:1937   */\n      add\n        /* \"#utility.yul\":1884:1947   */\n      tag_92\n      jump\t// in\n    tag_120:\n        /* \"#utility.yul\":1874:1947   */\n      swap5\n      pop\n        /* \"#utility.yul\":1829:1957   */\n      pop\n        /* \"#utility.yul\":1996:1998   */\n      0x40\n        /* \"#utility.yul\":2022:2086   */\n      tag_121\n        /* \"#utility.yul\":2078:2085   */\n      dup9\n        /* \"#utility.yul\":2069:2075   */\n      dup3\n        /* \"#utility.yul\":2058:2067   */\n      dup10\n        /* \"#utility.yul\":2054:2076   */\n      add\n        /* \"#utility.yul\":2022:2086   */\n      tag_100\n      jump\t// in\n    tag_121:\n        /* \"#utility.yul\":2012:2086   */\n      swap4\n      pop\n        /* \"#utility.yul\":1967:2096   */\n      pop\n        /* \"#utility.yul\":2135:2137   */\n      0x60\n        /* \"#utility.yul\":2161:2225   */\n      tag_122\n        /* \"#utility.yul\":2217:2224   */\n      dup9\n        /* \"#utility.yul\":2208:2214   */\n      dup3\n        /* \"#utility.yul\":2197:2206   */\n      dup10\n        /* \"#utility.yul\":2193:2215   */\n      add\n        /* \"#utility.yul\":2161:2225   */\n      tag_100\n      jump\t// in\n    tag_122:\n        /* \"#utility.yul\":2151:2225   */\n      swap3\n      pop\n        /* \"#utility.yul\":2106:2235   */\n      pop\n        /* \"#utility.yul\":2274:2277   */\n      0x80\n        /* \"#utility.yul\":2301:2364   */\n      tag_123\n        /* \"#utility.yul\":2356:2363   */\n      dup9\n        /* \"#utility.yul\":2347:2353   */\n      dup3\n        /* \"#utility.yul\":2336:2345   */\n      dup10\n        /* \"#utility.yul\":2332:2354   */\n      add\n        /* \"#utility.yul\":2301:2364   */\n      tag_103\n      jump\t// in\n    tag_123:\n        /* \"#utility.yul\":2291:2364   */\n      swap2\n      pop\n        /* \"#utility.yul\":2245:2374   */\n      pop\n        /* \"#utility.yul\":1410:2381   */\n      swap3\n      swap6\n      pop\n      swap3\n      swap6\n      swap1\n      swap4\n      pop\n      jump\t// out\n        /* \"#utility.yul\":2387:2505   */\n    tag_124:\n        /* \"#utility.yul\":2474:2498   */\n      tag_126\n        /* \"#utility.yul\":2492:2497   */\n      dup2\n        /* \"#utility.yul\":2474:2498   */\n      tag_127\n      jump\t// in\n    tag_126:\n        /* \"#utility.yul\":2469:2472   */\n      dup3\n        /* \"#utility.yul\":2462:2499   */\n      mstore\n        /* \"#utility.yul\":2387:2505   */\n      pop\n      pop\n      jump\t// out\n        /* \"#utility.yul\":2511:2877   */\n    tag_128:\n        /* \"#utility.yul\":2653:2656   */\n      0x00\n        /* \"#utility.yul\":2674:2741   */\n      tag_130\n        /* \"#utility.yul\":2738:2740   */\n      0x12\n        /* \"#utility.yul\":2733:2736   */\n      dup4\n        /* \"#utility.yul\":2674:2741   */\n      tag_131\n      jump\t// in\n    tag_130:\n        /* \"#utility.yul\":2667:2741   */\n      swap2\n      pop\n        /* \"#utility.yul\":2750:2843   */\n      tag_132\n        /* \"#utility.yul\":2839:2842   */\n      dup3\n        /* \"#utility.yul\":2750:2843   */\n      tag_133\n      jump\t// in\n    tag_132:\n        /* \"#utility.yul\":2868:2870   */\n      0x20\n        /* \"#utility.yul\":2863:2866   */\n      dup3\n        /* \"#utility.yul\":2859:2871   */\n      add\n        /* \"#utility.yul\":2852:2871   */\n      swap1\n      pop\n        /* \"#utility.yul\":2511:2877   */\n      swap2\n      swap1\n      pop\n      jump\t// out\n        /* \"#utility.yul\":2883:3249   */\n    tag_134:\n        /* \"#utility.yul\":3025:3028   */\n      0x00\n        /* \"#utility.yul\":3046:3113   */\n      tag_136\n        /* \"#utility.yul\":3110:3112   */\n      0x13\n        /* \"#utility.yul\":3105:3108   */\n      dup4\n        /* \"#utility.yul\":3046:3113   */\n      tag_131\n      jump\t// in\n    tag_136:\n        /* \"#utility.yul\":3039:3113   */\n      swap2\n      pop\n        /* \"#utility.yul\":3122:3215   */\n      tag_137\n        /* \"#utility.yul\":3211:3214   */\n      dup3\n        /* \"#utility.yul\":3122:3215   */\n      tag_138\n      jump\t// in\n    tag_137:\n        /* \"#utility.yul\":3240:3242   */\n      0x20\n        /* \"#utility.yul\":3235:3238   */\n      dup3\n        /* \"#utility.yul\":3231:3243   */\n      add\n        /* \"#utility.yul\":3224:3243   */\n      swap1\n      pop\n        /* \"#utility.yul\":2883:3249   */\n      swap2\n      swap1\n      pop\n      jump\t// out\n        /* \"#utility.yul\":3255:3653   */\n    tag_139:\n        /* \"#utility.yul\":3414:3417   */\n      0x00\n        /* \"#utility.yul\":3435:3518   */\n      tag_141\n        /* \"#utility.yul\":3516:3517   */\n      0x00\n        /* \"#utility.yul\":3511:3514   */\n      dup4\n        /* \"#utility.yul\":3435:3518   */\n      tag_142\n      jump\t// in\n    tag_141:\n        /* \"#utility.yul\":3428:3518   */\n      swap2\n      pop\n        /* \"#utility.yul\":3527:3620   */\n      tag_143\n        /* \"#utility.yul\":3616:3619   */\n      dup3\n        /* \"#utility.yul\":3527:3620   */\n      tag_144\n      jump\t// in\n    tag_143:\n        /* \"#utility.yul\":3645:3646   */\n      0x00\n        /* \"#utility.yul\":3640:3643   */\n      dup3\n        /* \"#utility.yul\":3636:3647   */\n      add\n        /* \"#utility.yul\":3629:3647   */\n      swap1\n      pop\n        /* \"#utility.yul\":3255:3653   */\n      swap2\n      swap1\n      pop\n      jump\t// out\n        /* \"#utility.yul\":3659:3777   */\n    tag_145:\n        /* \"#utility.yul\":3746:3770   */\n      tag_147\n        /* \"#utility.yul\":3764:3769   */\n      dup2\n        /* \"#utility.yul\":3746:3770   */\n      tag_148\n      jump\t// in\n    tag_147:\n        /* \"#utility.yul\":3741:3744   */\n      dup3\n        /* \"#utility.yul\":3734:3771   */\n      mstore\n        /* \"#utility.yul\":3659:3777   */\n      pop\n      pop\n      jump\t// out\n        /* \"#utility.yul\":3783:4162   */\n    tag_47:\n        /* \"#utility.yul\":3967:3970   */\n      0x00\n        /* \"#utility.yul\":3989:4136   */\n      tag_150\n        /* \"#utility.yul\":4132:4135   */\n      dup3\n        /* \"#utility.yul\":3989:4136   */\n      tag_139\n      jump\t// in\n    tag_150:\n        /* \"#utility.yul\":3982:4136   */\n      swap2\n      pop\n        /* \"#utility.yul\":4153:4156   */\n      dup2\n        /* \"#utility.yul\":4146:4156   */\n      swap1\n      pop\n        /* \"#utility.yul\":3783:4162   */\n      swap2\n      swap1\n      pop\n      jump\t// out\n        /* \"#utility.yul\":4168:4390   */\n    tag_29:\n        /* \"#utility.yul\":4261:4265   */\n      0x00\n        /* \"#utility.yul\":4299:4301   */\n      0x20\n        /* \"#utility.yul\":4288:4297   */\n      dup3\n        /* \"#utility.yul\":4284:4302   */\n      add\n        /* \"#utility.yul\":4276:4302   */\n      swap1\n      pop\n        /* \"#utility.yul\":4312:4383   */\n      tag_152\n        /* \"#utility.yul\":4380:4381   */\n      0x00\n        /* \"#utility.yul\":4369:4378   */\n      dup4\n        /* \"#utility.yul\":4365:4382   */\n      add\n        /* \"#utility.yul\":4356:4362   */\n      dup5\n        /* \"#utility.yul\":4312:4383   */\n      tag_124\n      jump\t// in\n    tag_152:\n        /* \"#utility.yul\":4168:4390   */\n      swap3\n      swap2\n      pop\n      pop\n      jump\t// out\n        /* \"#utility.yul\":4396:4815   */\n    tag_53:\n        /* \"#utility.yul\":4562:4566   */\n      0x00\n        /* \"#utility.yul\":4600:4602   */\n      0x20\n        /* \"#utility.yul\":4589:4598   */\n      dup3\n        /* \"#utility.yul\":4585:4603   */\n      add\n        /* \"#utility.yul\":4577:4603   */\n      swap1\n      pop\n        /* \"#utility.yul\":4649:4658   */\n      dup2\n        /* \"#utility.yul\":4643:4647   */\n      dup2\n        /* \"#utility.yul\":4639:4659   */\n      sub\n        /* \"#utility.yul\":4635:4636   */\n      0x00\n        /* \"#utility.yul\":4624:4633   */\n      dup4\n        /* \"#utility.yul\":4620:4637   */\n      add\n        /* \"#utility.yul\":4613:4660   */\n      mstore\n        /* \"#utility.yul\":4677:4808   */\n      tag_154\n        /* \"#utility.yul\":4803:4807   */\n      dup2\n        /* \"#utility.yul\":4677:4808   */\n      tag_128\n      jump\t// in\n    tag_154:\n        /* \"#utility.yul\":4669:4808   */\n      swap1\n      pop\n        /* \"#utility.yul\":4396:4815   */\n      swap2\n      swap1\n      pop\n      jump\t// out\n        /* \"#utility.yul\":4821:5240   */\n    tag_59:\n        /* \"#utility.yul\":4987:4991   */\n      0x00\n        /* \"#utility.yul\":5025:5027   */\n      0x20\n        /* \"#utility.yul\":5014:5023   */\n      dup3\n        /* \"#utility.yul\":5010:5028   */\n      add\n        /* \"#utility.yul\":5002:5028   */\n      swap1\n      pop\n        /* \"#utility.yul\":5074:5083   */\n      dup2\n        /* \"#utility.yul\":5068:5072   */\n      dup2\n        /* \"#utility.yul\":5064:5084   */\n      sub\n        /* \"#utility.yul\":5060:5061   */\n      0x00\n        /* \"#utility.yul\":5049:5058   */\n      dup4\n        /* \"#utility.yul\":5045:5062   */\n      add\n        /* \"#utility.yul\":5038:5085   */\n      mstore\n        /* \"#utility.yul\":5102:5233   */\n      tag_156\n        /* \"#utility.yul\":5228:5232   */\n      dup2\n        /* \"#utility.yul\":5102:5233   */\n      tag_134\n      jump\t// in\n    tag_156:\n        /* \"#utility.yul\":5094:5233   */\n      swap1\n      pop\n        /* \"#utility.yul\":4821:5240   */\n      swap2\n      swap1\n      pop\n      jump\t// out\n        /* \"#utility.yul\":5246:5468   */\n    tag_13:\n        /* \"#utility.yul\":5339:5343   */\n      0x00\n        /* \"#utility.yul\":5377:5379   */\n      0x20\n        /* \"#utility.yul\":5366:5375   */\n      dup3\n        /* \"#utility.yul\":5362:5380   */\n      add\n        /* \"#utility.yul\":5354:5380   */\n      swap1\n      pop\n        /* \"#utility.yul\":5390:5461   */\n      tag_158\n        /* \"#utility.yul\":5458:5459   */\n      0x00\n        /* \"#utility.yul\":5447:5456   */\n      dup4\n        /* \"#utility.yul\":5443:5460   */\n      add\n        /* \"#utility.yul\":5434:5440   */\n      dup5\n        /* \"#utility.yul\":5390:5461   */\n      tag_145\n      jump\t// in\n    tag_158:\n        /* \"#utility.yul\":5246:5468   */\n      swap3\n      swap2\n      pop\n      pop\n      jump\t// out\n        /* \"#utility.yul\":5555:5702   */\n    tag_142:\n        /* \"#utility.yul\":5656:5667   */\n      0x00\n        /* \"#utility.yul\":5693:5696   */\n      dup2\n        /* \"#utility.yul\":5678:5696   */\n      swap1\n      pop\n        /* \"#utility.yul\":5555:5702   */\n      swap3\n      swap2\n      pop\n      pop\n      jump\t// out\n        /* \"#utility.yul\":5708:5877   */\n    tag_131:\n        /* \"#utility.yul\":5792:5803   */\n      0x00\n        /* \"#utility.yul\":5826:5832   */\n      dup3\n        /* \"#utility.yul\":5821:5824   */\n      dup3\n        /* \"#utility.yul\":5814:5833   */\n      mstore\n        /* \"#utility.yul\":5866:5870   */\n      0x20\n        /* \"#utility.yul\":5861:5864   */\n      dup3\n        /* \"#utility.yul\":5857:5871   */\n      add\n        /* \"#utility.yul\":5842:5871   */\n      swap1\n      pop\n        /* \"#utility.yul\":5708:5877   */\n      swap3\n      swap2\n      pop\n      pop\n      jump\t// out\n        /* \"#utility.yul\":5883:6188   */\n    tag_62:\n        /* \"#utility.yul\":5923:5926   */\n      0x00\n        /* \"#utility.yul\":5942:5962   */\n      tag_164\n        /* \"#utility.yul\":5960:5961   */\n      dup3\n        /* \"#utility.yul\":5942:5962   */\n      tag_148\n      jump\t// in\n    tag_164:\n        /* \"#utility.yul\":5937:5962   */\n      swap2\n      pop\n        /* \"#utility.yul\":5976:5996   */\n      tag_165\n        /* \"#utility.yul\":5994:5995   */\n      dup4\n        /* \"#utility.yul\":5976:5996   */\n      tag_148\n      jump\t// in\n    tag_165:\n        /* \"#utility.yul\":5971:5996   */\n      swap3\n      pop\n        /* \"#utility.yul\":6130:6131   */\n      dup3\n        /* \"#utility.yul\":6062:6128   */\n      0xffffffffffffffffffffffffffffffffffffffffffffffffffffffffffffffff\n        /* \"#utility.yul\":6058:6132   */\n      sub\n        /* \"#utility.yul\":6055:6056   */\n      dup3\n        /* \"#utility.yul\":6052:6133   */\n      gt\n        /* \"#utility.yul\":6049:6156   */\n      iszero\n      tag_166\n      jumpi\n        /* \"#utility.yul\":6136:6154   */\n      tag_167\n      tag_168\n      jump\t// in\n    tag_167:\n        /* \"#utility.yul\":6049:6156   */\n    tag_166:\n        /* \"#utility.yul\":6180:6181   */\n      dup3\n        /* \"#utility.yul\":6177:6178   */\n      dup3\n        /* \"#utility.yul\":6173:6182   */\n      add\n        /* \"#utility.yul\":6166:6182   */\n      swap1\n      pop\n        /* \"#utility.yul\":5883:6188   */\n      swap3\n      swap2\n      pop\n      pop\n      jump\t// out\n        /* \"#utility.yul\":6194:6379   */\n    tag_71:\n        /* \"#utility.yul\":6234:6235   */\n      0x00\n        /* \"#utility.yul\":6251:6271   */\n      tag_170\n        /* \"#utility.yul\":6269:6270   */\n      dup3\n        /* \"#utility.yul\":6251:6271   */\n      tag_148\n      jump\t// in\n    tag_170:\n        /* \"#utility.yul\":6246:6271   */\n      swap2\n      pop\n        /* \"#utility.yul\":6285:6305   */\n      tag_171\n        /* \"#utility.yul\":6303:6304   */\n      dup4\n        /* \"#utility.yul\":6285:6305   */\n      tag_148\n      jump\t// in\n    tag_171:\n        /* \"#utility.yul\":6280:6305   */\n      swap3\n      pop\n        /* \"#utility.yul\":6324:6325   */\n      dup3\n        /* \"#utility.yul\":6314:6349   */\n      tag_172\n      jumpi\n        /* \"#utility.yul\":6329:6347   */\n      tag_173\n      tag_174\n      jump\t// in\n    tag_173:\n        /* \"#utility.yul\":6314:6349   */\n    tag_172:\n        /* \"#utility.yul\":6371:6372   */\n      dup3\n        /* \"#utility.yul\":6368:6369   */\n      dup3\n        /* \"#utility.yul\":6364:6373   */\n      div\n        /* \"#utility.yul\":6359:6373   */\n      swap1\n      pop\n        /* \"#utility.yul\":6194:6379   */\n      swap3\n      swap2\n      pop\n      pop\n      jump\t// out\n        /* \"#utility.yul\":6385:7376   */\n    tag_79:\n        /* \"#utility.yul\":6424:6431   */\n      0x00\n        /* \"#utility.yul\":6447:6466   */\n      tag_176\n        /* \"#utility.yul\":6464:6465   */\n      dup3\n        /* \"#utility.yul\":6447:6466   */\n      tag_177\n      jump\t// in\n    tag_176:\n        /* \"#utility.yul\":6442:6466   */\n      swap2\n      pop\n        /* \"#utility.yul\":6480:6499   */\n      tag_178\n        /* \"#utility.yul\":6497:6498   */\n      dup4\n        /* \"#utility.yul\":6480:6499   */\n      tag_177\n      jump\t// in\n    tag_178:\n        /* \"#utility.yul\":6475:6499   */\n      swap3\n      pop\n        /* \"#utility.yul\":6681:6682   */\n      dup3\n        /* \"#utility.yul\":6613:6679   */\n      0x7fffffffffffffffffffffffffffffffffffffffffffffffffffffffffffffff\n        /* \"#utility.yul\":6609:6683   */\n      div\n        /* \"#utility.yul\":6606:6607   */\n      dup3\n        /* \"#utility.yul\":6603:6684   */\n      gt\n        /* \"#utility.yul\":6598:6599   */\n      0x00\n        /* \"#utility.yul\":6595:6596   */\n      dup5\n        /* \"#utility.yul\":6591:6600   */\n      sgt\n        /* \"#utility.yul\":6587:6588   */\n      0x00\n        /* \"#utility.yul\":6584:6585   */\n      dup5\n        /* \"#utility.yul\":6580:6589   */\n      sgt\n        /* \"#utility.yul\":6576:6601   */\n      and\n        /* \"#utility.yul\":6572:6685   */\n      and\n        /* \"#utility.yul\":6569:6708   */\n      iszero\n      tag_179\n      jumpi\n        /* \"#utility.yul\":6688:6706   */\n      tag_180\n      tag_168\n      jump\t// in\n    tag_180:\n        /* \"#utility.yul\":6569:6708   */\n    tag_179:\n        /* \"#utility.yul\":6892:6893   */\n      dup2\n        /* \"#utility.yul\":6824:6890   */\n      0x8000000000000000000000000000000000000000000000000000000000000000\n        /* \"#utility.yul\":6819:6894   */\n      sdiv\n        /* \"#utility.yul\":6816:6817   */\n      dup4\n        /* \"#utility.yul\":6812:6895   */\n      slt\n        /* \"#utility.yul\":6807:6808   */\n      0x00\n        /* \"#utility.yul\":6804:6805   */\n      dup5\n        /* \"#utility.yul\":6800:6809   */\n      slt\n        /* \"#utility.yul\":6796:6797   */\n      0x00\n        /* \"#utility.yul\":6793:6794   */\n      dup5\n        /* \"#utility.yul\":6789:6798   */\n      sgt\n        /* \"#utility.yul\":6785:6810   */\n      and\n        /* \"#utility.yul\":6781:6896   */\n      and\n        /* \"#utility.yul\":6778:6919   */\n      iszero\n      tag_181\n      jumpi\n        /* \"#utility.yul\":6899:6917   */\n      tag_182\n      tag_168\n      jump\t// in\n    tag_182:\n        /* \"#utility.yul\":6778:6919   */\n    tag_181:\n        /* \"#utility.yul\":7103:7104   */\n      dup3\n        /* \"#utility.yul\":7035:7101   */\n      0x8000000000000000000000000000000000000000000000000000000000000000\n        /* \"#utility.yul\":7030:7105   */\n      sdiv\n        /* \"#utility.yul\":7027:7028   */\n      dup3\n        /* \"#utility.yul\":7023:7106   */\n      slt\n        /* \"#utility.yul\":7018:7019   */\n      0x00\n        /* \"#utility.yul\":7015:7016   */\n      dup5\n        /* \"#utility.yul\":7011:7020   */\n      sgt\n        /* \"#utility.yul\":7007:7008   */\n      0x00\n        /* \"#utility.yul\":7004:7005   */\n      dup5\n        /* \"#utility.yul\":7000:7009   */\n      slt\n        /* \"#utility.yul\":6996:7021   */\n      and\n        /* \"#utility.yul\":6992:7107   */\n      and\n        /* \"#utility.yul\":6989:7130   */\n      iszero\n      tag_183\n      jumpi\n        /* \"#utility.yul\":7110:7128   */\n      tag_184\n      tag_168\n      jump\t// in\n    tag_184:\n        /* \"#utility.yul\":6989:7130   */\n    tag_183:\n        /* \"#utility.yul\":7313:7314   */\n      dup3\n        /* \"#utility.yul\":7245:7311   */\n      0x7fffffffffffffffffffffffffffffffffffffffffffffffffffffffffffffff\n        /* \"#utility.yul\":7240:7315   */\n      sdiv\n        /* \"#utility.yul\":7237:7238   */\n      dup3\n        /* \"#utility.yul\":7233:7316   */\n      slt\n        /* \"#utility.yul\":7228:7229   */\n      0x00\n        /* \"#utility.yul\":7225:7226   */\n      dup5\n        /* \"#utility.yul\":7221:7230   */\n      slt\n        /* \"#utility.yul\":7217:7218   */\n      0x00\n        /* \"#utility.yul\":7214:7215   */\n      dup5\n        /* \"#utility.yul\":7210:7219   */\n      slt\n        /* \"#utility.yul\":7206:7231   */\n      and\n        /* \"#utility.yul\":7202:7317   */\n      and\n        /* \"#utility.yul\":7199:7340   */\n      iszero\n      tag_185\n      jumpi\n        /* \"#utility.yul\":7320:7338   */\n      tag_186\n      tag_168\n      jump\t// in\n    tag_186:\n        /* \"#utility.yul\":7199:7340   */\n    tag_185:\n        /* \"#utility.yul\":7368:7369   */\n      dup3\n        /* \"#utility.yul\":7365:7366   */\n      dup3\n        /* \"#utility.yul\":7361:7370   */\n      mul\n        /* \"#utility.yul\":7350:7370   */\n      swap1\n      pop\n        /* \"#utility.yul\":6385:7376   */\n      swap3\n      swap2\n      pop\n      pop\n      jump\t// out\n        /* \"#utility.yul\":7382:7730   */\n    tag_69:\n        /* \"#utility.yul\":7422:7429   */\n      0x00\n        /* \"#utility.yul\":7445:7465   */\n      tag_188\n        /* \"#utility.yul\":7463:7464   */\n      dup3\n        /* \"#utility.yul\":7445:7465   */\n      tag_148\n      jump\t// in\n    tag_188:\n        /* \"#utility.yul\":7440:7465   */\n      swap2\n      pop\n        /* \"#utility.yul\":7479:7499   */\n      tag_189\n        /* \"#utility.yul\":7497:7498   */\n      dup4\n        /* \"#utility.yul\":7479:7499   */\n      tag_148\n      jump\t// in\n    tag_189:\n        /* \"#utility.yul\":7474:7499   */\n      swap3\n      pop\n        /* \"#utility.yul\":7667:7668   */\n      dup2\n        /* \"#utility.yul\":7599:7665   */\n      0xffffffffffffffffffffffffffffffffffffffffffffffffffffffffffffffff\n        /* \"#utility.yul\":7595:7669   */\n      div\n        /* \"#utility.yul\":7592:7593   */\n      dup4\n        /* \"#utility.yul\":7589:7670   */\n      gt\n        /* \"#utility.yul\":7584:7585   */\n      dup3\n        /* \"#utility.yul\":7577:7586   */\n      iszero\n        /* \"#utility.yul\":7570:7587   */\n      iszero\n        /* \"#utility.yul\":7566:7671   */\n      and\n        /* \"#utility.yul\":7563:7694   */\n      iszero\n      tag_190\n      jumpi\n        /* \"#utility.yul\":7674:7692   */\n      tag_191\n      tag_168\n      jump\t// in\n    tag_191:\n        /* \"#utility.yul\":7563:7694   */\n    tag_190:\n        /* \"#utility.yul\":7722:7723   */\n      dup3\n        /* \"#utility.yul\":7719:7720   */\n      dup3\n        /* \"#utility.yul\":7715:7724   */\n      mul\n        /* \"#utility.yul\":7704:7724   */\n      swap1\n      pop\n        /* \"#utility.yul\":7382:7730   */\n      swap3\n      swap2\n      pop\n      pop\n      jump\t// out\n        /* \"#utility.yul\":7736:7832   */\n    tag_127:\n        /* \"#utility.yul\":7773:7780   */\n      0x00\n        /* \"#utility.yul\":7802:7826   */\n      tag_193\n        /* \"#utility.yul\":7820:7825   */\n      dup3\n        /* \"#utility.yul\":7802:7826   */\n      tag_194\n      jump\t// in\n    tag_193:\n        /* \"#utility.yul\":7791:7826   */\n      swap1\n      pop\n        /* \"#utility.yul\":7736:7832   */\n      swap2\n      swap1\n      pop\n      jump\t// out\n        /* \"#utility.yul\":7838:7914   */\n    tag_177:\n        /* \"#utility.yul\":7874:7881   */\n      0x00\n        /* \"#utility.yul\":7903:7908   */\n      dup2\n        /* \"#utility.yul\":7892:7908   */\n      swap1\n      pop\n        /* \"#utility.yul\":7838:7914   */\n      swap2\n      swap1\n      pop\n      jump\t// out\n        /* \"#utility.yul\":7920:8046   */\n    tag_194:\n        /* \"#utility.yul\":7957:7964   */\n      0x00\n        /* \"#utility.yul\":7997:8039   */\n      0xffffffffffffffffffffffffffffffffffffffff\n        /* \"#utility.yul\":7990:7995   */\n      dup3\n        /* \"#utility.yul\":7986:8040   */\n      and\n        /* \"#utility.yul\":7975:8040   */\n      swap1\n      pop\n        /* \"#utility.yul\":7920:8046   */\n      swap2\n      swap1\n      pop\n      jump\t// out\n        /* \"#utility.yul\":8052:8129   */\n    tag_148:\n        /* \"#utility.yul\":8089:8096   */\n      0x00\n        /* \"#utility.yul\":8118:8123   */\n      dup2\n        /* \"#utility.yul\":8107:8123   */\n      swap1\n      pop\n        /* \"#utility.yul\":8052:8129   */\n      swap2\n      swap1\n      pop\n      jump\t// out\n        /* \"#utility.yul\":8135:8221   */\n    tag_198:\n        /* \"#utility.yul\":8170:8177   */\n      0x00\n        /* \"#utility.yul\":8210:8214   */\n      0xff\n        /* \"#utility.yul\":8203:8208   */\n      dup3\n        /* \"#utility.yul\":8199:8215   */\n      and\n        /* \"#utility.yul\":8188:8215   */\n      swap1\n      pop\n        /* \"#utility.yul\":8135:8221   */\n      swap2\n      swap1\n      pop\n      jump\t// out\n        /* \"#utility.yul\":8227:8332   */\n    tag_200:\n        /* \"#utility.yul\":8263:8270   */\n      0x00\n        /* \"#utility.yul\":8303:8325   */\n      0xffffffffffffffffffff\n        /* \"#utility.yul\":8296:8301   */\n      dup3\n        /* \"#utility.yul\":8292:8326   */\n      and\n        /* \"#utility.yul\":8281:8326   */\n      swap1\n      pop\n        /* \"#utility.yul\":8227:8332   */\n      swap2\n      swap1\n      pop\n      jump\t// out\n        /* \"#utility.yul\":8338:8505   */\n    tag_39:\n        /* \"#utility.yul\":8375:8378   */\n      0x00\n        /* \"#utility.yul\":8398:8420   */\n      tag_203\n        /* \"#utility.yul\":8414:8419   */\n      dup3\n        /* \"#utility.yul\":8398:8420   */\n      tag_198\n      jump\t// in\n    tag_203:\n        /* \"#utility.yul\":8389:8420   */\n      swap2\n      pop\n        /* \"#utility.yul\":8442:8446   */\n      0xff\n        /* \"#utility.yul\":8435:8440   */\n      dup3\n        /* \"#utility.yul\":8432:8447   */\n      eq\n        /* \"#utility.yul\":8429:8470   */\n      iszero\n      tag_204\n      jumpi\n        /* \"#utility.yul\":8450:8468   */\n      tag_205\n      tag_168\n      jump\t// in\n    tag_205:\n        /* \"#utility.yul\":8429:8470   */\n    tag_204:\n        /* \"#utility.yul\":8497:8498   */\n      0x01\n        /* \"#utility.yul\":8490:8495   */\n      dup3\n        /* \"#utility.yul\":8486:8499   */\n      add\n        /* \"#utility.yul\":8479:8499   */\n      swap1\n      pop\n        /* \"#utility.yul\":8338:8505   */\n      swap2\n      swap1\n      pop\n      jump\t// out\n        /* \"#utility.yul\":8511:8691   */\n    tag_168:\n        /* \"#utility.yul\":8559:8636   */\n      0x4e487b7100000000000000000000000000000000000000000000000000000000\n        /* \"#utility.yul\":8556:8557   */\n      0x00\n        /* \"#utility.yul\":8549:8637   */\n      mstore\n        /* \"#utility.yul\":8656:8660   */\n      0x11\n        /* \"#utility.yul\":8653:8654   */\n      0x04\n        /* \"#utility.yul\":8646:8661   */\n      mstore\n        /* \"#utility.yul\":8680:8684   */\n      0x24\n        /* \"#utility.yul\":8677:8678   */\n      0x00\n        /* \"#utility.yul\":8670:8685   */\n      revert\n        /* \"#utility.yul\":8697:8877   */\n    tag_174:\n        /* \"#utility.yul\":8745:8822   */\n      0x4e487b7100000000000000000000000000000000000000000000000000000000\n        /* \"#utility.yul\":8742:8743   */\n      0x00\n        /* \"#utility.yul\":8735:8823   */\n      mstore\n        /* \"#utility.yul\":8842:8846   */\n      0x12\n        /* \"#utility.yul\":8839:8840   */\n      0x04\n        /* \"#utility.yul\":8832:8847   */\n      mstore\n        /* \"#utility.yul\":8866:8870   */\n      0x24\n        /* \"#utility.yul\":8863:8864   */\n      0x00\n        /* \"#utility.yul\":8856:8871   */\n      revert\n        /* \"#utility.yul\":8883:9063   */\n    tag_36:\n        /* \"#utility.yul\":8931:9008   */\n      0x4e487b7100000000000000000000000000000000000000000000000000000000\n        /* \"#utility.yul\":8928:8929   */\n      0x00\n        /* \"#utility.yul\":8921:9009   */\n      mstore\n        /* \"#utility.yul\":9028:9032   */\n      0x32\n        /* \"#utility.yul\":9025:9026   */\n      0x04\n        /* \"#utility.yul\":9018:9033   */\n      mstore\n        /* \"#utility.yul\":9052:9056   */\n      0x24\n        /* \"#utility.yul\":9049:9050   */\n      0x00\n        /* \"#utility.yul\":9042:9057   */\n      revert\n        /* \"#utility.yul\":9069:9249   */\n    tag_42:\n        /* \"#utility.yul\":9117:9194   */\n      0x4e487b7100000000000000000000000000000000000000000000000000000000\n        /* \"#utility.yul\":9114:9115   */\n      0x00\n        /* \"#utility.yul\":9107:9195   */\n      mstore\n        /* \"#utility.yul\":9214:9218   */\n      0x41\n        /* \"#utility.yul\":9211:9212   */\n      0x04\n        /* \"#utility.yul\":9204:9219   */\n      mstore\n        /* \"#utility.yul\":9238:9242   */\n      0x24\n        /* \"#utility.yul\":9235:9236   */\n      0x00\n        /* \"#utility.yul\":9228:9243   */\n      revert\n        /* \"#utility.yul\":9378:9495   */\n    tag_110:\n        /* \"#utility.yul\":9487:9488   */\n      0x00\n        /* \"#utility.yul\":9484:9485   */\n      dup1\n        /* \"#utility.yul\":9477:9489   */\n      revert\n        /* \"#utility.yul\":9501:9669   */\n    tag_133:\n        /* \"#utility.yul\":9641:9661   */\n      0x54686572652077617320616e206572726f720000000000000000000000000000\n        /* \"#utility.yul\":9637:9638   */\n      0x00\n        /* \"#utility.yul\":9629:9635   */\n      dup3\n        /* \"#utility.yul\":9625:9639   */\n      add\n        /* \"#utility.yul\":9618:9662   */\n      mstore\n        /* \"#utility.yul\":9501:9669   */\n      pop\n      jump\t// out\n        /* \"#utility.yul\":9675:9844   */\n    tag_138:\n        /* \"#utility.yul\":9815:9836   */\n      0x446964206e6f742073656e6420656e6f75676800000000000000000000000000\n        /* \"#utility.yul\":9811:9812   */\n      0x00\n        /* \"#utility.yul\":9803:9809   */\n      dup3\n        /* \"#utility.yul\":9799:9813   */\n      add\n        /* \"#utility.yul\":9792:9837   */\n      mstore\n        /* \"#utility.yul\":9675:9844   */\n      pop\n      jump\t// out\n        /* \"#utility.yul\":9850:9964   */\n    tag_144:\n      pop\n      jump\t// out\n        /* \"#utility.yul\":9970:10092   */\n    tag_91:\n        /* \"#utility.yul\":10043:10067   */\n      tag_217\n        /* \"#utility.yul\":10061:10066   */\n      dup2\n        /* \"#utility.yul\":10043:10067   */\n      tag_127\n      jump\t// in\n    tag_217:\n        /* \"#utility.yul\":10036:10041   */\n      dup2\n        /* \"#utility.yul\":10033:10068   */\n      eq\n        /* \"#utility.yul\":10023:10086   */\n      tag_218\n      jumpi\n        /* \"#utility.yul\":10082:10083   */\n      0x00\n        /* \"#utility.yul\":10079:10080   */\n      dup1\n        /* \"#utility.yul\":10072:10084   */\n      revert\n        /* \"#utility.yul\":10023:10086   */\n    tag_218:\n        /* \"#utility.yul\":9970:10092   */\n      pop\n      jump\t// out\n        /* \"#utility.yul\":10098:10218   */\n    tag_95:\n        /* \"#utility.yul\":10170:10193   */\n      tag_220\n        /* \"#utility.yul\":10187:10192   */\n      dup2\n        /* \"#utility.yul\":10170:10193   */\n      tag_177\n      jump\t// in\n    tag_220:\n        /* \"#utility.yul\":10163:10168   */\n      dup2\n        /* \"#utility.yul\":10160:10194   */\n      eq\n        /* \"#utility.yul\":10150:10212   */\n      tag_221\n      jumpi\n        /* \"#utility.yul\":10208:10209   */\n      0x00\n        /* \"#utility.yul\":10205:10206   */\n      dup1\n        /* \"#utility.yul\":10198:10210   */\n      revert\n        /* \"#utility.yul\":10150:10212   */\n    tag_221:\n        /* \"#utility.yul\":10098:10218   */\n      pop\n      jump\t// out\n        /* \"#utility.yul\":10224:10346   */\n    tag_99:\n        /* \"#utility.yul\":10297:10321   */\n      tag_223\n        /* \"#utility.yul\":10315:10320   */\n      dup2\n        /* \"#utility.yul\":10297:10321   */\n      tag_148\n      jump\t// in\n    tag_223:\n        /* \"#utility.yul\":10290:10295   */\n      dup2\n        /* \"#utility.yul\":10287:10322   */\n      eq\n        /* \"#utility.yul\":10277:10340   */\n      tag_224\n      jumpi\n        /* \"#utility.yul\":10336:10337   */\n      0x00\n        /* \"#utility.yul\":10333:10334   */\n      dup1\n        /* \"#utility.yul\":10326:10338   */\n      revert\n        /* \"#utility.yul\":10277:10340   */\n    tag_224:\n        /* \"#utility.yul\":10224:10346   */\n      pop\n      jump\t// out\n        /* \"#utility.yul\":10352:10472   */\n    tag_106:\n        /* \"#utility.yul\":10424:10447   */\n      tag_226\n        /* \"#utility.yul\":10441:10446   */\n      dup2\n        /* \"#utility.yul\":10424:10447   */\n      tag_200\n      jump\t// in\n    tag_226:\n        /* \"#utility.yul\":10417:10422   */\n      dup2\n        /* \"#utility.yul\":10414:10448   */\n      eq\n        /* \"#utility.yul\":10404:10466   */\n      tag_227\n      jumpi\n        /* \"#utility.yul\":10462:10463   */\n      0x00\n        /* \"#utility.yul\":10459:10460   */\n      dup1\n        /* \"#utility.yul\":10452:10464   */\n      revert\n        /* \"#utility.yul\":10404:10466   */\n    tag_227:\n        /* \"#utility.yul\":10352:10472   */\n      pop\n      jump\t// out\n\n    auxdata: 0xa26469706673582212209d730d7b0257eae13a09598939c20b6f4973b06054a2fd39bb05c1f0a35a359664736f6c63430008070033\n}\n",
				"bytecode": {
					"linkReferences": {},
					"object": "608060405234801561001057600080fd5b50610c69806100206000396000f3fe60806040526004361061004a5760003560e01c80632398fa151461004f5780633ccfd60b1461008c5780636b69a592146100a3578063b60d4288146100ce578063dc0d3dff146100d8575b600080fd5b34801561005b57600080fd5b5061007660048036038101906100719190610633565b610115565b60405161008391906107ff565b60405180910390f35b34801561009857600080fd5b506100a161012d565b005b3480156100af57600080fd5b506100b86102e8565b6040516100c591906107ff565b60405180910390f35b6100d66102f5565b005b3480156100e457600080fd5b506100ff60048036038101906100fa9190610660565b610403565b60405161010c91906107a4565b60405180910390f35b60016020528060005260406000206000915090505481565b60005b6000805490508160ff1610156101d857600060016000808460ff168154811061015c5761015b610b1f565b5b9060005260206000200160009054906101000a900473ffffffffffffffffffffffffffffffffffffffff1673ffffffffffffffffffffffffffffffffffffffff1673ffffffffffffffffffffffffffffffffffffffff1681526020019081526020016000208190555080806101d090610a97565b915050610130565b50600067ffffffffffffffff8111156101f4576101f3610b4e565b5b6040519080825280602002602001820160405280156102225781602001602082028036833780820191505090505b5060009080519060200190610238929190610523565b5060003373ffffffffffffffffffffffffffffffffffffffff164760405161025f9061078f565b60006040518083038185875af1925050503d806000811461029c576040519150601f19603f3d011682016040523d82523d6000602084013e6102a1565b606091505b50509050806102e5576040517f08c379a00000000000000000000000000000000000000000000000000000000081526004016102dc906107bf565b60405180910390fd5b50565b6802b5e3af16b188000081565b6802b5e3af16b188000061030834610442565b11610348576040517f08c379a000000000000000000000000000000000000000000000000000000000815260040161033f906107df565b60405180910390fd5b6000339080600181540180825580915050600190039060005260206000200160009091909190916101000a81548173ffffffffffffffffffffffffffffffffffffffff021916908373ffffffffffffffffffffffffffffffffffffffff16021790555034600160003373ffffffffffffffffffffffffffffffffffffffff1673ffffffffffffffffffffffffffffffffffffffff16815260200190815260200160002060008282546103fa9190610836565b92505081905550565b6000818154811061041357600080fd5b906000526020600020016000915054906101000a900473ffffffffffffffffffffffffffffffffffffffff1681565b6000670de0b6b3a764000082610456610471565b61046091906109d4565b61046a919061088c565b9050919050565b60008073d4a33860578de61dbabdc8bfdb98fd742fa7028e73ffffffffffffffffffffffffffffffffffffffff1663feaf968c6040518163ffffffff1660e01b815260040160a06040518083038186803b1580156104ce57600080fd5b505afa1580156104e2573d6000803e3d6000fd5b505050506040513d601f19601f82011682018060405250810190610506919061068d565b5050509150506402540be4008161051d91906108bd565b91505090565b82805482825590600052602060002090810192821561059c579160200282015b8281111561059b5782518260006101000a81548173ffffffffffffffffffffffffffffffffffffffff021916908373ffffffffffffffffffffffffffffffffffffffff16021790555091602001919060010190610543565b5b5090506105a991906105ad565b5090565b5b808211156105c65760008160009055506001016105ae565b5090565b6000813590506105d981610bd7565b92915050565b6000815190506105ee81610bee565b92915050565b60008135905061060381610c05565b92915050565b60008151905061061881610c05565b92915050565b60008151905061062d81610c1c565b92915050565b60006020828403121561064957610648610b7d565b5b6000610657848285016105ca565b91505092915050565b60006020828403121561067657610675610b7d565b5b6000610684848285016105f4565b91505092915050565b600080600080600060a086880312156106a9576106a8610b7d565b5b60006106b78882890161061e565b95505060206106c8888289016105df565b94505060406106d988828901610609565b93505060606106ea88828901610609565b92505060806106fb8882890161061e565b9150509295509295909350565b61071181610a2e565b82525050565b6000610724601283610825565b915061072f82610b82565b602082019050919050565b6000610747601383610825565b915061075282610bab565b602082019050919050565b600061076a60008361081a565b915061077582610bd4565b600082019050919050565b61078981610a6a565b82525050565b600061079a8261075d565b9150819050919050565b60006020820190506107b96000830184610708565b92915050565b600060208201905081810360008301526107d881610717565b9050919050565b600060208201905081810360008301526107f88161073a565b9050919050565b60006020820190506108146000830184610780565b92915050565b600081905092915050565b600082825260208201905092915050565b600061084182610a6a565b915061084c83610a6a565b9250827fffffffffffffffffffffffffffffffffffffffffffffffffffffffffffffffff0382111561088157610880610ac1565b5b828201905092915050565b600061089782610a6a565b91506108a283610a6a565b9250826108b2576108b1610af0565b5b828204905092915050565b60006108c882610a40565b91506108d383610a40565b9250827f7fffffffffffffffffffffffffffffffffffffffffffffffffffffffffffffff048211600084136000841316161561091257610911610ac1565b5b817f8000000000000000000000000000000000000000000000000000000000000000058312600084126000841316161561094f5761094e610ac1565b5b827f8000000000000000000000000000000000000000000000000000000000000000058212600084136000841216161561098c5761098b610ac1565b5b827f7fffffffffffffffffffffffffffffffffffffffffffffffffffffffffffffff05821260008412600084121616156109c9576109c8610ac1565b5b828202905092915050565b60006109df82610a6a565b91506109ea83610a6a565b9250817fffffffffffffffffffffffffffffffffffffffffffffffffffffffffffffffff0483118215151615610a2357610a22610ac1565b5b828202905092915050565b6000610a3982610a4a565b9050919050565b6000819050919050565b600073ffffffffffffffffffffffffffffffffffffffff82169050919050565b6000819050919050565b600060ff82169050919050565b600069ffffffffffffffffffff82169050919050565b6000610aa282610a74565b915060ff821415610ab657610ab5610ac1565b5b600182019050919050565b7f4e487b7100000000000000000000000000000000000000000000000000000000600052601160045260246000fd5b7f4e487b7100000000000000000000000000000000000000000000000000000000600052601260045260246000fd5b7f4e487b7100000000000000000000000000000000000000000000000000000000600052603260045260246000fd5b7f4e487b7100000000000000000000000000000000000000000000000000000000600052604160045260246000fd5b600080fd5b7f54686572652077617320616e206572726f720000000000000000000000000000600082015250565b7f446964206e6f742073656e6420656e6f75676800000000000000000000000000600082015250565b50565b610be081610a2e565b8114610beb57600080fd5b50565b610bf781610a40565b8114610c0257600080fd5b50565b610c0e81610a6a565b8114610c1957600080fd5b50565b610c2581610a81565b8114610c3057600080fd5b5056fea26469706673582212209d730d7b0257eae13a09598939c20b6f4973b06054a2fd39bb05c1f0a35a359664736f6c63430008070033",
					"opcodes": "PUSH1 0x80 PUSH1 0x40 MSTORE CALLVALUE DUP1 ISZERO PUSH2 0x10 JUMPI PUSH1 0x0 DUP1 REVERT JUMPDEST POP PUSH2 0xC69 DUP1 PUSH2 0x20 PUSH1 0x0 CODECOPY PUSH1 0x0 RETURN INVALID PUSH1 0x80 PUSH1 0x40 MSTORE PUSH1 0x4 CALLDATASIZE LT PUSH2 0x4A JUMPI PUSH1 0x0 CALLDATALOAD PUSH1 0xE0 SHR DUP1 PUSH4 0x2398FA15 EQ PUSH2 0x4F JUMPI DUP1 PUSH4 0x3CCFD60B EQ PUSH2 0x8C JUMPI DUP1 PUSH4 0x6B69A592 EQ PUSH2 0xA3 JUMPI DUP1 PUSH4 0xB60D4288 EQ PUSH2 0xCE JUMPI DUP1 PUSH4 0xDC0D3DFF EQ PUSH2 0xD8 JUMPI JUMPDEST PUSH1 0x0 DUP1 REVERT JUMPDEST CALLVALUE DUP1 ISZERO PUSH2 0x5B JUMPI PUSH1 0x0 DUP1 REVERT JUMPDEST POP PUSH2 0x76 PUSH1 0x4 DUP1 CALLDATASIZE SUB DUP2 ADD SWAP1 PUSH2 0x71 SWAP2 SWAP1 PUSH2 0x633 JUMP JUMPDEST PUSH2 0x115 JUMP JUMPDEST PUSH1 0x40 MLOAD PUSH2 0x83 SWAP2 SWAP1 PUSH2 0x7FF JUMP JUMPDEST PUSH1 0x40 MLOAD DUP1 SWAP2 SUB SWAP1 RETURN JUMPDEST CALLVALUE DUP1 ISZERO PUSH2 0x98 JUMPI PUSH1 0x0 DUP1 REVERT JUMPDEST POP PUSH2 0xA1 PUSH2 0x12D JUMP JUMPDEST STOP JUMPDEST CALLVALUE DUP1 ISZERO PUSH2 0xAF JUMPI PUSH1 0x0 DUP1 REVERT JUMPDEST POP PUSH2 0xB8 PUSH2 0x2E8 JUMP JUMPDEST PUSH1 0x40 MLOAD PUSH2 0xC5 SWAP2 SWAP1 PUSH2 0x7FF JUMP JUMPDEST PUSH1 0x40 MLOAD DUP1 SWAP2 SUB SWAP1 RETURN JUMPDEST PUSH2 0xD6 PUSH2 0x2F5 JUMP JUMPDEST STOP JUMPDEST CALLVALUE DUP1 ISZERO PUSH2 0xE4 JUMPI PUSH1 0x0 DUP1 REVERT JUMPDEST POP PUSH2 0xFF PUSH1 0x4 DUP1 CALLDATASIZE SUB DUP2 ADD SWAP1 PUSH2 0xFA SWAP2 SWAP1 PUSH2 0x660 JUMP JUMPDEST PUSH2 0x403 JUMP JUMPDEST PUSH1 0x40 MLOAD PUSH2 0x10C SWAP2 SWAP1 PUSH2 0x7A4 JUMP JUMPDEST PUSH1 0x40 MLOAD DUP1 SWAP2 SUB SWAP1 RETURN JUMPDEST PUSH1 0x1 PUSH1 0x20 MSTORE DUP1 PUSH1 0x0 MSTORE PUSH1 0x40 PUSH1 0x0 KECCAK256 PUSH1 0x0 SWAP2 POP SWAP1 POP SLOAD DUP2 JUMP JUMPDEST PUSH1 0x0 JUMPDEST PUSH1 0x0 DUP1 SLOAD SWAP1 POP DUP2 PUSH1 0xFF AND LT ISZERO PUSH2 0x1D8 JUMPI PUSH1 0x0 PUSH1 0x1 PUSH1 0x0 DUP1 DUP5 PUSH1 0xFF AND DUP2 SLOAD DUP2 LT PUSH2 0x15C JUMPI PUSH2 0x15B PUSH2 0xB1F JUMP JUMPDEST JUMPDEST SWAP1 PUSH1 0x0 MSTORE PUSH1 0x20 PUSH1 0x0 KECCAK256 ADD PUSH1 0x0 SWAP1 SLOAD SWAP1 PUSH2 0x100 EXP SWAP1 DIV PUSH20 0xFFFFFFFFFFFFFFFFFFFFFFFFFFFFFFFFFFFFFFFF AND PUSH20 0xFFFFFFFFFFFFFFFFFFFFFFFFFFFFFFFFFFFFFFFF AND PUSH20 0xFFFFFFFFFFFFFFFFFFFFFFFFFFFFFFFFFFFFFFFF AND DUP2 MSTORE PUSH1 0x20 ADD SWAP1 DUP2 MSTORE PUSH1 0x20 ADD PUSH1 0x0 KECCAK256 DUP2 SWAP1 SSTORE POP DUP1 DUP1 PUSH2 0x1D0 SWAP1 PUSH2 0xA97 JUMP JUMPDEST SWAP2 POP POP PUSH2 0x130 JUMP JUMPDEST POP PUSH1 0x0 PUSH8 0xFFFFFFFFFFFFFFFF DUP2 GT ISZERO PUSH2 0x1F4 JUMPI PUSH2 0x1F3 PUSH2 0xB4E JUMP JUMPDEST JUMPDEST PUSH1 0x40 MLOAD SWAP1 DUP1 DUP3 MSTORE DUP1 PUSH1 0x20 MUL PUSH1 0x20 ADD DUP3 ADD PUSH1 0x40 MSTORE DUP1 ISZERO PUSH2 0x222 JUMPI DUP2 PUSH1 0x20 ADD PUSH1 0x20 DUP3 MUL DUP1 CALLDATASIZE DUP4 CALLDATACOPY DUP1 DUP3 ADD SWAP2 POP POP SWAP1 POP JUMPDEST POP PUSH1 0x0 SWAP1 DUP1 MLOAD SWAP1 PUSH1 0x20 ADD SWAP1 PUSH2 0x238 SWAP3 SWAP2 SWAP1 PUSH2 0x523 JUMP JUMPDEST POP PUSH1 0x0 CALLER PUSH20 0xFFFFFFFFFFFFFFFFFFFFFFFFFFFFFFFFFFFFFFFF AND SELFBALANCE PUSH1 0x40 MLOAD PUSH2 0x25F SWAP1 PUSH2 0x78F JUMP JUMPDEST PUSH1 0x0 PUSH1 0x40 MLOAD DUP1 DUP4 SUB DUP2 DUP6 DUP8 GAS CALL SWAP3 POP POP POP RETURNDATASIZE DUP1 PUSH1 0x0 DUP2 EQ PUSH2 0x29C JUMPI PUSH1 0x40 MLOAD SWAP2 POP PUSH1 0x1F NOT PUSH1 0x3F RETURNDATASIZE ADD AND DUP3 ADD PUSH1 0x40 MSTORE RETURNDATASIZE DUP3 MSTORE RETURNDATASIZE PUSH1 0x0 PUSH1 0x20 DUP5 ADD RETURNDATACOPY PUSH2 0x2A1 JUMP JUMPDEST PUSH1 0x60 SWAP2 POP JUMPDEST POP POP SWAP1 POP DUP1 PUSH2 0x2E5 JUMPI PUSH1 0x40 MLOAD PUSH32 0x8C379A000000000000000000000000000000000000000000000000000000000 DUP2 MSTORE PUSH1 0x4 ADD PUSH2 0x2DC SWAP1 PUSH2 0x7BF JUMP JUMPDEST PUSH1 0x40 MLOAD DUP1 SWAP2 SUB SWAP1 REVERT JUMPDEST POP JUMP JUMPDEST PUSH9 0x2B5E3AF16B1880000 DUP2 JUMP JUMPDEST PUSH9 0x2B5E3AF16B1880000 PUSH2 0x308 CALLVALUE PUSH2 0x442 JUMP JUMPDEST GT PUSH2 0x348 JUMPI PUSH1 0x40 MLOAD PUSH32 0x8C379A000000000000000000000000000000000000000000000000000000000 DUP2 MSTORE PUSH1 0x4 ADD PUSH2 0x33F SWAP1 PUSH2 0x7DF JUMP JUMPDEST PUSH1 0x40 MLOAD DUP1 SWAP2 SUB SWAP1 REVERT JUMPDEST PUSH1 0x0 CALLER SWAP1 DUP1 PUSH1 0x1 DUP2 SLOAD ADD DUP1 DUP3 SSTORE DUP1 SWAP2 POP POP PUSH1 0x1 SWAP1 SUB SWAP1 PUSH1 0x0 MSTORE PUSH1 0x20 PUSH1 0x0 KECCAK256 ADD PUSH1 0x0 SWAP1 SWAP2 SWAP1 SWAP2 SWAP1 SWAP2 PUSH2 0x100 EXP DUP2 SLOAD DUP2 PUSH20 0xFFFFFFFFFFFFFFFFFFFFFFFFFFFFFFFFFFFFFFFF MUL NOT AND SWAP1 DUP4 PUSH20 0xFFFFFFFFFFFFFFFFFFFFFFFFFFFFFFFFFFFFFFFF AND MUL OR SWAP1 SSTORE POP CALLVALUE PUSH1 0x1 PUSH1 0x0 CALLER PUSH20 0xFFFFFFFFFFFFFFFFFFFFFFFFFFFFFFFFFFFFFFFF AND PUSH20 0xFFFFFFFFFFFFFFFFFFFFFFFFFFFFFFFFFFFFFFFF AND DUP2 MSTORE PUSH1 0x20 ADD SWAP1 DUP2 MSTORE PUSH1 0x20 ADD PUSH1 0x0 KECCAK256 PUSH1 0x0 DUP3 DUP3 SLOAD PUSH2 0x3FA SWAP2 SWAP1 PUSH2 0x836 JUMP JUMPDEST SWAP3 POP POP DUP2 SWAP1 SSTORE POP JUMP JUMPDEST PUSH1 0x0 DUP2 DUP2 SLOAD DUP2 LT PUSH2 0x413 JUMPI PUSH1 0x0 DUP1 REVERT JUMPDEST SWAP1 PUSH1 0x0 MSTORE PUSH1 0x20 PUSH1 0x0 KECCAK256 ADD PUSH1 0x0 SWAP2 POP SLOAD SWAP1 PUSH2 0x100 EXP SWAP1 DIV PUSH20 0xFFFFFFFFFFFFFFFFFFFFFFFFFFFFFFFFFFFFFFFF AND DUP2 JUMP JUMPDEST PUSH1 0x0 PUSH8 0xDE0B6B3A7640000 DUP3 PUSH2 0x456 PUSH2 0x471 JUMP JUMPDEST PUSH2 0x460 SWAP2 SWAP1 PUSH2 0x9D4 JUMP JUMPDEST PUSH2 0x46A SWAP2 SWAP1 PUSH2 0x88C JUMP JUMPDEST SWAP1 POP SWAP2 SWAP1 POP JUMP JUMPDEST PUSH1 0x0 DUP1 PUSH20 0xD4A33860578DE61DBABDC8BFDB98FD742FA7028E PUSH20 0xFFFFFFFFFFFFFFFFFFFFFFFFFFFFFFFFFFFFFFFF AND PUSH4 0xFEAF968C PUSH1 0x40 MLOAD DUP2 PUSH4 0xFFFFFFFF AND PUSH1 0xE0 SHL DUP2 MSTORE PUSH1 0x4 ADD PUSH1 0xA0 PUSH1 0x40 MLOAD DUP1 DUP4 SUB DUP2 DUP7 DUP1 EXTCODESIZE ISZERO DUP1 ISZERO PUSH2 0x4CE JUMPI PUSH1 0x0 DUP1 REVERT JUMPDEST POP GAS STATICCALL ISZERO DUP1 ISZERO PUSH2 0x4E2 JUMPI RETURNDATASIZE PUSH1 0x0 DUP1 RETURNDATACOPY RETURNDATASIZE PUSH1 0x0 REVERT JUMPDEST POP POP POP POP PUSH1 0x40 MLOAD RETURNDATASIZE PUSH1 0x1F NOT PUSH1 0x1F DUP3 ADD AND DUP3 ADD DUP1 PUSH1 0x40 MSTORE POP DUP2 ADD SWAP1 PUSH2 0x506 SWAP2 SWAP1 PUSH2 0x68D JUMP JUMPDEST POP POP POP SWAP2 POP POP PUSH5 0x2540BE400 DUP2 PUSH2 0x51D SWAP2 SWAP1 PUSH2 0x8BD JUMP JUMPDEST SWAP2 POP POP SWAP1 JUMP JUMPDEST DUP3 DUP1 SLOAD DUP3 DUP3 SSTORE SWAP1 PUSH1 0x0 MSTORE PUSH1 0x20 PUSH1 0x0 KECCAK256 SWAP1 DUP2 ADD SWAP3 DUP3 ISZERO PUSH2 0x59C JUMPI SWAP2 PUSH1 0x20 MUL DUP3 ADD JUMPDEST DUP3 DUP2 GT ISZERO PUSH2 0x59B JUMPI DUP3 MLOAD DUP3 PUSH1 0x0 PUSH2 0x100 EXP DUP2 SLOAD DUP2 PUSH20 0xFFFFFFFFFFFFFFFFFFFFFFFFFFFFFFFFFFFFFFFF MUL NOT AND SWAP1 DUP4 PUSH20 0xFFFFFFFFFFFFFFFFFFFFFFFFFFFFFFFFFFFFFFFF AND MUL OR SWAP1 SSTORE POP SWAP2 PUSH1 0x20 ADD SWAP2 SWAP1 PUSH1 0x1 ADD SWAP1 PUSH2 0x543 JUMP JUMPDEST JUMPDEST POP SWAP1 POP PUSH2 0x5A9 SWAP2 SWAP1 PUSH2 0x5AD JUMP JUMPDEST POP SWAP1 JUMP JUMPDEST JUMPDEST DUP1 DUP3 GT ISZERO PUSH2 0x5C6 JUMPI PUSH1 0x0 DUP2 PUSH1 0x0 SWAP1 SSTORE POP PUSH1 0x1 ADD PUSH2 0x5AE JUMP JUMPDEST POP SWAP1 JUMP JUMPDEST PUSH1 0x0 DUP2 CALLDATALOAD SWAP1 POP PUSH2 0x5D9 DUP2 PUSH2 0xBD7 JUMP JUMPDEST SWAP3 SWAP2 POP POP JUMP JUMPDEST PUSH1 0x0 DUP2 MLOAD SWAP1 POP PUSH2 0x5EE DUP2 PUSH2 0xBEE JUMP JUMPDEST SWAP3 SWAP2 POP POP JUMP JUMPDEST PUSH1 0x0 DUP2 CALLDATALOAD SWAP1 POP PUSH2 0x603 DUP2 PUSH2 0xC05 JUMP JUMPDEST SWAP3 SWAP2 POP POP JUMP JUMPDEST PUSH1 0x0 DUP2 MLOAD SWAP1 POP PUSH2 0x618 DUP2 PUSH2 0xC05 JUMP JUMPDEST SWAP3 SWAP2 POP POP JUMP JUMPDEST PUSH1 0x0 DUP2 MLOAD SWAP1 POP PUSH2 0x62D DUP2 PUSH2 0xC1C JUMP JUMPDEST SWAP3 SWAP2 POP POP JUMP JUMPDEST PUSH1 0x0 PUSH1 0x20 DUP3 DUP5 SUB SLT ISZERO PUSH2 0x649 JUMPI PUSH2 0x648 PUSH2 0xB7D JUMP JUMPDEST JUMPDEST PUSH1 0x0 PUSH2 0x657 DUP5 DUP3 DUP6 ADD PUSH2 0x5CA JUMP JUMPDEST SWAP2 POP POP SWAP3 SWAP2 POP POP JUMP JUMPDEST PUSH1 0x0 PUSH1 0x20 DUP3 DUP5 SUB SLT ISZERO PUSH2 0x676 JUMPI PUSH2 0x675 PUSH2 0xB7D JUMP JUMPDEST JUMPDEST PUSH1 0x0 PUSH2 0x684 DUP5 DUP3 DUP6 ADD PUSH2 0x5F4 JUMP JUMPDEST SWAP2 POP POP SWAP3 SWAP2 POP POP JUMP JUMPDEST PUSH1 0x0 DUP1 PUSH1 0x0 DUP1 PUSH1 0x0 PUSH1 0xA0 DUP7 DUP9 SUB SLT ISZERO PUSH2 0x6A9 JUMPI PUSH2 0x6A8 PUSH2 0xB7D JUMP JUMPDEST JUMPDEST PUSH1 0x0 PUSH2 0x6B7 DUP9 DUP3 DUP10 ADD PUSH2 0x61E JUMP JUMPDEST SWAP6 POP POP PUSH1 0x20 PUSH2 0x6C8 DUP9 DUP3 DUP10 ADD PUSH2 0x5DF JUMP JUMPDEST SWAP5 POP POP PUSH1 0x40 PUSH2 0x6D9 DUP9 DUP3 DUP10 ADD PUSH2 0x609 JUMP JUMPDEST SWAP4 POP POP PUSH1 0x60 PUSH2 0x6EA DUP9 DUP3 DUP10 ADD PUSH2 0x609 JUMP JUMPDEST SWAP3 POP POP PUSH1 0x80 PUSH2 0x6FB DUP9 DUP3 DUP10 ADD PUSH2 0x61E JUMP JUMPDEST SWAP2 POP POP SWAP3 SWAP6 POP SWAP3 SWAP6 SWAP1 SWAP4 POP JUMP JUMPDEST PUSH2 0x711 DUP2 PUSH2 0xA2E JUMP JUMPDEST DUP3 MSTORE POP POP JUMP JUMPDEST PUSH1 0x0 PUSH2 0x724 PUSH1 0x12 DUP4 PUSH2 0x825 JUMP JUMPDEST SWAP2 POP PUSH2 0x72F DUP3 PUSH2 0xB82 JUMP JUMPDEST PUSH1 0x20 DUP3 ADD SWAP1 POP SWAP2 SWAP1 POP JUMP JUMPDEST PUSH1 0x0 PUSH2 0x747 PUSH1 0x13 DUP4 PUSH2 0x825 JUMP JUMPDEST SWAP2 POP PUSH2 0x752 DUP3 PUSH2 0xBAB JUMP JUMPDEST PUSH1 0x20 DUP3 ADD SWAP1 POP SWAP2 SWAP1 POP JUMP JUMPDEST PUSH1 0x0 PUSH2 0x76A PUSH1 0x0 DUP4 PUSH2 0x81A JUMP JUMPDEST SWAP2 POP PUSH2 0x775 DUP3 PUSH2 0xBD4 JUMP JUMPDEST PUSH1 0x0 DUP3 ADD SWAP1 POP SWAP2 SWAP1 POP JUMP JUMPDEST PUSH2 0x789 DUP2 PUSH2 0xA6A JUMP JUMPDEST DUP3 MSTORE POP POP JUMP JUMPDEST PUSH1 0x0 PUSH2 0x79A DUP3 PUSH2 0x75D JUMP JUMPDEST SWAP2 POP DUP2 SWAP1 POP SWAP2 SWAP1 POP JUMP JUMPDEST PUSH1 0x0 PUSH1 0x20 DUP3 ADD SWAP1 POP PUSH2 0x7B9 PUSH1 0x0 DUP4 ADD DUP5 PUSH2 0x708 JUMP JUMPDEST SWAP3 SWAP2 POP POP JUMP JUMPDEST PUSH1 0x0 PUSH1 0x20 DUP3 ADD SWAP1 POP DUP2 DUP2 SUB PUSH1 0x0 DUP4 ADD MSTORE PUSH2 0x7D8 DUP2 PUSH2 0x717 JUMP JUMPDEST SWAP1 POP SWAP2 SWAP1 POP JUMP JUMPDEST PUSH1 0x0 PUSH1 0x20 DUP3 ADD SWAP1 POP DUP2 DUP2 SUB PUSH1 0x0 DUP4 ADD MSTORE PUSH2 0x7F8 DUP2 PUSH2 0x73A JUMP JUMPDEST SWAP1 POP SWAP2 SWAP1 POP JUMP JUMPDEST PUSH1 0x0 PUSH1 0x20 DUP3 ADD SWAP1 POP PUSH2 0x814 PUSH1 0x0 DUP4 ADD DUP5 PUSH2 0x780 JUMP JUMPDEST SWAP3 SWAP2 POP POP JUMP JUMPDEST PUSH1 0x0 DUP2 SWAP1 POP SWAP3 SWAP2 POP POP JUMP JUMPDEST PUSH1 0x0 DUP3 DUP3 MSTORE PUSH1 0x20 DUP3 ADD SWAP1 POP SWAP3 SWAP2 POP POP JUMP JUMPDEST PUSH1 0x0 PUSH2 0x841 DUP3 PUSH2 0xA6A JUMP JUMPDEST SWAP2 POP PUSH2 0x84C DUP4 PUSH2 0xA6A JUMP JUMPDEST SWAP3 POP DUP3 PUSH32 0xFFFFFFFFFFFFFFFFFFFFFFFFFFFFFFFFFFFFFFFFFFFFFFFFFFFFFFFFFFFFFFFF SUB DUP3 GT ISZERO PUSH2 0x881 JUMPI PUSH2 0x880 PUSH2 0xAC1 JUMP JUMPDEST JUMPDEST DUP3 DUP3 ADD SWAP1 POP SWAP3 SWAP2 POP POP JUMP JUMPDEST PUSH1 0x0 PUSH2 0x897 DUP3 PUSH2 0xA6A JUMP JUMPDEST SWAP2 POP PUSH2 0x8A2 DUP4 PUSH2 0xA6A JUMP JUMPDEST SWAP3 POP DUP3 PUSH2 0x8B2 JUMPI PUSH2 0x8B1 PUSH2 0xAF0 JUMP JUMPDEST JUMPDEST DUP3 DUP3 DIV SWAP1 POP SWAP3 SWAP2 POP POP JUMP JUMPDEST PUSH1 0x0 PUSH2 0x8C8 DUP3 PUSH2 0xA40 JUMP JUMPDEST SWAP2 POP PUSH2 0x8D3 DUP4 PUSH2 0xA40 JUMP JUMPDEST SWAP3 POP DUP3 PUSH32 0x7FFFFFFFFFFFFFFFFFFFFFFFFFFFFFFFFFFFFFFFFFFFFFFFFFFFFFFFFFFFFFFF DIV DUP3 GT PUSH1 0x0 DUP5 SGT PUSH1 0x0 DUP5 SGT AND AND ISZERO PUSH2 0x912 JUMPI PUSH2 0x911 PUSH2 0xAC1 JUMP JUMPDEST JUMPDEST DUP2 PUSH32 0x8000000000000000000000000000000000000000000000000000000000000000 SDIV DUP4 SLT PUSH1 0x0 DUP5 SLT PUSH1 0x0 DUP5 SGT AND AND ISZERO PUSH2 0x94F JUMPI PUSH2 0x94E PUSH2 0xAC1 JUMP JUMPDEST JUMPDEST DUP3 PUSH32 0x8000000000000000000000000000000000000000000000000000000000000000 SDIV DUP3 SLT PUSH1 0x0 DUP5 SGT PUSH1 0x0 DUP5 SLT AND AND ISZERO PUSH2 0x98C JUMPI PUSH2 0x98B PUSH2 0xAC1 JUMP JUMPDEST JUMPDEST DUP3 PUSH32 0x7FFFFFFFFFFFFFFFFFFFFFFFFFFFFFFFFFFFFFFFFFFFFFFFFFFFFFFFFFFFFFFF SDIV DUP3 SLT PUSH1 0x0 DUP5 SLT PUSH1 0x0 DUP5 SLT AND AND ISZERO PUSH2 0x9C9 JUMPI PUSH2 0x9C8 PUSH2 0xAC1 JUMP JUMPDEST JUMPDEST DUP3 DUP3 MUL SWAP1 POP SWAP3 SWAP2 POP POP JUMP JUMPDEST PUSH1 0x0 PUSH2 0x9DF DUP3 PUSH2 0xA6A JUMP JUMPDEST SWAP2 POP PUSH2 0x9EA DUP4 PUSH2 0xA6A JUMP JUMPDEST SWAP3 POP DUP2 PUSH32 0xFFFFFFFFFFFFFFFFFFFFFFFFFFFFFFFFFFFFFFFFFFFFFFFFFFFFFFFFFFFFFFFF DIV DUP4 GT DUP3 ISZERO ISZERO AND ISZERO PUSH2 0xA23 JUMPI PUSH2 0xA22 PUSH2 0xAC1 JUMP JUMPDEST JUMPDEST DUP3 DUP3 MUL SWAP1 POP SWAP3 SWAP2 POP POP JUMP JUMPDEST PUSH1 0x0 PUSH2 0xA39 DUP3 PUSH2 0xA4A JUMP JUMPDEST SWAP1 POP SWAP2 SWAP1 POP JUMP JUMPDEST PUSH1 0x0 DUP2 SWAP1 POP SWAP2 SWAP1 POP JUMP JUMPDEST PUSH1 0x0 PUSH20 0xFFFFFFFFFFFFFFFFFFFFFFFFFFFFFFFFFFFFFFFF DUP3 AND SWAP1 POP SWAP2 SWAP1 POP JUMP JUMPDEST PUSH1 0x0 DUP2 SWAP1 POP SWAP2 SWAP1 POP JUMP JUMPDEST PUSH1 0x0 PUSH1 0xFF DUP3 AND SWAP1 POP SWAP2 SWAP1 POP JUMP JUMPDEST PUSH1 0x0 PUSH10 0xFFFFFFFFFFFFFFFFFFFF DUP3 AND SWAP1 POP SWAP2 SWAP1 POP JUMP JUMPDEST PUSH1 0x0 PUSH2 0xAA2 DUP3 PUSH2 0xA74 JUMP JUMPDEST SWAP2 POP PUSH1 0xFF DUP3 EQ ISZERO PUSH2 0xAB6 JUMPI PUSH2 0xAB5 PUSH2 0xAC1 JUMP JUMPDEST JUMPDEST PUSH1 0x1 DUP3 ADD SWAP1 POP SWAP2 SWAP1 POP JUMP JUMPDEST PUSH32 0x4E487B7100000000000000000000000000000000000000000000000000000000 PUSH1 0x0 MSTORE PUSH1 0x11 PUSH1 0x4 MSTORE PUSH1 0x24 PUSH1 0x0 REVERT JUMPDEST PUSH32 0x4E487B7100000000000000000000000000000000000000000000000000000000 PUSH1 0x0 MSTORE PUSH1 0x12 PUSH1 0x4 MSTORE PUSH1 0x24 PUSH1 0x0 REVERT JUMPDEST PUSH32 0x4E487B7100000000000000000000000000000000000000000000000000000000 PUSH1 0x0 MSTORE PUSH1 0x32 PUSH1 0x4 MSTORE PUSH1 0x24 PUSH1 0x0 REVERT JUMPDEST PUSH32 0x4E487B7100000000000000000000000000000000000000000000000000000000 PUSH1 0x0 MSTORE PUSH1 0x41 PUSH1 0x4 MSTORE PUSH1 0x24 PUSH1 0x0 REVERT JUMPDEST PUSH1 0x0 DUP1 REVERT JUMPDEST PUSH32 0x54686572652077617320616E206572726F720000000000000000000000000000 PUSH1 0x0 DUP3 ADD MSTORE POP JUMP JUMPDEST PUSH32 0x446964206E6F742073656E6420656E6F75676800000000000000000000000000 PUSH1 0x0 DUP3 ADD MSTORE POP JUMP JUMPDEST POP JUMP JUMPDEST PUSH2 0xBE0 DUP2 PUSH2 0xA2E JUMP JUMPDEST DUP2 EQ PUSH2 0xBEB JUMPI PUSH1 0x0 DUP1 REVERT JUMPDEST POP JUMP JUMPDEST PUSH2 0xBF7 DUP2 PUSH2 0xA40 JUMP JUMPDEST DUP2 EQ PUSH2 0xC02 JUMPI PUSH1 0x0 DUP1 REVERT JUMPDEST POP JUMP JUMPDEST PUSH2 0xC0E DUP2 PUSH2 0xA6A JUMP JUMPDEST DUP2 EQ PUSH2 0xC19 JUMPI PUSH1 0x0 DUP1 REVERT JUMPDEST POP JUMP JUMPDEST PUSH2 0xC25 DUP2 PUSH2 0xA81 JUMP JUMPDEST DUP2 EQ PUSH2 0xC30 JUMPI PUSH1 0x0 DUP1 REVERT JUMPDEST POP JUMP INVALID LOG2 PUSH5 0x6970667358 0x22 SLT KECCAK256 SWAP14 PUSH20 0xD7B0257EAE13A09598939C20B6F4973B06054A2 REVERT CODECOPY 0xBB SDIV 0xC1 CREATE LOG3 GAS CALLDATALOAD SWAP7 PUSH5 0x736F6C6343 STOP ADDMOD SMOD STOP CALLER "
				},
				"gasEstimates": {
					"creation": {
						"codeDepositCost": "635400",
						"executionCost": "670",
						"totalCost": "636070"
					},
					"external": {
						"MINIMUM_USD()": "351",
						"addressToamountFunded(address)": "2792",
						"fund()": "infinite",
						"funders(uint256)": "5022",
						"withdraw()": "infinite"
					}
				},
				"methodIdentifiers": {
					"MINIMUM_USD()": "6b69a592",
					"addressToamountFunded(address)": "2398fa15",
					"fund()": "b60d4288",
					"funders(uint256)": "dc0d3dff",
					"withdraw()": "3ccfd60b"
				}
			},
			"storageLayout": {
				"storage": [
					{
						"astId": 59,
						"contract": "contracts/FundMe.sol:FundMe",
						"label": "funders",
						"offset": 0,
						"slot": "0",
						"type": "t_array(t_address)dyn_storage"
					},
					{
						"astId": 63,
						"contract": "contracts/FundMe.sol:FundMe",
						"label": "addressToamountFunded",
						"offset": 0,
						"slot": "1",
						"type": "t_mapping(t_address,t_uint256)"
					}
				],
				"types": {
					"t_address": {
						"encoding": "inplace",
						"label": "address",
						"numberOfBytes": "20"
					},
					"t_array(t_address)dyn_storage": {
						"base": "t_address",
						"encoding": "dynamic_array",
						"label": "address[]",
						"numberOfBytes": "32"
					},
					"t_mapping(t_address,t_uint256)": {
						"encoding": "mapping",
						"key": "t_address",
						"label": "mapping(address => uint256)",
						"numberOfBytes": "32",
						"value": "t_uint256"
					},
					"t_uint256": {
						"encoding": "inplace",
						"label": "uint256",
						"numberOfBytes": "32"
					}
				}
			},
			"userdoc": {
				"kind": "user",
				"methods": {},
				"version": 1
			}
		}
	}
}