{
	"contracts/FundMe.sol": {
		"FundMe": {
			"abi": [
				{
					"inputs": [],
					"name": "MINIMUM_USD",
					"outputs": [
						{
							"internalType": "uint256",
							"name": "",
							"type": "uint256"
						}
					],
					"stateMutability": "view",
					"type": "function"
				},
				{
					"inputs": [
						{
							"internalType": "address",
							"name": "",
							"type": "address"
						}
					],
					"name": "addressToamountFunded",
					"outputs": [
						{
							"internalType": "uint256",
							"name": "",
							"type": "uint256"
						}
					],
					"stateMutability": "view",
					"type": "function"
				},
				{
					"inputs": [],
					"name": "fund",
					"outputs": [],
					"stateMutability": "payable",
					"type": "function"
				},
				{
					"inputs": [
						{
							"internalType": "uint256",
							"name": "",
							"type": "uint256"
						}
					],
					"name": "funders",
					"outputs": [
						{
							"internalType": "address",
							"name": "",
							"type": "address"
						}
					],
					"stateMutability": "view",
					"type": "function"
				},
				{
					"inputs": [],
					"name": "withdraw",
					"outputs": [],
					"stateMutability": "nonpayable",
					"type": "function"
				}
			],
			"devdoc": {
				"kind": "dev",
				"methods": {},
				"version": 1
			},
			"evm": {
				"assembly": "    /* \"contracts/FundMe.sol\":89:789  contract FundMe{... */\n  mstore(0x40, 0x80)\n  callvalue\n  dup1\n  iszero\n  tag_1\n  jumpi\n  0x00\n  dup1\n  revert\ntag_1:\n  pop\n  dataSize(sub_0)\n  dup1\n  dataOffset(sub_0)\n  0x00\n  codecopy\n  0x00\n  return\nstop\n\nsub_0: assembly {\n        /* \"contracts/FundMe.sol\":89:789  contract FundMe{... */\n      mstore(0x40, 0x80)\n      jumpi(tag_1, lt(calldatasize, 0x04))\n      shr(0xe0, calldataload(0x00))\n      dup1\n      0x2398fa15\n      eq\n      tag_2\n      jumpi\n      dup1\n      0x3ccfd60b\n      eq\n      tag_3\n      jumpi\n      dup1\n      0x6b69a592\n      eq\n      tag_4\n      jumpi\n      dup1\n      0xb60d4288\n      eq\n      tag_5\n      jumpi\n      dup1\n      0xdc0d3dff\n      eq\n      tag_6\n      jumpi\n    tag_1:\n      0x00\n      dup1\n      revert\n        /* \"contracts/FundMe.sol\":234:290  mapping(address => uint256) public addressToamountFunded */\n    tag_2:\n      callvalue\n      dup1\n      iszero\n      tag_7\n      jumpi\n      0x00\n      dup1\n      revert\n    tag_7:\n      pop\n      tag_8\n      0x04\n      dup1\n      calldatasize\n      sub\n      dup2\n      add\n      swap1\n      tag_9\n      swap2\n      swap1\n      tag_10\n      jump\t// in\n    tag_9:\n      tag_11\n      jump\t// in\n    tag_8:\n      mload(0x40)\n      tag_12\n      swap2\n      swap1\n      tag_13\n      jump\t// in\n    tag_12:\n      mload(0x40)\n      dup1\n      swap2\n      sub\n      swap1\n      return\n        /* \"contracts/FundMe.sol\":518:786  function withdraw() public{... */\n    tag_3:\n      callvalue\n      dup1\n      iszero\n      tag_14\n      jumpi\n      0x00\n      dup1\n      revert\n    tag_14:\n      pop\n      tag_15\n      tag_16\n      jump\t// in\n    tag_15:\n      stop\n        /* \"contracts/FundMe.sol\":153:197  uint256 public constant MINIMUM_USD=50* 1e18 */\n    tag_4:\n      callvalue\n      dup1\n      iszero\n      tag_17\n      jumpi\n      0x00\n      dup1\n      revert\n    tag_17:\n      pop\n      tag_18\n      tag_19\n      jump\t// in\n    tag_18:\n      mload(0x40)\n      tag_20\n      swap2\n      swap1\n      tag_13\n      jump\t// in\n    tag_20:\n      mload(0x40)\n      dup1\n      swap2\n      sub\n      swap1\n      return\n        /* \"contracts/FundMe.sol\":297:512  function fund() public payable{... */\n    tag_5:\n      tag_21\n      tag_22\n      jump\t// in\n    tag_21:\n      stop\n        /* \"contracts/FundMe.sol\":204:228  address[] public funders */\n    tag_6:\n      callvalue\n      dup1\n      iszero\n      tag_23\n      jumpi\n      0x00\n      dup1\n      revert\n    tag_23:\n      pop\n      tag_24\n      0x04\n      dup1\n      calldatasize\n      sub\n      dup2\n      add\n      swap1\n      tag_25\n      swap2\n      swap1\n      tag_26\n      jump\t// in\n    tag_25:\n      tag_27\n      jump\t// in\n    tag_24:\n      mload(0x40)\n      tag_28\n      swap2\n      swap1\n      tag_29\n      jump\t// in\n    tag_28:\n      mload(0x40)\n      dup1\n      swap2\n      sub\n      swap1\n      return\n        /* \"contracts/FundMe.sol\":234:290  mapping(address => uint256) public addressToamountFunded */\n    tag_11:\n      mstore(0x20, 0x01)\n      dup1\n      0x00\n      mstore\n      keccak256(0x00, 0x40)\n      0x00\n      swap2\n      pop\n      swap1\n      pop\n      sload\n      dup2\n      jump\t// out\n        /* \"contracts/FundMe.sol\":518:786  function withdraw() public{... */\n    tag_16:\n        /* \"contracts/FundMe.sol\":558:565  uint8 i */\n      0x00\n        /* \"contracts/FundMe.sol\":554:656  for(uint8 i = 0; i< funders.length; i++){... */\n    tag_31:\n        /* \"contracts/FundMe.sol\":574:581  funders */\n      0x00\n        /* \"contracts/FundMe.sol\":574:588  funders.length */\n      dup1\n      sload\n      swap1\n      pop\n        /* \"contracts/FundMe.sol\":571:572  i */\n      dup2\n        /* \"contracts/FundMe.sol\":571:588  i< funders.length */\n      0xff\n      and\n      lt\n        /* \"contracts/FundMe.sol\":554:656  for(uint8 i = 0; i< funders.length; i++){... */\n      iszero\n      tag_32\n      jumpi\n        /* \"contracts/FundMe.sol\":644:645  0 */\n      0x00\n        /* \"contracts/FundMe.sol\":608:629  addressToamountFunded */\n      0x01\n        /* \"contracts/FundMe.sol\":608:641  addressToamountFunded[funders[i]] */\n      0x00\n        /* \"contracts/FundMe.sol\":630:637  funders */\n      dup1\n        /* \"contracts/FundMe.sol\":638:639  i */\n      dup5\n        /* \"contracts/FundMe.sol\":630:640  funders[i] */\n      0xff\n      and\n      dup2\n      sload\n      dup2\n      lt\n      tag_34\n      jumpi\n      tag_35\n      tag_36\n      jump\t// in\n    tag_35:\n    tag_34:\n      swap1\n      0x00\n      mstore\n      keccak256(0x00, 0x20)\n      add\n      0x00\n      swap1\n      sload\n      swap1\n      0x0100\n      exp\n      swap1\n      div\n      0xffffffffffffffffffffffffffffffffffffffff\n      and\n        /* \"contracts/FundMe.sol\":608:641  addressToamountFunded[funders[i]] */\n      0xffffffffffffffffffffffffffffffffffffffff\n      and\n      0xffffffffffffffffffffffffffffffffffffffff\n      and\n      dup2\n      mstore\n      0x20\n      add\n      swap1\n      dup2\n      mstore\n      0x20\n      add\n      0x00\n      keccak256\n        /* \"contracts/FundMe.sol\":608:645  addressToamountFunded[funders[i]] = 0 */\n      dup2\n      swap1\n      sstore\n      pop\n        /* \"contracts/FundMe.sol\":590:593  i++ */\n      dup1\n      dup1\n      tag_38\n      swap1\n      tag_39\n      jump\t// in\n    tag_38:\n      swap2\n      pop\n      pop\n        /* \"contracts/FundMe.sol\":554:656  for(uint8 i = 0; i< funders.length; i++){... */\n      jump(tag_31)\n    tag_32:\n      pop\n        /* \"contracts/FundMe.sol\":689:690  0 */\n      0x00\n        /* \"contracts/FundMe.sol\":675:691  new address[](0) */\n      0xffffffffffffffff\n      dup2\n      gt\n      iszero\n      tag_40\n      jumpi\n      tag_41\n      tag_42\n      jump\t// in\n    tag_41:\n    tag_40:\n      mload(0x40)\n      swap1\n      dup1\n      dup3\n      mstore\n      dup1\n      0x20\n      mul\n      0x20\n      add\n      dup3\n      add\n      0x40\n      mstore\n      dup1\n      iszero\n      tag_43\n      jumpi\n      dup2\n      0x20\n      add\n      0x20\n      dup3\n      mul\n      dup1\n      calldatasize\n      dup4\n      calldatacopy\n      dup1\n      dup3\n      add\n      swap2\n      pop\n      pop\n      swap1\n      pop\n    tag_43:\n      pop\n        /* \"contracts/FundMe.sol\":665:672  funders */\n      0x00\n        /* \"contracts/FundMe.sol\":665:691  funders = new address[](0) */\n      swap1\n      dup1\n      mload\n      swap1\n      0x20\n      add\n      swap1\n      tag_44\n      swap3\n      swap2\n      swap1\n      tag_45\n      jump\t// in\n    tag_44:\n      pop\n        /* \"contracts/FundMe.sol\":702:718  bool callSuccess */\n      0x00\n        /* \"contracts/FundMe.sol\":731:741  msg.sender */\n      caller\n        /* \"contracts/FundMe.sol\":723:747  payable(msg.sender).call */\n      0xffffffffffffffffffffffffffffffffffffffff\n      and\n        /* \"contracts/FundMe.sol\":755:776  address(this).balance */\n      selfbalance\n        /* \"contracts/FundMe.sol\":723:781  payable(msg.sender).call{value: address(this).balance}(\"\") */\n      mload(0x40)\n      tag_46\n      swap1\n      tag_47\n      jump\t// in\n    tag_46:\n      0x00\n      mload(0x40)\n      dup1\n      dup4\n      sub\n      dup2\n      dup6\n      dup8\n      gas\n      call\n      swap3\n      pop\n      pop\n      pop\n      returndatasize\n      dup1\n      0x00\n      dup2\n      eq\n      tag_50\n      jumpi\n      mload(0x40)\n      swap2\n      pop\n      and(add(returndatasize, 0x3f), not(0x1f))\n      dup3\n      add\n      0x40\n      mstore\n      returndatasize\n      dup3\n      mstore\n      returndatasize\n      0x00\n      0x20\n      dup5\n      add\n      returndatacopy\n      jump(tag_49)\n    tag_50:\n      0x60\n      swap2\n      pop\n    tag_49:\n      pop\n        /* \"contracts/FundMe.sol\":701:781  (bool callSuccess,) = payable(msg.sender).call{value: address(this).balance}(\"\") */\n      pop\n      swap1\n      pop\n        /* \"contracts/FundMe.sol\":544:786  {... */\n      pop\n        /* \"contracts/FundMe.sol\":518:786  function withdraw() public{... */\n      jump\t// out\n        /* \"contracts/FundMe.sol\":153:197  uint256 public constant MINIMUM_USD=50* 1e18 */\n    tag_19:\n        /* \"contracts/FundMe.sol\":189:197  50* 1e18 */\n      0x02b5e3af16b1880000\n        /* \"contracts/FundMe.sol\":153:197  uint256 public constant MINIMUM_USD=50* 1e18 */\n      dup2\n      jump\t// out\n        /* \"contracts/FundMe.sol\":297:512  function fund() public payable{... */\n    tag_22:\n        /* \"contracts/FundMe.sol\":189:197  50* 1e18 */\n      0x02b5e3af16b1880000\n        /* \"contracts/FundMe.sol\":345:377  (msg.value).getConversionRate( ) */\n      tag_52\n        /* \"contracts/FundMe.sol\":346:355  msg.value */\n      callvalue\n        /* \"contracts/FundMe.sol\":345:374  (msg.value).getConversionRate */\n      tag_53\n        /* \"contracts/FundMe.sol\":345:377  (msg.value).getConversionRate( ) */\n      jump\t// in\n    tag_52:\n        /* \"contracts/FundMe.sol\":345:391  (msg.value).getConversionRate( ) > MINIMUM_USD */\n      gt\n        /* \"contracts/FundMe.sol\":337:415  require((msg.value).getConversionRate( ) > MINIMUM_USD, \"Did not send enough\") */\n      tag_54\n      jumpi\n      mload(0x40)\n      0x08c379a000000000000000000000000000000000000000000000000000000000\n      dup2\n      mstore\n      0x04\n      add\n      tag_55\n      swap1\n      tag_56\n      jump\t// in\n    tag_55:\n      mload(0x40)\n      dup1\n      swap2\n      sub\n      swap1\n      revert\n    tag_54:\n        /* \"contracts/FundMe.sol\":425:432  funders */\n      0x00\n        /* \"contracts/FundMe.sol\":438:448  msg.sender */\n      caller\n        /* \"contracts/FundMe.sol\":425:449  funders.push(msg.sender) */\n      swap1\n      dup1\n      0x01\n      dup2\n      sload\n      add\n      dup1\n      dup3\n      sstore\n      dup1\n      swap2\n      pop\n      pop\n      0x01\n      swap1\n      sub\n      swap1\n      0x00\n      mstore\n      keccak256(0x00, 0x20)\n      add\n      0x00\n      swap1\n      swap2\n      swap1\n      swap2\n      swap1\n      swap2\n      0x0100\n      exp\n      dup2\n      sload\n      dup2\n      0xffffffffffffffffffffffffffffffffffffffff\n      mul\n      not\n      and\n      swap1\n      dup4\n      0xffffffffffffffffffffffffffffffffffffffff\n      and\n      mul\n      or\n      swap1\n      sstore\n      pop\n        /* \"contracts/FundMe.sol\":496:505  msg.value */\n      callvalue\n        /* \"contracts/FundMe.sol\":459:480  addressToamountFunded */\n      0x01\n        /* \"contracts/FundMe.sol\":459:492  addressToamountFunded[msg.sender] */\n      0x00\n        /* \"contracts/FundMe.sol\":481:491  msg.sender */\n      caller\n        /* \"contracts/FundMe.sol\":459:492  addressToamountFunded[msg.sender] */\n      0xffffffffffffffffffffffffffffffffffffffff\n      and\n      0xffffffffffffffffffffffffffffffffffffffff\n      and\n      dup2\n      mstore\n      0x20\n      add\n      swap1\n      dup2\n      mstore\n      0x20\n      add\n      0x00\n      keccak256\n      0x00\n        /* \"contracts/FundMe.sol\":459:505  addressToamountFunded[msg.sender] += msg.value */\n      dup3\n      dup3\n      sload\n      tag_58\n      swap2\n      swap1\n      tag_59\n      jump\t// in\n    tag_58:\n      swap3\n      pop\n      pop\n      dup2\n      swap1\n      sstore\n      pop\n        /* \"contracts/FundMe.sol\":297:512  function fund() public payable{... */\n      jump\t// out\n        /* \"contracts/FundMe.sol\":204:228  address[] public funders */\n    tag_27:\n      0x00\n      dup2\n      dup2\n      sload\n      dup2\n      lt\n      tag_60\n      jumpi\n      0x00\n      dup1\n      revert\n    tag_60:\n      swap1\n      0x00\n      mstore\n      keccak256(0x00, 0x20)\n      add\n      0x00\n      swap2\n      pop\n      sload\n      swap1\n      0x0100\n      exp\n      swap1\n      div\n      0xffffffffffffffffffffffffffffffffffffffff\n      and\n      dup2\n      jump\t// out\n        /* \"contracts/PriceConverter.sol\":694:825  function getConversionRate(uint256 ethAmount) internal view returns(uint256){... */\n    tag_53:\n        /* \"contracts/PriceConverter.sol\":762:769  uint256 */\n      0x00\n        /* \"contracts/PriceConverter.sol\":814:818  1e18 */\n      0x0de0b6b3a7640000\n        /* \"contracts/PriceConverter.sol\":801:810  ethAmount */\n      dup3\n        /* \"contracts/PriceConverter.sol\":788:798  getPrice() */\n      tag_63\n        /* \"contracts/PriceConverter.sol\":788:796  getPrice */\n      tag_64\n        /* \"contracts/PriceConverter.sol\":788:798  getPrice() */\n      jump\t// in\n    tag_63:\n        /* \"contracts/PriceConverter.sol\":788:810  getPrice() * ethAmount */\n      tag_65\n      swap2\n      swap1\n      tag_66\n      jump\t// in\n    tag_65:\n        /* \"contracts/PriceConverter.sol\":787:818  (getPrice() * ethAmount) / 1e18 */\n      tag_67\n      swap2\n      swap1\n      tag_68\n      jump\t// in\n    tag_67:\n        /* \"contracts/PriceConverter.sol\":780:818  return (getPrice() * ethAmount) / 1e18 */\n      swap1\n      pop\n        /* \"contracts/PriceConverter.sol\":694:825  function getConversionRate(uint256 ethAmount) internal view returns(uint256){... */\n      swap2\n      swap1\n      pop\n      jump\t// out\n        /* \"contracts/PriceConverter.sol\":165:529  function getPrice() view internal returns(uint256){... */\n    tag_64:\n        /* \"contracts/PriceConverter.sol\":207:214  uint256 */\n      0x00\n        /* \"contracts/PriceConverter.sol\":271:283  int256 price */\n      dup1\n        /* \"contracts/PriceConverter.sol\":422:464  0xD4a33860578De61DBAbDc8BFdb98FD742fA7028e */\n      0xd4a33860578de61dbabdc8bfdb98fd742fa7028e\n        /* \"contracts/PriceConverter.sol\":400:481  AggregatorV3Interface(0xD4a33860578De61DBAbDc8BFdb98FD742fA7028e).latestRoundData */\n      0xffffffffffffffffffffffffffffffffffffffff\n      and\n      0xfeaf968c\n        /* \"contracts/PriceConverter.sol\":400:483  AggregatorV3Interface(0xD4a33860578De61DBAbDc8BFdb98FD742fA7028e).latestRoundData() */\n      mload(0x40)\n      dup2\n      0xffffffff\n      and\n      0xe0\n      shl\n      dup2\n      mstore\n      0x04\n      add\n      0xa0\n      mload(0x40)\n      dup1\n      dup4\n      sub\n      dup2\n      dup7\n      dup1\n      extcodesize\n      iszero\n      dup1\n      iszero\n      tag_70\n      jumpi\n      0x00\n      dup1\n      revert\n    tag_70:\n      pop\n      gas\n      staticcall\n      iszero\n      dup1\n      iszero\n      tag_72\n      jumpi\n      returndatasize\n      0x00\n      dup1\n      returndatacopy\n      revert(0x00, returndatasize)\n    tag_72:\n      pop\n      pop\n      pop\n      pop\n      mload(0x40)\n      returndatasize\n      not(0x1f)\n      0x1f\n      dup3\n      add\n      and\n      dup3\n      add\n      dup1\n      0x40\n      mstore\n      pop\n      dup2\n      add\n      swap1\n      tag_73\n      swap2\n      swap1\n      tag_74\n      jump\t// in\n    tag_73:\n        /* \"contracts/PriceConverter.sol\":225:483  (... */\n      pop\n      pop\n      pop\n      swap2\n      pop\n      pop\n        /* \"contracts/PriceConverter.sol\":516:520  1e10 */\n      0x02540be400\n        /* \"contracts/PriceConverter.sol\":508:513  price */\n      dup2\n        /* \"contracts/PriceConverter.sol\":508:520  price * 1e10 */\n      tag_75\n      swap2\n      swap1\n      tag_76\n      jump\t// in\n    tag_75:\n        /* \"contracts/PriceConverter.sol\":493:521  return uint256(price * 1e10) */\n      swap2\n      pop\n      pop\n        /* \"contracts/PriceConverter.sol\":165:529  function getPrice() view internal returns(uint256){... */\n      swap1\n      jump\t// out\n    tag_45:\n      dup3\n      dup1\n      sload\n      dup3\n      dup3\n      sstore\n      swap1\n      0x00\n      mstore\n      keccak256(0x00, 0x20)\n      swap1\n      dup2\n      add\n      swap3\n      dup3\n      iszero\n      tag_77\n      jumpi\n      swap2\n      0x20\n      mul\n      dup3\n      add\n    tag_78:\n      dup3\n      dup2\n      gt\n      iszero\n      tag_79\n      jumpi\n      dup3\n      mload\n      dup3\n      exp(0x0100, 0x00)\n      dup2\n      sload\n      dup2\n      0xffffffffffffffffffffffffffffffffffffffff\n      mul\n      not\n      and\n      swap1\n      dup4\n      0xffffffffffffffffffffffffffffffffffffffff\n      and\n      mul\n      or\n      swap1\n      sstore\n      pop\n      swap2\n      0x20\n      add\n      swap2\n      swap1\n      0x01\n      add\n      swap1\n      jump(tag_78)\n    tag_79:\n    tag_77:\n      pop\n      swap1\n      pop\n      tag_80\n      swap2\n      swap1\n      tag_81\n      jump\t// in\n    tag_80:\n      pop\n      swap1\n      jump\t// out\n    tag_81:\n    tag_82:\n      dup1\n      dup3\n      gt\n      iszero\n      tag_83\n      jumpi\n      0x00\n      dup2\n      0x00\n      swap1\n      sstore\n      pop\n      0x01\n      add\n      jump(tag_82)\n    tag_83:\n      pop\n      swap1\n      jump\t// out\n        /* \"#utility.yul\":7:146   */\n    tag_85:\n        /* \"#utility.yul\":53:58   */\n      0x00\n        /* \"#utility.yul\":91:97   */\n      dup2\n        /* \"#utility.yul\":78:98   */\n      calldataload\n        /* \"#utility.yul\":69:98   */\n      swap1\n      pop\n        /* \"#utility.yul\":107:140   */\n      tag_87\n        /* \"#utility.yul\":134:139   */\n      dup2\n        /* \"#utility.yul\":107:140   */\n      tag_88\n      jump\t// in\n    tag_87:\n        /* \"#utility.yul\":7:146   */\n      swap3\n      swap2\n      pop\n      pop\n      jump\t// out\n        /* \"#utility.yul\":152:293   */\n    tag_89:\n        /* \"#utility.yul\":208:213   */\n      0x00\n        /* \"#utility.yul\":239:245   */\n      dup2\n        /* \"#utility.yul\":233:246   */\n      mload\n        /* \"#utility.yul\":224:246   */\n      swap1\n      pop\n        /* \"#utility.yul\":255:287   */\n      tag_91\n        /* \"#utility.yul\":281:286   */\n      dup2\n        /* \"#utility.yul\":255:287   */\n      tag_92\n      jump\t// in\n    tag_91:\n        /* \"#utility.yul\":152:293   */\n      swap3\n      swap2\n      pop\n      pop\n      jump\t// out\n        /* \"#utility.yul\":299:438   */\n    tag_93:\n        /* \"#utility.yul\":345:350   */\n      0x00\n        /* \"#utility.yul\":383:389   */\n      dup2\n        /* \"#utility.yul\":370:390   */\n      calldataload\n        /* \"#utility.yul\":361:390   */\n      swap1\n      pop\n        /* \"#utility.yul\":399:432   */\n      tag_95\n        /* \"#utility.yul\":426:431   */\n      dup2\n        /* \"#utility.yul\":399:432   */\n      tag_96\n      jump\t// in\n    tag_95:\n        /* \"#utility.yul\":299:438   */\n      swap3\n      swap2\n      pop\n      pop\n      jump\t// out\n        /* \"#utility.yul\":444:587   */\n    tag_97:\n        /* \"#utility.yul\":501:506   */\n      0x00\n        /* \"#utility.yul\":532:538   */\n      dup2\n        /* \"#utility.yul\":526:539   */\n      mload\n        /* \"#utility.yul\":517:539   */\n      swap1\n      pop\n        /* \"#utility.yul\":548:581   */\n      tag_99\n        /* \"#utility.yul\":575:580   */\n      dup2\n        /* \"#utility.yul\":548:581   */\n      tag_96\n      jump\t// in\n    tag_99:\n        /* \"#utility.yul\":444:587   */\n      swap3\n      swap2\n      pop\n      pop\n      jump\t// out\n        /* \"#utility.yul\":593:734   */\n    tag_100:\n        /* \"#utility.yul\":649:654   */\n      0x00\n        /* \"#utility.yul\":680:686   */\n      dup2\n        /* \"#utility.yul\":674:687   */\n      mload\n        /* \"#utility.yul\":665:687   */\n      swap1\n      pop\n        /* \"#utility.yul\":696:728   */\n      tag_102\n        /* \"#utility.yul\":722:727   */\n      dup2\n        /* \"#utility.yul\":696:728   */\n      tag_103\n      jump\t// in\n    tag_102:\n        /* \"#utility.yul\":593:734   */\n      swap3\n      swap2\n      pop\n      pop\n      jump\t// out\n        /* \"#utility.yul\":740:1069   */\n    tag_10:\n        /* \"#utility.yul\":799:805   */\n      0x00\n        /* \"#utility.yul\":848:850   */\n      0x20\n        /* \"#utility.yul\":836:845   */\n      dup3\n        /* \"#utility.yul\":827:834   */\n      dup5\n        /* \"#utility.yul\":823:846   */\n      sub\n        /* \"#utility.yul\":819:851   */\n      slt\n        /* \"#utility.yul\":816:935   */\n      iszero\n      tag_105\n      jumpi\n        /* \"#utility.yul\":854:933   */\n      tag_106\n      tag_107\n      jump\t// in\n    tag_106:\n        /* \"#utility.yul\":816:935   */\n    tag_105:\n        /* \"#utility.yul\":974:975   */\n      0x00\n        /* \"#utility.yul\":999:1052   */\n      tag_108\n        /* \"#utility.yul\":1044:1051   */\n      dup5\n        /* \"#utility.yul\":1035:1041   */\n      dup3\n        /* \"#utility.yul\":1024:1033   */\n      dup6\n        /* \"#utility.yul\":1020:1042   */\n      add\n        /* \"#utility.yul\":999:1052   */\n      tag_85\n      jump\t// in\n    tag_108:\n        /* \"#utility.yul\":989:1052   */\n      swap2\n      pop\n        /* \"#utility.yul\":945:1062   */\n      pop\n        /* \"#utility.yul\":740:1069   */\n      swap3\n      swap2\n      pop\n      pop\n      jump\t// out\n        /* \"#utility.yul\":1075:1404   */\n    tag_26:\n        /* \"#utility.yul\":1134:1140   */\n      0x00\n        /* \"#utility.yul\":1183:1185   */\n      0x20\n        /* \"#utility.yul\":1171:1180   */\n      dup3\n        /* \"#utility.yul\":1162:1169   */\n      dup5\n        /* \"#utility.yul\":1158:1181   */\n      sub\n        /* \"#utility.yul\":1154:1186   */\n      slt\n        /* \"#utility.yul\":1151:1270   */\n      iszero\n      tag_110\n      jumpi\n        /* \"#utility.yul\":1189:1268   */\n      tag_111\n      tag_107\n      jump\t// in\n    tag_111:\n        /* \"#utility.yul\":1151:1270   */\n    tag_110:\n        /* \"#utility.yul\":1309:1310   */\n      0x00\n        /* \"#utility.yul\":1334:1387   */\n      tag_112\n        /* \"#utility.yul\":1379:1386   */\n      dup5\n        /* \"#utility.yul\":1370:1376   */\n      dup3\n        /* \"#utility.yul\":1359:1368   */\n      dup6\n        /* \"#utility.yul\":1355:1377   */\n      add\n        /* \"#utility.yul\":1334:1387   */\n      tag_93\n      jump\t// in\n    tag_112:\n        /* \"#utility.yul\":1324:1387   */\n      swap2\n      pop\n        /* \"#utility.yul\":1280:1397   */\n      pop\n        /* \"#utility.yul\":1075:1404   */\n      swap3\n      swap2\n      pop\n      pop\n      jump\t// out\n        /* \"#utility.yul\":1410:2381   */\n    tag_74:\n        /* \"#utility.yul\":1513:1519   */\n      0x00\n        /* \"#utility.yul\":1521:1527   */\n      dup1\n        /* \"#utility.yul\":1529:1535   */\n      0x00\n        /* \"#utility.yul\":1537:1543   */\n      dup1\n        /* \"#utility.yul\":1545:1551   */\n      0x00\n        /* \"#utility.yul\":1594:1597   */\n      0xa0\n        /* \"#utility.yul\":1582:1591   */\n      dup7\n        /* \"#utility.yul\":1573:1580   */\n      dup9\n        /* \"#utility.yul\":1569:1592   */\n      sub\n        /* \"#utility.yul\":1565:1598   */\n      slt\n        /* \"#utility.yul\":1562:1682   */\n      iszero\n      tag_114\n      jumpi\n        /* \"#utility.yul\":1601:1680   */\n      tag_115\n      tag_107\n      jump\t// in\n    tag_115:\n        /* \"#utility.yul\":1562:1682   */\n    tag_114:\n        /* \"#utility.yul\":1721:1722   */\n      0x00\n        /* \"#utility.yul\":1746:1809   */\n      tag_116\n        /* \"#utility.yul\":1801:1808   */\n      dup9\n        /* \"#utility.yul\":1792:1798   */\n      dup3\n        /* \"#utility.yul\":1781:1790   */\n      dup10\n        /* \"#utility.yul\":1777:1799   */\n      add\n        /* \"#utility.yul\":1746:1809   */\n      tag_100\n      jump\t// in\n    tag_116:\n        /* \"#utility.yul\":1736:1809   */\n      swap6\n      pop\n        /* \"#utility.yul\":1692:1819   */\n      pop\n        /* \"#utility.yul\":1858:1860   */\n      0x20\n        /* \"#utility.yul\":1884:1947   */\n      tag_117\n        /* \"#utility.yul\":1939:1946   */\n      dup9\n        /* \"#utility.yul\":1930:1936   */\n      dup3\n        /* \"#utility.yul\":1919:1928   */\n      dup10\n        /* \"#utility.yul\":1915:1937   */\n      add\n        /* \"#utility.yul\":1884:1947   */\n      tag_89\n      jump\t// in\n    tag_117:\n        /* \"#utility.yul\":1874:1947   */\n      swap5\n      pop\n        /* \"#utility.yul\":1829:1957   */\n      pop\n        /* \"#utility.yul\":1996:1998   */\n      0x40\n        /* \"#utility.yul\":2022:2086   */\n      tag_118\n        /* \"#utility.yul\":2078:2085   */\n      dup9\n        /* \"#utility.yul\":2069:2075   */\n      dup3\n        /* \"#utility.yul\":2058:2067   */\n      dup10\n        /* \"#utility.yul\":2054:2076   */\n      add\n        /* \"#utility.yul\":2022:2086   */\n      tag_97\n      jump\t// in\n    tag_118:\n        /* \"#utility.yul\":2012:2086   */\n      swap4\n      pop\n        /* \"#utility.yul\":1967:2096   */\n      pop\n        /* \"#utility.yul\":2135:2137   */\n      0x60\n        /* \"#utility.yul\":2161:2225   */\n      tag_119\n        /* \"#utility.yul\":2217:2224   */\n      dup9\n        /* \"#utility.yul\":2208:2214   */\n      dup3\n        /* \"#utility.yul\":2197:2206   */\n      dup10\n        /* \"#utility.yul\":2193:2215   */\n      add\n        /* \"#utility.yul\":2161:2225   */\n      tag_97\n      jump\t// in\n    tag_119:\n        /* \"#utility.yul\":2151:2225   */\n      swap3\n      pop\n        /* \"#utility.yul\":2106:2235   */\n      pop\n        /* \"#utility.yul\":2274:2277   */\n      0x80\n        /* \"#utility.yul\":2301:2364   */\n      tag_120\n        /* \"#utility.yul\":2356:2363   */\n      dup9\n        /* \"#utility.yul\":2347:2353   */\n      dup3\n        /* \"#utility.yul\":2336:2345   */\n      dup10\n        /* \"#utility.yul\":2332:2354   */\n      add\n        /* \"#utility.yul\":2301:2364   */\n      tag_100\n      jump\t// in\n    tag_120:\n        /* \"#utility.yul\":2291:2364   */\n      swap2\n      pop\n        /* \"#utility.yul\":2245:2374   */\n      pop\n        /* \"#utility.yul\":1410:2381   */\n      swap3\n      swap6\n      pop\n      swap3\n      swap6\n      swap1\n      swap4\n      pop\n      jump\t// out\n        /* \"#utility.yul\":2387:2505   */\n    tag_121:\n        /* \"#utility.yul\":2474:2498   */\n      tag_123\n        /* \"#utility.yul\":2492:2497   */\n      dup2\n        /* \"#utility.yul\":2474:2498   */\n      tag_124\n      jump\t// in\n    tag_123:\n        /* \"#utility.yul\":2469:2472   */\n      dup3\n        /* \"#utility.yul\":2462:2499   */\n      mstore\n        /* \"#utility.yul\":2387:2505   */\n      pop\n      pop\n      jump\t// out\n        /* \"#utility.yul\":2511:2877   */\n    tag_125:\n        /* \"#utility.yul\":2653:2656   */\n      0x00\n        /* \"#utility.yul\":2674:2741   */\n      tag_127\n        /* \"#utility.yul\":2738:2740   */\n      0x13\n        /* \"#utility.yul\":2733:2736   */\n      dup4\n        /* \"#utility.yul\":2674:2741   */\n      tag_128\n      jump\t// in\n    tag_127:\n        /* \"#utility.yul\":2667:2741   */\n      swap2\n      pop\n        /* \"#utility.yul\":2750:2843   */\n      tag_129\n        /* \"#utility.yul\":2839:2842   */\n      dup3\n        /* \"#utility.yul\":2750:2843   */\n      tag_130\n      jump\t// in\n    tag_129:\n        /* \"#utility.yul\":2868:2870   */\n      0x20\n        /* \"#utility.yul\":2863:2866   */\n      dup3\n        /* \"#utility.yul\":2859:2871   */\n      add\n        /* \"#utility.yul\":2852:2871   */\n      swap1\n      pop\n        /* \"#utility.yul\":2511:2877   */\n      swap2\n      swap1\n      pop\n      jump\t// out\n        /* \"#utility.yul\":2883:3281   */\n    tag_131:\n        /* \"#utility.yul\":3042:3045   */\n      0x00\n        /* \"#utility.yul\":3063:3146   */\n      tag_133\n        /* \"#utility.yul\":3144:3145   */\n      0x00\n        /* \"#utility.yul\":3139:3142   */\n      dup4\n        /* \"#utility.yul\":3063:3146   */\n      tag_134\n      jump\t// in\n    tag_133:\n        /* \"#utility.yul\":3056:3146   */\n      swap2\n      pop\n        /* \"#utility.yul\":3155:3248   */\n      tag_135\n        /* \"#utility.yul\":3244:3247   */\n      dup3\n        /* \"#utility.yul\":3155:3248   */\n      tag_136\n      jump\t// in\n    tag_135:\n        /* \"#utility.yul\":3273:3274   */\n      0x00\n        /* \"#utility.yul\":3268:3271   */\n      dup3\n        /* \"#utility.yul\":3264:3275   */\n      add\n        /* \"#utility.yul\":3257:3275   */\n      swap1\n      pop\n        /* \"#utility.yul\":2883:3281   */\n      swap2\n      swap1\n      pop\n      jump\t// out\n        /* \"#utility.yul\":3287:3405   */\n    tag_137:\n        /* \"#utility.yul\":3374:3398   */\n      tag_139\n        /* \"#utility.yul\":3392:3397   */\n      dup2\n        /* \"#utility.yul\":3374:3398   */\n      tag_140\n      jump\t// in\n    tag_139:\n        /* \"#utility.yul\":3369:3372   */\n      dup3\n        /* \"#utility.yul\":3362:3399   */\n      mstore\n        /* \"#utility.yul\":3287:3405   */\n      pop\n      pop\n      jump\t// out\n        /* \"#utility.yul\":3411:3790   */\n    tag_47:\n        /* \"#utility.yul\":3595:3598   */\n      0x00\n        /* \"#utility.yul\":3617:3764   */\n      tag_142\n        /* \"#utility.yul\":3760:3763   */\n      dup3\n        /* \"#utility.yul\":3617:3764   */\n      tag_131\n      jump\t// in\n    tag_142:\n        /* \"#utility.yul\":3610:3764   */\n      swap2\n      pop\n        /* \"#utility.yul\":3781:3784   */\n      dup2\n        /* \"#utility.yul\":3774:3784   */\n      swap1\n      pop\n        /* \"#utility.yul\":3411:3790   */\n      swap2\n      swap1\n      pop\n      jump\t// out\n        /* \"#utility.yul\":3796:4018   */\n    tag_29:\n        /* \"#utility.yul\":3889:3893   */\n      0x00\n        /* \"#utility.yul\":3927:3929   */\n      0x20\n        /* \"#utility.yul\":3916:3925   */\n      dup3\n        /* \"#utility.yul\":3912:3930   */\n      add\n        /* \"#utility.yul\":3904:3930   */\n      swap1\n      pop\n        /* \"#utility.yul\":3940:4011   */\n      tag_144\n        /* \"#utility.yul\":4008:4009   */\n      0x00\n        /* \"#utility.yul\":3997:4006   */\n      dup4\n        /* \"#utility.yul\":3993:4010   */\n      add\n        /* \"#utility.yul\":3984:3990   */\n      dup5\n        /* \"#utility.yul\":3940:4011   */\n      tag_121\n      jump\t// in\n    tag_144:\n        /* \"#utility.yul\":3796:4018   */\n      swap3\n      swap2\n      pop\n      pop\n      jump\t// out\n        /* \"#utility.yul\":4024:4443   */\n    tag_56:\n        /* \"#utility.yul\":4190:4194   */\n      0x00\n        /* \"#utility.yul\":4228:4230   */\n      0x20\n        /* \"#utility.yul\":4217:4226   */\n      dup3\n        /* \"#utility.yul\":4213:4231   */\n      add\n        /* \"#utility.yul\":4205:4231   */\n      swap1\n      pop\n        /* \"#utility.yul\":4277:4286   */\n      dup2\n        /* \"#utility.yul\":4271:4275   */\n      dup2\n        /* \"#utility.yul\":4267:4287   */\n      sub\n        /* \"#utility.yul\":4263:4264   */\n      0x00\n        /* \"#utility.yul\":4252:4261   */\n      dup4\n        /* \"#utility.yul\":4248:4265   */\n      add\n        /* \"#utility.yul\":4241:4288   */\n      mstore\n        /* \"#utility.yul\":4305:4436   */\n      tag_146\n        /* \"#utility.yul\":4431:4435   */\n      dup2\n        /* \"#utility.yul\":4305:4436   */\n      tag_125\n      jump\t// in\n    tag_146:\n        /* \"#utility.yul\":4297:4436   */\n      swap1\n      pop\n        /* \"#utility.yul\":4024:4443   */\n      swap2\n      swap1\n      pop\n      jump\t// out\n        /* \"#utility.yul\":4449:4671   */\n    tag_13:\n        /* \"#utility.yul\":4542:4546   */\n      0x00\n        /* \"#utility.yul\":4580:4582   */\n      0x20\n        /* \"#utility.yul\":4569:4578   */\n      dup3\n        /* \"#utility.yul\":4565:4583   */\n      add\n        /* \"#utility.yul\":4557:4583   */\n      swap1\n      pop\n        /* \"#utility.yul\":4593:4664   */\n      tag_148\n        /* \"#utility.yul\":4661:4662   */\n      0x00\n        /* \"#utility.yul\":4650:4659   */\n      dup4\n        /* \"#utility.yul\":4646:4663   */\n      add\n        /* \"#utility.yul\":4637:4643   */\n      dup5\n        /* \"#utility.yul\":4593:4664   */\n      tag_137\n      jump\t// in\n    tag_148:\n        /* \"#utility.yul\":4449:4671   */\n      swap3\n      swap2\n      pop\n      pop\n      jump\t// out\n        /* \"#utility.yul\":4758:4905   */\n    tag_134:\n        /* \"#utility.yul\":4859:4870   */\n      0x00\n        /* \"#utility.yul\":4896:4899   */\n      dup2\n        /* \"#utility.yul\":4881:4899   */\n      swap1\n      pop\n        /* \"#utility.yul\":4758:4905   */\n      swap3\n      swap2\n      pop\n      pop\n      jump\t// out\n        /* \"#utility.yul\":4911:5080   */\n    tag_128:\n        /* \"#utility.yul\":4995:5006   */\n      0x00\n        /* \"#utility.yul\":5029:5035   */\n      dup3\n        /* \"#utility.yul\":5024:5027   */\n      dup3\n        /* \"#utility.yul\":5017:5036   */\n      mstore\n        /* \"#utility.yul\":5069:5073   */\n      0x20\n        /* \"#utility.yul\":5064:5067   */\n      dup3\n        /* \"#utility.yul\":5060:5074   */\n      add\n        /* \"#utility.yul\":5045:5074   */\n      swap1\n      pop\n        /* \"#utility.yul\":4911:5080   */\n      swap3\n      swap2\n      pop\n      pop\n      jump\t// out\n        /* \"#utility.yul\":5086:5391   */\n    tag_59:\n        /* \"#utility.yul\":5126:5129   */\n      0x00\n        /* \"#utility.yul\":5145:5165   */\n      tag_154\n        /* \"#utility.yul\":5163:5164   */\n      dup3\n        /* \"#utility.yul\":5145:5165   */\n      tag_140\n      jump\t// in\n    tag_154:\n        /* \"#utility.yul\":5140:5165   */\n      swap2\n      pop\n        /* \"#utility.yul\":5179:5199   */\n      tag_155\n        /* \"#utility.yul\":5197:5198   */\n      dup4\n        /* \"#utility.yul\":5179:5199   */\n      tag_140\n      jump\t// in\n    tag_155:\n        /* \"#utility.yul\":5174:5199   */\n      swap3\n      pop\n        /* \"#utility.yul\":5333:5334   */\n      dup3\n        /* \"#utility.yul\":5265:5331   */\n      0xffffffffffffffffffffffffffffffffffffffffffffffffffffffffffffffff\n        /* \"#utility.yul\":5261:5335   */\n      sub\n        /* \"#utility.yul\":5258:5259   */\n      dup3\n        /* \"#utility.yul\":5255:5336   */\n      gt\n        /* \"#utility.yul\":5252:5359   */\n      iszero\n      tag_156\n      jumpi\n        /* \"#utility.yul\":5339:5357   */\n      tag_157\n      tag_158\n      jump\t// in\n    tag_157:\n        /* \"#utility.yul\":5252:5359   */\n    tag_156:\n        /* \"#utility.yul\":5383:5384   */\n      dup3\n        /* \"#utility.yul\":5380:5381   */\n      dup3\n        /* \"#utility.yul\":5376:5385   */\n      add\n        /* \"#utility.yul\":5369:5385   */\n      swap1\n      pop\n        /* \"#utility.yul\":5086:5391   */\n      swap3\n      swap2\n      pop\n      pop\n      jump\t// out\n        /* \"#utility.yul\":5397:5582   */\n    tag_68:\n        /* \"#utility.yul\":5437:5438   */\n      0x00\n        /* \"#utility.yul\":5454:5474   */\n      tag_160\n        /* \"#utility.yul\":5472:5473   */\n      dup3\n        /* \"#utility.yul\":5454:5474   */\n      tag_140\n      jump\t// in\n    tag_160:\n        /* \"#utility.yul\":5449:5474   */\n      swap2\n      pop\n        /* \"#utility.yul\":5488:5508   */\n      tag_161\n        /* \"#utility.yul\":5506:5507   */\n      dup4\n        /* \"#utility.yul\":5488:5508   */\n      tag_140\n      jump\t// in\n    tag_161:\n        /* \"#utility.yul\":5483:5508   */\n      swap3\n      pop\n        /* \"#utility.yul\":5527:5528   */\n      dup3\n        /* \"#utility.yul\":5517:5552   */\n      tag_162\n      jumpi\n        /* \"#utility.yul\":5532:5550   */\n      tag_163\n      tag_164\n      jump\t// in\n    tag_163:\n        /* \"#utility.yul\":5517:5552   */\n    tag_162:\n        /* \"#utility.yul\":5574:5575   */\n      dup3\n        /* \"#utility.yul\":5571:5572   */\n      dup3\n        /* \"#utility.yul\":5567:5576   */\n      div\n        /* \"#utility.yul\":5562:5576   */\n      swap1\n      pop\n        /* \"#utility.yul\":5397:5582   */\n      swap3\n      swap2\n      pop\n      pop\n      jump\t// out\n        /* \"#utility.yul\":5588:6579   */\n    tag_76:\n        /* \"#utility.yul\":5627:5634   */\n      0x00\n        /* \"#utility.yul\":5650:5669   */\n      tag_166\n        /* \"#utility.yul\":5667:5668   */\n      dup3\n        /* \"#utility.yul\":5650:5669   */\n      tag_167\n      jump\t// in\n    tag_166:\n        /* \"#utility.yul\":5645:5669   */\n      swap2\n      pop\n        /* \"#utility.yul\":5683:5702   */\n      tag_168\n        /* \"#utility.yul\":5700:5701   */\n      dup4\n        /* \"#utility.yul\":5683:5702   */\n      tag_167\n      jump\t// in\n    tag_168:\n        /* \"#utility.yul\":5678:5702   */\n      swap3\n      pop\n        /* \"#utility.yul\":5884:5885   */\n      dup3\n        /* \"#utility.yul\":5816:5882   */\n      0x7fffffffffffffffffffffffffffffffffffffffffffffffffffffffffffffff\n        /* \"#utility.yul\":5812:5886   */\n      div\n        /* \"#utility.yul\":5809:5810   */\n      dup3\n        /* \"#utility.yul\":5806:5887   */\n      gt\n        /* \"#utility.yul\":5801:5802   */\n      0x00\n        /* \"#utility.yul\":5798:5799   */\n      dup5\n        /* \"#utility.yul\":5794:5803   */\n      sgt\n        /* \"#utility.yul\":5790:5791   */\n      0x00\n        /* \"#utility.yul\":5787:5788   */\n      dup5\n        /* \"#utility.yul\":5783:5792   */\n      sgt\n        /* \"#utility.yul\":5779:5804   */\n      and\n        /* \"#utility.yul\":5775:5888   */\n      and\n        /* \"#utility.yul\":5772:5911   */\n      iszero\n      tag_169\n      jumpi\n        /* \"#utility.yul\":5891:5909   */\n      tag_170\n      tag_158\n      jump\t// in\n    tag_170:\n        /* \"#utility.yul\":5772:5911   */\n    tag_169:\n        /* \"#utility.yul\":6095:6096   */\n      dup2\n        /* \"#utility.yul\":6027:6093   */\n      0x8000000000000000000000000000000000000000000000000000000000000000\n        /* \"#utility.yul\":6022:6097   */\n      sdiv\n        /* \"#utility.yul\":6019:6020   */\n      dup4\n        /* \"#utility.yul\":6015:6098   */\n      slt\n        /* \"#utility.yul\":6010:6011   */\n      0x00\n        /* \"#utility.yul\":6007:6008   */\n      dup5\n        /* \"#utility.yul\":6003:6012   */\n      slt\n        /* \"#utility.yul\":5999:6000   */\n      0x00\n        /* \"#utility.yul\":5996:5997   */\n      dup5\n        /* \"#utility.yul\":5992:6001   */\n      sgt\n        /* \"#utility.yul\":5988:6013   */\n      and\n        /* \"#utility.yul\":5984:6099   */\n      and\n        /* \"#utility.yul\":5981:6122   */\n      iszero\n      tag_171\n      jumpi\n        /* \"#utility.yul\":6102:6120   */\n      tag_172\n      tag_158\n      jump\t// in\n    tag_172:\n        /* \"#utility.yul\":5981:6122   */\n    tag_171:\n        /* \"#utility.yul\":6306:6307   */\n      dup3\n        /* \"#utility.yul\":6238:6304   */\n      0x8000000000000000000000000000000000000000000000000000000000000000\n        /* \"#utility.yul\":6233:6308   */\n      sdiv\n        /* \"#utility.yul\":6230:6231   */\n      dup3\n        /* \"#utility.yul\":6226:6309   */\n      slt\n        /* \"#utility.yul\":6221:6222   */\n      0x00\n        /* \"#utility.yul\":6218:6219   */\n      dup5\n        /* \"#utility.yul\":6214:6223   */\n      sgt\n        /* \"#utility.yul\":6210:6211   */\n      0x00\n        /* \"#utility.yul\":6207:6208   */\n      dup5\n        /* \"#utility.yul\":6203:6212   */\n      slt\n        /* \"#utility.yul\":6199:6224   */\n      and\n        /* \"#utility.yul\":6195:6310   */\n      and\n        /* \"#utility.yul\":6192:6333   */\n      iszero\n      tag_173\n      jumpi\n        /* \"#utility.yul\":6313:6331   */\n      tag_174\n      tag_158\n      jump\t// in\n    tag_174:\n        /* \"#utility.yul\":6192:6333   */\n    tag_173:\n        /* \"#utility.yul\":6516:6517   */\n      dup3\n        /* \"#utility.yul\":6448:6514   */\n      0x7fffffffffffffffffffffffffffffffffffffffffffffffffffffffffffffff\n        /* \"#utility.yul\":6443:6518   */\n      sdiv\n        /* \"#utility.yul\":6440:6441   */\n      dup3\n        /* \"#utility.yul\":6436:6519   */\n      slt\n        /* \"#utility.yul\":6431:6432   */\n      0x00\n        /* \"#utility.yul\":6428:6429   */\n      dup5\n        /* \"#utility.yul\":6424:6433   */\n      slt\n        /* \"#utility.yul\":6420:6421   */\n      0x00\n        /* \"#utility.yul\":6417:6418   */\n      dup5\n        /* \"#utility.yul\":6413:6422   */\n      slt\n        /* \"#utility.yul\":6409:6434   */\n      and\n        /* \"#utility.yul\":6405:6520   */\n      and\n        /* \"#utility.yul\":6402:6543   */\n      iszero\n      tag_175\n      jumpi\n        /* \"#utility.yul\":6523:6541   */\n      tag_176\n      tag_158\n      jump\t// in\n    tag_176:\n        /* \"#utility.yul\":6402:6543   */\n    tag_175:\n        /* \"#utility.yul\":6571:6572   */\n      dup3\n        /* \"#utility.yul\":6568:6569   */\n      dup3\n        /* \"#utility.yul\":6564:6573   */\n      mul\n        /* \"#utility.yul\":6553:6573   */\n      swap1\n      pop\n        /* \"#utility.yul\":5588:6579   */\n      swap3\n      swap2\n      pop\n      pop\n      jump\t// out\n        /* \"#utility.yul\":6585:6933   */\n    tag_66:\n        /* \"#utility.yul\":6625:6632   */\n      0x00\n        /* \"#utility.yul\":6648:6668   */\n      tag_178\n        /* \"#utility.yul\":6666:6667   */\n      dup3\n        /* \"#utility.yul\":6648:6668   */\n      tag_140\n      jump\t// in\n    tag_178:\n        /* \"#utility.yul\":6643:6668   */\n      swap2\n      pop\n        /* \"#utility.yul\":6682:6702   */\n      tag_179\n        /* \"#utility.yul\":6700:6701   */\n      dup4\n        /* \"#utility.yul\":6682:6702   */\n      tag_140\n      jump\t// in\n    tag_179:\n        /* \"#utility.yul\":6677:6702   */\n      swap3\n      pop\n        /* \"#utility.yul\":6870:6871   */\n      dup2\n        /* \"#utility.yul\":6802:6868   */\n      0xffffffffffffffffffffffffffffffffffffffffffffffffffffffffffffffff\n        /* \"#utility.yul\":6798:6872   */\n      div\n        /* \"#utility.yul\":6795:6796   */\n      dup4\n        /* \"#utility.yul\":6792:6873   */\n      gt\n        /* \"#utility.yul\":6787:6788   */\n      dup3\n        /* \"#utility.yul\":6780:6789   */\n      iszero\n        /* \"#utility.yul\":6773:6790   */\n      iszero\n        /* \"#utility.yul\":6769:6874   */\n      and\n        /* \"#utility.yul\":6766:6897   */\n      iszero\n      tag_180\n      jumpi\n        /* \"#utility.yul\":6877:6895   */\n      tag_181\n      tag_158\n      jump\t// in\n    tag_181:\n        /* \"#utility.yul\":6766:6897   */\n    tag_180:\n        /* \"#utility.yul\":6925:6926   */\n      dup3\n        /* \"#utility.yul\":6922:6923   */\n      dup3\n        /* \"#utility.yul\":6918:6927   */\n      mul\n        /* \"#utility.yul\":6907:6927   */\n      swap1\n      pop\n        /* \"#utility.yul\":6585:6933   */\n      swap3\n      swap2\n      pop\n      pop\n      jump\t// out\n        /* \"#utility.yul\":6939:7035   */\n    tag_124:\n        /* \"#utility.yul\":6976:6983   */\n      0x00\n        /* \"#utility.yul\":7005:7029   */\n      tag_183\n        /* \"#utility.yul\":7023:7028   */\n      dup3\n        /* \"#utility.yul\":7005:7029   */\n      tag_184\n      jump\t// in\n    tag_183:\n        /* \"#utility.yul\":6994:7029   */\n      swap1\n      pop\n        /* \"#utility.yul\":6939:7035   */\n      swap2\n      swap1\n      pop\n      jump\t// out\n        /* \"#utility.yul\":7041:7117   */\n    tag_167:\n        /* \"#utility.yul\":7077:7084   */\n      0x00\n        /* \"#utility.yul\":7106:7111   */\n      dup2\n        /* \"#utility.yul\":7095:7111   */\n      swap1\n      pop\n        /* \"#utility.yul\":7041:7117   */\n      swap2\n      swap1\n      pop\n      jump\t// out\n        /* \"#utility.yul\":7123:7249   */\n    tag_184:\n        /* \"#utility.yul\":7160:7167   */\n      0x00\n        /* \"#utility.yul\":7200:7242   */\n      0xffffffffffffffffffffffffffffffffffffffff\n        /* \"#utility.yul\":7193:7198   */\n      dup3\n        /* \"#utility.yul\":7189:7243   */\n      and\n        /* \"#utility.yul\":7178:7243   */\n      swap1\n      pop\n        /* \"#utility.yul\":7123:7249   */\n      swap2\n      swap1\n      pop\n      jump\t// out\n        /* \"#utility.yul\":7255:7332   */\n    tag_140:\n        /* \"#utility.yul\":7292:7299   */\n      0x00\n        /* \"#utility.yul\":7321:7326   */\n      dup2\n        /* \"#utility.yul\":7310:7326   */\n      swap1\n      pop\n        /* \"#utility.yul\":7255:7332   */\n      swap2\n      swap1\n      pop\n      jump\t// out\n        /* \"#utility.yul\":7338:7424   */\n    tag_188:\n        /* \"#utility.yul\":7373:7380   */\n      0x00\n        /* \"#utility.yul\":7413:7417   */\n      0xff\n        /* \"#utility.yul\":7406:7411   */\n      dup3\n        /* \"#utility.yul\":7402:7418   */\n      and\n        /* \"#utility.yul\":7391:7418   */\n      swap1\n      pop\n        /* \"#utility.yul\":7338:7424   */\n      swap2\n      swap1\n      pop\n      jump\t// out\n        /* \"#utility.yul\":7430:7535   */\n    tag_190:\n        /* \"#utility.yul\":7466:7473   */\n      0x00\n        /* \"#utility.yul\":7506:7528   */\n      0xffffffffffffffffffff\n        /* \"#utility.yul\":7499:7504   */\n      dup3\n        /* \"#utility.yul\":7495:7529   */\n      and\n        /* \"#utility.yul\":7484:7529   */\n      swap1\n      pop\n        /* \"#utility.yul\":7430:7535   */\n      swap2\n      swap1\n      pop\n      jump\t// out\n        /* \"#utility.yul\":7541:7708   */\n    tag_39:\n        /* \"#utility.yul\":7578:7581   */\n      0x00\n        /* \"#utility.yul\":7601:7623   */\n      tag_193\n        /* \"#utility.yul\":7617:7622   */\n      dup3\n        /* \"#utility.yul\":7601:7623   */\n      tag_188\n      jump\t// in\n    tag_193:\n        /* \"#utility.yul\":7592:7623   */\n      swap2\n      pop\n        /* \"#utility.yul\":7645:7649   */\n      0xff\n        /* \"#utility.yul\":7638:7643   */\n      dup3\n        /* \"#utility.yul\":7635:7650   */\n      eq\n        /* \"#utility.yul\":7632:7673   */\n      iszero\n      tag_194\n      jumpi\n        /* \"#utility.yul\":7653:7671   */\n      tag_195\n      tag_158\n      jump\t// in\n    tag_195:\n        /* \"#utility.yul\":7632:7673   */\n    tag_194:\n        /* \"#utility.yul\":7700:7701   */\n      0x01\n        /* \"#utility.yul\":7693:7698   */\n      dup3\n        /* \"#utility.yul\":7689:7702   */\n      add\n        /* \"#utility.yul\":7682:7702   */\n      swap1\n      pop\n        /* \"#utility.yul\":7541:7708   */\n      swap2\n      swap1\n      pop\n      jump\t// out\n        /* \"#utility.yul\":7714:7894   */\n    tag_158:\n        /* \"#utility.yul\":7762:7839   */\n      0x4e487b7100000000000000000000000000000000000000000000000000000000\n        /* \"#utility.yul\":7759:7760   */\n      0x00\n        /* \"#utility.yul\":7752:7840   */\n      mstore\n        /* \"#utility.yul\":7859:7863   */\n      0x11\n        /* \"#utility.yul\":7856:7857   */\n      0x04\n        /* \"#utility.yul\":7849:7864   */\n      mstore\n        /* \"#utility.yul\":7883:7887   */\n      0x24\n        /* \"#utility.yul\":7880:7881   */\n      0x00\n        /* \"#utility.yul\":7873:7888   */\n      revert\n        /* \"#utility.yul\":7900:8080   */\n    tag_164:\n        /* \"#utility.yul\":7948:8025   */\n      0x4e487b7100000000000000000000000000000000000000000000000000000000\n        /* \"#utility.yul\":7945:7946   */\n      0x00\n        /* \"#utility.yul\":7938:8026   */\n      mstore\n        /* \"#utility.yul\":8045:8049   */\n      0x12\n        /* \"#utility.yul\":8042:8043   */\n      0x04\n        /* \"#utility.yul\":8035:8050   */\n      mstore\n        /* \"#utility.yul\":8069:8073   */\n      0x24\n        /* \"#utility.yul\":8066:8067   */\n      0x00\n        /* \"#utility.yul\":8059:8074   */\n      revert\n        /* \"#utility.yul\":8086:8266   */\n    tag_36:\n        /* \"#utility.yul\":8134:8211   */\n      0x4e487b7100000000000000000000000000000000000000000000000000000000\n        /* \"#utility.yul\":8131:8132   */\n      0x00\n        /* \"#utility.yul\":8124:8212   */\n      mstore\n        /* \"#utility.yul\":8231:8235   */\n      0x32\n        /* \"#utility.yul\":8228:8229   */\n      0x04\n        /* \"#utility.yul\":8221:8236   */\n      mstore\n        /* \"#utility.yul\":8255:8259   */\n      0x24\n        /* \"#utility.yul\":8252:8253   */\n      0x00\n        /* \"#utility.yul\":8245:8260   */\n      revert\n        /* \"#utility.yul\":8272:8452   */\n    tag_42:\n        /* \"#utility.yul\":8320:8397   */\n      0x4e487b7100000000000000000000000000000000000000000000000000000000\n        /* \"#utility.yul\":8317:8318   */\n      0x00\n        /* \"#utility.yul\":8310:8398   */\n      mstore\n        /* \"#utility.yul\":8417:8421   */\n      0x41\n        /* \"#utility.yul\":8414:8415   */\n      0x04\n        /* \"#utility.yul\":8407:8422   */\n      mstore\n        /* \"#utility.yul\":8441:8445   */\n      0x24\n        /* \"#utility.yul\":8438:8439   */\n      0x00\n        /* \"#utility.yul\":8431:8446   */\n      revert\n        /* \"#utility.yul\":8581:8698   */\n    tag_107:\n        /* \"#utility.yul\":8690:8691   */\n      0x00\n        /* \"#utility.yul\":8687:8688   */\n      dup1\n        /* \"#utility.yul\":8680:8692   */\n      revert\n        /* \"#utility.yul\":8704:8873   */\n    tag_130:\n        /* \"#utility.yul\":8844:8865   */\n      0x446964206e6f742073656e6420656e6f75676800000000000000000000000000\n        /* \"#utility.yul\":8840:8841   */\n      0x00\n        /* \"#utility.yul\":8832:8838   */\n      dup3\n        /* \"#utility.yul\":8828:8842   */\n      add\n        /* \"#utility.yul\":8821:8866   */\n      mstore\n        /* \"#utility.yul\":8704:8873   */\n      pop\n      jump\t// out\n        /* \"#utility.yul\":8879:8993   */\n    tag_136:\n      pop\n      jump\t// out\n        /* \"#utility.yul\":8999:9121   */\n    tag_88:\n        /* \"#utility.yul\":9072:9096   */\n      tag_206\n        /* \"#utility.yul\":9090:9095   */\n      dup2\n        /* \"#utility.yul\":9072:9096   */\n      tag_124\n      jump\t// in\n    tag_206:\n        /* \"#utility.yul\":9065:9070   */\n      dup2\n        /* \"#utility.yul\":9062:9097   */\n      eq\n        /* \"#utility.yul\":9052:9115   */\n      tag_207\n      jumpi\n        /* \"#utility.yul\":9111:9112   */\n      0x00\n        /* \"#utility.yul\":9108:9109   */\n      dup1\n        /* \"#utility.yul\":9101:9113   */\n      revert\n        /* \"#utility.yul\":9052:9115   */\n    tag_207:\n        /* \"#utility.yul\":8999:9121   */\n      pop\n      jump\t// out\n        /* \"#utility.yul\":9127:9247   */\n    tag_92:\n        /* \"#utility.yul\":9199:9222   */\n      tag_209\n        /* \"#utility.yul\":9216:9221   */\n      dup2\n        /* \"#utility.yul\":9199:9222   */\n      tag_167\n      jump\t// in\n    tag_209:\n        /* \"#utility.yul\":9192:9197   */\n      dup2\n        /* \"#utility.yul\":9189:9223   */\n      eq\n        /* \"#utility.yul\":9179:9241   */\n      tag_210\n      jumpi\n        /* \"#utility.yul\":9237:9238   */\n      0x00\n        /* \"#utility.yul\":9234:9235   */\n      dup1\n        /* \"#utility.yul\":9227:9239   */\n      revert\n        /* \"#utility.yul\":9179:9241   */\n    tag_210:\n        /* \"#utility.yul\":9127:9247   */\n      pop\n      jump\t// out\n        /* \"#utility.yul\":9253:9375   */\n    tag_96:\n        /* \"#utility.yul\":9326:9350   */\n      tag_212\n        /* \"#utility.yul\":9344:9349   */\n      dup2\n        /* \"#utility.yul\":9326:9350   */\n      tag_140\n      jump\t// in\n    tag_212:\n        /* \"#utility.yul\":9319:9324   */\n      dup2\n        /* \"#utility.yul\":9316:9351   */\n      eq\n        /* \"#utility.yul\":9306:9369   */\n      tag_213\n      jumpi\n        /* \"#utility.yul\":9365:9366   */\n      0x00\n        /* \"#utility.yul\":9362:9363   */\n      dup1\n        /* \"#utility.yul\":9355:9367   */\n      revert\n        /* \"#utility.yul\":9306:9369   */\n    tag_213:\n        /* \"#utility.yul\":9253:9375   */\n      pop\n      jump\t// out\n        /* \"#utility.yul\":9381:9501   */\n    tag_103:\n        /* \"#utility.yul\":9453:9476   */\n      tag_215\n        /* \"#utility.yul\":9470:9475   */\n      dup2\n        /* \"#utility.yul\":9453:9476   */\n      tag_190\n      jump\t// in\n    tag_215:\n        /* \"#utility.yul\":9446:9451   */\n      dup2\n        /* \"#utility.yul\":9443:9477   */\n      eq\n        /* \"#utility.yul\":9433:9495   */\n      tag_216\n      jumpi\n        /* \"#utility.yul\":9491:9492   */\n      0x00\n        /* \"#utility.yul\":9488:9489   */\n      dup1\n        /* \"#utility.yul\":9481:9493   */\n      revert\n        /* \"#utility.yul\":9433:9495   */\n    tag_216:\n        /* \"#utility.yul\":9381:9501   */\n      pop\n      jump\t// out\n\n    auxdata: 0xa264697066735822122023a1f28ddeb0822ab53f8ecd81822a97ceb0f4413e8e2df59efb26b942b37b4a64736f6c63430008070033\n}\n",
				"bytecode": {
					"linkReferences": {},
					"object": "608060405234801561001057600080fd5b50610bbd806100206000396000f3fe60806040526004361061004a5760003560e01c80632398fa151461004f5780633ccfd60b1461008c5780636b69a592146100a3578063b60d4288146100ce578063dc0d3dff146100d8575b600080fd5b34801561005b57600080fd5b50610076600480360381019061007191906105f3565b610115565b604051610083919061077c565b60405180910390f35b34801561009857600080fd5b506100a161012d565b005b3480156100af57600080fd5b506100b86102a8565b6040516100c5919061077c565b60405180910390f35b6100d66102b5565b005b3480156100e457600080fd5b506100ff60048036038101906100fa9190610620565b6103c3565b60405161010c9190610741565b60405180910390f35b60016020528060005260406000206000915090505481565b60005b6000805490508160ff1610156101d857600060016000808460ff168154811061015c5761015b610a9c565b5b9060005260206000200160009054906101000a900473ffffffffffffffffffffffffffffffffffffffff1673ffffffffffffffffffffffffffffffffffffffff1673ffffffffffffffffffffffffffffffffffffffff1681526020019081526020016000208190555080806101d090610a14565b915050610130565b50600067ffffffffffffffff8111156101f4576101f3610acb565b5b6040519080825280602002602001820160405280156102225781602001602082028036833780820191505090505b50600090805190602001906102389291906104e3565b5060003373ffffffffffffffffffffffffffffffffffffffff164760405161025f9061072c565b60006040518083038185875af1925050503d806000811461029c576040519150601f19603f3d011682016040523d82523d6000602084013e6102a1565b606091505b5050905050565b6802b5e3af16b188000081565b6802b5e3af16b18800006102c834610402565b11610308576040517f08c379a00000000000000000000000000000000000000000000000000000000081526004016102ff9061075c565b60405180910390fd5b6000339080600181540180825580915050600190039060005260206000200160009091909190916101000a81548173ffffffffffffffffffffffffffffffffffffffff021916908373ffffffffffffffffffffffffffffffffffffffff16021790555034600160003373ffffffffffffffffffffffffffffffffffffffff1673ffffffffffffffffffffffffffffffffffffffff16815260200190815260200160002060008282546103ba91906107b3565b92505081905550565b600081815481106103d357600080fd5b906000526020600020016000915054906101000a900473ffffffffffffffffffffffffffffffffffffffff1681565b6000670de0b6b3a764000082610416610431565b6104209190610951565b61042a9190610809565b9050919050565b60008073d4a33860578de61dbabdc8bfdb98fd742fa7028e73ffffffffffffffffffffffffffffffffffffffff1663feaf968c6040518163ffffffff1660e01b815260040160a06040518083038186803b15801561048e57600080fd5b505afa1580156104a2573d6000803e3d6000fd5b505050506040513d601f19601f820116820180604052508101906104c6919061064d565b5050509150506402540be400816104dd919061083a565b91505090565b82805482825590600052602060002090810192821561055c579160200282015b8281111561055b5782518260006101000a81548173ffffffffffffffffffffffffffffffffffffffff021916908373ffffffffffffffffffffffffffffffffffffffff16021790555091602001919060010190610503565b5b509050610569919061056d565b5090565b5b8082111561058657600081600090555060010161056e565b5090565b60008135905061059981610b2b565b92915050565b6000815190506105ae81610b42565b92915050565b6000813590506105c381610b59565b92915050565b6000815190506105d881610b59565b92915050565b6000815190506105ed81610b70565b92915050565b60006020828403121561060957610608610afa565b5b60006106178482850161058a565b91505092915050565b60006020828403121561063657610635610afa565b5b6000610644848285016105b4565b91505092915050565b600080600080600060a0868803121561066957610668610afa565b5b6000610677888289016105de565b95505060206106888882890161059f565b9450506040610699888289016105c9565b93505060606106aa888289016105c9565b92505060806106bb888289016105de565b9150509295509295909350565b6106d1816109ab565b82525050565b60006106e46013836107a2565b91506106ef82610aff565b602082019050919050565b6000610707600083610797565b915061071282610b28565b600082019050919050565b610726816109e7565b82525050565b6000610737826106fa565b9150819050919050565b600060208201905061075660008301846106c8565b92915050565b60006020820190508181036000830152610775816106d7565b9050919050565b6000602082019050610791600083018461071d565b92915050565b600081905092915050565b600082825260208201905092915050565b60006107be826109e7565b91506107c9836109e7565b9250827fffffffffffffffffffffffffffffffffffffffffffffffffffffffffffffffff038211156107fe576107fd610a3e565b5b828201905092915050565b6000610814826109e7565b915061081f836109e7565b92508261082f5761082e610a6d565b5b828204905092915050565b6000610845826109bd565b9150610850836109bd565b9250827f7fffffffffffffffffffffffffffffffffffffffffffffffffffffffffffffff048211600084136000841316161561088f5761088e610a3e565b5b817f800000000000000000000000000000000000000000000000000000000000000005831260008412600084131616156108cc576108cb610a3e565b5b827f8000000000000000000000000000000000000000000000000000000000000000058212600084136000841216161561090957610908610a3e565b5b827f7fffffffffffffffffffffffffffffffffffffffffffffffffffffffffffffff058212600084126000841216161561094657610945610a3e565b5b828202905092915050565b600061095c826109e7565b9150610967836109e7565b9250817fffffffffffffffffffffffffffffffffffffffffffffffffffffffffffffffff04831182151516156109a05761099f610a3e565b5b828202905092915050565b60006109b6826109c7565b9050919050565b6000819050919050565b600073ffffffffffffffffffffffffffffffffffffffff82169050919050565b6000819050919050565b600060ff82169050919050565b600069ffffffffffffffffffff82169050919050565b6000610a1f826109f1565b915060ff821415610a3357610a32610a3e565b5b600182019050919050565b7f4e487b7100000000000000000000000000000000000000000000000000000000600052601160045260246000fd5b7f4e487b7100000000000000000000000000000000000000000000000000000000600052601260045260246000fd5b7f4e487b7100000000000000000000000000000000000000000000000000000000600052603260045260246000fd5b7f4e487b7100000000000000000000000000000000000000000000000000000000600052604160045260246000fd5b600080fd5b7f446964206e6f742073656e6420656e6f75676800000000000000000000000000600082015250565b50565b610b34816109ab565b8114610b3f57600080fd5b50565b610b4b816109bd565b8114610b5657600080fd5b50565b610b62816109e7565b8114610b6d57600080fd5b50565b610b79816109fe565b8114610b8457600080fd5b5056fea264697066735822122023a1f28ddeb0822ab53f8ecd81822a97ceb0f4413e8e2df59efb26b942b37b4a64736f6c63430008070033",
					"opcodes": "PUSH1 0x80 PUSH1 0x40 MSTORE CALLVALUE DUP1 ISZERO PUSH2 0x10 JUMPI PUSH1 0x0 DUP1 REVERT JUMPDEST POP PUSH2 0xBBD DUP1 PUSH2 0x20 PUSH1 0x0 CODECOPY PUSH1 0x0 RETURN INVALID PUSH1 0x80 PUSH1 0x40 MSTORE PUSH1 0x4 CALLDATASIZE LT PUSH2 0x4A JUMPI PUSH1 0x0 CALLDATALOAD PUSH1 0xE0 SHR DUP1 PUSH4 0x2398FA15 EQ PUSH2 0x4F JUMPI DUP1 PUSH4 0x3CCFD60B EQ PUSH2 0x8C JUMPI DUP1 PUSH4 0x6B69A592 EQ PUSH2 0xA3 JUMPI DUP1 PUSH4 0xB60D4288 EQ PUSH2 0xCE JUMPI DUP1 PUSH4 0xDC0D3DFF EQ PUSH2 0xD8 JUMPI JUMPDEST PUSH1 0x0 DUP1 REVERT JUMPDEST CALLVALUE DUP1 ISZERO PUSH2 0x5B JUMPI PUSH1 0x0 DUP1 REVERT JUMPDEST POP PUSH2 0x76 PUSH1 0x4 DUP1 CALLDATASIZE SUB DUP2 ADD SWAP1 PUSH2 0x71 SWAP2 SWAP1 PUSH2 0x5F3 JUMP JUMPDEST PUSH2 0x115 JUMP JUMPDEST PUSH1 0x40 MLOAD PUSH2 0x83 SWAP2 SWAP1 PUSH2 0x77C JUMP JUMPDEST PUSH1 0x40 MLOAD DUP1 SWAP2 SUB SWAP1 RETURN JUMPDEST CALLVALUE DUP1 ISZERO PUSH2 0x98 JUMPI PUSH1 0x0 DUP1 REVERT JUMPDEST POP PUSH2 0xA1 PUSH2 0x12D JUMP JUMPDEST STOP JUMPDEST CALLVALUE DUP1 ISZERO PUSH2 0xAF JUMPI PUSH1 0x0 DUP1 REVERT JUMPDEST POP PUSH2 0xB8 PUSH2 0x2A8 JUMP JUMPDEST PUSH1 0x40 MLOAD PUSH2 0xC5 SWAP2 SWAP1 PUSH2 0x77C JUMP JUMPDEST PUSH1 0x40 MLOAD DUP1 SWAP2 SUB SWAP1 RETURN JUMPDEST PUSH2 0xD6 PUSH2 0x2B5 JUMP JUMPDEST STOP JUMPDEST CALLVALUE DUP1 ISZERO PUSH2 0xE4 JUMPI PUSH1 0x0 DUP1 REVERT JUMPDEST POP PUSH2 0xFF PUSH1 0x4 DUP1 CALLDATASIZE SUB DUP2 ADD SWAP1 PUSH2 0xFA SWAP2 SWAP1 PUSH2 0x620 JUMP JUMPDEST PUSH2 0x3C3 JUMP JUMPDEST PUSH1 0x40 MLOAD PUSH2 0x10C SWAP2 SWAP1 PUSH2 0x741 JUMP JUMPDEST PUSH1 0x40 MLOAD DUP1 SWAP2 SUB SWAP1 RETURN JUMPDEST PUSH1 0x1 PUSH1 0x20 MSTORE DUP1 PUSH1 0x0 MSTORE PUSH1 0x40 PUSH1 0x0 KECCAK256 PUSH1 0x0 SWAP2 POP SWAP1 POP SLOAD DUP2 JUMP JUMPDEST PUSH1 0x0 JUMPDEST PUSH1 0x0 DUP1 SLOAD SWAP1 POP DUP2 PUSH1 0xFF AND LT ISZERO PUSH2 0x1D8 JUMPI PUSH1 0x0 PUSH1 0x1 PUSH1 0x0 DUP1 DUP5 PUSH1 0xFF AND DUP2 SLOAD DUP2 LT PUSH2 0x15C JUMPI PUSH2 0x15B PUSH2 0xA9C JUMP JUMPDEST JUMPDEST SWAP1 PUSH1 0x0 MSTORE PUSH1 0x20 PUSH1 0x0 KECCAK256 ADD PUSH1 0x0 SWAP1 SLOAD SWAP1 PUSH2 0x100 EXP SWAP1 DIV PUSH20 0xFFFFFFFFFFFFFFFFFFFFFFFFFFFFFFFFFFFFFFFF AND PUSH20 0xFFFFFFFFFFFFFFFFFFFFFFFFFFFFFFFFFFFFFFFF AND PUSH20 0xFFFFFFFFFFFFFFFFFFFFFFFFFFFFFFFFFFFFFFFF AND DUP2 MSTORE PUSH1 0x20 ADD SWAP1 DUP2 MSTORE PUSH1 0x20 ADD PUSH1 0x0 KECCAK256 DUP2 SWAP1 SSTORE POP DUP1 DUP1 PUSH2 0x1D0 SWAP1 PUSH2 0xA14 JUMP JUMPDEST SWAP2 POP POP PUSH2 0x130 JUMP JUMPDEST POP PUSH1 0x0 PUSH8 0xFFFFFFFFFFFFFFFF DUP2 GT ISZERO PUSH2 0x1F4 JUMPI PUSH2 0x1F3 PUSH2 0xACB JUMP JUMPDEST JUMPDEST PUSH1 0x40 MLOAD SWAP1 DUP1 DUP3 MSTORE DUP1 PUSH1 0x20 MUL PUSH1 0x20 ADD DUP3 ADD PUSH1 0x40 MSTORE DUP1 ISZERO PUSH2 0x222 JUMPI DUP2 PUSH1 0x20 ADD PUSH1 0x20 DUP3 MUL DUP1 CALLDATASIZE DUP4 CALLDATACOPY DUP1 DUP3 ADD SWAP2 POP POP SWAP1 POP JUMPDEST POP PUSH1 0x0 SWAP1 DUP1 MLOAD SWAP1 PUSH1 0x20 ADD SWAP1 PUSH2 0x238 SWAP3 SWAP2 SWAP1 PUSH2 0x4E3 JUMP JUMPDEST POP PUSH1 0x0 CALLER PUSH20 0xFFFFFFFFFFFFFFFFFFFFFFFFFFFFFFFFFFFFFFFF AND SELFBALANCE PUSH1 0x40 MLOAD PUSH2 0x25F SWAP1 PUSH2 0x72C JUMP JUMPDEST PUSH1 0x0 PUSH1 0x40 MLOAD DUP1 DUP4 SUB DUP2 DUP6 DUP8 GAS CALL SWAP3 POP POP POP RETURNDATASIZE DUP1 PUSH1 0x0 DUP2 EQ PUSH2 0x29C JUMPI PUSH1 0x40 MLOAD SWAP2 POP PUSH1 0x1F NOT PUSH1 0x3F RETURNDATASIZE ADD AND DUP3 ADD PUSH1 0x40 MSTORE RETURNDATASIZE DUP3 MSTORE RETURNDATASIZE PUSH1 0x0 PUSH1 0x20 DUP5 ADD RETURNDATACOPY PUSH2 0x2A1 JUMP JUMPDEST PUSH1 0x60 SWAP2 POP JUMPDEST POP POP SWAP1 POP POP JUMP JUMPDEST PUSH9 0x2B5E3AF16B1880000 DUP2 JUMP JUMPDEST PUSH9 0x2B5E3AF16B1880000 PUSH2 0x2C8 CALLVALUE PUSH2 0x402 JUMP JUMPDEST GT PUSH2 0x308 JUMPI PUSH1 0x40 MLOAD PUSH32 0x8C379A000000000000000000000000000000000000000000000000000000000 DUP2 MSTORE PUSH1 0x4 ADD PUSH2 0x2FF SWAP1 PUSH2 0x75C JUMP JUMPDEST PUSH1 0x40 MLOAD DUP1 SWAP2 SUB SWAP1 REVERT JUMPDEST PUSH1 0x0 CALLER SWAP1 DUP1 PUSH1 0x1 DUP2 SLOAD ADD DUP1 DUP3 SSTORE DUP1 SWAP2 POP POP PUSH1 0x1 SWAP1 SUB SWAP1 PUSH1 0x0 MSTORE PUSH1 0x20 PUSH1 0x0 KECCAK256 ADD PUSH1 0x0 SWAP1 SWAP2 SWAP1 SWAP2 SWAP1 SWAP2 PUSH2 0x100 EXP DUP2 SLOAD DUP2 PUSH20 0xFFFFFFFFFFFFFFFFFFFFFFFFFFFFFFFFFFFFFFFF MUL NOT AND SWAP1 DUP4 PUSH20 0xFFFFFFFFFFFFFFFFFFFFFFFFFFFFFFFFFFFFFFFF AND MUL OR SWAP1 SSTORE POP CALLVALUE PUSH1 0x1 PUSH1 0x0 CALLER PUSH20 0xFFFFFFFFFFFFFFFFFFFFFFFFFFFFFFFFFFFFFFFF AND PUSH20 0xFFFFFFFFFFFFFFFFFFFFFFFFFFFFFFFFFFFFFFFF AND DUP2 MSTORE PUSH1 0x20 ADD SWAP1 DUP2 MSTORE PUSH1 0x20 ADD PUSH1 0x0 KECCAK256 PUSH1 0x0 DUP3 DUP3 SLOAD PUSH2 0x3BA SWAP2 SWAP1 PUSH2 0x7B3 JUMP JUMPDEST SWAP3 POP POP DUP2 SWAP1 SSTORE POP JUMP JUMPDEST PUSH1 0x0 DUP2 DUP2 SLOAD DUP2 LT PUSH2 0x3D3 JUMPI PUSH1 0x0 DUP1 REVERT JUMPDEST SWAP1 PUSH1 0x0 MSTORE PUSH1 0x20 PUSH1 0x0 KECCAK256 ADD PUSH1 0x0 SWAP2 POP SLOAD SWAP1 PUSH2 0x100 EXP SWAP1 DIV PUSH20 0xFFFFFFFFFFFFFFFFFFFFFFFFFFFFFFFFFFFFFFFF AND DUP2 JUMP JUMPDEST PUSH1 0x0 PUSH8 0xDE0B6B3A7640000 DUP3 PUSH2 0x416 PUSH2 0x431 JUMP JUMPDEST PUSH2 0x420 SWAP2 SWAP1 PUSH2 0x951 JUMP JUMPDEST PUSH2 0x42A SWAP2 SWAP1 PUSH2 0x809 JUMP JUMPDEST SWAP1 POP SWAP2 SWAP1 POP JUMP JUMPDEST PUSH1 0x0 DUP1 PUSH20 0xD4A33860578DE61DBABDC8BFDB98FD742FA7028E PUSH20 0xFFFFFFFFFFFFFFFFFFFFFFFFFFFFFFFFFFFFFFFF AND PUSH4 0xFEAF968C PUSH1 0x40 MLOAD DUP2 PUSH4 0xFFFFFFFF AND PUSH1 0xE0 SHL DUP2 MSTORE PUSH1 0x4 ADD PUSH1 0xA0 PUSH1 0x40 MLOAD DUP1 DUP4 SUB DUP2 DUP7 DUP1 EXTCODESIZE ISZERO DUP1 ISZERO PUSH2 0x48E JUMPI PUSH1 0x0 DUP1 REVERT JUMPDEST POP GAS STATICCALL ISZERO DUP1 ISZERO PUSH2 0x4A2 JUMPI RETURNDATASIZE PUSH1 0x0 DUP1 RETURNDATACOPY RETURNDATASIZE PUSH1 0x0 REVERT JUMPDEST POP POP POP POP PUSH1 0x40 MLOAD RETURNDATASIZE PUSH1 0x1F NOT PUSH1 0x1F DUP3 ADD AND DUP3 ADD DUP1 PUSH1 0x40 MSTORE POP DUP2 ADD SWAP1 PUSH2 0x4C6 SWAP2 SWAP1 PUSH2 0x64D JUMP JUMPDEST POP POP POP SWAP2 POP POP PUSH5 0x2540BE400 DUP2 PUSH2 0x4DD SWAP2 SWAP1 PUSH2 0x83A JUMP JUMPDEST SWAP2 POP POP SWAP1 JUMP JUMPDEST DUP3 DUP1 SLOAD DUP3 DUP3 SSTORE SWAP1 PUSH1 0x0 MSTORE PUSH1 0x20 PUSH1 0x0 KECCAK256 SWAP1 DUP2 ADD SWAP3 DUP3 ISZERO PUSH2 0x55C JUMPI SWAP2 PUSH1 0x20 MUL DUP3 ADD JUMPDEST DUP3 DUP2 GT ISZERO PUSH2 0x55B JUMPI DUP3 MLOAD DUP3 PUSH1 0x0 PUSH2 0x100 EXP DUP2 SLOAD DUP2 PUSH20 0xFFFFFFFFFFFFFFFFFFFFFFFFFFFFFFFFFFFFFFFF MUL NOT AND SWAP1 DUP4 PUSH20 0xFFFFFFFFFFFFFFFFFFFFFFFFFFFFFFFFFFFFFFFF AND MUL OR SWAP1 SSTORE POP SWAP2 PUSH1 0x20 ADD SWAP2 SWAP1 PUSH1 0x1 ADD SWAP1 PUSH2 0x503 JUMP JUMPDEST JUMPDEST POP SWAP1 POP PUSH2 0x569 SWAP2 SWAP1 PUSH2 0x56D JUMP JUMPDEST POP SWAP1 JUMP JUMPDEST JUMPDEST DUP1 DUP3 GT ISZERO PUSH2 0x586 JUMPI PUSH1 0x0 DUP2 PUSH1 0x0 SWAP1 SSTORE POP PUSH1 0x1 ADD PUSH2 0x56E JUMP JUMPDEST POP SWAP1 JUMP JUMPDEST PUSH1 0x0 DUP2 CALLDATALOAD SWAP1 POP PUSH2 0x599 DUP2 PUSH2 0xB2B JUMP JUMPDEST SWAP3 SWAP2 POP POP JUMP JUMPDEST PUSH1 0x0 DUP2 MLOAD SWAP1 POP PUSH2 0x5AE DUP2 PUSH2 0xB42 JUMP JUMPDEST SWAP3 SWAP2 POP POP JUMP JUMPDEST PUSH1 0x0 DUP2 CALLDATALOAD SWAP1 POP PUSH2 0x5C3 DUP2 PUSH2 0xB59 JUMP JUMPDEST SWAP3 SWAP2 POP POP JUMP JUMPDEST PUSH1 0x0 DUP2 MLOAD SWAP1 POP PUSH2 0x5D8 DUP2 PUSH2 0xB59 JUMP JUMPDEST SWAP3 SWAP2 POP POP JUMP JUMPDEST PUSH1 0x0 DUP2 MLOAD SWAP1 POP PUSH2 0x5ED DUP2 PUSH2 0xB70 JUMP JUMPDEST SWAP3 SWAP2 POP POP JUMP JUMPDEST PUSH1 0x0 PUSH1 0x20 DUP3 DUP5 SUB SLT ISZERO PUSH2 0x609 JUMPI PUSH2 0x608 PUSH2 0xAFA JUMP JUMPDEST JUMPDEST PUSH1 0x0 PUSH2 0x617 DUP5 DUP3 DUP6 ADD PUSH2 0x58A JUMP JUMPDEST SWAP2 POP POP SWAP3 SWAP2 POP POP JUMP JUMPDEST PUSH1 0x0 PUSH1 0x20 DUP3 DUP5 SUB SLT ISZERO PUSH2 0x636 JUMPI PUSH2 0x635 PUSH2 0xAFA JUMP JUMPDEST JUMPDEST PUSH1 0x0 PUSH2 0x644 DUP5 DUP3 DUP6 ADD PUSH2 0x5B4 JUMP JUMPDEST SWAP2 POP POP SWAP3 SWAP2 POP POP JUMP JUMPDEST PUSH1 0x0 DUP1 PUSH1 0x0 DUP1 PUSH1 0x0 PUSH1 0xA0 DUP7 DUP9 SUB SLT ISZERO PUSH2 0x669 JUMPI PUSH2 0x668 PUSH2 0xAFA JUMP JUMPDEST JUMPDEST PUSH1 0x0 PUSH2 0x677 DUP9 DUP3 DUP10 ADD PUSH2 0x5DE JUMP JUMPDEST SWAP6 POP POP PUSH1 0x20 PUSH2 0x688 DUP9 DUP3 DUP10 ADD PUSH2 0x59F JUMP JUMPDEST SWAP5 POP POP PUSH1 0x40 PUSH2 0x699 DUP9 DUP3 DUP10 ADD PUSH2 0x5C9 JUMP JUMPDEST SWAP4 POP POP PUSH1 0x60 PUSH2 0x6AA DUP9 DUP3 DUP10 ADD PUSH2 0x5C9 JUMP JUMPDEST SWAP3 POP POP PUSH1 0x80 PUSH2 0x6BB DUP9 DUP3 DUP10 ADD PUSH2 0x5DE JUMP JUMPDEST SWAP2 POP POP SWAP3 SWAP6 POP SWAP3 SWAP6 SWAP1 SWAP4 POP JUMP JUMPDEST PUSH2 0x6D1 DUP2 PUSH2 0x9AB JUMP JUMPDEST DUP3 MSTORE POP POP JUMP JUMPDEST PUSH1 0x0 PUSH2 0x6E4 PUSH1 0x13 DUP4 PUSH2 0x7A2 JUMP JUMPDEST SWAP2 POP PUSH2 0x6EF DUP3 PUSH2 0xAFF JUMP JUMPDEST PUSH1 0x20 DUP3 ADD SWAP1 POP SWAP2 SWAP1 POP JUMP JUMPDEST PUSH1 0x0 PUSH2 0x707 PUSH1 0x0 DUP4 PUSH2 0x797 JUMP JUMPDEST SWAP2 POP PUSH2 0x712 DUP3 PUSH2 0xB28 JUMP JUMPDEST PUSH1 0x0 DUP3 ADD SWAP1 POP SWAP2 SWAP1 POP JUMP JUMPDEST PUSH2 0x726 DUP2 PUSH2 0x9E7 JUMP JUMPDEST DUP3 MSTORE POP POP JUMP JUMPDEST PUSH1 0x0 PUSH2 0x737 DUP3 PUSH2 0x6FA JUMP JUMPDEST SWAP2 POP DUP2 SWAP1 POP SWAP2 SWAP1 POP JUMP JUMPDEST PUSH1 0x0 PUSH1 0x20 DUP3 ADD SWAP1 POP PUSH2 0x756 PUSH1 0x0 DUP4 ADD DUP5 PUSH2 0x6C8 JUMP JUMPDEST SWAP3 SWAP2 POP POP JUMP JUMPDEST PUSH1 0x0 PUSH1 0x20 DUP3 ADD SWAP1 POP DUP2 DUP2 SUB PUSH1 0x0 DUP4 ADD MSTORE PUSH2 0x775 DUP2 PUSH2 0x6D7 JUMP JUMPDEST SWAP1 POP SWAP2 SWAP1 POP JUMP JUMPDEST PUSH1 0x0 PUSH1 0x20 DUP3 ADD SWAP1 POP PUSH2 0x791 PUSH1 0x0 DUP4 ADD DUP5 PUSH2 0x71D JUMP JUMPDEST SWAP3 SWAP2 POP POP JUMP JUMPDEST PUSH1 0x0 DUP2 SWAP1 POP SWAP3 SWAP2 POP POP JUMP JUMPDEST PUSH1 0x0 DUP3 DUP3 MSTORE PUSH1 0x20 DUP3 ADD SWAP1 POP SWAP3 SWAP2 POP POP JUMP JUMPDEST PUSH1 0x0 PUSH2 0x7BE DUP3 PUSH2 0x9E7 JUMP JUMPDEST SWAP2 POP PUSH2 0x7C9 DUP4 PUSH2 0x9E7 JUMP JUMPDEST SWAP3 POP DUP3 PUSH32 0xFFFFFFFFFFFFFFFFFFFFFFFFFFFFFFFFFFFFFFFFFFFFFFFFFFFFFFFFFFFFFFFF SUB DUP3 GT ISZERO PUSH2 0x7FE JUMPI PUSH2 0x7FD PUSH2 0xA3E JUMP JUMPDEST JUMPDEST DUP3 DUP3 ADD SWAP1 POP SWAP3 SWAP2 POP POP JUMP JUMPDEST PUSH1 0x0 PUSH2 0x814 DUP3 PUSH2 0x9E7 JUMP JUMPDEST SWAP2 POP PUSH2 0x81F DUP4 PUSH2 0x9E7 JUMP JUMPDEST SWAP3 POP DUP3 PUSH2 0x82F JUMPI PUSH2 0x82E PUSH2 0xA6D JUMP JUMPDEST JUMPDEST DUP3 DUP3 DIV SWAP1 POP SWAP3 SWAP2 POP POP JUMP JUMPDEST PUSH1 0x0 PUSH2 0x845 DUP3 PUSH2 0x9BD JUMP JUMPDEST SWAP2 POP PUSH2 0x850 DUP4 PUSH2 0x9BD JUMP JUMPDEST SWAP3 POP DUP3 PUSH32 0x7FFFFFFFFFFFFFFFFFFFFFFFFFFFFFFFFFFFFFFFFFFFFFFFFFFFFFFFFFFFFFFF DIV DUP3 GT PUSH1 0x0 DUP5 SGT PUSH1 0x0 DUP5 SGT AND AND ISZERO PUSH2 0x88F JUMPI PUSH2 0x88E PUSH2 0xA3E JUMP JUMPDEST JUMPDEST DUP2 PUSH32 0x8000000000000000000000000000000000000000000000000000000000000000 SDIV DUP4 SLT PUSH1 0x0 DUP5 SLT PUSH1 0x0 DUP5 SGT AND AND ISZERO PUSH2 0x8CC JUMPI PUSH2 0x8CB PUSH2 0xA3E JUMP JUMPDEST JUMPDEST DUP3 PUSH32 0x8000000000000000000000000000000000000000000000000000000000000000 SDIV DUP3 SLT PUSH1 0x0 DUP5 SGT PUSH1 0x0 DUP5 SLT AND AND ISZERO PUSH2 0x909 JUMPI PUSH2 0x908 PUSH2 0xA3E JUMP JUMPDEST JUMPDEST DUP3 PUSH32 0x7FFFFFFFFFFFFFFFFFFFFFFFFFFFFFFFFFFFFFFFFFFFFFFFFFFFFFFFFFFFFFFF SDIV DUP3 SLT PUSH1 0x0 DUP5 SLT PUSH1 0x0 DUP5 SLT AND AND ISZERO PUSH2 0x946 JUMPI PUSH2 0x945 PUSH2 0xA3E JUMP JUMPDEST JUMPDEST DUP3 DUP3 MUL SWAP1 POP SWAP3 SWAP2 POP POP JUMP JUMPDEST PUSH1 0x0 PUSH2 0x95C DUP3 PUSH2 0x9E7 JUMP JUMPDEST SWAP2 POP PUSH2 0x967 DUP4 PUSH2 0x9E7 JUMP JUMPDEST SWAP3 POP DUP2 PUSH32 0xFFFFFFFFFFFFFFFFFFFFFFFFFFFFFFFFFFFFFFFFFFFFFFFFFFFFFFFFFFFFFFFF DIV DUP4 GT DUP3 ISZERO ISZERO AND ISZERO PUSH2 0x9A0 JUMPI PUSH2 0x99F PUSH2 0xA3E JUMP JUMPDEST JUMPDEST DUP3 DUP3 MUL SWAP1 POP SWAP3 SWAP2 POP POP JUMP JUMPDEST PUSH1 0x0 PUSH2 0x9B6 DUP3 PUSH2 0x9C7 JUMP JUMPDEST SWAP1 POP SWAP2 SWAP1 POP JUMP JUMPDEST PUSH1 0x0 DUP2 SWAP1 POP SWAP2 SWAP1 POP JUMP JUMPDEST PUSH1 0x0 PUSH20 0xFFFFFFFFFFFFFFFFFFFFFFFFFFFFFFFFFFFFFFFF DUP3 AND SWAP1 POP SWAP2 SWAP1 POP JUMP JUMPDEST PUSH1 0x0 DUP2 SWAP1 POP SWAP2 SWAP1 POP JUMP JUMPDEST PUSH1 0x0 PUSH1 0xFF DUP3 AND SWAP1 POP SWAP2 SWAP1 POP JUMP JUMPDEST PUSH1 0x0 PUSH10 0xFFFFFFFFFFFFFFFFFFFF DUP3 AND SWAP1 POP SWAP2 SWAP1 POP JUMP JUMPDEST PUSH1 0x0 PUSH2 0xA1F DUP3 PUSH2 0x9F1 JUMP JUMPDEST SWAP2 POP PUSH1 0xFF DUP3 EQ ISZERO PUSH2 0xA33 JUMPI PUSH2 0xA32 PUSH2 0xA3E JUMP JUMPDEST JUMPDEST PUSH1 0x1 DUP3 ADD SWAP1 POP SWAP2 SWAP1 POP JUMP JUMPDEST PUSH32 0x4E487B7100000000000000000000000000000000000000000000000000000000 PUSH1 0x0 MSTORE PUSH1 0x11 PUSH1 0x4 MSTORE PUSH1 0x24 PUSH1 0x0 REVERT JUMPDEST PUSH32 0x4E487B7100000000000000000000000000000000000000000000000000000000 PUSH1 0x0 MSTORE PUSH1 0x12 PUSH1 0x4 MSTORE PUSH1 0x24 PUSH1 0x0 REVERT JUMPDEST PUSH32 0x4E487B7100000000000000000000000000000000000000000000000000000000 PUSH1 0x0 MSTORE PUSH1 0x32 PUSH1 0x4 MSTORE PUSH1 0x24 PUSH1 0x0 REVERT JUMPDEST PUSH32 0x4E487B7100000000000000000000000000000000000000000000000000000000 PUSH1 0x0 MSTORE PUSH1 0x41 PUSH1 0x4 MSTORE PUSH1 0x24 PUSH1 0x0 REVERT JUMPDEST PUSH1 0x0 DUP1 REVERT JUMPDEST PUSH32 0x446964206E6F742073656E6420656E6F75676800000000000000000000000000 PUSH1 0x0 DUP3 ADD MSTORE POP JUMP JUMPDEST POP JUMP JUMPDEST PUSH2 0xB34 DUP2 PUSH2 0x9AB JUMP JUMPDEST DUP2 EQ PUSH2 0xB3F JUMPI PUSH1 0x0 DUP1 REVERT JUMPDEST POP JUMP JUMPDEST PUSH2 0xB4B DUP2 PUSH2 0x9BD JUMP JUMPDEST DUP2 EQ PUSH2 0xB56 JUMPI PUSH1 0x0 DUP1 REVERT JUMPDEST POP JUMP JUMPDEST PUSH2 0xB62 DUP2 PUSH2 0x9E7 JUMP JUMPDEST DUP2 EQ PUSH2 0xB6D JUMPI PUSH1 0x0 DUP1 REVERT JUMPDEST POP JUMP JUMPDEST PUSH2 0xB79 DUP2 PUSH2 0x9FE JUMP JUMPDEST DUP2 EQ PUSH2 0xB84 JUMPI PUSH1 0x0 DUP1 REVERT JUMPDEST POP JUMP INVALID LOG2 PUSH5 0x6970667358 0x22 SLT KECCAK256 0x23 LOG1 CALLCODE DUP14 0xDE 0xB0 DUP3 0x2A 0xB5 EXTCODEHASH DUP15 0xCD DUP2 DUP3 0x2A SWAP8 0xCE 0xB0 DELEGATECALL COINBASE RETURNDATACOPY DUP15 0x2D CREATE2 SWAP15 0xFB 0x26 0xB9 TIMESTAMP 0xB3 PUSH28 0x4A64736F6C6343000807003300000000000000000000000000000000 "
				},
				"gasEstimates": {
					"creation": {
						"codeDepositCost": "601000",
						"executionCost": "632",
						"totalCost": "601632"
					},
					"external": {
						"MINIMUM_USD()": "351",
						"addressToamountFunded(address)": "2792",
						"fund()": "infinite",
						"funders(uint256)": "5022",
						"withdraw()": "infinite"
					}
				},
				"methodIdentifiers": {
					"MINIMUM_USD()": "6b69a592",
					"addressToamountFunded(address)": "2398fa15",
					"fund()": "b60d4288",
					"funders(uint256)": "dc0d3dff",
					"withdraw()": "3ccfd60b"
				}
			},
			"storageLayout": {
				"storage": [
					{
						"astId": 59,
						"contract": "contracts/FundMe.sol:FundMe",
						"label": "funders",
						"offset": 0,
						"slot": "0",
						"type": "t_array(t_address)dyn_storage"
					},
					{
						"astId": 63,
						"contract": "contracts/FundMe.sol:FundMe",
						"label": "addressToamountFunded",
						"offset": 0,
						"slot": "1",
						"type": "t_mapping(t_address,t_uint256)"
					}
				],
				"types": {
					"t_address": {
						"encoding": "inplace",
						"label": "address",
						"numberOfBytes": "20"
					},
					"t_array(t_address)dyn_storage": {
						"base": "t_address",
						"encoding": "dynamic_array",
						"label": "address[]",
						"numberOfBytes": "32"
					},
					"t_mapping(t_address,t_uint256)": {
						"encoding": "mapping",
						"key": "t_address",
						"label": "mapping(address => uint256)",
						"numberOfBytes": "32",
						"value": "t_uint256"
					},
					"t_uint256": {
						"encoding": "inplace",
						"label": "uint256",
						"numberOfBytes": "32"
					}
				}
			},
			"userdoc": {
				"kind": "user",
				"methods": {},
				"version": 1
			}
		}
	}
}