{
	"contracts/FundMe.sol": {
		"FundMe": {
			"abi": [
				{
					"inputs": [],
					"stateMutability": "nonpayable",
					"type": "constructor"
				},
				{
					"inputs": [],
					"name": "MINIMUM_USD",
					"outputs": [
						{
							"internalType": "uint256",
							"name": "",
							"type": "uint256"
						}
					],
					"stateMutability": "view",
					"type": "function"
				},
				{
					"inputs": [
						{
							"internalType": "address",
							"name": "",
							"type": "address"
						}
					],
					"name": "addressToamountFunded",
					"outputs": [
						{
							"internalType": "uint256",
							"name": "",
							"type": "uint256"
						}
					],
					"stateMutability": "view",
					"type": "function"
				},
				{
					"inputs": [],
					"name": "fund",
					"outputs": [],
					"stateMutability": "payable",
					"type": "function"
				},
				{
					"inputs": [
						{
							"internalType": "uint256",
							"name": "",
							"type": "uint256"
						}
					],
					"name": "funders",
					"outputs": [
						{
							"internalType": "address",
							"name": "",
							"type": "address"
						}
					],
					"stateMutability": "view",
					"type": "function"
				},
				{
					"inputs": [],
					"name": "owner",
					"outputs": [
						{
							"internalType": "address",
							"name": "",
							"type": "address"
						}
					],
					"stateMutability": "view",
					"type": "function"
				},
				{
					"inputs": [],
					"name": "withdraw",
					"outputs": [],
					"stateMutability": "nonpayable",
					"type": "function"
				}
			],
			"devdoc": {
				"kind": "dev",
				"methods": {},
				"version": 1
			},
			"evm": {
				"assembly": "    /* \"contracts/FundMe.sol\":89:1092  contract FundMe{... */\n  mstore(0x40, 0x80)\n    /* \"contracts/FundMe.sol\":322:368  constructor(){... */\n  callvalue\n  dup1\n  iszero\n  tag_1\n  jumpi\n  0x00\n  dup1\n  revert\ntag_1:\n  pop\n    /* \"contracts/FundMe.sol\":351:361  msg.sender */\n  caller\n    /* \"contracts/FundMe.sol\":345:350  owner */\n  0x02\n  0x00\n    /* \"contracts/FundMe.sol\":345:361  owner=msg.sender */\n  0x0100\n  exp\n  dup2\n  sload\n  dup2\n  0xffffffffffffffffffffffffffffffffffffffff\n  mul\n  not\n  and\n  swap1\n  dup4\n  0xffffffffffffffffffffffffffffffffffffffff\n  and\n  mul\n  or\n  swap1\n  sstore\n  pop\n    /* \"contracts/FundMe.sol\":89:1092  contract FundMe{... */\n  dataSize(sub_0)\n  dup1\n  dataOffset(sub_0)\n  0x00\n  codecopy\n  0x00\n  return\nstop\n\nsub_0: assembly {\n        /* \"contracts/FundMe.sol\":89:1092  contract FundMe{... */\n      mstore(0x40, 0x80)\n      jumpi(tag_1, lt(calldatasize, 0x04))\n      shr(0xe0, calldataload(0x00))\n      dup1\n      0x2398fa15\n      eq\n      tag_2\n      jumpi\n      dup1\n      0x3ccfd60b\n      eq\n      tag_3\n      jumpi\n      dup1\n      0x6b69a592\n      eq\n      tag_4\n      jumpi\n      dup1\n      0x8da5cb5b\n      eq\n      tag_5\n      jumpi\n      dup1\n      0xb60d4288\n      eq\n      tag_6\n      jumpi\n      dup1\n      0xdc0d3dff\n      eq\n      tag_7\n      jumpi\n    tag_1:\n      0x00\n      dup1\n      revert\n        /* \"contracts/FundMe.sol\":234:290  mapping(address => uint256) public addressToamountFunded */\n    tag_2:\n      callvalue\n      dup1\n      iszero\n      tag_8\n      jumpi\n      0x00\n      dup1\n      revert\n    tag_8:\n      pop\n      tag_9\n      0x04\n      dup1\n      calldatasize\n      sub\n      dup2\n      add\n      swap1\n      tag_10\n      swap2\n      swap1\n      tag_11\n      jump\t// in\n    tag_10:\n      tag_12\n      jump\t// in\n    tag_9:\n      mload(0x40)\n      tag_13\n      swap2\n      swap1\n      tag_14\n      jump\t// in\n    tag_13:\n      mload(0x40)\n      dup1\n      swap2\n      sub\n      swap1\n      return\n        /* \"contracts/FundMe.sol\":597:986  function withdraw() public onlyOwner{... */\n    tag_3:\n      callvalue\n      dup1\n      iszero\n      tag_15\n      jumpi\n      0x00\n      dup1\n      revert\n    tag_15:\n      pop\n      tag_16\n      tag_17\n      jump\t// in\n    tag_16:\n      stop\n        /* \"contracts/FundMe.sol\":153:197  uint256 public constant MINIMUM_USD=50* 1e18 */\n    tag_4:\n      callvalue\n      dup1\n      iszero\n      tag_18\n      jumpi\n      0x00\n      dup1\n      revert\n    tag_18:\n      pop\n      tag_19\n      tag_20\n      jump\t// in\n    tag_19:\n      mload(0x40)\n      tag_21\n      swap2\n      swap1\n      tag_14\n      jump\t// in\n    tag_21:\n      mload(0x40)\n      dup1\n      swap2\n      sub\n      swap1\n      return\n        /* \"contracts/FundMe.sol\":296:316  address public owner */\n    tag_5:\n      callvalue\n      dup1\n      iszero\n      tag_22\n      jumpi\n      0x00\n      dup1\n      revert\n    tag_22:\n      pop\n      tag_23\n      tag_24\n      jump\t// in\n    tag_23:\n      mload(0x40)\n      tag_25\n      swap2\n      swap1\n      tag_26\n      jump\t// in\n    tag_25:\n      mload(0x40)\n      dup1\n      swap2\n      sub\n      swap1\n      return\n        /* \"contracts/FundMe.sol\":376:591  function fund() public payable{... */\n    tag_6:\n      tag_27\n      tag_28\n      jump\t// in\n    tag_27:\n      stop\n        /* \"contracts/FundMe.sol\":204:228  address[] public funders */\n    tag_7:\n      callvalue\n      dup1\n      iszero\n      tag_29\n      jumpi\n      0x00\n      dup1\n      revert\n    tag_29:\n      pop\n      tag_30\n      0x04\n      dup1\n      calldatasize\n      sub\n      dup2\n      add\n      swap1\n      tag_31\n      swap2\n      swap1\n      tag_32\n      jump\t// in\n    tag_31:\n      tag_33\n      jump\t// in\n    tag_30:\n      mload(0x40)\n      tag_34\n      swap2\n      swap1\n      tag_26\n      jump\t// in\n    tag_34:\n      mload(0x40)\n      dup1\n      swap2\n      sub\n      swap1\n      return\n        /* \"contracts/FundMe.sol\":234:290  mapping(address => uint256) public addressToamountFunded */\n    tag_12:\n      mstore(0x20, 0x01)\n      dup1\n      0x00\n      mstore\n      keccak256(0x00, 0x40)\n      0x00\n      swap2\n      pop\n      swap1\n      pop\n      sload\n      dup2\n      jump\t// out\n        /* \"contracts/FundMe.sol\":597:986  function withdraw() public onlyOwner{... */\n    tag_17:\n        /* \"contracts/FundMe.sol\":1042:1047  owner */\n      0x02\n      0x00\n      swap1\n      sload\n      swap1\n      0x0100\n      exp\n      swap1\n      div\n      0xffffffffffffffffffffffffffffffffffffffff\n      and\n        /* \"contracts/FundMe.sol\":1028:1047  msg.sender == owner */\n      0xffffffffffffffffffffffffffffffffffffffff\n      and\n        /* \"contracts/FundMe.sol\":1028:1038  msg.sender */\n      caller\n        /* \"contracts/FundMe.sol\":1028:1047  msg.sender == owner */\n      0xffffffffffffffffffffffffffffffffffffffff\n      and\n      eq\n        /* \"contracts/FundMe.sol\":1020:1071  require(msg.sender == owner, \"Sender is not owner\") */\n      tag_36\n      jumpi\n      mload(0x40)\n      0x08c379a000000000000000000000000000000000000000000000000000000000\n      dup2\n      mstore\n      0x04\n      add\n      tag_37\n      swap1\n      tag_38\n      jump\t// in\n    tag_37:\n      mload(0x40)\n      dup1\n      swap2\n      sub\n      swap1\n      revert\n    tag_36:\n        /* \"contracts/FundMe.sol\":665:670  owner */\n      0x02\n      0x00\n      swap1\n      sload\n      swap1\n      0x0100\n      exp\n      swap1\n      div\n      0xffffffffffffffffffffffffffffffffffffffff\n      and\n        /* \"contracts/FundMe.sol\":651:670  msg.sender == owner */\n      0xffffffffffffffffffffffffffffffffffffffff\n      and\n        /* \"contracts/FundMe.sol\":651:661  msg.sender */\n      caller\n        /* \"contracts/FundMe.sol\":651:670  msg.sender == owner */\n      0xffffffffffffffffffffffffffffffffffffffff\n      and\n      eq\n        /* \"contracts/FundMe.sol\":643:692  require(msg.sender == owner, \"You are not owner\") */\n      tag_40\n      jumpi\n      mload(0x40)\n      0x08c379a000000000000000000000000000000000000000000000000000000000\n      dup2\n      mstore\n      0x04\n      add\n      tag_41\n      swap1\n      tag_42\n      jump\t// in\n    tag_41:\n      mload(0x40)\n      dup1\n      swap2\n      sub\n      swap1\n      revert\n    tag_40:\n        /* \"contracts/FundMe.sol\":706:713  uint8 i */\n      0x00\n        /* \"contracts/FundMe.sol\":702:804  for(uint8 i = 0; i< funders.length; i++){... */\n    tag_43:\n        /* \"contracts/FundMe.sol\":722:729  funders */\n      0x00\n        /* \"contracts/FundMe.sol\":722:736  funders.length */\n      dup1\n      sload\n      swap1\n      pop\n        /* \"contracts/FundMe.sol\":719:720  i */\n      dup2\n        /* \"contracts/FundMe.sol\":719:736  i< funders.length */\n      0xff\n      and\n      lt\n        /* \"contracts/FundMe.sol\":702:804  for(uint8 i = 0; i< funders.length; i++){... */\n      iszero\n      tag_44\n      jumpi\n        /* \"contracts/FundMe.sol\":792:793  0 */\n      0x00\n        /* \"contracts/FundMe.sol\":756:777  addressToamountFunded */\n      0x01\n        /* \"contracts/FundMe.sol\":756:789  addressToamountFunded[funders[i]] */\n      0x00\n        /* \"contracts/FundMe.sol\":778:785  funders */\n      dup1\n        /* \"contracts/FundMe.sol\":786:787  i */\n      dup5\n        /* \"contracts/FundMe.sol\":778:788  funders[i] */\n      0xff\n      and\n      dup2\n      sload\n      dup2\n      lt\n      tag_46\n      jumpi\n      tag_47\n      tag_48\n      jump\t// in\n    tag_47:\n    tag_46:\n      swap1\n      0x00\n      mstore\n      keccak256(0x00, 0x20)\n      add\n      0x00\n      swap1\n      sload\n      swap1\n      0x0100\n      exp\n      swap1\n      div\n      0xffffffffffffffffffffffffffffffffffffffff\n      and\n        /* \"contracts/FundMe.sol\":756:789  addressToamountFunded[funders[i]] */\n      0xffffffffffffffffffffffffffffffffffffffff\n      and\n      0xffffffffffffffffffffffffffffffffffffffff\n      and\n      dup2\n      mstore\n      0x20\n      add\n      swap1\n      dup2\n      mstore\n      0x20\n      add\n      0x00\n      keccak256\n        /* \"contracts/FundMe.sol\":756:793  addressToamountFunded[funders[i]] = 0 */\n      dup2\n      swap1\n      sstore\n      pop\n        /* \"contracts/FundMe.sol\":738:741  i++ */\n      dup1\n      dup1\n      tag_50\n      swap1\n      tag_51\n      jump\t// in\n    tag_50:\n      swap2\n      pop\n      pop\n        /* \"contracts/FundMe.sol\":702:804  for(uint8 i = 0; i< funders.length; i++){... */\n      jump(tag_43)\n    tag_44:\n      pop\n        /* \"contracts/FundMe.sol\":837:838  0 */\n      0x00\n        /* \"contracts/FundMe.sol\":823:839  new address[](0) */\n      0xffffffffffffffff\n      dup2\n      gt\n      iszero\n      tag_52\n      jumpi\n      tag_53\n      tag_54\n      jump\t// in\n    tag_53:\n    tag_52:\n      mload(0x40)\n      swap1\n      dup1\n      dup3\n      mstore\n      dup1\n      0x20\n      mul\n      0x20\n      add\n      dup3\n      add\n      0x40\n      mstore\n      dup1\n      iszero\n      tag_55\n      jumpi\n      dup2\n      0x20\n      add\n      0x20\n      dup3\n      mul\n      dup1\n      calldatasize\n      dup4\n      calldatacopy\n      dup1\n      dup3\n      add\n      swap2\n      pop\n      pop\n      swap1\n      pop\n    tag_55:\n      pop\n        /* \"contracts/FundMe.sol\":813:820  funders */\n      0x00\n        /* \"contracts/FundMe.sol\":813:839  funders = new address[](0) */\n      swap1\n      dup1\n      mload\n      swap1\n      0x20\n      add\n      swap1\n      tag_56\n      swap3\n      swap2\n      swap1\n      tag_57\n      jump\t// in\n    tag_56:\n      pop\n        /* \"contracts/FundMe.sol\":850:866  bool callSuccess */\n      0x00\n        /* \"contracts/FundMe.sol\":879:889  msg.sender */\n      caller\n        /* \"contracts/FundMe.sol\":871:895  payable(msg.sender).call */\n      0xffffffffffffffffffffffffffffffffffffffff\n      and\n        /* \"contracts/FundMe.sol\":903:924  address(this).balance */\n      selfbalance\n        /* \"contracts/FundMe.sol\":871:929  payable(msg.sender).call{value: address(this).balance}(\"\") */\n      mload(0x40)\n      tag_58\n      swap1\n      tag_59\n      jump\t// in\n    tag_58:\n      0x00\n      mload(0x40)\n      dup1\n      dup4\n      sub\n      dup2\n      dup6\n      dup8\n      gas\n      call\n      swap3\n      pop\n      pop\n      pop\n      returndatasize\n      dup1\n      0x00\n      dup2\n      eq\n      tag_62\n      jumpi\n      mload(0x40)\n      swap2\n      pop\n      and(add(returndatasize, 0x3f), not(0x1f))\n      dup3\n      add\n      0x40\n      mstore\n      returndatasize\n      dup3\n      mstore\n      returndatasize\n      0x00\n      0x20\n      dup5\n      add\n      returndatacopy\n      jump(tag_61)\n    tag_62:\n      0x60\n      swap2\n      pop\n    tag_61:\n      pop\n        /* \"contracts/FundMe.sol\":849:929  (bool callSuccess,) = payable(msg.sender).call{value: address(this).balance}(\"\") */\n      pop\n      swap1\n      pop\n        /* \"contracts/FundMe.sol\":947:958  callSuccess */\n      dup1\n        /* \"contracts/FundMe.sol\":939:981  require(callSuccess, \"There was an error\") */\n      tag_63\n      jumpi\n      mload(0x40)\n      0x08c379a000000000000000000000000000000000000000000000000000000000\n      dup2\n      mstore\n      0x04\n      add\n      tag_64\n      swap1\n      tag_65\n      jump\t// in\n    tag_64:\n      mload(0x40)\n      dup1\n      swap2\n      sub\n      swap1\n      revert\n    tag_63:\n        /* \"contracts/FundMe.sol\":633:986  {... */\n      pop\n        /* \"contracts/FundMe.sol\":597:986  function withdraw() public onlyOwner{... */\n      jump\t// out\n        /* \"contracts/FundMe.sol\":153:197  uint256 public constant MINIMUM_USD=50* 1e18 */\n    tag_20:\n        /* \"contracts/FundMe.sol\":189:197  50* 1e18 */\n      0x02b5e3af16b1880000\n        /* \"contracts/FundMe.sol\":153:197  uint256 public constant MINIMUM_USD=50* 1e18 */\n      dup2\n      jump\t// out\n        /* \"contracts/FundMe.sol\":296:316  address public owner */\n    tag_24:\n      0x02\n      0x00\n      swap1\n      sload\n      swap1\n      0x0100\n      exp\n      swap1\n      div\n      0xffffffffffffffffffffffffffffffffffffffff\n      and\n      dup2\n      jump\t// out\n        /* \"contracts/FundMe.sol\":376:591  function fund() public payable{... */\n    tag_28:\n        /* \"contracts/FundMe.sol\":189:197  50* 1e18 */\n      0x02b5e3af16b1880000\n        /* \"contracts/FundMe.sol\":424:456  (msg.value).getConversionRate( ) */\n      tag_67\n        /* \"contracts/FundMe.sol\":425:434  msg.value */\n      callvalue\n        /* \"contracts/FundMe.sol\":424:453  (msg.value).getConversionRate */\n      tag_68\n        /* \"contracts/FundMe.sol\":424:456  (msg.value).getConversionRate( ) */\n      jump\t// in\n    tag_67:\n        /* \"contracts/FundMe.sol\":424:470  (msg.value).getConversionRate( ) > MINIMUM_USD */\n      gt\n        /* \"contracts/FundMe.sol\":416:494  require((msg.value).getConversionRate( ) > MINIMUM_USD, \"Did not send enough\") */\n      tag_69\n      jumpi\n      mload(0x40)\n      0x08c379a000000000000000000000000000000000000000000000000000000000\n      dup2\n      mstore\n      0x04\n      add\n      tag_70\n      swap1\n      tag_71\n      jump\t// in\n    tag_70:\n      mload(0x40)\n      dup1\n      swap2\n      sub\n      swap1\n      revert\n    tag_69:\n        /* \"contracts/FundMe.sol\":504:511  funders */\n      0x00\n        /* \"contracts/FundMe.sol\":517:527  msg.sender */\n      caller\n        /* \"contracts/FundMe.sol\":504:528  funders.push(msg.sender) */\n      swap1\n      dup1\n      0x01\n      dup2\n      sload\n      add\n      dup1\n      dup3\n      sstore\n      dup1\n      swap2\n      pop\n      pop\n      0x01\n      swap1\n      sub\n      swap1\n      0x00\n      mstore\n      keccak256(0x00, 0x20)\n      add\n      0x00\n      swap1\n      swap2\n      swap1\n      swap2\n      swap1\n      swap2\n      0x0100\n      exp\n      dup2\n      sload\n      dup2\n      0xffffffffffffffffffffffffffffffffffffffff\n      mul\n      not\n      and\n      swap1\n      dup4\n      0xffffffffffffffffffffffffffffffffffffffff\n      and\n      mul\n      or\n      swap1\n      sstore\n      pop\n        /* \"contracts/FundMe.sol\":575:584  msg.value */\n      callvalue\n        /* \"contracts/FundMe.sol\":538:559  addressToamountFunded */\n      0x01\n        /* \"contracts/FundMe.sol\":538:571  addressToamountFunded[msg.sender] */\n      0x00\n        /* \"contracts/FundMe.sol\":560:570  msg.sender */\n      caller\n        /* \"contracts/FundMe.sol\":538:571  addressToamountFunded[msg.sender] */\n      0xffffffffffffffffffffffffffffffffffffffff\n      and\n      0xffffffffffffffffffffffffffffffffffffffff\n      and\n      dup2\n      mstore\n      0x20\n      add\n      swap1\n      dup2\n      mstore\n      0x20\n      add\n      0x00\n      keccak256\n      0x00\n        /* \"contracts/FundMe.sol\":538:584  addressToamountFunded[msg.sender] += msg.value */\n      dup3\n      dup3\n      sload\n      tag_73\n      swap2\n      swap1\n      tag_74\n      jump\t// in\n    tag_73:\n      swap3\n      pop\n      pop\n      dup2\n      swap1\n      sstore\n      pop\n        /* \"contracts/FundMe.sol\":376:591  function fund() public payable{... */\n      jump\t// out\n        /* \"contracts/FundMe.sol\":204:228  address[] public funders */\n    tag_33:\n      0x00\n      dup2\n      dup2\n      sload\n      dup2\n      lt\n      tag_75\n      jumpi\n      0x00\n      dup1\n      revert\n    tag_75:\n      swap1\n      0x00\n      mstore\n      keccak256(0x00, 0x20)\n      add\n      0x00\n      swap2\n      pop\n      sload\n      swap1\n      0x0100\n      exp\n      swap1\n      div\n      0xffffffffffffffffffffffffffffffffffffffff\n      and\n      dup2\n      jump\t// out\n        /* \"contracts/PriceConverter.sol\":694:825  function getConversionRate(uint256 ethAmount) internal view returns(uint256){... */\n    tag_68:\n        /* \"contracts/PriceConverter.sol\":762:769  uint256 */\n      0x00\n        /* \"contracts/PriceConverter.sol\":814:818  1e18 */\n      0x0de0b6b3a7640000\n        /* \"contracts/PriceConverter.sol\":801:810  ethAmount */\n      dup3\n        /* \"contracts/PriceConverter.sol\":788:798  getPrice() */\n      tag_78\n        /* \"contracts/PriceConverter.sol\":788:796  getPrice */\n      tag_79\n        /* \"contracts/PriceConverter.sol\":788:798  getPrice() */\n      jump\t// in\n    tag_78:\n        /* \"contracts/PriceConverter.sol\":788:810  getPrice() * ethAmount */\n      tag_80\n      swap2\n      swap1\n      tag_81\n      jump\t// in\n    tag_80:\n        /* \"contracts/PriceConverter.sol\":787:818  (getPrice() * ethAmount) / 1e18 */\n      tag_82\n      swap2\n      swap1\n      tag_83\n      jump\t// in\n    tag_82:\n        /* \"contracts/PriceConverter.sol\":780:818  return (getPrice() * ethAmount) / 1e18 */\n      swap1\n      pop\n        /* \"contracts/PriceConverter.sol\":694:825  function getConversionRate(uint256 ethAmount) internal view returns(uint256){... */\n      swap2\n      swap1\n      pop\n      jump\t// out\n        /* \"contracts/PriceConverter.sol\":165:529  function getPrice() view internal returns(uint256){... */\n    tag_79:\n        /* \"contracts/PriceConverter.sol\":207:214  uint256 */\n      0x00\n        /* \"contracts/PriceConverter.sol\":271:283  int256 price */\n      dup1\n        /* \"contracts/PriceConverter.sol\":422:464  0xD4a33860578De61DBAbDc8BFdb98FD742fA7028e */\n      0xd4a33860578de61dbabdc8bfdb98fd742fa7028e\n        /* \"contracts/PriceConverter.sol\":400:481  AggregatorV3Interface(0xD4a33860578De61DBAbDc8BFdb98FD742fA7028e).latestRoundData */\n      0xffffffffffffffffffffffffffffffffffffffff\n      and\n      0xfeaf968c\n        /* \"contracts/PriceConverter.sol\":400:483  AggregatorV3Interface(0xD4a33860578De61DBAbDc8BFdb98FD742fA7028e).latestRoundData() */\n      mload(0x40)\n      dup2\n      0xffffffff\n      and\n      0xe0\n      shl\n      dup2\n      mstore\n      0x04\n      add\n      0xa0\n      mload(0x40)\n      dup1\n      dup4\n      sub\n      dup2\n      dup7\n      dup1\n      extcodesize\n      iszero\n      dup1\n      iszero\n      tag_85\n      jumpi\n      0x00\n      dup1\n      revert\n    tag_85:\n      pop\n      gas\n      staticcall\n      iszero\n      dup1\n      iszero\n      tag_87\n      jumpi\n      returndatasize\n      0x00\n      dup1\n      returndatacopy\n      revert(0x00, returndatasize)\n    tag_87:\n      pop\n      pop\n      pop\n      pop\n      mload(0x40)\n      returndatasize\n      not(0x1f)\n      0x1f\n      dup3\n      add\n      and\n      dup3\n      add\n      dup1\n      0x40\n      mstore\n      pop\n      dup2\n      add\n      swap1\n      tag_88\n      swap2\n      swap1\n      tag_89\n      jump\t// in\n    tag_88:\n        /* \"contracts/PriceConverter.sol\":225:483  (... */\n      pop\n      pop\n      pop\n      swap2\n      pop\n      pop\n        /* \"contracts/PriceConverter.sol\":516:520  1e10 */\n      0x02540be400\n        /* \"contracts/PriceConverter.sol\":508:513  price */\n      dup2\n        /* \"contracts/PriceConverter.sol\":508:520  price * 1e10 */\n      tag_90\n      swap2\n      swap1\n      tag_91\n      jump\t// in\n    tag_90:\n        /* \"contracts/PriceConverter.sol\":493:521  return uint256(price * 1e10) */\n      swap2\n      pop\n      pop\n        /* \"contracts/PriceConverter.sol\":165:529  function getPrice() view internal returns(uint256){... */\n      swap1\n      jump\t// out\n    tag_57:\n      dup3\n      dup1\n      sload\n      dup3\n      dup3\n      sstore\n      swap1\n      0x00\n      mstore\n      keccak256(0x00, 0x20)\n      swap1\n      dup2\n      add\n      swap3\n      dup3\n      iszero\n      tag_92\n      jumpi\n      swap2\n      0x20\n      mul\n      dup3\n      add\n    tag_93:\n      dup3\n      dup2\n      gt\n      iszero\n      tag_94\n      jumpi\n      dup3\n      mload\n      dup3\n      exp(0x0100, 0x00)\n      dup2\n      sload\n      dup2\n      0xffffffffffffffffffffffffffffffffffffffff\n      mul\n      not\n      and\n      swap1\n      dup4\n      0xffffffffffffffffffffffffffffffffffffffff\n      and\n      mul\n      or\n      swap1\n      sstore\n      pop\n      swap2\n      0x20\n      add\n      swap2\n      swap1\n      0x01\n      add\n      swap1\n      jump(tag_93)\n    tag_94:\n    tag_92:\n      pop\n      swap1\n      pop\n      tag_95\n      swap2\n      swap1\n      tag_96\n      jump\t// in\n    tag_95:\n      pop\n      swap1\n      jump\t// out\n    tag_96:\n    tag_97:\n      dup1\n      dup3\n      gt\n      iszero\n      tag_98\n      jumpi\n      0x00\n      dup2\n      0x00\n      swap1\n      sstore\n      pop\n      0x01\n      add\n      jump(tag_97)\n    tag_98:\n      pop\n      swap1\n      jump\t// out\n        /* \"#utility.yul\":7:146   */\n    tag_100:\n        /* \"#utility.yul\":53:58   */\n      0x00\n        /* \"#utility.yul\":91:97   */\n      dup2\n        /* \"#utility.yul\":78:98   */\n      calldataload\n        /* \"#utility.yul\":69:98   */\n      swap1\n      pop\n        /* \"#utility.yul\":107:140   */\n      tag_102\n        /* \"#utility.yul\":134:139   */\n      dup2\n        /* \"#utility.yul\":107:140   */\n      tag_103\n      jump\t// in\n    tag_102:\n        /* \"#utility.yul\":7:146   */\n      swap3\n      swap2\n      pop\n      pop\n      jump\t// out\n        /* \"#utility.yul\":152:293   */\n    tag_104:\n        /* \"#utility.yul\":208:213   */\n      0x00\n        /* \"#utility.yul\":239:245   */\n      dup2\n        /* \"#utility.yul\":233:246   */\n      mload\n        /* \"#utility.yul\":224:246   */\n      swap1\n      pop\n        /* \"#utility.yul\":255:287   */\n      tag_106\n        /* \"#utility.yul\":281:286   */\n      dup2\n        /* \"#utility.yul\":255:287   */\n      tag_107\n      jump\t// in\n    tag_106:\n        /* \"#utility.yul\":152:293   */\n      swap3\n      swap2\n      pop\n      pop\n      jump\t// out\n        /* \"#utility.yul\":299:438   */\n    tag_108:\n        /* \"#utility.yul\":345:350   */\n      0x00\n        /* \"#utility.yul\":383:389   */\n      dup2\n        /* \"#utility.yul\":370:390   */\n      calldataload\n        /* \"#utility.yul\":361:390   */\n      swap1\n      pop\n        /* \"#utility.yul\":399:432   */\n      tag_110\n        /* \"#utility.yul\":426:431   */\n      dup2\n        /* \"#utility.yul\":399:432   */\n      tag_111\n      jump\t// in\n    tag_110:\n        /* \"#utility.yul\":299:438   */\n      swap3\n      swap2\n      pop\n      pop\n      jump\t// out\n        /* \"#utility.yul\":444:587   */\n    tag_112:\n        /* \"#utility.yul\":501:506   */\n      0x00\n        /* \"#utility.yul\":532:538   */\n      dup2\n        /* \"#utility.yul\":526:539   */\n      mload\n        /* \"#utility.yul\":517:539   */\n      swap1\n      pop\n        /* \"#utility.yul\":548:581   */\n      tag_114\n        /* \"#utility.yul\":575:580   */\n      dup2\n        /* \"#utility.yul\":548:581   */\n      tag_111\n      jump\t// in\n    tag_114:\n        /* \"#utility.yul\":444:587   */\n      swap3\n      swap2\n      pop\n      pop\n      jump\t// out\n        /* \"#utility.yul\":593:734   */\n    tag_115:\n        /* \"#utility.yul\":649:654   */\n      0x00\n        /* \"#utility.yul\":680:686   */\n      dup2\n        /* \"#utility.yul\":674:687   */\n      mload\n        /* \"#utility.yul\":665:687   */\n      swap1\n      pop\n        /* \"#utility.yul\":696:728   */\n      tag_117\n        /* \"#utility.yul\":722:727   */\n      dup2\n        /* \"#utility.yul\":696:728   */\n      tag_118\n      jump\t// in\n    tag_117:\n        /* \"#utility.yul\":593:734   */\n      swap3\n      swap2\n      pop\n      pop\n      jump\t// out\n        /* \"#utility.yul\":740:1069   */\n    tag_11:\n        /* \"#utility.yul\":799:805   */\n      0x00\n        /* \"#utility.yul\":848:850   */\n      0x20\n        /* \"#utility.yul\":836:845   */\n      dup3\n        /* \"#utility.yul\":827:834   */\n      dup5\n        /* \"#utility.yul\":823:846   */\n      sub\n        /* \"#utility.yul\":819:851   */\n      slt\n        /* \"#utility.yul\":816:935   */\n      iszero\n      tag_120\n      jumpi\n        /* \"#utility.yul\":854:933   */\n      tag_121\n      tag_122\n      jump\t// in\n    tag_121:\n        /* \"#utility.yul\":816:935   */\n    tag_120:\n        /* \"#utility.yul\":974:975   */\n      0x00\n        /* \"#utility.yul\":999:1052   */\n      tag_123\n        /* \"#utility.yul\":1044:1051   */\n      dup5\n        /* \"#utility.yul\":1035:1041   */\n      dup3\n        /* \"#utility.yul\":1024:1033   */\n      dup6\n        /* \"#utility.yul\":1020:1042   */\n      add\n        /* \"#utility.yul\":999:1052   */\n      tag_100\n      jump\t// in\n    tag_123:\n        /* \"#utility.yul\":989:1052   */\n      swap2\n      pop\n        /* \"#utility.yul\":945:1062   */\n      pop\n        /* \"#utility.yul\":740:1069   */\n      swap3\n      swap2\n      pop\n      pop\n      jump\t// out\n        /* \"#utility.yul\":1075:1404   */\n    tag_32:\n        /* \"#utility.yul\":1134:1140   */\n      0x00\n        /* \"#utility.yul\":1183:1185   */\n      0x20\n        /* \"#utility.yul\":1171:1180   */\n      dup3\n        /* \"#utility.yul\":1162:1169   */\n      dup5\n        /* \"#utility.yul\":1158:1181   */\n      sub\n        /* \"#utility.yul\":1154:1186   */\n      slt\n        /* \"#utility.yul\":1151:1270   */\n      iszero\n      tag_125\n      jumpi\n        /* \"#utility.yul\":1189:1268   */\n      tag_126\n      tag_122\n      jump\t// in\n    tag_126:\n        /* \"#utility.yul\":1151:1270   */\n    tag_125:\n        /* \"#utility.yul\":1309:1310   */\n      0x00\n        /* \"#utility.yul\":1334:1387   */\n      tag_127\n        /* \"#utility.yul\":1379:1386   */\n      dup5\n        /* \"#utility.yul\":1370:1376   */\n      dup3\n        /* \"#utility.yul\":1359:1368   */\n      dup6\n        /* \"#utility.yul\":1355:1377   */\n      add\n        /* \"#utility.yul\":1334:1387   */\n      tag_108\n      jump\t// in\n    tag_127:\n        /* \"#utility.yul\":1324:1387   */\n      swap2\n      pop\n        /* \"#utility.yul\":1280:1397   */\n      pop\n        /* \"#utility.yul\":1075:1404   */\n      swap3\n      swap2\n      pop\n      pop\n      jump\t// out\n        /* \"#utility.yul\":1410:2381   */\n    tag_89:\n        /* \"#utility.yul\":1513:1519   */\n      0x00\n        /* \"#utility.yul\":1521:1527   */\n      dup1\n        /* \"#utility.yul\":1529:1535   */\n      0x00\n        /* \"#utility.yul\":1537:1543   */\n      dup1\n        /* \"#utility.yul\":1545:1551   */\n      0x00\n        /* \"#utility.yul\":1594:1597   */\n      0xa0\n        /* \"#utility.yul\":1582:1591   */\n      dup7\n        /* \"#utility.yul\":1573:1580   */\n      dup9\n        /* \"#utility.yul\":1569:1592   */\n      sub\n        /* \"#utility.yul\":1565:1598   */\n      slt\n        /* \"#utility.yul\":1562:1682   */\n      iszero\n      tag_129\n      jumpi\n        /* \"#utility.yul\":1601:1680   */\n      tag_130\n      tag_122\n      jump\t// in\n    tag_130:\n        /* \"#utility.yul\":1562:1682   */\n    tag_129:\n        /* \"#utility.yul\":1721:1722   */\n      0x00\n        /* \"#utility.yul\":1746:1809   */\n      tag_131\n        /* \"#utility.yul\":1801:1808   */\n      dup9\n        /* \"#utility.yul\":1792:1798   */\n      dup3\n        /* \"#utility.yul\":1781:1790   */\n      dup10\n        /* \"#utility.yul\":1777:1799   */\n      add\n        /* \"#utility.yul\":1746:1809   */\n      tag_115\n      jump\t// in\n    tag_131:\n        /* \"#utility.yul\":1736:1809   */\n      swap6\n      pop\n        /* \"#utility.yul\":1692:1819   */\n      pop\n        /* \"#utility.yul\":1858:1860   */\n      0x20\n        /* \"#utility.yul\":1884:1947   */\n      tag_132\n        /* \"#utility.yul\":1939:1946   */\n      dup9\n        /* \"#utility.yul\":1930:1936   */\n      dup3\n        /* \"#utility.yul\":1919:1928   */\n      dup10\n        /* \"#utility.yul\":1915:1937   */\n      add\n        /* \"#utility.yul\":1884:1947   */\n      tag_104\n      jump\t// in\n    tag_132:\n        /* \"#utility.yul\":1874:1947   */\n      swap5\n      pop\n        /* \"#utility.yul\":1829:1957   */\n      pop\n        /* \"#utility.yul\":1996:1998   */\n      0x40\n        /* \"#utility.yul\":2022:2086   */\n      tag_133\n        /* \"#utility.yul\":2078:2085   */\n      dup9\n        /* \"#utility.yul\":2069:2075   */\n      dup3\n        /* \"#utility.yul\":2058:2067   */\n      dup10\n        /* \"#utility.yul\":2054:2076   */\n      add\n        /* \"#utility.yul\":2022:2086   */\n      tag_112\n      jump\t// in\n    tag_133:\n        /* \"#utility.yul\":2012:2086   */\n      swap4\n      pop\n        /* \"#utility.yul\":1967:2096   */\n      pop\n        /* \"#utility.yul\":2135:2137   */\n      0x60\n        /* \"#utility.yul\":2161:2225   */\n      tag_134\n        /* \"#utility.yul\":2217:2224   */\n      dup9\n        /* \"#utility.yul\":2208:2214   */\n      dup3\n        /* \"#utility.yul\":2197:2206   */\n      dup10\n        /* \"#utility.yul\":2193:2215   */\n      add\n        /* \"#utility.yul\":2161:2225   */\n      tag_112\n      jump\t// in\n    tag_134:\n        /* \"#utility.yul\":2151:2225   */\n      swap3\n      pop\n        /* \"#utility.yul\":2106:2235   */\n      pop\n        /* \"#utility.yul\":2274:2277   */\n      0x80\n        /* \"#utility.yul\":2301:2364   */\n      tag_135\n        /* \"#utility.yul\":2356:2363   */\n      dup9\n        /* \"#utility.yul\":2347:2353   */\n      dup3\n        /* \"#utility.yul\":2336:2345   */\n      dup10\n        /* \"#utility.yul\":2332:2354   */\n      add\n        /* \"#utility.yul\":2301:2364   */\n      tag_115\n      jump\t// in\n    tag_135:\n        /* \"#utility.yul\":2291:2364   */\n      swap2\n      pop\n        /* \"#utility.yul\":2245:2374   */\n      pop\n        /* \"#utility.yul\":1410:2381   */\n      swap3\n      swap6\n      pop\n      swap3\n      swap6\n      swap1\n      swap4\n      pop\n      jump\t// out\n        /* \"#utility.yul\":2387:2505   */\n    tag_136:\n        /* \"#utility.yul\":2474:2498   */\n      tag_138\n        /* \"#utility.yul\":2492:2497   */\n      dup2\n        /* \"#utility.yul\":2474:2498   */\n      tag_139\n      jump\t// in\n    tag_138:\n        /* \"#utility.yul\":2469:2472   */\n      dup3\n        /* \"#utility.yul\":2462:2499   */\n      mstore\n        /* \"#utility.yul\":2387:2505   */\n      pop\n      pop\n      jump\t// out\n        /* \"#utility.yul\":2511:2877   */\n    tag_140:\n        /* \"#utility.yul\":2653:2656   */\n      0x00\n        /* \"#utility.yul\":2674:2741   */\n      tag_142\n        /* \"#utility.yul\":2738:2740   */\n      0x12\n        /* \"#utility.yul\":2733:2736   */\n      dup4\n        /* \"#utility.yul\":2674:2741   */\n      tag_143\n      jump\t// in\n    tag_142:\n        /* \"#utility.yul\":2667:2741   */\n      swap2\n      pop\n        /* \"#utility.yul\":2750:2843   */\n      tag_144\n        /* \"#utility.yul\":2839:2842   */\n      dup3\n        /* \"#utility.yul\":2750:2843   */\n      tag_145\n      jump\t// in\n    tag_144:\n        /* \"#utility.yul\":2868:2870   */\n      0x20\n        /* \"#utility.yul\":2863:2866   */\n      dup3\n        /* \"#utility.yul\":2859:2871   */\n      add\n        /* \"#utility.yul\":2852:2871   */\n      swap1\n      pop\n        /* \"#utility.yul\":2511:2877   */\n      swap2\n      swap1\n      pop\n      jump\t// out\n        /* \"#utility.yul\":2883:3249   */\n    tag_146:\n        /* \"#utility.yul\":3025:3028   */\n      0x00\n        /* \"#utility.yul\":3046:3113   */\n      tag_148\n        /* \"#utility.yul\":3110:3112   */\n      0x13\n        /* \"#utility.yul\":3105:3108   */\n      dup4\n        /* \"#utility.yul\":3046:3113   */\n      tag_143\n      jump\t// in\n    tag_148:\n        /* \"#utility.yul\":3039:3113   */\n      swap2\n      pop\n        /* \"#utility.yul\":3122:3215   */\n      tag_149\n        /* \"#utility.yul\":3211:3214   */\n      dup3\n        /* \"#utility.yul\":3122:3215   */\n      tag_150\n      jump\t// in\n    tag_149:\n        /* \"#utility.yul\":3240:3242   */\n      0x20\n        /* \"#utility.yul\":3235:3238   */\n      dup3\n        /* \"#utility.yul\":3231:3243   */\n      add\n        /* \"#utility.yul\":3224:3243   */\n      swap1\n      pop\n        /* \"#utility.yul\":2883:3249   */\n      swap2\n      swap1\n      pop\n      jump\t// out\n        /* \"#utility.yul\":3255:3621   */\n    tag_151:\n        /* \"#utility.yul\":3397:3400   */\n      0x00\n        /* \"#utility.yul\":3418:3485   */\n      tag_153\n        /* \"#utility.yul\":3482:3484   */\n      0x13\n        /* \"#utility.yul\":3477:3480   */\n      dup4\n        /* \"#utility.yul\":3418:3485   */\n      tag_143\n      jump\t// in\n    tag_153:\n        /* \"#utility.yul\":3411:3485   */\n      swap2\n      pop\n        /* \"#utility.yul\":3494:3587   */\n      tag_154\n        /* \"#utility.yul\":3583:3586   */\n      dup3\n        /* \"#utility.yul\":3494:3587   */\n      tag_155\n      jump\t// in\n    tag_154:\n        /* \"#utility.yul\":3612:3614   */\n      0x20\n        /* \"#utility.yul\":3607:3610   */\n      dup3\n        /* \"#utility.yul\":3603:3615   */\n      add\n        /* \"#utility.yul\":3596:3615   */\n      swap1\n      pop\n        /* \"#utility.yul\":3255:3621   */\n      swap2\n      swap1\n      pop\n      jump\t// out\n        /* \"#utility.yul\":3627:4025   */\n    tag_156:\n        /* \"#utility.yul\":3786:3789   */\n      0x00\n        /* \"#utility.yul\":3807:3890   */\n      tag_158\n        /* \"#utility.yul\":3888:3889   */\n      0x00\n        /* \"#utility.yul\":3883:3886   */\n      dup4\n        /* \"#utility.yul\":3807:3890   */\n      tag_159\n      jump\t// in\n    tag_158:\n        /* \"#utility.yul\":3800:3890   */\n      swap2\n      pop\n        /* \"#utility.yul\":3899:3992   */\n      tag_160\n        /* \"#utility.yul\":3988:3991   */\n      dup3\n        /* \"#utility.yul\":3899:3992   */\n      tag_161\n      jump\t// in\n    tag_160:\n        /* \"#utility.yul\":4017:4018   */\n      0x00\n        /* \"#utility.yul\":4012:4015   */\n      dup3\n        /* \"#utility.yul\":4008:4019   */\n      add\n        /* \"#utility.yul\":4001:4019   */\n      swap1\n      pop\n        /* \"#utility.yul\":3627:4025   */\n      swap2\n      swap1\n      pop\n      jump\t// out\n        /* \"#utility.yul\":4031:4397   */\n    tag_162:\n        /* \"#utility.yul\":4173:4176   */\n      0x00\n        /* \"#utility.yul\":4194:4261   */\n      tag_164\n        /* \"#utility.yul\":4258:4260   */\n      0x11\n        /* \"#utility.yul\":4253:4256   */\n      dup4\n        /* \"#utility.yul\":4194:4261   */\n      tag_143\n      jump\t// in\n    tag_164:\n        /* \"#utility.yul\":4187:4261   */\n      swap2\n      pop\n        /* \"#utility.yul\":4270:4363   */\n      tag_165\n        /* \"#utility.yul\":4359:4362   */\n      dup3\n        /* \"#utility.yul\":4270:4363   */\n      tag_166\n      jump\t// in\n    tag_165:\n        /* \"#utility.yul\":4388:4390   */\n      0x20\n        /* \"#utility.yul\":4383:4386   */\n      dup3\n        /* \"#utility.yul\":4379:4391   */\n      add\n        /* \"#utility.yul\":4372:4391   */\n      swap1\n      pop\n        /* \"#utility.yul\":4031:4397   */\n      swap2\n      swap1\n      pop\n      jump\t// out\n        /* \"#utility.yul\":4403:4521   */\n    tag_167:\n        /* \"#utility.yul\":4490:4514   */\n      tag_169\n        /* \"#utility.yul\":4508:4513   */\n      dup2\n        /* \"#utility.yul\":4490:4514   */\n      tag_170\n      jump\t// in\n    tag_169:\n        /* \"#utility.yul\":4485:4488   */\n      dup3\n        /* \"#utility.yul\":4478:4515   */\n      mstore\n        /* \"#utility.yul\":4403:4521   */\n      pop\n      pop\n      jump\t// out\n        /* \"#utility.yul\":4527:4906   */\n    tag_59:\n        /* \"#utility.yul\":4711:4714   */\n      0x00\n        /* \"#utility.yul\":4733:4880   */\n      tag_172\n        /* \"#utility.yul\":4876:4879   */\n      dup3\n        /* \"#utility.yul\":4733:4880   */\n      tag_156\n      jump\t// in\n    tag_172:\n        /* \"#utility.yul\":4726:4880   */\n      swap2\n      pop\n        /* \"#utility.yul\":4897:4900   */\n      dup2\n        /* \"#utility.yul\":4890:4900   */\n      swap1\n      pop\n        /* \"#utility.yul\":4527:4906   */\n      swap2\n      swap1\n      pop\n      jump\t// out\n        /* \"#utility.yul\":4912:5134   */\n    tag_26:\n        /* \"#utility.yul\":5005:5009   */\n      0x00\n        /* \"#utility.yul\":5043:5045   */\n      0x20\n        /* \"#utility.yul\":5032:5041   */\n      dup3\n        /* \"#utility.yul\":5028:5046   */\n      add\n        /* \"#utility.yul\":5020:5046   */\n      swap1\n      pop\n        /* \"#utility.yul\":5056:5127   */\n      tag_174\n        /* \"#utility.yul\":5124:5125   */\n      0x00\n        /* \"#utility.yul\":5113:5122   */\n      dup4\n        /* \"#utility.yul\":5109:5126   */\n      add\n        /* \"#utility.yul\":5100:5106   */\n      dup5\n        /* \"#utility.yul\":5056:5127   */\n      tag_136\n      jump\t// in\n    tag_174:\n        /* \"#utility.yul\":4912:5134   */\n      swap3\n      swap2\n      pop\n      pop\n      jump\t// out\n        /* \"#utility.yul\":5140:5559   */\n    tag_65:\n        /* \"#utility.yul\":5306:5310   */\n      0x00\n        /* \"#utility.yul\":5344:5346   */\n      0x20\n        /* \"#utility.yul\":5333:5342   */\n      dup3\n        /* \"#utility.yul\":5329:5347   */\n      add\n        /* \"#utility.yul\":5321:5347   */\n      swap1\n      pop\n        /* \"#utility.yul\":5393:5402   */\n      dup2\n        /* \"#utility.yul\":5387:5391   */\n      dup2\n        /* \"#utility.yul\":5383:5403   */\n      sub\n        /* \"#utility.yul\":5379:5380   */\n      0x00\n        /* \"#utility.yul\":5368:5377   */\n      dup4\n        /* \"#utility.yul\":5364:5381   */\n      add\n        /* \"#utility.yul\":5357:5404   */\n      mstore\n        /* \"#utility.yul\":5421:5552   */\n      tag_176\n        /* \"#utility.yul\":5547:5551   */\n      dup2\n        /* \"#utility.yul\":5421:5552   */\n      tag_140\n      jump\t// in\n    tag_176:\n        /* \"#utility.yul\":5413:5552   */\n      swap1\n      pop\n        /* \"#utility.yul\":5140:5559   */\n      swap2\n      swap1\n      pop\n      jump\t// out\n        /* \"#utility.yul\":5565:5984   */\n    tag_71:\n        /* \"#utility.yul\":5731:5735   */\n      0x00\n        /* \"#utility.yul\":5769:5771   */\n      0x20\n        /* \"#utility.yul\":5758:5767   */\n      dup3\n        /* \"#utility.yul\":5754:5772   */\n      add\n        /* \"#utility.yul\":5746:5772   */\n      swap1\n      pop\n        /* \"#utility.yul\":5818:5827   */\n      dup2\n        /* \"#utility.yul\":5812:5816   */\n      dup2\n        /* \"#utility.yul\":5808:5828   */\n      sub\n        /* \"#utility.yul\":5804:5805   */\n      0x00\n        /* \"#utility.yul\":5793:5802   */\n      dup4\n        /* \"#utility.yul\":5789:5806   */\n      add\n        /* \"#utility.yul\":5782:5829   */\n      mstore\n        /* \"#utility.yul\":5846:5977   */\n      tag_178\n        /* \"#utility.yul\":5972:5976   */\n      dup2\n        /* \"#utility.yul\":5846:5977   */\n      tag_146\n      jump\t// in\n    tag_178:\n        /* \"#utility.yul\":5838:5977   */\n      swap1\n      pop\n        /* \"#utility.yul\":5565:5984   */\n      swap2\n      swap1\n      pop\n      jump\t// out\n        /* \"#utility.yul\":5990:6409   */\n    tag_38:\n        /* \"#utility.yul\":6156:6160   */\n      0x00\n        /* \"#utility.yul\":6194:6196   */\n      0x20\n        /* \"#utility.yul\":6183:6192   */\n      dup3\n        /* \"#utility.yul\":6179:6197   */\n      add\n        /* \"#utility.yul\":6171:6197   */\n      swap1\n      pop\n        /* \"#utility.yul\":6243:6252   */\n      dup2\n        /* \"#utility.yul\":6237:6241   */\n      dup2\n        /* \"#utility.yul\":6233:6253   */\n      sub\n        /* \"#utility.yul\":6229:6230   */\n      0x00\n        /* \"#utility.yul\":6218:6227   */\n      dup4\n        /* \"#utility.yul\":6214:6231   */\n      add\n        /* \"#utility.yul\":6207:6254   */\n      mstore\n        /* \"#utility.yul\":6271:6402   */\n      tag_180\n        /* \"#utility.yul\":6397:6401   */\n      dup2\n        /* \"#utility.yul\":6271:6402   */\n      tag_151\n      jump\t// in\n    tag_180:\n        /* \"#utility.yul\":6263:6402   */\n      swap1\n      pop\n        /* \"#utility.yul\":5990:6409   */\n      swap2\n      swap1\n      pop\n      jump\t// out\n        /* \"#utility.yul\":6415:6834   */\n    tag_42:\n        /* \"#utility.yul\":6581:6585   */\n      0x00\n        /* \"#utility.yul\":6619:6621   */\n      0x20\n        /* \"#utility.yul\":6608:6617   */\n      dup3\n        /* \"#utility.yul\":6604:6622   */\n      add\n        /* \"#utility.yul\":6596:6622   */\n      swap1\n      pop\n        /* \"#utility.yul\":6668:6677   */\n      dup2\n        /* \"#utility.yul\":6662:6666   */\n      dup2\n        /* \"#utility.yul\":6658:6678   */\n      sub\n        /* \"#utility.yul\":6654:6655   */\n      0x00\n        /* \"#utility.yul\":6643:6652   */\n      dup4\n        /* \"#utility.yul\":6639:6656   */\n      add\n        /* \"#utility.yul\":6632:6679   */\n      mstore\n        /* \"#utility.yul\":6696:6827   */\n      tag_182\n        /* \"#utility.yul\":6822:6826   */\n      dup2\n        /* \"#utility.yul\":6696:6827   */\n      tag_162\n      jump\t// in\n    tag_182:\n        /* \"#utility.yul\":6688:6827   */\n      swap1\n      pop\n        /* \"#utility.yul\":6415:6834   */\n      swap2\n      swap1\n      pop\n      jump\t// out\n        /* \"#utility.yul\":6840:7062   */\n    tag_14:\n        /* \"#utility.yul\":6933:6937   */\n      0x00\n        /* \"#utility.yul\":6971:6973   */\n      0x20\n        /* \"#utility.yul\":6960:6969   */\n      dup3\n        /* \"#utility.yul\":6956:6974   */\n      add\n        /* \"#utility.yul\":6948:6974   */\n      swap1\n      pop\n        /* \"#utility.yul\":6984:7055   */\n      tag_184\n        /* \"#utility.yul\":7052:7053   */\n      0x00\n        /* \"#utility.yul\":7041:7050   */\n      dup4\n        /* \"#utility.yul\":7037:7054   */\n      add\n        /* \"#utility.yul\":7028:7034   */\n      dup5\n        /* \"#utility.yul\":6984:7055   */\n      tag_167\n      jump\t// in\n    tag_184:\n        /* \"#utility.yul\":6840:7062   */\n      swap3\n      swap2\n      pop\n      pop\n      jump\t// out\n        /* \"#utility.yul\":7149:7296   */\n    tag_159:\n        /* \"#utility.yul\":7250:7261   */\n      0x00\n        /* \"#utility.yul\":7287:7290   */\n      dup2\n        /* \"#utility.yul\":7272:7290   */\n      swap1\n      pop\n        /* \"#utility.yul\":7149:7296   */\n      swap3\n      swap2\n      pop\n      pop\n      jump\t// out\n        /* \"#utility.yul\":7302:7471   */\n    tag_143:\n        /* \"#utility.yul\":7386:7397   */\n      0x00\n        /* \"#utility.yul\":7420:7426   */\n      dup3\n        /* \"#utility.yul\":7415:7418   */\n      dup3\n        /* \"#utility.yul\":7408:7427   */\n      mstore\n        /* \"#utility.yul\":7460:7464   */\n      0x20\n        /* \"#utility.yul\":7455:7458   */\n      dup3\n        /* \"#utility.yul\":7451:7465   */\n      add\n        /* \"#utility.yul\":7436:7465   */\n      swap1\n      pop\n        /* \"#utility.yul\":7302:7471   */\n      swap3\n      swap2\n      pop\n      pop\n      jump\t// out\n        /* \"#utility.yul\":7477:7782   */\n    tag_74:\n        /* \"#utility.yul\":7517:7520   */\n      0x00\n        /* \"#utility.yul\":7536:7556   */\n      tag_190\n        /* \"#utility.yul\":7554:7555   */\n      dup3\n        /* \"#utility.yul\":7536:7556   */\n      tag_170\n      jump\t// in\n    tag_190:\n        /* \"#utility.yul\":7531:7556   */\n      swap2\n      pop\n        /* \"#utility.yul\":7570:7590   */\n      tag_191\n        /* \"#utility.yul\":7588:7589   */\n      dup4\n        /* \"#utility.yul\":7570:7590   */\n      tag_170\n      jump\t// in\n    tag_191:\n        /* \"#utility.yul\":7565:7590   */\n      swap3\n      pop\n        /* \"#utility.yul\":7724:7725   */\n      dup3\n        /* \"#utility.yul\":7656:7722   */\n      0xffffffffffffffffffffffffffffffffffffffffffffffffffffffffffffffff\n        /* \"#utility.yul\":7652:7726   */\n      sub\n        /* \"#utility.yul\":7649:7650   */\n      dup3\n        /* \"#utility.yul\":7646:7727   */\n      gt\n        /* \"#utility.yul\":7643:7750   */\n      iszero\n      tag_192\n      jumpi\n        /* \"#utility.yul\":7730:7748   */\n      tag_193\n      tag_194\n      jump\t// in\n    tag_193:\n        /* \"#utility.yul\":7643:7750   */\n    tag_192:\n        /* \"#utility.yul\":7774:7775   */\n      dup3\n        /* \"#utility.yul\":7771:7772   */\n      dup3\n        /* \"#utility.yul\":7767:7776   */\n      add\n        /* \"#utility.yul\":7760:7776   */\n      swap1\n      pop\n        /* \"#utility.yul\":7477:7782   */\n      swap3\n      swap2\n      pop\n      pop\n      jump\t// out\n        /* \"#utility.yul\":7788:7973   */\n    tag_83:\n        /* \"#utility.yul\":7828:7829   */\n      0x00\n        /* \"#utility.yul\":7845:7865   */\n      tag_196\n        /* \"#utility.yul\":7863:7864   */\n      dup3\n        /* \"#utility.yul\":7845:7865   */\n      tag_170\n      jump\t// in\n    tag_196:\n        /* \"#utility.yul\":7840:7865   */\n      swap2\n      pop\n        /* \"#utility.yul\":7879:7899   */\n      tag_197\n        /* \"#utility.yul\":7897:7898   */\n      dup4\n        /* \"#utility.yul\":7879:7899   */\n      tag_170\n      jump\t// in\n    tag_197:\n        /* \"#utility.yul\":7874:7899   */\n      swap3\n      pop\n        /* \"#utility.yul\":7918:7919   */\n      dup3\n        /* \"#utility.yul\":7908:7943   */\n      tag_198\n      jumpi\n        /* \"#utility.yul\":7923:7941   */\n      tag_199\n      tag_200\n      jump\t// in\n    tag_199:\n        /* \"#utility.yul\":7908:7943   */\n    tag_198:\n        /* \"#utility.yul\":7965:7966   */\n      dup3\n        /* \"#utility.yul\":7962:7963   */\n      dup3\n        /* \"#utility.yul\":7958:7967   */\n      div\n        /* \"#utility.yul\":7953:7967   */\n      swap1\n      pop\n        /* \"#utility.yul\":7788:7973   */\n      swap3\n      swap2\n      pop\n      pop\n      jump\t// out\n        /* \"#utility.yul\":7979:8970   */\n    tag_91:\n        /* \"#utility.yul\":8018:8025   */\n      0x00\n        /* \"#utility.yul\":8041:8060   */\n      tag_202\n        /* \"#utility.yul\":8058:8059   */\n      dup3\n        /* \"#utility.yul\":8041:8060   */\n      tag_203\n      jump\t// in\n    tag_202:\n        /* \"#utility.yul\":8036:8060   */\n      swap2\n      pop\n        /* \"#utility.yul\":8074:8093   */\n      tag_204\n        /* \"#utility.yul\":8091:8092   */\n      dup4\n        /* \"#utility.yul\":8074:8093   */\n      tag_203\n      jump\t// in\n    tag_204:\n        /* \"#utility.yul\":8069:8093   */\n      swap3\n      pop\n        /* \"#utility.yul\":8275:8276   */\n      dup3\n        /* \"#utility.yul\":8207:8273   */\n      0x7fffffffffffffffffffffffffffffffffffffffffffffffffffffffffffffff\n        /* \"#utility.yul\":8203:8277   */\n      div\n        /* \"#utility.yul\":8200:8201   */\n      dup3\n        /* \"#utility.yul\":8197:8278   */\n      gt\n        /* \"#utility.yul\":8192:8193   */\n      0x00\n        /* \"#utility.yul\":8189:8190   */\n      dup5\n        /* \"#utility.yul\":8185:8194   */\n      sgt\n        /* \"#utility.yul\":8181:8182   */\n      0x00\n        /* \"#utility.yul\":8178:8179   */\n      dup5\n        /* \"#utility.yul\":8174:8183   */\n      sgt\n        /* \"#utility.yul\":8170:8195   */\n      and\n        /* \"#utility.yul\":8166:8279   */\n      and\n        /* \"#utility.yul\":8163:8302   */\n      iszero\n      tag_205\n      jumpi\n        /* \"#utility.yul\":8282:8300   */\n      tag_206\n      tag_194\n      jump\t// in\n    tag_206:\n        /* \"#utility.yul\":8163:8302   */\n    tag_205:\n        /* \"#utility.yul\":8486:8487   */\n      dup2\n        /* \"#utility.yul\":8418:8484   */\n      0x8000000000000000000000000000000000000000000000000000000000000000\n        /* \"#utility.yul\":8413:8488   */\n      sdiv\n        /* \"#utility.yul\":8410:8411   */\n      dup4\n        /* \"#utility.yul\":8406:8489   */\n      slt\n        /* \"#utility.yul\":8401:8402   */\n      0x00\n        /* \"#utility.yul\":8398:8399   */\n      dup5\n        /* \"#utility.yul\":8394:8403   */\n      slt\n        /* \"#utility.yul\":8390:8391   */\n      0x00\n        /* \"#utility.yul\":8387:8388   */\n      dup5\n        /* \"#utility.yul\":8383:8392   */\n      sgt\n        /* \"#utility.yul\":8379:8404   */\n      and\n        /* \"#utility.yul\":8375:8490   */\n      and\n        /* \"#utility.yul\":8372:8513   */\n      iszero\n      tag_207\n      jumpi\n        /* \"#utility.yul\":8493:8511   */\n      tag_208\n      tag_194\n      jump\t// in\n    tag_208:\n        /* \"#utility.yul\":8372:8513   */\n    tag_207:\n        /* \"#utility.yul\":8697:8698   */\n      dup3\n        /* \"#utility.yul\":8629:8695   */\n      0x8000000000000000000000000000000000000000000000000000000000000000\n        /* \"#utility.yul\":8624:8699   */\n      sdiv\n        /* \"#utility.yul\":8621:8622   */\n      dup3\n        /* \"#utility.yul\":8617:8700   */\n      slt\n        /* \"#utility.yul\":8612:8613   */\n      0x00\n        /* \"#utility.yul\":8609:8610   */\n      dup5\n        /* \"#utility.yul\":8605:8614   */\n      sgt\n        /* \"#utility.yul\":8601:8602   */\n      0x00\n        /* \"#utility.yul\":8598:8599   */\n      dup5\n        /* \"#utility.yul\":8594:8603   */\n      slt\n        /* \"#utility.yul\":8590:8615   */\n      and\n        /* \"#utility.yul\":8586:8701   */\n      and\n        /* \"#utility.yul\":8583:8724   */\n      iszero\n      tag_209\n      jumpi\n        /* \"#utility.yul\":8704:8722   */\n      tag_210\n      tag_194\n      jump\t// in\n    tag_210:\n        /* \"#utility.yul\":8583:8724   */\n    tag_209:\n        /* \"#utility.yul\":8907:8908   */\n      dup3\n        /* \"#utility.yul\":8839:8905   */\n      0x7fffffffffffffffffffffffffffffffffffffffffffffffffffffffffffffff\n        /* \"#utility.yul\":8834:8909   */\n      sdiv\n        /* \"#utility.yul\":8831:8832   */\n      dup3\n        /* \"#utility.yul\":8827:8910   */\n      slt\n        /* \"#utility.yul\":8822:8823   */\n      0x00\n        /* \"#utility.yul\":8819:8820   */\n      dup5\n        /* \"#utility.yul\":8815:8824   */\n      slt\n        /* \"#utility.yul\":8811:8812   */\n      0x00\n        /* \"#utility.yul\":8808:8809   */\n      dup5\n        /* \"#utility.yul\":8804:8813   */\n      slt\n        /* \"#utility.yul\":8800:8825   */\n      and\n        /* \"#utility.yul\":8796:8911   */\n      and\n        /* \"#utility.yul\":8793:8934   */\n      iszero\n      tag_211\n      jumpi\n        /* \"#utility.yul\":8914:8932   */\n      tag_212\n      tag_194\n      jump\t// in\n    tag_212:\n        /* \"#utility.yul\":8793:8934   */\n    tag_211:\n        /* \"#utility.yul\":8962:8963   */\n      dup3\n        /* \"#utility.yul\":8959:8960   */\n      dup3\n        /* \"#utility.yul\":8955:8964   */\n      mul\n        /* \"#utility.yul\":8944:8964   */\n      swap1\n      pop\n        /* \"#utility.yul\":7979:8970   */\n      swap3\n      swap2\n      pop\n      pop\n      jump\t// out\n        /* \"#utility.yul\":8976:9324   */\n    tag_81:\n        /* \"#utility.yul\":9016:9023   */\n      0x00\n        /* \"#utility.yul\":9039:9059   */\n      tag_214\n        /* \"#utility.yul\":9057:9058   */\n      dup3\n        /* \"#utility.yul\":9039:9059   */\n      tag_170\n      jump\t// in\n    tag_214:\n        /* \"#utility.yul\":9034:9059   */\n      swap2\n      pop\n        /* \"#utility.yul\":9073:9093   */\n      tag_215\n        /* \"#utility.yul\":9091:9092   */\n      dup4\n        /* \"#utility.yul\":9073:9093   */\n      tag_170\n      jump\t// in\n    tag_215:\n        /* \"#utility.yul\":9068:9093   */\n      swap3\n      pop\n        /* \"#utility.yul\":9261:9262   */\n      dup2\n        /* \"#utility.yul\":9193:9259   */\n      0xffffffffffffffffffffffffffffffffffffffffffffffffffffffffffffffff\n        /* \"#utility.yul\":9189:9263   */\n      div\n        /* \"#utility.yul\":9186:9187   */\n      dup4\n        /* \"#utility.yul\":9183:9264   */\n      gt\n        /* \"#utility.yul\":9178:9179   */\n      dup3\n        /* \"#utility.yul\":9171:9180   */\n      iszero\n        /* \"#utility.yul\":9164:9181   */\n      iszero\n        /* \"#utility.yul\":9160:9265   */\n      and\n        /* \"#utility.yul\":9157:9288   */\n      iszero\n      tag_216\n      jumpi\n        /* \"#utility.yul\":9268:9286   */\n      tag_217\n      tag_194\n      jump\t// in\n    tag_217:\n        /* \"#utility.yul\":9157:9288   */\n    tag_216:\n        /* \"#utility.yul\":9316:9317   */\n      dup3\n        /* \"#utility.yul\":9313:9314   */\n      dup3\n        /* \"#utility.yul\":9309:9318   */\n      mul\n        /* \"#utility.yul\":9298:9318   */\n      swap1\n      pop\n        /* \"#utility.yul\":8976:9324   */\n      swap3\n      swap2\n      pop\n      pop\n      jump\t// out\n        /* \"#utility.yul\":9330:9426   */\n    tag_139:\n        /* \"#utility.yul\":9367:9374   */\n      0x00\n        /* \"#utility.yul\":9396:9420   */\n      tag_219\n        /* \"#utility.yul\":9414:9419   */\n      dup3\n        /* \"#utility.yul\":9396:9420   */\n      tag_220\n      jump\t// in\n    tag_219:\n        /* \"#utility.yul\":9385:9420   */\n      swap1\n      pop\n        /* \"#utility.yul\":9330:9426   */\n      swap2\n      swap1\n      pop\n      jump\t// out\n        /* \"#utility.yul\":9432:9508   */\n    tag_203:\n        /* \"#utility.yul\":9468:9475   */\n      0x00\n        /* \"#utility.yul\":9497:9502   */\n      dup2\n        /* \"#utility.yul\":9486:9502   */\n      swap1\n      pop\n        /* \"#utility.yul\":9432:9508   */\n      swap2\n      swap1\n      pop\n      jump\t// out\n        /* \"#utility.yul\":9514:9640   */\n    tag_220:\n        /* \"#utility.yul\":9551:9558   */\n      0x00\n        /* \"#utility.yul\":9591:9633   */\n      0xffffffffffffffffffffffffffffffffffffffff\n        /* \"#utility.yul\":9584:9589   */\n      dup3\n        /* \"#utility.yul\":9580:9634   */\n      and\n        /* \"#utility.yul\":9569:9634   */\n      swap1\n      pop\n        /* \"#utility.yul\":9514:9640   */\n      swap2\n      swap1\n      pop\n      jump\t// out\n        /* \"#utility.yul\":9646:9723   */\n    tag_170:\n        /* \"#utility.yul\":9683:9690   */\n      0x00\n        /* \"#utility.yul\":9712:9717   */\n      dup2\n        /* \"#utility.yul\":9701:9717   */\n      swap1\n      pop\n        /* \"#utility.yul\":9646:9723   */\n      swap2\n      swap1\n      pop\n      jump\t// out\n        /* \"#utility.yul\":9729:9815   */\n    tag_224:\n        /* \"#utility.yul\":9764:9771   */\n      0x00\n        /* \"#utility.yul\":9804:9808   */\n      0xff\n        /* \"#utility.yul\":9797:9802   */\n      dup3\n        /* \"#utility.yul\":9793:9809   */\n      and\n        /* \"#utility.yul\":9782:9809   */\n      swap1\n      pop\n        /* \"#utility.yul\":9729:9815   */\n      swap2\n      swap1\n      pop\n      jump\t// out\n        /* \"#utility.yul\":9821:9926   */\n    tag_226:\n        /* \"#utility.yul\":9857:9864   */\n      0x00\n        /* \"#utility.yul\":9897:9919   */\n      0xffffffffffffffffffff\n        /* \"#utility.yul\":9890:9895   */\n      dup3\n        /* \"#utility.yul\":9886:9920   */\n      and\n        /* \"#utility.yul\":9875:9920   */\n      swap1\n      pop\n        /* \"#utility.yul\":9821:9926   */\n      swap2\n      swap1\n      pop\n      jump\t// out\n        /* \"#utility.yul\":9932:10099   */\n    tag_51:\n        /* \"#utility.yul\":9969:9972   */\n      0x00\n        /* \"#utility.yul\":9992:10014   */\n      tag_229\n        /* \"#utility.yul\":10008:10013   */\n      dup3\n        /* \"#utility.yul\":9992:10014   */\n      tag_224\n      jump\t// in\n    tag_229:\n        /* \"#utility.yul\":9983:10014   */\n      swap2\n      pop\n        /* \"#utility.yul\":10036:10040   */\n      0xff\n        /* \"#utility.yul\":10029:10034   */\n      dup3\n        /* \"#utility.yul\":10026:10041   */\n      eq\n        /* \"#utility.yul\":10023:10064   */\n      iszero\n      tag_230\n      jumpi\n        /* \"#utility.yul\":10044:10062   */\n      tag_231\n      tag_194\n      jump\t// in\n    tag_231:\n        /* \"#utility.yul\":10023:10064   */\n    tag_230:\n        /* \"#utility.yul\":10091:10092   */\n      0x01\n        /* \"#utility.yul\":10084:10089   */\n      dup3\n        /* \"#utility.yul\":10080:10093   */\n      add\n        /* \"#utility.yul\":10073:10093   */\n      swap1\n      pop\n        /* \"#utility.yul\":9932:10099   */\n      swap2\n      swap1\n      pop\n      jump\t// out\n        /* \"#utility.yul\":10105:10285   */\n    tag_194:\n        /* \"#utility.yul\":10153:10230   */\n      0x4e487b7100000000000000000000000000000000000000000000000000000000\n        /* \"#utility.yul\":10150:10151   */\n      0x00\n        /* \"#utility.yul\":10143:10231   */\n      mstore\n        /* \"#utility.yul\":10250:10254   */\n      0x11\n        /* \"#utility.yul\":10247:10248   */\n      0x04\n        /* \"#utility.yul\":10240:10255   */\n      mstore\n        /* \"#utility.yul\":10274:10278   */\n      0x24\n        /* \"#utility.yul\":10271:10272   */\n      0x00\n        /* \"#utility.yul\":10264:10279   */\n      revert\n        /* \"#utility.yul\":10291:10471   */\n    tag_200:\n        /* \"#utility.yul\":10339:10416   */\n      0x4e487b7100000000000000000000000000000000000000000000000000000000\n        /* \"#utility.yul\":10336:10337   */\n      0x00\n        /* \"#utility.yul\":10329:10417   */\n      mstore\n        /* \"#utility.yul\":10436:10440   */\n      0x12\n        /* \"#utility.yul\":10433:10434   */\n      0x04\n        /* \"#utility.yul\":10426:10441   */\n      mstore\n        /* \"#utility.yul\":10460:10464   */\n      0x24\n        /* \"#utility.yul\":10457:10458   */\n      0x00\n        /* \"#utility.yul\":10450:10465   */\n      revert\n        /* \"#utility.yul\":10477:10657   */\n    tag_48:\n        /* \"#utility.yul\":10525:10602   */\n      0x4e487b7100000000000000000000000000000000000000000000000000000000\n        /* \"#utility.yul\":10522:10523   */\n      0x00\n        /* \"#utility.yul\":10515:10603   */\n      mstore\n        /* \"#utility.yul\":10622:10626   */\n      0x32\n        /* \"#utility.yul\":10619:10620   */\n      0x04\n        /* \"#utility.yul\":10612:10627   */\n      mstore\n        /* \"#utility.yul\":10646:10650   */\n      0x24\n        /* \"#utility.yul\":10643:10644   */\n      0x00\n        /* \"#utility.yul\":10636:10651   */\n      revert\n        /* \"#utility.yul\":10663:10843   */\n    tag_54:\n        /* \"#utility.yul\":10711:10788   */\n      0x4e487b7100000000000000000000000000000000000000000000000000000000\n        /* \"#utility.yul\":10708:10709   */\n      0x00\n        /* \"#utility.yul\":10701:10789   */\n      mstore\n        /* \"#utility.yul\":10808:10812   */\n      0x41\n        /* \"#utility.yul\":10805:10806   */\n      0x04\n        /* \"#utility.yul\":10798:10813   */\n      mstore\n        /* \"#utility.yul\":10832:10836   */\n      0x24\n        /* \"#utility.yul\":10829:10830   */\n      0x00\n        /* \"#utility.yul\":10822:10837   */\n      revert\n        /* \"#utility.yul\":10972:11089   */\n    tag_122:\n        /* \"#utility.yul\":11081:11082   */\n      0x00\n        /* \"#utility.yul\":11078:11079   */\n      dup1\n        /* \"#utility.yul\":11071:11083   */\n      revert\n        /* \"#utility.yul\":11095:11263   */\n    tag_145:\n        /* \"#utility.yul\":11235:11255   */\n      0x54686572652077617320616e206572726f720000000000000000000000000000\n        /* \"#utility.yul\":11231:11232   */\n      0x00\n        /* \"#utility.yul\":11223:11229   */\n      dup3\n        /* \"#utility.yul\":11219:11233   */\n      add\n        /* \"#utility.yul\":11212:11256   */\n      mstore\n        /* \"#utility.yul\":11095:11263   */\n      pop\n      jump\t// out\n        /* \"#utility.yul\":11269:11438   */\n    tag_150:\n        /* \"#utility.yul\":11409:11430   */\n      0x446964206e6f742073656e6420656e6f75676800000000000000000000000000\n        /* \"#utility.yul\":11405:11406   */\n      0x00\n        /* \"#utility.yul\":11397:11403   */\n      dup3\n        /* \"#utility.yul\":11393:11407   */\n      add\n        /* \"#utility.yul\":11386:11431   */\n      mstore\n        /* \"#utility.yul\":11269:11438   */\n      pop\n      jump\t// out\n        /* \"#utility.yul\":11444:11613   */\n    tag_155:\n        /* \"#utility.yul\":11584:11605   */\n      0x53656e646572206973206e6f74206f776e657200000000000000000000000000\n        /* \"#utility.yul\":11580:11581   */\n      0x00\n        /* \"#utility.yul\":11572:11578   */\n      dup3\n        /* \"#utility.yul\":11568:11582   */\n      add\n        /* \"#utility.yul\":11561:11606   */\n      mstore\n        /* \"#utility.yul\":11444:11613   */\n      pop\n      jump\t// out\n        /* \"#utility.yul\":11619:11733   */\n    tag_161:\n      pop\n      jump\t// out\n        /* \"#utility.yul\":11739:11906   */\n    tag_166:\n        /* \"#utility.yul\":11879:11898   */\n      0x596f7520617265206e6f74206f776e6572000000000000000000000000000000\n        /* \"#utility.yul\":11875:11876   */\n      0x00\n        /* \"#utility.yul\":11867:11873   */\n      dup3\n        /* \"#utility.yul\":11863:11877   */\n      add\n        /* \"#utility.yul\":11856:11899   */\n      mstore\n        /* \"#utility.yul\":11739:11906   */\n      pop\n      jump\t// out\n        /* \"#utility.yul\":11912:12034   */\n    tag_103:\n        /* \"#utility.yul\":11985:12009   */\n      tag_245\n        /* \"#utility.yul\":12003:12008   */\n      dup2\n        /* \"#utility.yul\":11985:12009   */\n      tag_139\n      jump\t// in\n    tag_245:\n        /* \"#utility.yul\":11978:11983   */\n      dup2\n        /* \"#utility.yul\":11975:12010   */\n      eq\n        /* \"#utility.yul\":11965:12028   */\n      tag_246\n      jumpi\n        /* \"#utility.yul\":12024:12025   */\n      0x00\n        /* \"#utility.yul\":12021:12022   */\n      dup1\n        /* \"#utility.yul\":12014:12026   */\n      revert\n        /* \"#utility.yul\":11965:12028   */\n    tag_246:\n        /* \"#utility.yul\":11912:12034   */\n      pop\n      jump\t// out\n        /* \"#utility.yul\":12040:12160   */\n    tag_107:\n        /* \"#utility.yul\":12112:12135   */\n      tag_248\n        /* \"#utility.yul\":12129:12134   */\n      dup2\n        /* \"#utility.yul\":12112:12135   */\n      tag_203\n      jump\t// in\n    tag_248:\n        /* \"#utility.yul\":12105:12110   */\n      dup2\n        /* \"#utility.yul\":12102:12136   */\n      eq\n        /* \"#utility.yul\":12092:12154   */\n      tag_249\n      jumpi\n        /* \"#utility.yul\":12150:12151   */\n      0x00\n        /* \"#utility.yul\":12147:12148   */\n      dup1\n        /* \"#utility.yul\":12140:12152   */\n      revert\n        /* \"#utility.yul\":12092:12154   */\n    tag_249:\n        /* \"#utility.yul\":12040:12160   */\n      pop\n      jump\t// out\n        /* \"#utility.yul\":12166:12288   */\n    tag_111:\n        /* \"#utility.yul\":12239:12263   */\n      tag_251\n        /* \"#utility.yul\":12257:12262   */\n      dup2\n        /* \"#utility.yul\":12239:12263   */\n      tag_170\n      jump\t// in\n    tag_251:\n        /* \"#utility.yul\":12232:12237   */\n      dup2\n        /* \"#utility.yul\":12229:12264   */\n      eq\n        /* \"#utility.yul\":12219:12282   */\n      tag_252\n      jumpi\n        /* \"#utility.yul\":12278:12279   */\n      0x00\n        /* \"#utility.yul\":12275:12276   */\n      dup1\n        /* \"#utility.yul\":12268:12280   */\n      revert\n        /* \"#utility.yul\":12219:12282   */\n    tag_252:\n        /* \"#utility.yul\":12166:12288   */\n      pop\n      jump\t// out\n        /* \"#utility.yul\":12294:12414   */\n    tag_118:\n        /* \"#utility.yul\":12366:12389   */\n      tag_254\n        /* \"#utility.yul\":12383:12388   */\n      dup2\n        /* \"#utility.yul\":12366:12389   */\n      tag_226\n      jump\t// in\n    tag_254:\n        /* \"#utility.yul\":12359:12364   */\n      dup2\n        /* \"#utility.yul\":12356:12390   */\n      eq\n        /* \"#utility.yul\":12346:12408   */\n      tag_255\n      jumpi\n        /* \"#utility.yul\":12404:12405   */\n      0x00\n        /* \"#utility.yul\":12401:12402   */\n      dup1\n        /* \"#utility.yul\":12394:12406   */\n      revert\n        /* \"#utility.yul\":12346:12408   */\n    tag_255:\n        /* \"#utility.yul\":12294:12414   */\n      pop\n      jump\t// out\n\n    auxdata: 0xa264697066735822122051aee3c0e4e8b04021175bfe4b6c63dda1e88b51a87347362f626c96a255c5c864736f6c63430008070033\n}\n",
				"bytecode": {
					"linkReferences": {},
					"object": "608060405234801561001057600080fd5b5033600260006101000a81548173ffffffffffffffffffffffffffffffffffffffff021916908373ffffffffffffffffffffffffffffffffffffffff160217905550610ebd806100616000396000f3fe6080604052600436106100555760003560e01c80632398fa151461005a5780633ccfd60b146100975780636b69a592146100ae5780638da5cb5b146100d9578063b60d428814610104578063dc0d3dff1461010e575b600080fd5b34801561006657600080fd5b50610081600480360381019061007c91906107af565b61014b565b60405161008e9190610a01565b60405180910390f35b3480156100a357600080fd5b506100ac610163565b005b3480156100ba57600080fd5b506100c361043e565b6040516100d09190610a01565b60405180910390f35b3480156100e557600080fd5b506100ee61044b565b6040516100fb9190610966565b60405180910390f35b61010c610471565b005b34801561011a57600080fd5b50610135600480360381019061013091906107dc565b61057f565b6040516101429190610966565b60405180910390f35b60016020528060005260406000206000915090505481565b600260009054906101000a900473ffffffffffffffffffffffffffffffffffffffff1673ffffffffffffffffffffffffffffffffffffffff163373ffffffffffffffffffffffffffffffffffffffff16146101f3576040517f08c379a00000000000000000000000000000000000000000000000000000000081526004016101ea906109c1565b60405180910390fd5b600260009054906101000a900473ffffffffffffffffffffffffffffffffffffffff1673ffffffffffffffffffffffffffffffffffffffff163373ffffffffffffffffffffffffffffffffffffffff1614610283576040517f08c379a000000000000000000000000000000000000000000000000000000000815260040161027a906109e1565b60405180910390fd5b60005b6000805490508160ff16101561032e57600060016000808460ff16815481106102b2576102b1610d21565b5b9060005260206000200160009054906101000a900473ffffffffffffffffffffffffffffffffffffffff1673ffffffffffffffffffffffffffffffffffffffff1673ffffffffffffffffffffffffffffffffffffffff16815260200190815260200160002081905550808061032690610c99565b915050610286565b50600067ffffffffffffffff81111561034a57610349610d50565b5b6040519080825280602002602001820160405280156103785781602001602082028036833780820191505090505b506000908051906020019061038e92919061069f565b5060003373ffffffffffffffffffffffffffffffffffffffff16476040516103b590610951565b60006040518083038185875af1925050503d80600081146103f2576040519150601f19603f3d011682016040523d82523d6000602084013e6103f7565b606091505b505090508061043b576040517f08c379a000000000000000000000000000000000000000000000000000000000815260040161043290610981565b60405180910390fd5b50565b6802b5e3af16b188000081565b600260009054906101000a900473ffffffffffffffffffffffffffffffffffffffff1681565b6802b5e3af16b1880000610484346105be565b116104c4576040517f08c379a00000000000000000000000000000000000000000000000000000000081526004016104bb906109a1565b60405180910390fd5b6000339080600181540180825580915050600190039060005260206000200160009091909190916101000a81548173ffffffffffffffffffffffffffffffffffffffff021916908373ffffffffffffffffffffffffffffffffffffffff16021790555034600160003373ffffffffffffffffffffffffffffffffffffffff1673ffffffffffffffffffffffffffffffffffffffff16815260200190815260200160002060008282546105769190610a38565b92505081905550565b6000818154811061058f57600080fd5b906000526020600020016000915054906101000a900473ffffffffffffffffffffffffffffffffffffffff1681565b6000670de0b6b3a7640000826105d26105ed565b6105dc9190610bd6565b6105e69190610a8e565b9050919050565b60008073d4a33860578de61dbabdc8bfdb98fd742fa7028e73ffffffffffffffffffffffffffffffffffffffff1663feaf968c6040518163ffffffff1660e01b815260040160a06040518083038186803b15801561064a57600080fd5b505afa15801561065e573d6000803e3d6000fd5b505050506040513d601f19601f820116820180604052508101906106829190610809565b5050509150506402540be400816106999190610abf565b91505090565b828054828255906000526020600020908101928215610718579160200282015b828111156107175782518260006101000a81548173ffffffffffffffffffffffffffffffffffffffff021916908373ffffffffffffffffffffffffffffffffffffffff160217905550916020019190600101906106bf565b5b5090506107259190610729565b5090565b5b8082111561074257600081600090555060010161072a565b5090565b60008135905061075581610e2b565b92915050565b60008151905061076a81610e42565b92915050565b60008135905061077f81610e59565b92915050565b60008151905061079481610e59565b92915050565b6000815190506107a981610e70565b92915050565b6000602082840312156107c5576107c4610d7f565b5b60006107d384828501610746565b91505092915050565b6000602082840312156107f2576107f1610d7f565b5b600061080084828501610770565b91505092915050565b600080600080600060a0868803121561082557610824610d7f565b5b60006108338882890161079a565b95505060206108448882890161075b565b945050604061085588828901610785565b935050606061086688828901610785565b92505060806108778882890161079a565b9150509295509295909350565b61088d81610c30565b82525050565b60006108a0601283610a27565b91506108ab82610d84565b602082019050919050565b60006108c3601383610a27565b91506108ce82610dad565b602082019050919050565b60006108e6601383610a27565b91506108f182610dd6565b602082019050919050565b6000610909600083610a1c565b915061091482610dff565b600082019050919050565b600061092c601183610a27565b915061093782610e02565b602082019050919050565b61094b81610c6c565b82525050565b600061095c826108fc565b9150819050919050565b600060208201905061097b6000830184610884565b92915050565b6000602082019050818103600083015261099a81610893565b9050919050565b600060208201905081810360008301526109ba816108b6565b9050919050565b600060208201905081810360008301526109da816108d9565b9050919050565b600060208201905081810360008301526109fa8161091f565b9050919050565b6000602082019050610a166000830184610942565b92915050565b600081905092915050565b600082825260208201905092915050565b6000610a4382610c6c565b9150610a4e83610c6c565b9250827fffffffffffffffffffffffffffffffffffffffffffffffffffffffffffffffff03821115610a8357610a82610cc3565b5b828201905092915050565b6000610a9982610c6c565b9150610aa483610c6c565b925082610ab457610ab3610cf2565b5b828204905092915050565b6000610aca82610c42565b9150610ad583610c42565b9250827f7fffffffffffffffffffffffffffffffffffffffffffffffffffffffffffffff0482116000841360008413161615610b1457610b13610cc3565b5b817f80000000000000000000000000000000000000000000000000000000000000000583126000841260008413161615610b5157610b50610cc3565b5b827f80000000000000000000000000000000000000000000000000000000000000000582126000841360008412161615610b8e57610b8d610cc3565b5b827f7fffffffffffffffffffffffffffffffffffffffffffffffffffffffffffffff0582126000841260008412161615610bcb57610bca610cc3565b5b828202905092915050565b6000610be182610c6c565b9150610bec83610c6c565b9250817fffffffffffffffffffffffffffffffffffffffffffffffffffffffffffffffff0483118215151615610c2557610c24610cc3565b5b828202905092915050565b6000610c3b82610c4c565b9050919050565b6000819050919050565b600073ffffffffffffffffffffffffffffffffffffffff82169050919050565b6000819050919050565b600060ff82169050919050565b600069ffffffffffffffffffff82169050919050565b6000610ca482610c76565b915060ff821415610cb857610cb7610cc3565b5b600182019050919050565b7f4e487b7100000000000000000000000000000000000000000000000000000000600052601160045260246000fd5b7f4e487b7100000000000000000000000000000000000000000000000000000000600052601260045260246000fd5b7f4e487b7100000000000000000000000000000000000000000000000000000000600052603260045260246000fd5b7f4e487b7100000000000000000000000000000000000000000000000000000000600052604160045260246000fd5b600080fd5b7f54686572652077617320616e206572726f720000000000000000000000000000600082015250565b7f446964206e6f742073656e6420656e6f75676800000000000000000000000000600082015250565b7f53656e646572206973206e6f74206f776e657200000000000000000000000000600082015250565b50565b7f596f7520617265206e6f74206f776e6572000000000000000000000000000000600082015250565b610e3481610c30565b8114610e3f57600080fd5b50565b610e4b81610c42565b8114610e5657600080fd5b50565b610e6281610c6c565b8114610e6d57600080fd5b50565b610e7981610c83565b8114610e8457600080fd5b5056fea264697066735822122051aee3c0e4e8b04021175bfe4b6c63dda1e88b51a87347362f626c96a255c5c864736f6c63430008070033",
					"opcodes": "PUSH1 0x80 PUSH1 0x40 MSTORE CALLVALUE DUP1 ISZERO PUSH2 0x10 JUMPI PUSH1 0x0 DUP1 REVERT JUMPDEST POP CALLER PUSH1 0x2 PUSH1 0x0 PUSH2 0x100 EXP DUP2 SLOAD DUP2 PUSH20 0xFFFFFFFFFFFFFFFFFFFFFFFFFFFFFFFFFFFFFFFF MUL NOT AND SWAP1 DUP4 PUSH20 0xFFFFFFFFFFFFFFFFFFFFFFFFFFFFFFFFFFFFFFFF AND MUL OR SWAP1 SSTORE POP PUSH2 0xEBD DUP1 PUSH2 0x61 PUSH1 0x0 CODECOPY PUSH1 0x0 RETURN INVALID PUSH1 0x80 PUSH1 0x40 MSTORE PUSH1 0x4 CALLDATASIZE LT PUSH2 0x55 JUMPI PUSH1 0x0 CALLDATALOAD PUSH1 0xE0 SHR DUP1 PUSH4 0x2398FA15 EQ PUSH2 0x5A JUMPI DUP1 PUSH4 0x3CCFD60B EQ PUSH2 0x97 JUMPI DUP1 PUSH4 0x6B69A592 EQ PUSH2 0xAE JUMPI DUP1 PUSH4 0x8DA5CB5B EQ PUSH2 0xD9 JUMPI DUP1 PUSH4 0xB60D4288 EQ PUSH2 0x104 JUMPI DUP1 PUSH4 0xDC0D3DFF EQ PUSH2 0x10E JUMPI JUMPDEST PUSH1 0x0 DUP1 REVERT JUMPDEST CALLVALUE DUP1 ISZERO PUSH2 0x66 JUMPI PUSH1 0x0 DUP1 REVERT JUMPDEST POP PUSH2 0x81 PUSH1 0x4 DUP1 CALLDATASIZE SUB DUP2 ADD SWAP1 PUSH2 0x7C SWAP2 SWAP1 PUSH2 0x7AF JUMP JUMPDEST PUSH2 0x14B JUMP JUMPDEST PUSH1 0x40 MLOAD PUSH2 0x8E SWAP2 SWAP1 PUSH2 0xA01 JUMP JUMPDEST PUSH1 0x40 MLOAD DUP1 SWAP2 SUB SWAP1 RETURN JUMPDEST CALLVALUE DUP1 ISZERO PUSH2 0xA3 JUMPI PUSH1 0x0 DUP1 REVERT JUMPDEST POP PUSH2 0xAC PUSH2 0x163 JUMP JUMPDEST STOP JUMPDEST CALLVALUE DUP1 ISZERO PUSH2 0xBA JUMPI PUSH1 0x0 DUP1 REVERT JUMPDEST POP PUSH2 0xC3 PUSH2 0x43E JUMP JUMPDEST PUSH1 0x40 MLOAD PUSH2 0xD0 SWAP2 SWAP1 PUSH2 0xA01 JUMP JUMPDEST PUSH1 0x40 MLOAD DUP1 SWAP2 SUB SWAP1 RETURN JUMPDEST CALLVALUE DUP1 ISZERO PUSH2 0xE5 JUMPI PUSH1 0x0 DUP1 REVERT JUMPDEST POP PUSH2 0xEE PUSH2 0x44B JUMP JUMPDEST PUSH1 0x40 MLOAD PUSH2 0xFB SWAP2 SWAP1 PUSH2 0x966 JUMP JUMPDEST PUSH1 0x40 MLOAD DUP1 SWAP2 SUB SWAP1 RETURN JUMPDEST PUSH2 0x10C PUSH2 0x471 JUMP JUMPDEST STOP JUMPDEST CALLVALUE DUP1 ISZERO PUSH2 0x11A JUMPI PUSH1 0x0 DUP1 REVERT JUMPDEST POP PUSH2 0x135 PUSH1 0x4 DUP1 CALLDATASIZE SUB DUP2 ADD SWAP1 PUSH2 0x130 SWAP2 SWAP1 PUSH2 0x7DC JUMP JUMPDEST PUSH2 0x57F JUMP JUMPDEST PUSH1 0x40 MLOAD PUSH2 0x142 SWAP2 SWAP1 PUSH2 0x966 JUMP JUMPDEST PUSH1 0x40 MLOAD DUP1 SWAP2 SUB SWAP1 RETURN JUMPDEST PUSH1 0x1 PUSH1 0x20 MSTORE DUP1 PUSH1 0x0 MSTORE PUSH1 0x40 PUSH1 0x0 KECCAK256 PUSH1 0x0 SWAP2 POP SWAP1 POP SLOAD DUP2 JUMP JUMPDEST PUSH1 0x2 PUSH1 0x0 SWAP1 SLOAD SWAP1 PUSH2 0x100 EXP SWAP1 DIV PUSH20 0xFFFFFFFFFFFFFFFFFFFFFFFFFFFFFFFFFFFFFFFF AND PUSH20 0xFFFFFFFFFFFFFFFFFFFFFFFFFFFFFFFFFFFFFFFF AND CALLER PUSH20 0xFFFFFFFFFFFFFFFFFFFFFFFFFFFFFFFFFFFFFFFF AND EQ PUSH2 0x1F3 JUMPI PUSH1 0x40 MLOAD PUSH32 0x8C379A000000000000000000000000000000000000000000000000000000000 DUP2 MSTORE PUSH1 0x4 ADD PUSH2 0x1EA SWAP1 PUSH2 0x9C1 JUMP JUMPDEST PUSH1 0x40 MLOAD DUP1 SWAP2 SUB SWAP1 REVERT JUMPDEST PUSH1 0x2 PUSH1 0x0 SWAP1 SLOAD SWAP1 PUSH2 0x100 EXP SWAP1 DIV PUSH20 0xFFFFFFFFFFFFFFFFFFFFFFFFFFFFFFFFFFFFFFFF AND PUSH20 0xFFFFFFFFFFFFFFFFFFFFFFFFFFFFFFFFFFFFFFFF AND CALLER PUSH20 0xFFFFFFFFFFFFFFFFFFFFFFFFFFFFFFFFFFFFFFFF AND EQ PUSH2 0x283 JUMPI PUSH1 0x40 MLOAD PUSH32 0x8C379A000000000000000000000000000000000000000000000000000000000 DUP2 MSTORE PUSH1 0x4 ADD PUSH2 0x27A SWAP1 PUSH2 0x9E1 JUMP JUMPDEST PUSH1 0x40 MLOAD DUP1 SWAP2 SUB SWAP1 REVERT JUMPDEST PUSH1 0x0 JUMPDEST PUSH1 0x0 DUP1 SLOAD SWAP1 POP DUP2 PUSH1 0xFF AND LT ISZERO PUSH2 0x32E JUMPI PUSH1 0x0 PUSH1 0x1 PUSH1 0x0 DUP1 DUP5 PUSH1 0xFF AND DUP2 SLOAD DUP2 LT PUSH2 0x2B2 JUMPI PUSH2 0x2B1 PUSH2 0xD21 JUMP JUMPDEST JUMPDEST SWAP1 PUSH1 0x0 MSTORE PUSH1 0x20 PUSH1 0x0 KECCAK256 ADD PUSH1 0x0 SWAP1 SLOAD SWAP1 PUSH2 0x100 EXP SWAP1 DIV PUSH20 0xFFFFFFFFFFFFFFFFFFFFFFFFFFFFFFFFFFFFFFFF AND PUSH20 0xFFFFFFFFFFFFFFFFFFFFFFFFFFFFFFFFFFFFFFFF AND PUSH20 0xFFFFFFFFFFFFFFFFFFFFFFFFFFFFFFFFFFFFFFFF AND DUP2 MSTORE PUSH1 0x20 ADD SWAP1 DUP2 MSTORE PUSH1 0x20 ADD PUSH1 0x0 KECCAK256 DUP2 SWAP1 SSTORE POP DUP1 DUP1 PUSH2 0x326 SWAP1 PUSH2 0xC99 JUMP JUMPDEST SWAP2 POP POP PUSH2 0x286 JUMP JUMPDEST POP PUSH1 0x0 PUSH8 0xFFFFFFFFFFFFFFFF DUP2 GT ISZERO PUSH2 0x34A JUMPI PUSH2 0x349 PUSH2 0xD50 JUMP JUMPDEST JUMPDEST PUSH1 0x40 MLOAD SWAP1 DUP1 DUP3 MSTORE DUP1 PUSH1 0x20 MUL PUSH1 0x20 ADD DUP3 ADD PUSH1 0x40 MSTORE DUP1 ISZERO PUSH2 0x378 JUMPI DUP2 PUSH1 0x20 ADD PUSH1 0x20 DUP3 MUL DUP1 CALLDATASIZE DUP4 CALLDATACOPY DUP1 DUP3 ADD SWAP2 POP POP SWAP1 POP JUMPDEST POP PUSH1 0x0 SWAP1 DUP1 MLOAD SWAP1 PUSH1 0x20 ADD SWAP1 PUSH2 0x38E SWAP3 SWAP2 SWAP1 PUSH2 0x69F JUMP JUMPDEST POP PUSH1 0x0 CALLER PUSH20 0xFFFFFFFFFFFFFFFFFFFFFFFFFFFFFFFFFFFFFFFF AND SELFBALANCE PUSH1 0x40 MLOAD PUSH2 0x3B5 SWAP1 PUSH2 0x951 JUMP JUMPDEST PUSH1 0x0 PUSH1 0x40 MLOAD DUP1 DUP4 SUB DUP2 DUP6 DUP8 GAS CALL SWAP3 POP POP POP RETURNDATASIZE DUP1 PUSH1 0x0 DUP2 EQ PUSH2 0x3F2 JUMPI PUSH1 0x40 MLOAD SWAP2 POP PUSH1 0x1F NOT PUSH1 0x3F RETURNDATASIZE ADD AND DUP3 ADD PUSH1 0x40 MSTORE RETURNDATASIZE DUP3 MSTORE RETURNDATASIZE PUSH1 0x0 PUSH1 0x20 DUP5 ADD RETURNDATACOPY PUSH2 0x3F7 JUMP JUMPDEST PUSH1 0x60 SWAP2 POP JUMPDEST POP POP SWAP1 POP DUP1 PUSH2 0x43B JUMPI PUSH1 0x40 MLOAD PUSH32 0x8C379A000000000000000000000000000000000000000000000000000000000 DUP2 MSTORE PUSH1 0x4 ADD PUSH2 0x432 SWAP1 PUSH2 0x981 JUMP JUMPDEST PUSH1 0x40 MLOAD DUP1 SWAP2 SUB SWAP1 REVERT JUMPDEST POP JUMP JUMPDEST PUSH9 0x2B5E3AF16B1880000 DUP2 JUMP JUMPDEST PUSH1 0x2 PUSH1 0x0 SWAP1 SLOAD SWAP1 PUSH2 0x100 EXP SWAP1 DIV PUSH20 0xFFFFFFFFFFFFFFFFFFFFFFFFFFFFFFFFFFFFFFFF AND DUP2 JUMP JUMPDEST PUSH9 0x2B5E3AF16B1880000 PUSH2 0x484 CALLVALUE PUSH2 0x5BE JUMP JUMPDEST GT PUSH2 0x4C4 JUMPI PUSH1 0x40 MLOAD PUSH32 0x8C379A000000000000000000000000000000000000000000000000000000000 DUP2 MSTORE PUSH1 0x4 ADD PUSH2 0x4BB SWAP1 PUSH2 0x9A1 JUMP JUMPDEST PUSH1 0x40 MLOAD DUP1 SWAP2 SUB SWAP1 REVERT JUMPDEST PUSH1 0x0 CALLER SWAP1 DUP1 PUSH1 0x1 DUP2 SLOAD ADD DUP1 DUP3 SSTORE DUP1 SWAP2 POP POP PUSH1 0x1 SWAP1 SUB SWAP1 PUSH1 0x0 MSTORE PUSH1 0x20 PUSH1 0x0 KECCAK256 ADD PUSH1 0x0 SWAP1 SWAP2 SWAP1 SWAP2 SWAP1 SWAP2 PUSH2 0x100 EXP DUP2 SLOAD DUP2 PUSH20 0xFFFFFFFFFFFFFFFFFFFFFFFFFFFFFFFFFFFFFFFF MUL NOT AND SWAP1 DUP4 PUSH20 0xFFFFFFFFFFFFFFFFFFFFFFFFFFFFFFFFFFFFFFFF AND MUL OR SWAP1 SSTORE POP CALLVALUE PUSH1 0x1 PUSH1 0x0 CALLER PUSH20 0xFFFFFFFFFFFFFFFFFFFFFFFFFFFFFFFFFFFFFFFF AND PUSH20 0xFFFFFFFFFFFFFFFFFFFFFFFFFFFFFFFFFFFFFFFF AND DUP2 MSTORE PUSH1 0x20 ADD SWAP1 DUP2 MSTORE PUSH1 0x20 ADD PUSH1 0x0 KECCAK256 PUSH1 0x0 DUP3 DUP3 SLOAD PUSH2 0x576 SWAP2 SWAP1 PUSH2 0xA38 JUMP JUMPDEST SWAP3 POP POP DUP2 SWAP1 SSTORE POP JUMP JUMPDEST PUSH1 0x0 DUP2 DUP2 SLOAD DUP2 LT PUSH2 0x58F JUMPI PUSH1 0x0 DUP1 REVERT JUMPDEST SWAP1 PUSH1 0x0 MSTORE PUSH1 0x20 PUSH1 0x0 KECCAK256 ADD PUSH1 0x0 SWAP2 POP SLOAD SWAP1 PUSH2 0x100 EXP SWAP1 DIV PUSH20 0xFFFFFFFFFFFFFFFFFFFFFFFFFFFFFFFFFFFFFFFF AND DUP2 JUMP JUMPDEST PUSH1 0x0 PUSH8 0xDE0B6B3A7640000 DUP3 PUSH2 0x5D2 PUSH2 0x5ED JUMP JUMPDEST PUSH2 0x5DC SWAP2 SWAP1 PUSH2 0xBD6 JUMP JUMPDEST PUSH2 0x5E6 SWAP2 SWAP1 PUSH2 0xA8E JUMP JUMPDEST SWAP1 POP SWAP2 SWAP1 POP JUMP JUMPDEST PUSH1 0x0 DUP1 PUSH20 0xD4A33860578DE61DBABDC8BFDB98FD742FA7028E PUSH20 0xFFFFFFFFFFFFFFFFFFFFFFFFFFFFFFFFFFFFFFFF AND PUSH4 0xFEAF968C PUSH1 0x40 MLOAD DUP2 PUSH4 0xFFFFFFFF AND PUSH1 0xE0 SHL DUP2 MSTORE PUSH1 0x4 ADD PUSH1 0xA0 PUSH1 0x40 MLOAD DUP1 DUP4 SUB DUP2 DUP7 DUP1 EXTCODESIZE ISZERO DUP1 ISZERO PUSH2 0x64A JUMPI PUSH1 0x0 DUP1 REVERT JUMPDEST POP GAS STATICCALL ISZERO DUP1 ISZERO PUSH2 0x65E JUMPI RETURNDATASIZE PUSH1 0x0 DUP1 RETURNDATACOPY RETURNDATASIZE PUSH1 0x0 REVERT JUMPDEST POP POP POP POP PUSH1 0x40 MLOAD RETURNDATASIZE PUSH1 0x1F NOT PUSH1 0x1F DUP3 ADD AND DUP3 ADD DUP1 PUSH1 0x40 MSTORE POP DUP2 ADD SWAP1 PUSH2 0x682 SWAP2 SWAP1 PUSH2 0x809 JUMP JUMPDEST POP POP POP SWAP2 POP POP PUSH5 0x2540BE400 DUP2 PUSH2 0x699 SWAP2 SWAP1 PUSH2 0xABF JUMP JUMPDEST SWAP2 POP POP SWAP1 JUMP JUMPDEST DUP3 DUP1 SLOAD DUP3 DUP3 SSTORE SWAP1 PUSH1 0x0 MSTORE PUSH1 0x20 PUSH1 0x0 KECCAK256 SWAP1 DUP2 ADD SWAP3 DUP3 ISZERO PUSH2 0x718 JUMPI SWAP2 PUSH1 0x20 MUL DUP3 ADD JUMPDEST DUP3 DUP2 GT ISZERO PUSH2 0x717 JUMPI DUP3 MLOAD DUP3 PUSH1 0x0 PUSH2 0x100 EXP DUP2 SLOAD DUP2 PUSH20 0xFFFFFFFFFFFFFFFFFFFFFFFFFFFFFFFFFFFFFFFF MUL NOT AND SWAP1 DUP4 PUSH20 0xFFFFFFFFFFFFFFFFFFFFFFFFFFFFFFFFFFFFFFFF AND MUL OR SWAP1 SSTORE POP SWAP2 PUSH1 0x20 ADD SWAP2 SWAP1 PUSH1 0x1 ADD SWAP1 PUSH2 0x6BF JUMP JUMPDEST JUMPDEST POP SWAP1 POP PUSH2 0x725 SWAP2 SWAP1 PUSH2 0x729 JUMP JUMPDEST POP SWAP1 JUMP JUMPDEST JUMPDEST DUP1 DUP3 GT ISZERO PUSH2 0x742 JUMPI PUSH1 0x0 DUP2 PUSH1 0x0 SWAP1 SSTORE POP PUSH1 0x1 ADD PUSH2 0x72A JUMP JUMPDEST POP SWAP1 JUMP JUMPDEST PUSH1 0x0 DUP2 CALLDATALOAD SWAP1 POP PUSH2 0x755 DUP2 PUSH2 0xE2B JUMP JUMPDEST SWAP3 SWAP2 POP POP JUMP JUMPDEST PUSH1 0x0 DUP2 MLOAD SWAP1 POP PUSH2 0x76A DUP2 PUSH2 0xE42 JUMP JUMPDEST SWAP3 SWAP2 POP POP JUMP JUMPDEST PUSH1 0x0 DUP2 CALLDATALOAD SWAP1 POP PUSH2 0x77F DUP2 PUSH2 0xE59 JUMP JUMPDEST SWAP3 SWAP2 POP POP JUMP JUMPDEST PUSH1 0x0 DUP2 MLOAD SWAP1 POP PUSH2 0x794 DUP2 PUSH2 0xE59 JUMP JUMPDEST SWAP3 SWAP2 POP POP JUMP JUMPDEST PUSH1 0x0 DUP2 MLOAD SWAP1 POP PUSH2 0x7A9 DUP2 PUSH2 0xE70 JUMP JUMPDEST SWAP3 SWAP2 POP POP JUMP JUMPDEST PUSH1 0x0 PUSH1 0x20 DUP3 DUP5 SUB SLT ISZERO PUSH2 0x7C5 JUMPI PUSH2 0x7C4 PUSH2 0xD7F JUMP JUMPDEST JUMPDEST PUSH1 0x0 PUSH2 0x7D3 DUP5 DUP3 DUP6 ADD PUSH2 0x746 JUMP JUMPDEST SWAP2 POP POP SWAP3 SWAP2 POP POP JUMP JUMPDEST PUSH1 0x0 PUSH1 0x20 DUP3 DUP5 SUB SLT ISZERO PUSH2 0x7F2 JUMPI PUSH2 0x7F1 PUSH2 0xD7F JUMP JUMPDEST JUMPDEST PUSH1 0x0 PUSH2 0x800 DUP5 DUP3 DUP6 ADD PUSH2 0x770 JUMP JUMPDEST SWAP2 POP POP SWAP3 SWAP2 POP POP JUMP JUMPDEST PUSH1 0x0 DUP1 PUSH1 0x0 DUP1 PUSH1 0x0 PUSH1 0xA0 DUP7 DUP9 SUB SLT ISZERO PUSH2 0x825 JUMPI PUSH2 0x824 PUSH2 0xD7F JUMP JUMPDEST JUMPDEST PUSH1 0x0 PUSH2 0x833 DUP9 DUP3 DUP10 ADD PUSH2 0x79A JUMP JUMPDEST SWAP6 POP POP PUSH1 0x20 PUSH2 0x844 DUP9 DUP3 DUP10 ADD PUSH2 0x75B JUMP JUMPDEST SWAP5 POP POP PUSH1 0x40 PUSH2 0x855 DUP9 DUP3 DUP10 ADD PUSH2 0x785 JUMP JUMPDEST SWAP4 POP POP PUSH1 0x60 PUSH2 0x866 DUP9 DUP3 DUP10 ADD PUSH2 0x785 JUMP JUMPDEST SWAP3 POP POP PUSH1 0x80 PUSH2 0x877 DUP9 DUP3 DUP10 ADD PUSH2 0x79A JUMP JUMPDEST SWAP2 POP POP SWAP3 SWAP6 POP SWAP3 SWAP6 SWAP1 SWAP4 POP JUMP JUMPDEST PUSH2 0x88D DUP2 PUSH2 0xC30 JUMP JUMPDEST DUP3 MSTORE POP POP JUMP JUMPDEST PUSH1 0x0 PUSH2 0x8A0 PUSH1 0x12 DUP4 PUSH2 0xA27 JUMP JUMPDEST SWAP2 POP PUSH2 0x8AB DUP3 PUSH2 0xD84 JUMP JUMPDEST PUSH1 0x20 DUP3 ADD SWAP1 POP SWAP2 SWAP1 POP JUMP JUMPDEST PUSH1 0x0 PUSH2 0x8C3 PUSH1 0x13 DUP4 PUSH2 0xA27 JUMP JUMPDEST SWAP2 POP PUSH2 0x8CE DUP3 PUSH2 0xDAD JUMP JUMPDEST PUSH1 0x20 DUP3 ADD SWAP1 POP SWAP2 SWAP1 POP JUMP JUMPDEST PUSH1 0x0 PUSH2 0x8E6 PUSH1 0x13 DUP4 PUSH2 0xA27 JUMP JUMPDEST SWAP2 POP PUSH2 0x8F1 DUP3 PUSH2 0xDD6 JUMP JUMPDEST PUSH1 0x20 DUP3 ADD SWAP1 POP SWAP2 SWAP1 POP JUMP JUMPDEST PUSH1 0x0 PUSH2 0x909 PUSH1 0x0 DUP4 PUSH2 0xA1C JUMP JUMPDEST SWAP2 POP PUSH2 0x914 DUP3 PUSH2 0xDFF JUMP JUMPDEST PUSH1 0x0 DUP3 ADD SWAP1 POP SWAP2 SWAP1 POP JUMP JUMPDEST PUSH1 0x0 PUSH2 0x92C PUSH1 0x11 DUP4 PUSH2 0xA27 JUMP JUMPDEST SWAP2 POP PUSH2 0x937 DUP3 PUSH2 0xE02 JUMP JUMPDEST PUSH1 0x20 DUP3 ADD SWAP1 POP SWAP2 SWAP1 POP JUMP JUMPDEST PUSH2 0x94B DUP2 PUSH2 0xC6C JUMP JUMPDEST DUP3 MSTORE POP POP JUMP JUMPDEST PUSH1 0x0 PUSH2 0x95C DUP3 PUSH2 0x8FC JUMP JUMPDEST SWAP2 POP DUP2 SWAP1 POP SWAP2 SWAP1 POP JUMP JUMPDEST PUSH1 0x0 PUSH1 0x20 DUP3 ADD SWAP1 POP PUSH2 0x97B PUSH1 0x0 DUP4 ADD DUP5 PUSH2 0x884 JUMP JUMPDEST SWAP3 SWAP2 POP POP JUMP JUMPDEST PUSH1 0x0 PUSH1 0x20 DUP3 ADD SWAP1 POP DUP2 DUP2 SUB PUSH1 0x0 DUP4 ADD MSTORE PUSH2 0x99A DUP2 PUSH2 0x893 JUMP JUMPDEST SWAP1 POP SWAP2 SWAP1 POP JUMP JUMPDEST PUSH1 0x0 PUSH1 0x20 DUP3 ADD SWAP1 POP DUP2 DUP2 SUB PUSH1 0x0 DUP4 ADD MSTORE PUSH2 0x9BA DUP2 PUSH2 0x8B6 JUMP JUMPDEST SWAP1 POP SWAP2 SWAP1 POP JUMP JUMPDEST PUSH1 0x0 PUSH1 0x20 DUP3 ADD SWAP1 POP DUP2 DUP2 SUB PUSH1 0x0 DUP4 ADD MSTORE PUSH2 0x9DA DUP2 PUSH2 0x8D9 JUMP JUMPDEST SWAP1 POP SWAP2 SWAP1 POP JUMP JUMPDEST PUSH1 0x0 PUSH1 0x20 DUP3 ADD SWAP1 POP DUP2 DUP2 SUB PUSH1 0x0 DUP4 ADD MSTORE PUSH2 0x9FA DUP2 PUSH2 0x91F JUMP JUMPDEST SWAP1 POP SWAP2 SWAP1 POP JUMP JUMPDEST PUSH1 0x0 PUSH1 0x20 DUP3 ADD SWAP1 POP PUSH2 0xA16 PUSH1 0x0 DUP4 ADD DUP5 PUSH2 0x942 JUMP JUMPDEST SWAP3 SWAP2 POP POP JUMP JUMPDEST PUSH1 0x0 DUP2 SWAP1 POP SWAP3 SWAP2 POP POP JUMP JUMPDEST PUSH1 0x0 DUP3 DUP3 MSTORE PUSH1 0x20 DUP3 ADD SWAP1 POP SWAP3 SWAP2 POP POP JUMP JUMPDEST PUSH1 0x0 PUSH2 0xA43 DUP3 PUSH2 0xC6C JUMP JUMPDEST SWAP2 POP PUSH2 0xA4E DUP4 PUSH2 0xC6C JUMP JUMPDEST SWAP3 POP DUP3 PUSH32 0xFFFFFFFFFFFFFFFFFFFFFFFFFFFFFFFFFFFFFFFFFFFFFFFFFFFFFFFFFFFFFFFF SUB DUP3 GT ISZERO PUSH2 0xA83 JUMPI PUSH2 0xA82 PUSH2 0xCC3 JUMP JUMPDEST JUMPDEST DUP3 DUP3 ADD SWAP1 POP SWAP3 SWAP2 POP POP JUMP JUMPDEST PUSH1 0x0 PUSH2 0xA99 DUP3 PUSH2 0xC6C JUMP JUMPDEST SWAP2 POP PUSH2 0xAA4 DUP4 PUSH2 0xC6C JUMP JUMPDEST SWAP3 POP DUP3 PUSH2 0xAB4 JUMPI PUSH2 0xAB3 PUSH2 0xCF2 JUMP JUMPDEST JUMPDEST DUP3 DUP3 DIV SWAP1 POP SWAP3 SWAP2 POP POP JUMP JUMPDEST PUSH1 0x0 PUSH2 0xACA DUP3 PUSH2 0xC42 JUMP JUMPDEST SWAP2 POP PUSH2 0xAD5 DUP4 PUSH2 0xC42 JUMP JUMPDEST SWAP3 POP DUP3 PUSH32 0x7FFFFFFFFFFFFFFFFFFFFFFFFFFFFFFFFFFFFFFFFFFFFFFFFFFFFFFFFFFFFFFF DIV DUP3 GT PUSH1 0x0 DUP5 SGT PUSH1 0x0 DUP5 SGT AND AND ISZERO PUSH2 0xB14 JUMPI PUSH2 0xB13 PUSH2 0xCC3 JUMP JUMPDEST JUMPDEST DUP2 PUSH32 0x8000000000000000000000000000000000000000000000000000000000000000 SDIV DUP4 SLT PUSH1 0x0 DUP5 SLT PUSH1 0x0 DUP5 SGT AND AND ISZERO PUSH2 0xB51 JUMPI PUSH2 0xB50 PUSH2 0xCC3 JUMP JUMPDEST JUMPDEST DUP3 PUSH32 0x8000000000000000000000000000000000000000000000000000000000000000 SDIV DUP3 SLT PUSH1 0x0 DUP5 SGT PUSH1 0x0 DUP5 SLT AND AND ISZERO PUSH2 0xB8E JUMPI PUSH2 0xB8D PUSH2 0xCC3 JUMP JUMPDEST JUMPDEST DUP3 PUSH32 0x7FFFFFFFFFFFFFFFFFFFFFFFFFFFFFFFFFFFFFFFFFFFFFFFFFFFFFFFFFFFFFFF SDIV DUP3 SLT PUSH1 0x0 DUP5 SLT PUSH1 0x0 DUP5 SLT AND AND ISZERO PUSH2 0xBCB JUMPI PUSH2 0xBCA PUSH2 0xCC3 JUMP JUMPDEST JUMPDEST DUP3 DUP3 MUL SWAP1 POP SWAP3 SWAP2 POP POP JUMP JUMPDEST PUSH1 0x0 PUSH2 0xBE1 DUP3 PUSH2 0xC6C JUMP JUMPDEST SWAP2 POP PUSH2 0xBEC DUP4 PUSH2 0xC6C JUMP JUMPDEST SWAP3 POP DUP2 PUSH32 0xFFFFFFFFFFFFFFFFFFFFFFFFFFFFFFFFFFFFFFFFFFFFFFFFFFFFFFFFFFFFFFFF DIV DUP4 GT DUP3 ISZERO ISZERO AND ISZERO PUSH2 0xC25 JUMPI PUSH2 0xC24 PUSH2 0xCC3 JUMP JUMPDEST JUMPDEST DUP3 DUP3 MUL SWAP1 POP SWAP3 SWAP2 POP POP JUMP JUMPDEST PUSH1 0x0 PUSH2 0xC3B DUP3 PUSH2 0xC4C JUMP JUMPDEST SWAP1 POP SWAP2 SWAP1 POP JUMP JUMPDEST PUSH1 0x0 DUP2 SWAP1 POP SWAP2 SWAP1 POP JUMP JUMPDEST PUSH1 0x0 PUSH20 0xFFFFFFFFFFFFFFFFFFFFFFFFFFFFFFFFFFFFFFFF DUP3 AND SWAP1 POP SWAP2 SWAP1 POP JUMP JUMPDEST PUSH1 0x0 DUP2 SWAP1 POP SWAP2 SWAP1 POP JUMP JUMPDEST PUSH1 0x0 PUSH1 0xFF DUP3 AND SWAP1 POP SWAP2 SWAP1 POP JUMP JUMPDEST PUSH1 0x0 PUSH10 0xFFFFFFFFFFFFFFFFFFFF DUP3 AND SWAP1 POP SWAP2 SWAP1 POP JUMP JUMPDEST PUSH1 0x0 PUSH2 0xCA4 DUP3 PUSH2 0xC76 JUMP JUMPDEST SWAP2 POP PUSH1 0xFF DUP3 EQ ISZERO PUSH2 0xCB8 JUMPI PUSH2 0xCB7 PUSH2 0xCC3 JUMP JUMPDEST JUMPDEST PUSH1 0x1 DUP3 ADD SWAP1 POP SWAP2 SWAP1 POP JUMP JUMPDEST PUSH32 0x4E487B7100000000000000000000000000000000000000000000000000000000 PUSH1 0x0 MSTORE PUSH1 0x11 PUSH1 0x4 MSTORE PUSH1 0x24 PUSH1 0x0 REVERT JUMPDEST PUSH32 0x4E487B7100000000000000000000000000000000000000000000000000000000 PUSH1 0x0 MSTORE PUSH1 0x12 PUSH1 0x4 MSTORE PUSH1 0x24 PUSH1 0x0 REVERT JUMPDEST PUSH32 0x4E487B7100000000000000000000000000000000000000000000000000000000 PUSH1 0x0 MSTORE PUSH1 0x32 PUSH1 0x4 MSTORE PUSH1 0x24 PUSH1 0x0 REVERT JUMPDEST PUSH32 0x4E487B7100000000000000000000000000000000000000000000000000000000 PUSH1 0x0 MSTORE PUSH1 0x41 PUSH1 0x4 MSTORE PUSH1 0x24 PUSH1 0x0 REVERT JUMPDEST PUSH1 0x0 DUP1 REVERT JUMPDEST PUSH32 0x54686572652077617320616E206572726F720000000000000000000000000000 PUSH1 0x0 DUP3 ADD MSTORE POP JUMP JUMPDEST PUSH32 0x446964206E6F742073656E6420656E6F75676800000000000000000000000000 PUSH1 0x0 DUP3 ADD MSTORE POP JUMP JUMPDEST PUSH32 0x53656E646572206973206E6F74206F776E657200000000000000000000000000 PUSH1 0x0 DUP3 ADD MSTORE POP JUMP JUMPDEST POP JUMP JUMPDEST PUSH32 0x596F7520617265206E6F74206F776E6572000000000000000000000000000000 PUSH1 0x0 DUP3 ADD MSTORE POP JUMP JUMPDEST PUSH2 0xE34 DUP2 PUSH2 0xC30 JUMP JUMPDEST DUP2 EQ PUSH2 0xE3F JUMPI PUSH1 0x0 DUP1 REVERT JUMPDEST POP JUMP JUMPDEST PUSH2 0xE4B DUP2 PUSH2 0xC42 JUMP JUMPDEST DUP2 EQ PUSH2 0xE56 JUMPI PUSH1 0x0 DUP1 REVERT JUMPDEST POP JUMP JUMPDEST PUSH2 0xE62 DUP2 PUSH2 0xC6C JUMP JUMPDEST DUP2 EQ PUSH2 0xE6D JUMPI PUSH1 0x0 DUP1 REVERT JUMPDEST POP JUMP JUMPDEST PUSH2 0xE79 DUP2 PUSH2 0xC83 JUMP JUMPDEST DUP2 EQ PUSH2 0xE84 JUMPI PUSH1 0x0 DUP1 REVERT JUMPDEST POP JUMP INVALID LOG2 PUSH5 0x6970667358 0x22 SLT KECCAK256 MLOAD 0xAE 0xE3 0xC0 0xE4 0xE8 0xB0 BLOCKHASH 0x21 OR JUMPDEST INVALID 0x4B PUSH13 0x63DDA1E88B51A87347362F626C SWAP7 LOG2 SSTORE 0xC5 0xC8 PUSH5 0x736F6C6343 STOP ADDMOD SMOD STOP CALLER "
				},
				"gasEstimates": {
					"creation": {
						"codeDepositCost": "754600",
						"executionCost": "25052",
						"totalCost": "779652"
					},
					"external": {
						"MINIMUM_USD()": "351",
						"addressToamountFunded(address)": "2792",
						"fund()": "infinite",
						"funders(uint256)": "5044",
						"owner()": "2558",
						"withdraw()": "infinite"
					}
				},
				"methodIdentifiers": {
					"MINIMUM_USD()": "6b69a592",
					"addressToamountFunded(address)": "2398fa15",
					"fund()": "b60d4288",
					"funders(uint256)": "dc0d3dff",
					"owner()": "8da5cb5b",
					"withdraw()": "3ccfd60b"
				}
			},
			"storageLayout": {
				"storage": [
					{
						"astId": 59,
						"contract": "contracts/FundMe.sol:FundMe",
						"label": "funders",
						"offset": 0,
						"slot": "0",
						"type": "t_array(t_address)dyn_storage"
					},
					{
						"astId": 63,
						"contract": "contracts/FundMe.sol:FundMe",
						"label": "addressToamountFunded",
						"offset": 0,
						"slot": "1",
						"type": "t_mapping(t_address,t_uint256)"
					},
					{
						"astId": 65,
						"contract": "contracts/FundMe.sol:FundMe",
						"label": "owner",
						"offset": 0,
						"slot": "2",
						"type": "t_address"
					}
				],
				"types": {
					"t_address": {
						"encoding": "inplace",
						"label": "address",
						"numberOfBytes": "20"
					},
					"t_array(t_address)dyn_storage": {
						"base": "t_address",
						"encoding": "dynamic_array",
						"label": "address[]",
						"numberOfBytes": "32"
					},
					"t_mapping(t_address,t_uint256)": {
						"encoding": "mapping",
						"key": "t_address",
						"label": "mapping(address => uint256)",
						"numberOfBytes": "32",
						"value": "t_uint256"
					},
					"t_uint256": {
						"encoding": "inplace",
						"label": "uint256",
						"numberOfBytes": "32"
					}
				}
			},
			"userdoc": {
				"kind": "user",
				"methods": {},
				"version": 1
			}
		}
	}
}