{
	"contracts/FundMe.sol": {
		"FundMe": {
			"abi": [
				{
					"inputs": [],
					"name": "MINIMUM_USD",
					"outputs": [
						{
							"internalType": "uint256",
							"name": "",
							"type": "uint256"
						}
					],
					"stateMutability": "view",
					"type": "function"
				},
				{
					"inputs": [],
					"name": "fund",
					"outputs": [],
					"stateMutability": "payable",
					"type": "function"
				},
				{
					"inputs": [],
					"name": "getPrice",
					"outputs": [
						{
							"internalType": "uint8",
							"name": "",
							"type": "uint8"
						}
					],
					"stateMutability": "view",
					"type": "function"
				}
			],
			"devdoc": {
				"kind": "dev",
				"methods": {},
				"version": 1
			},
			"evm": {
				"assembly": "    /* \"contracts/FundMe.sol\":136:727  contract FundMe{... */\n  mstore(0x40, 0x80)\n  callvalue\n  dup1\n  iszero\n  tag_1\n  jumpi\n  0x00\n  dup1\n  revert\ntag_1:\n  pop\n  dataSize(sub_0)\n  dup1\n  dataOffset(sub_0)\n  0x00\n  codecopy\n  0x00\n  return\nstop\n\nsub_0: assembly {\n        /* \"contracts/FundMe.sol\":136:727  contract FundMe{... */\n      mstore(0x40, 0x80)\n      jumpi(tag_1, lt(calldatasize, 0x04))\n      shr(0xe0, calldataload(0x00))\n      dup1\n      0x6b69a592\n      eq\n      tag_2\n      jumpi\n      dup1\n      0x98d5fdca\n      eq\n      tag_3\n      jumpi\n      dup1\n      0xb60d4288\n      eq\n      tag_4\n      jumpi\n    tag_1:\n      0x00\n      dup1\n      revert\n        /* \"contracts/FundMe.sol\":158:196  uint256 public constant MINIMUM_USD=50 */\n    tag_2:\n      callvalue\n      dup1\n      iszero\n      tag_5\n      jumpi\n      0x00\n      dup1\n      revert\n    tag_5:\n      pop\n      tag_6\n      tag_7\n      jump\t// in\n    tag_6:\n      mload(0x40)\n      tag_8\n      swap2\n      swap1\n      tag_9\n      jump\t// in\n    tag_8:\n      mload(0x40)\n      dup1\n      swap2\n      sub\n      swap1\n      return\n        /* \"contracts/FundMe.sol\":311:725  function getPrice() view public returns(uint8){... */\n    tag_3:\n      callvalue\n      dup1\n      iszero\n      tag_10\n      jumpi\n      0x00\n      dup1\n      revert\n    tag_10:\n      pop\n      tag_11\n      tag_12\n      jump\t// in\n    tag_11:\n      mload(0x40)\n      tag_13\n      swap2\n      swap1\n      tag_14\n      jump\t// in\n    tag_13:\n      mload(0x40)\n      dup1\n      swap2\n      sub\n      swap1\n      return\n        /* \"contracts/FundMe.sol\":203:305  function fund() public payable{... */\n    tag_4:\n      tag_15\n      tag_16\n      jump\t// in\n    tag_15:\n      stop\n        /* \"contracts/FundMe.sol\":158:196  uint256 public constant MINIMUM_USD=50 */\n    tag_7:\n        /* \"contracts/FundMe.sol\":194:196  50 */\n      0x32\n        /* \"contracts/FundMe.sol\":158:196  uint256 public constant MINIMUM_USD=50 */\n      dup2\n      jump\t// out\n        /* \"contracts/FundMe.sol\":311:725  function getPrice() view public returns(uint8){... */\n    tag_12:\n        /* \"contracts/FundMe.sol\":351:356  uint8 */\n      0x00\n        /* \"contracts/FundMe.sol\":413:425  int256 price */\n      dup1\n        /* \"contracts/FundMe.sol\":564:606  0xD4a33860578De61DBAbDc8BFdb98FD742fA7028e */\n      0xd4a33860578de61dbabdc8bfdb98fd742fa7028e\n        /* \"contracts/FundMe.sol\":542:623  AggregatorV3Interface(0xD4a33860578De61DBAbDc8BFdb98FD742fA7028e).latestRoundData */\n      0xffffffffffffffffffffffffffffffffffffffff\n      and\n      0xfeaf968c\n        /* \"contracts/FundMe.sol\":542:625  AggregatorV3Interface(0xD4a33860578De61DBAbDc8BFdb98FD742fA7028e).latestRoundData() */\n      mload(0x40)\n      dup2\n      0xffffffff\n      and\n      0xe0\n      shl\n      dup2\n      mstore\n      0x04\n      add\n      0xa0\n      mload(0x40)\n      dup1\n      dup4\n      sub\n      dup2\n      dup7\n      dup1\n      extcodesize\n      iszero\n      dup1\n      iszero\n      tag_18\n      jumpi\n      0x00\n      dup1\n      revert\n    tag_18:\n      pop\n      gas\n      staticcall\n      iszero\n      dup1\n      iszero\n      tag_20\n      jumpi\n      returndatasize\n      0x00\n      dup1\n      returndatacopy\n      revert(0x00, returndatasize)\n    tag_20:\n      pop\n      pop\n      pop\n      pop\n      mload(0x40)\n      returndatasize\n      not(0x1f)\n      0x1f\n      dup3\n      add\n      and\n      dup3\n      add\n      dup1\n      0x40\n      mstore\n      pop\n      dup2\n      add\n      swap1\n      tag_21\n      swap2\n      swap1\n      tag_22\n      jump\t// in\n    tag_21:\n        /* \"contracts/FundMe.sol\":367:625  (... */\n      pop\n      pop\n      pop\n      swap2\n      pop\n      pop\n        /* \"contracts/FundMe.sol\":664:706  0xD4a33860578De61DBAbDc8BFdb98FD742fA7028e */\n      0xd4a33860578de61dbabdc8bfdb98fd742fa7028e\n        /* \"contracts/FundMe.sol\":642:716  AggregatorV3Interface(0xD4a33860578De61DBAbDc8BFdb98FD742fA7028e).decimals */\n      0xffffffffffffffffffffffffffffffffffffffff\n      and\n      0x313ce567\n        /* \"contracts/FundMe.sol\":642:718  AggregatorV3Interface(0xD4a33860578De61DBAbDc8BFdb98FD742fA7028e).decimals() */\n      mload(0x40)\n      dup2\n      0xffffffff\n      and\n      0xe0\n      shl\n      dup2\n      mstore\n      0x04\n      add\n      0x20\n      mload(0x40)\n      dup1\n      dup4\n      sub\n      dup2\n      dup7\n      dup1\n      extcodesize\n      iszero\n      dup1\n      iszero\n      tag_23\n      jumpi\n      0x00\n      dup1\n      revert\n    tag_23:\n      pop\n      gas\n      staticcall\n      iszero\n      dup1\n      iszero\n      tag_25\n      jumpi\n      returndatasize\n      0x00\n      dup1\n      returndatacopy\n      revert(0x00, returndatasize)\n    tag_25:\n      pop\n      pop\n      pop\n      pop\n      mload(0x40)\n      returndatasize\n      not(0x1f)\n      0x1f\n      dup3\n      add\n      and\n      dup3\n      add\n      dup1\n      0x40\n      mstore\n      pop\n      dup2\n      add\n      swap1\n      tag_26\n      swap2\n      swap1\n      tag_27\n      jump\t// in\n    tag_26:\n        /* \"contracts/FundMe.sol\":635:718  return AggregatorV3Interface(0xD4a33860578De61DBAbDc8BFdb98FD742fA7028e).decimals() */\n      swap2\n      pop\n      pop\n        /* \"contracts/FundMe.sol\":311:725  function getPrice() view public returns(uint8){... */\n      swap1\n      jump\t// out\n        /* \"contracts/FundMe.sol\":203:305  function fund() public payable{... */\n    tag_16:\n        /* \"contracts/FundMe.sol\":194:196  50 */\n      0x32\n        /* \"contracts/FundMe.sol\":251:260  msg.value */\n      callvalue\n        /* \"contracts/FundMe.sol\":251:274  msg.value > MINIMUM_USD */\n      gt\n        /* \"contracts/FundMe.sol\":243:298  require(msg.value > MINIMUM_USD, \"Did not send enough\") */\n      tag_29\n      jumpi\n      mload(0x40)\n      0x08c379a000000000000000000000000000000000000000000000000000000000\n      dup2\n      mstore\n      0x04\n      add\n      tag_30\n      swap1\n      tag_31\n      jump\t// in\n    tag_30:\n      mload(0x40)\n      dup1\n      swap2\n      sub\n      swap1\n      revert\n    tag_29:\n        /* \"contracts/FundMe.sol\":203:305  function fund() public payable{... */\n      jump\t// out\n        /* \"#utility.yul\":7:148   */\n    tag_33:\n        /* \"#utility.yul\":63:68   */\n      0x00\n        /* \"#utility.yul\":94:100   */\n      dup2\n        /* \"#utility.yul\":88:101   */\n      mload\n        /* \"#utility.yul\":79:101   */\n      swap1\n      pop\n        /* \"#utility.yul\":110:142   */\n      tag_35\n        /* \"#utility.yul\":136:141   */\n      dup2\n        /* \"#utility.yul\":110:142   */\n      tag_36\n      jump\t// in\n    tag_35:\n        /* \"#utility.yul\":7:148   */\n      swap3\n      swap2\n      pop\n      pop\n      jump\t// out\n        /* \"#utility.yul\":154:297   */\n    tag_37:\n        /* \"#utility.yul\":211:216   */\n      0x00\n        /* \"#utility.yul\":242:248   */\n      dup2\n        /* \"#utility.yul\":236:249   */\n      mload\n        /* \"#utility.yul\":227:249   */\n      swap1\n      pop\n        /* \"#utility.yul\":258:291   */\n      tag_39\n        /* \"#utility.yul\":285:290   */\n      dup2\n        /* \"#utility.yul\":258:291   */\n      tag_40\n      jump\t// in\n    tag_39:\n        /* \"#utility.yul\":154:297   */\n      swap3\n      swap2\n      pop\n      pop\n      jump\t// out\n        /* \"#utility.yul\":303:444   */\n    tag_41:\n        /* \"#utility.yul\":359:364   */\n      0x00\n        /* \"#utility.yul\":390:396   */\n      dup2\n        /* \"#utility.yul\":384:397   */\n      mload\n        /* \"#utility.yul\":375:397   */\n      swap1\n      pop\n        /* \"#utility.yul\":406:438   */\n      tag_43\n        /* \"#utility.yul\":432:437   */\n      dup2\n        /* \"#utility.yul\":406:438   */\n      tag_44\n      jump\t// in\n    tag_43:\n        /* \"#utility.yul\":303:444   */\n      swap3\n      swap2\n      pop\n      pop\n      jump\t// out\n        /* \"#utility.yul\":450:589   */\n    tag_45:\n        /* \"#utility.yul\":505:510   */\n      0x00\n        /* \"#utility.yul\":536:542   */\n      dup2\n        /* \"#utility.yul\":530:543   */\n      mload\n        /* \"#utility.yul\":521:543   */\n      swap1\n      pop\n        /* \"#utility.yul\":552:583   */\n      tag_47\n        /* \"#utility.yul\":577:582   */\n      dup2\n        /* \"#utility.yul\":552:583   */\n      tag_48\n      jump\t// in\n    tag_47:\n        /* \"#utility.yul\":450:589   */\n      swap3\n      swap2\n      pop\n      pop\n      jump\t// out\n        /* \"#utility.yul\":595:1566   */\n    tag_22:\n        /* \"#utility.yul\":698:704   */\n      0x00\n        /* \"#utility.yul\":706:712   */\n      dup1\n        /* \"#utility.yul\":714:720   */\n      0x00\n        /* \"#utility.yul\":722:728   */\n      dup1\n        /* \"#utility.yul\":730:736   */\n      0x00\n        /* \"#utility.yul\":779:782   */\n      0xa0\n        /* \"#utility.yul\":767:776   */\n      dup7\n        /* \"#utility.yul\":758:765   */\n      dup9\n        /* \"#utility.yul\":754:777   */\n      sub\n        /* \"#utility.yul\":750:783   */\n      slt\n        /* \"#utility.yul\":747:867   */\n      iszero\n      tag_50\n      jumpi\n        /* \"#utility.yul\":786:865   */\n      tag_51\n      tag_52\n      jump\t// in\n    tag_51:\n        /* \"#utility.yul\":747:867   */\n    tag_50:\n        /* \"#utility.yul\":906:907   */\n      0x00\n        /* \"#utility.yul\":931:994   */\n      tag_53\n        /* \"#utility.yul\":986:993   */\n      dup9\n        /* \"#utility.yul\":977:983   */\n      dup3\n        /* \"#utility.yul\":966:975   */\n      dup10\n        /* \"#utility.yul\":962:984   */\n      add\n        /* \"#utility.yul\":931:994   */\n      tag_41\n      jump\t// in\n    tag_53:\n        /* \"#utility.yul\":921:994   */\n      swap6\n      pop\n        /* \"#utility.yul\":877:1004   */\n      pop\n        /* \"#utility.yul\":1043:1045   */\n      0x20\n        /* \"#utility.yul\":1069:1132   */\n      tag_54\n        /* \"#utility.yul\":1124:1131   */\n      dup9\n        /* \"#utility.yul\":1115:1121   */\n      dup3\n        /* \"#utility.yul\":1104:1113   */\n      dup10\n        /* \"#utility.yul\":1100:1122   */\n      add\n        /* \"#utility.yul\":1069:1132   */\n      tag_33\n      jump\t// in\n    tag_54:\n        /* \"#utility.yul\":1059:1132   */\n      swap5\n      pop\n        /* \"#utility.yul\":1014:1142   */\n      pop\n        /* \"#utility.yul\":1181:1183   */\n      0x40\n        /* \"#utility.yul\":1207:1271   */\n      tag_55\n        /* \"#utility.yul\":1263:1270   */\n      dup9\n        /* \"#utility.yul\":1254:1260   */\n      dup3\n        /* \"#utility.yul\":1243:1252   */\n      dup10\n        /* \"#utility.yul\":1239:1261   */\n      add\n        /* \"#utility.yul\":1207:1271   */\n      tag_37\n      jump\t// in\n    tag_55:\n        /* \"#utility.yul\":1197:1271   */\n      swap4\n      pop\n        /* \"#utility.yul\":1152:1281   */\n      pop\n        /* \"#utility.yul\":1320:1322   */\n      0x60\n        /* \"#utility.yul\":1346:1410   */\n      tag_56\n        /* \"#utility.yul\":1402:1409   */\n      dup9\n        /* \"#utility.yul\":1393:1399   */\n      dup3\n        /* \"#utility.yul\":1382:1391   */\n      dup10\n        /* \"#utility.yul\":1378:1400   */\n      add\n        /* \"#utility.yul\":1346:1410   */\n      tag_37\n      jump\t// in\n    tag_56:\n        /* \"#utility.yul\":1336:1410   */\n      swap3\n      pop\n        /* \"#utility.yul\":1291:1420   */\n      pop\n        /* \"#utility.yul\":1459:1462   */\n      0x80\n        /* \"#utility.yul\":1486:1549   */\n      tag_57\n        /* \"#utility.yul\":1541:1548   */\n      dup9\n        /* \"#utility.yul\":1532:1538   */\n      dup3\n        /* \"#utility.yul\":1521:1530   */\n      dup10\n        /* \"#utility.yul\":1517:1539   */\n      add\n        /* \"#utility.yul\":1486:1549   */\n      tag_41\n      jump\t// in\n    tag_57:\n        /* \"#utility.yul\":1476:1549   */\n      swap2\n      pop\n        /* \"#utility.yul\":1430:1559   */\n      pop\n        /* \"#utility.yul\":595:1566   */\n      swap3\n      swap6\n      pop\n      swap3\n      swap6\n      swap1\n      swap4\n      pop\n      jump\t// out\n        /* \"#utility.yul\":1572:1919   */\n    tag_27:\n        /* \"#utility.yul\":1640:1646   */\n      0x00\n        /* \"#utility.yul\":1689:1691   */\n      0x20\n        /* \"#utility.yul\":1677:1686   */\n      dup3\n        /* \"#utility.yul\":1668:1675   */\n      dup5\n        /* \"#utility.yul\":1664:1687   */\n      sub\n        /* \"#utility.yul\":1660:1692   */\n      slt\n        /* \"#utility.yul\":1657:1776   */\n      iszero\n      tag_59\n      jumpi\n        /* \"#utility.yul\":1695:1774   */\n      tag_60\n      tag_52\n      jump\t// in\n    tag_60:\n        /* \"#utility.yul\":1657:1776   */\n    tag_59:\n        /* \"#utility.yul\":1815:1816   */\n      0x00\n        /* \"#utility.yul\":1840:1902   */\n      tag_61\n        /* \"#utility.yul\":1894:1901   */\n      dup5\n        /* \"#utility.yul\":1885:1891   */\n      dup3\n        /* \"#utility.yul\":1874:1883   */\n      dup6\n        /* \"#utility.yul\":1870:1892   */\n      add\n        /* \"#utility.yul\":1840:1902   */\n      tag_45\n      jump\t// in\n    tag_61:\n        /* \"#utility.yul\":1830:1902   */\n      swap2\n      pop\n        /* \"#utility.yul\":1786:1912   */\n      pop\n        /* \"#utility.yul\":1572:1919   */\n      swap3\n      swap2\n      pop\n      pop\n      jump\t// out\n        /* \"#utility.yul\":1925:2291   */\n    tag_62:\n        /* \"#utility.yul\":2067:2070   */\n      0x00\n        /* \"#utility.yul\":2088:2155   */\n      tag_64\n        /* \"#utility.yul\":2152:2154   */\n      0x13\n        /* \"#utility.yul\":2147:2150   */\n      dup4\n        /* \"#utility.yul\":2088:2155   */\n      tag_65\n      jump\t// in\n    tag_64:\n        /* \"#utility.yul\":2081:2155   */\n      swap2\n      pop\n        /* \"#utility.yul\":2164:2257   */\n      tag_66\n        /* \"#utility.yul\":2253:2256   */\n      dup3\n        /* \"#utility.yul\":2164:2257   */\n      tag_67\n      jump\t// in\n    tag_66:\n        /* \"#utility.yul\":2282:2284   */\n      0x20\n        /* \"#utility.yul\":2277:2280   */\n      dup3\n        /* \"#utility.yul\":2273:2285   */\n      add\n        /* \"#utility.yul\":2266:2285   */\n      swap1\n      pop\n        /* \"#utility.yul\":1925:2291   */\n      swap2\n      swap1\n      pop\n      jump\t// out\n        /* \"#utility.yul\":2297:2415   */\n    tag_68:\n        /* \"#utility.yul\":2384:2408   */\n      tag_70\n        /* \"#utility.yul\":2402:2407   */\n      dup2\n        /* \"#utility.yul\":2384:2408   */\n      tag_71\n      jump\t// in\n    tag_70:\n        /* \"#utility.yul\":2379:2382   */\n      dup3\n        /* \"#utility.yul\":2372:2409   */\n      mstore\n        /* \"#utility.yul\":2297:2415   */\n      pop\n      pop\n      jump\t// out\n        /* \"#utility.yul\":2421:2533   */\n    tag_72:\n        /* \"#utility.yul\":2504:2526   */\n      tag_74\n        /* \"#utility.yul\":2520:2525   */\n      dup2\n        /* \"#utility.yul\":2504:2526   */\n      tag_75\n      jump\t// in\n    tag_74:\n        /* \"#utility.yul\":2499:2502   */\n      dup3\n        /* \"#utility.yul\":2492:2527   */\n      mstore\n        /* \"#utility.yul\":2421:2533   */\n      pop\n      pop\n      jump\t// out\n        /* \"#utility.yul\":2539:2958   */\n    tag_31:\n        /* \"#utility.yul\":2705:2709   */\n      0x00\n        /* \"#utility.yul\":2743:2745   */\n      0x20\n        /* \"#utility.yul\":2732:2741   */\n      dup3\n        /* \"#utility.yul\":2728:2746   */\n      add\n        /* \"#utility.yul\":2720:2746   */\n      swap1\n      pop\n        /* \"#utility.yul\":2792:2801   */\n      dup2\n        /* \"#utility.yul\":2786:2790   */\n      dup2\n        /* \"#utility.yul\":2782:2802   */\n      sub\n        /* \"#utility.yul\":2778:2779   */\n      0x00\n        /* \"#utility.yul\":2767:2776   */\n      dup4\n        /* \"#utility.yul\":2763:2780   */\n      add\n        /* \"#utility.yul\":2756:2803   */\n      mstore\n        /* \"#utility.yul\":2820:2951   */\n      tag_77\n        /* \"#utility.yul\":2946:2950   */\n      dup2\n        /* \"#utility.yul\":2820:2951   */\n      tag_62\n      jump\t// in\n    tag_77:\n        /* \"#utility.yul\":2812:2951   */\n      swap1\n      pop\n        /* \"#utility.yul\":2539:2958   */\n      swap2\n      swap1\n      pop\n      jump\t// out\n        /* \"#utility.yul\":2964:3186   */\n    tag_9:\n        /* \"#utility.yul\":3057:3061   */\n      0x00\n        /* \"#utility.yul\":3095:3097   */\n      0x20\n        /* \"#utility.yul\":3084:3093   */\n      dup3\n        /* \"#utility.yul\":3080:3098   */\n      add\n        /* \"#utility.yul\":3072:3098   */\n      swap1\n      pop\n        /* \"#utility.yul\":3108:3179   */\n      tag_79\n        /* \"#utility.yul\":3176:3177   */\n      0x00\n        /* \"#utility.yul\":3165:3174   */\n      dup4\n        /* \"#utility.yul\":3161:3178   */\n      add\n        /* \"#utility.yul\":3152:3158   */\n      dup5\n        /* \"#utility.yul\":3108:3179   */\n      tag_68\n      jump\t// in\n    tag_79:\n        /* \"#utility.yul\":2964:3186   */\n      swap3\n      swap2\n      pop\n      pop\n      jump\t// out\n        /* \"#utility.yul\":3192:3406   */\n    tag_14:\n        /* \"#utility.yul\":3281:3285   */\n      0x00\n        /* \"#utility.yul\":3319:3321   */\n      0x20\n        /* \"#utility.yul\":3308:3317   */\n      dup3\n        /* \"#utility.yul\":3304:3322   */\n      add\n        /* \"#utility.yul\":3296:3322   */\n      swap1\n      pop\n        /* \"#utility.yul\":3332:3399   */\n      tag_81\n        /* \"#utility.yul\":3396:3397   */\n      0x00\n        /* \"#utility.yul\":3385:3394   */\n      dup4\n        /* \"#utility.yul\":3381:3398   */\n      add\n        /* \"#utility.yul\":3372:3378   */\n      dup5\n        /* \"#utility.yul\":3332:3399   */\n      tag_72\n      jump\t// in\n    tag_81:\n        /* \"#utility.yul\":3192:3406   */\n      swap3\n      swap2\n      pop\n      pop\n      jump\t// out\n        /* \"#utility.yul\":3493:3662   */\n    tag_65:\n        /* \"#utility.yul\":3577:3588   */\n      0x00\n        /* \"#utility.yul\":3611:3617   */\n      dup3\n        /* \"#utility.yul\":3606:3609   */\n      dup3\n        /* \"#utility.yul\":3599:3618   */\n      mstore\n        /* \"#utility.yul\":3651:3655   */\n      0x20\n        /* \"#utility.yul\":3646:3649   */\n      dup3\n        /* \"#utility.yul\":3642:3656   */\n      add\n        /* \"#utility.yul\":3627:3656   */\n      swap1\n      pop\n        /* \"#utility.yul\":3493:3662   */\n      swap3\n      swap2\n      pop\n      pop\n      jump\t// out\n        /* \"#utility.yul\":3668:3744   */\n    tag_85:\n        /* \"#utility.yul\":3704:3711   */\n      0x00\n        /* \"#utility.yul\":3733:3738   */\n      dup2\n        /* \"#utility.yul\":3722:3738   */\n      swap1\n      pop\n        /* \"#utility.yul\":3668:3744   */\n      swap2\n      swap1\n      pop\n      jump\t// out\n        /* \"#utility.yul\":3750:3827   */\n    tag_71:\n        /* \"#utility.yul\":3787:3794   */\n      0x00\n        /* \"#utility.yul\":3816:3821   */\n      dup2\n        /* \"#utility.yul\":3805:3821   */\n      swap1\n      pop\n        /* \"#utility.yul\":3750:3827   */\n      swap2\n      swap1\n      pop\n      jump\t// out\n        /* \"#utility.yul\":3833:3919   */\n    tag_75:\n        /* \"#utility.yul\":3868:3875   */\n      0x00\n        /* \"#utility.yul\":3908:3912   */\n      0xff\n        /* \"#utility.yul\":3901:3906   */\n      dup3\n        /* \"#utility.yul\":3897:3913   */\n      and\n        /* \"#utility.yul\":3886:3913   */\n      swap1\n      pop\n        /* \"#utility.yul\":3833:3919   */\n      swap2\n      swap1\n      pop\n      jump\t// out\n        /* \"#utility.yul\":3925:4030   */\n    tag_89:\n        /* \"#utility.yul\":3961:3968   */\n      0x00\n        /* \"#utility.yul\":4001:4023   */\n      0xffffffffffffffffffff\n        /* \"#utility.yul\":3994:3999   */\n      dup3\n        /* \"#utility.yul\":3990:4024   */\n      and\n        /* \"#utility.yul\":3979:4024   */\n      swap1\n      pop\n        /* \"#utility.yul\":3925:4030   */\n      swap2\n      swap1\n      pop\n      jump\t// out\n        /* \"#utility.yul\":4159:4276   */\n    tag_52:\n        /* \"#utility.yul\":4268:4269   */\n      0x00\n        /* \"#utility.yul\":4265:4266   */\n      dup1\n        /* \"#utility.yul\":4258:4270   */\n      revert\n        /* \"#utility.yul\":4282:4451   */\n    tag_67:\n        /* \"#utility.yul\":4422:4443   */\n      0x446964206e6f742073656e6420656e6f75676800000000000000000000000000\n        /* \"#utility.yul\":4418:4419   */\n      0x00\n        /* \"#utility.yul\":4410:4416   */\n      dup3\n        /* \"#utility.yul\":4406:4420   */\n      add\n        /* \"#utility.yul\":4399:4444   */\n      mstore\n        /* \"#utility.yul\":4282:4451   */\n      pop\n      jump\t// out\n        /* \"#utility.yul\":4457:4577   */\n    tag_36:\n        /* \"#utility.yul\":4529:4552   */\n      tag_96\n        /* \"#utility.yul\":4546:4551   */\n      dup2\n        /* \"#utility.yul\":4529:4552   */\n      tag_85\n      jump\t// in\n    tag_96:\n        /* \"#utility.yul\":4522:4527   */\n      dup2\n        /* \"#utility.yul\":4519:4553   */\n      eq\n        /* \"#utility.yul\":4509:4571   */\n      tag_97\n      jumpi\n        /* \"#utility.yul\":4567:4568   */\n      0x00\n        /* \"#utility.yul\":4564:4565   */\n      dup1\n        /* \"#utility.yul\":4557:4569   */\n      revert\n        /* \"#utility.yul\":4509:4571   */\n    tag_97:\n        /* \"#utility.yul\":4457:4577   */\n      pop\n      jump\t// out\n        /* \"#utility.yul\":4583:4705   */\n    tag_40:\n        /* \"#utility.yul\":4656:4680   */\n      tag_99\n        /* \"#utility.yul\":4674:4679   */\n      dup2\n        /* \"#utility.yul\":4656:4680   */\n      tag_71\n      jump\t// in\n    tag_99:\n        /* \"#utility.yul\":4649:4654   */\n      dup2\n        /* \"#utility.yul\":4646:4681   */\n      eq\n        /* \"#utility.yul\":4636:4699   */\n      tag_100\n      jumpi\n        /* \"#utility.yul\":4695:4696   */\n      0x00\n        /* \"#utility.yul\":4692:4693   */\n      dup1\n        /* \"#utility.yul\":4685:4697   */\n      revert\n        /* \"#utility.yul\":4636:4699   */\n    tag_100:\n        /* \"#utility.yul\":4583:4705   */\n      pop\n      jump\t// out\n        /* \"#utility.yul\":4711:4829   */\n    tag_48:\n        /* \"#utility.yul\":4782:4804   */\n      tag_102\n        /* \"#utility.yul\":4798:4803   */\n      dup2\n        /* \"#utility.yul\":4782:4804   */\n      tag_75\n      jump\t// in\n    tag_102:\n        /* \"#utility.yul\":4775:4780   */\n      dup2\n        /* \"#utility.yul\":4772:4805   */\n      eq\n        /* \"#utility.yul\":4762:4823   */\n      tag_103\n      jumpi\n        /* \"#utility.yul\":4819:4820   */\n      0x00\n        /* \"#utility.yul\":4816:4817   */\n      dup1\n        /* \"#utility.yul\":4809:4821   */\n      revert\n        /* \"#utility.yul\":4762:4823   */\n    tag_103:\n        /* \"#utility.yul\":4711:4829   */\n      pop\n      jump\t// out\n        /* \"#utility.yul\":4835:4955   */\n    tag_44:\n        /* \"#utility.yul\":4907:4930   */\n      tag_105\n        /* \"#utility.yul\":4924:4929   */\n      dup2\n        /* \"#utility.yul\":4907:4930   */\n      tag_89\n      jump\t// in\n    tag_105:\n        /* \"#utility.yul\":4900:4905   */\n      dup2\n        /* \"#utility.yul\":4897:4931   */\n      eq\n        /* \"#utility.yul\":4887:4949   */\n      tag_106\n      jumpi\n        /* \"#utility.yul\":4945:4946   */\n      0x00\n        /* \"#utility.yul\":4942:4943   */\n      dup1\n        /* \"#utility.yul\":4935:4947   */\n      revert\n        /* \"#utility.yul\":4887:4949   */\n    tag_106:\n        /* \"#utility.yul\":4835:4955   */\n      pop\n      jump\t// out\n\n    auxdata: 0xa2646970667358221220cf701a2e23be4542267a1ee209dc509291b85e4cc35fc47ed168a9902a4dc1e064736f6c63430008070033\n}\n",
				"bytecode": {
					"linkReferences": {},
					"object": "608060405234801561001057600080fd5b506104b1806100206000396000f3fe6080604052600436106100345760003560e01c80636b69a5921461003957806398d5fdca14610064578063b60d42881461008f575b600080fd5b34801561004557600080fd5b5061004e610099565b60405161005b9190610373565b60405180910390f35b34801561007057600080fd5b5061007961009e565b604051610086919061038e565b60405180910390f35b6100976101d1565b005b603281565b60008073d4a33860578de61dbabdc8bfdb98fd742fa7028e73ffffffffffffffffffffffffffffffffffffffff1663feaf968c6040518163ffffffff1660e01b815260040160a06040518083038186803b1580156100fb57600080fd5b505afa15801561010f573d6000803e3d6000fd5b505050506040513d601f19601f82011682018060405250810190610133919061026a565b50505091505073d4a33860578de61dbabdc8bfdb98fd742fa7028e73ffffffffffffffffffffffffffffffffffffffff1663313ce5676040518163ffffffff1660e01b815260040160206040518083038186803b15801561019357600080fd5b505afa1580156101a7573d6000803e3d6000fd5b505050506040513d601f19601f820116820180604052508101906101cb91906102e5565b91505090565b60323411610214576040517f08c379a000000000000000000000000000000000000000000000000000000000815260040161020b90610353565b60405180910390fd5b565b6000815190506102258161041f565b92915050565b60008151905061023a81610436565b92915050565b60008151905061024f81610464565b92915050565b6000815190506102648161044d565b92915050565b600080600080600060a08688031215610286576102856103f1565b5b600061029488828901610240565b95505060206102a588828901610216565b94505060406102b68882890161022b565b93505060606102c78882890161022b565b92505060806102d888828901610240565b9150509295509295909350565b6000602082840312156102fb576102fa6103f1565b5b600061030984828501610255565b91505092915050565b600061031f6013836103a9565b915061032a826103f6565b602082019050919050565b61033e816103c4565b82525050565b61034d816103ce565b82525050565b6000602082019050818103600083015261036c81610312565b9050919050565b60006020820190506103886000830184610335565b92915050565b60006020820190506103a36000830184610344565b92915050565b600082825260208201905092915050565b6000819050919050565b6000819050919050565b600060ff82169050919050565b600069ffffffffffffffffffff82169050919050565b600080fd5b7f446964206e6f742073656e6420656e6f75676800000000000000000000000000600082015250565b610428816103ba565b811461043357600080fd5b50565b61043f816103c4565b811461044a57600080fd5b50565b610456816103ce565b811461046157600080fd5b50565b61046d816103db565b811461047857600080fd5b5056fea2646970667358221220cf701a2e23be4542267a1ee209dc509291b85e4cc35fc47ed168a9902a4dc1e064736f6c63430008070033",
					"opcodes": "PUSH1 0x80 PUSH1 0x40 MSTORE CALLVALUE DUP1 ISZERO PUSH2 0x10 JUMPI PUSH1 0x0 DUP1 REVERT JUMPDEST POP PUSH2 0x4B1 DUP1 PUSH2 0x20 PUSH1 0x0 CODECOPY PUSH1 0x0 RETURN INVALID PUSH1 0x80 PUSH1 0x40 MSTORE PUSH1 0x4 CALLDATASIZE LT PUSH2 0x34 JUMPI PUSH1 0x0 CALLDATALOAD PUSH1 0xE0 SHR DUP1 PUSH4 0x6B69A592 EQ PUSH2 0x39 JUMPI DUP1 PUSH4 0x98D5FDCA EQ PUSH2 0x64 JUMPI DUP1 PUSH4 0xB60D4288 EQ PUSH2 0x8F JUMPI JUMPDEST PUSH1 0x0 DUP1 REVERT JUMPDEST CALLVALUE DUP1 ISZERO PUSH2 0x45 JUMPI PUSH1 0x0 DUP1 REVERT JUMPDEST POP PUSH2 0x4E PUSH2 0x99 JUMP JUMPDEST PUSH1 0x40 MLOAD PUSH2 0x5B SWAP2 SWAP1 PUSH2 0x373 JUMP JUMPDEST PUSH1 0x40 MLOAD DUP1 SWAP2 SUB SWAP1 RETURN JUMPDEST CALLVALUE DUP1 ISZERO PUSH2 0x70 JUMPI PUSH1 0x0 DUP1 REVERT JUMPDEST POP PUSH2 0x79 PUSH2 0x9E JUMP JUMPDEST PUSH1 0x40 MLOAD PUSH2 0x86 SWAP2 SWAP1 PUSH2 0x38E JUMP JUMPDEST PUSH1 0x40 MLOAD DUP1 SWAP2 SUB SWAP1 RETURN JUMPDEST PUSH2 0x97 PUSH2 0x1D1 JUMP JUMPDEST STOP JUMPDEST PUSH1 0x32 DUP2 JUMP JUMPDEST PUSH1 0x0 DUP1 PUSH20 0xD4A33860578DE61DBABDC8BFDB98FD742FA7028E PUSH20 0xFFFFFFFFFFFFFFFFFFFFFFFFFFFFFFFFFFFFFFFF AND PUSH4 0xFEAF968C PUSH1 0x40 MLOAD DUP2 PUSH4 0xFFFFFFFF AND PUSH1 0xE0 SHL DUP2 MSTORE PUSH1 0x4 ADD PUSH1 0xA0 PUSH1 0x40 MLOAD DUP1 DUP4 SUB DUP2 DUP7 DUP1 EXTCODESIZE ISZERO DUP1 ISZERO PUSH2 0xFB JUMPI PUSH1 0x0 DUP1 REVERT JUMPDEST POP GAS STATICCALL ISZERO DUP1 ISZERO PUSH2 0x10F JUMPI RETURNDATASIZE PUSH1 0x0 DUP1 RETURNDATACOPY RETURNDATASIZE PUSH1 0x0 REVERT JUMPDEST POP POP POP POP PUSH1 0x40 MLOAD RETURNDATASIZE PUSH1 0x1F NOT PUSH1 0x1F DUP3 ADD AND DUP3 ADD DUP1 PUSH1 0x40 MSTORE POP DUP2 ADD SWAP1 PUSH2 0x133 SWAP2 SWAP1 PUSH2 0x26A JUMP JUMPDEST POP POP POP SWAP2 POP POP PUSH20 0xD4A33860578DE61DBABDC8BFDB98FD742FA7028E PUSH20 0xFFFFFFFFFFFFFFFFFFFFFFFFFFFFFFFFFFFFFFFF AND PUSH4 0x313CE567 PUSH1 0x40 MLOAD DUP2 PUSH4 0xFFFFFFFF AND PUSH1 0xE0 SHL DUP2 MSTORE PUSH1 0x4 ADD PUSH1 0x20 PUSH1 0x40 MLOAD DUP1 DUP4 SUB DUP2 DUP7 DUP1 EXTCODESIZE ISZERO DUP1 ISZERO PUSH2 0x193 JUMPI PUSH1 0x0 DUP1 REVERT JUMPDEST POP GAS STATICCALL ISZERO DUP1 ISZERO PUSH2 0x1A7 JUMPI RETURNDATASIZE PUSH1 0x0 DUP1 RETURNDATACOPY RETURNDATASIZE PUSH1 0x0 REVERT JUMPDEST POP POP POP POP PUSH1 0x40 MLOAD RETURNDATASIZE PUSH1 0x1F NOT PUSH1 0x1F DUP3 ADD AND DUP3 ADD DUP1 PUSH1 0x40 MSTORE POP DUP2 ADD SWAP1 PUSH2 0x1CB SWAP2 SWAP1 PUSH2 0x2E5 JUMP JUMPDEST SWAP2 POP POP SWAP1 JUMP JUMPDEST PUSH1 0x32 CALLVALUE GT PUSH2 0x214 JUMPI PUSH1 0x40 MLOAD PUSH32 0x8C379A000000000000000000000000000000000000000000000000000000000 DUP2 MSTORE PUSH1 0x4 ADD PUSH2 0x20B SWAP1 PUSH2 0x353 JUMP JUMPDEST PUSH1 0x40 MLOAD DUP1 SWAP2 SUB SWAP1 REVERT JUMPDEST JUMP JUMPDEST PUSH1 0x0 DUP2 MLOAD SWAP1 POP PUSH2 0x225 DUP2 PUSH2 0x41F JUMP JUMPDEST SWAP3 SWAP2 POP POP JUMP JUMPDEST PUSH1 0x0 DUP2 MLOAD SWAP1 POP PUSH2 0x23A DUP2 PUSH2 0x436 JUMP JUMPDEST SWAP3 SWAP2 POP POP JUMP JUMPDEST PUSH1 0x0 DUP2 MLOAD SWAP1 POP PUSH2 0x24F DUP2 PUSH2 0x464 JUMP JUMPDEST SWAP3 SWAP2 POP POP JUMP JUMPDEST PUSH1 0x0 DUP2 MLOAD SWAP1 POP PUSH2 0x264 DUP2 PUSH2 0x44D JUMP JUMPDEST SWAP3 SWAP2 POP POP JUMP JUMPDEST PUSH1 0x0 DUP1 PUSH1 0x0 DUP1 PUSH1 0x0 PUSH1 0xA0 DUP7 DUP9 SUB SLT ISZERO PUSH2 0x286 JUMPI PUSH2 0x285 PUSH2 0x3F1 JUMP JUMPDEST JUMPDEST PUSH1 0x0 PUSH2 0x294 DUP9 DUP3 DUP10 ADD PUSH2 0x240 JUMP JUMPDEST SWAP6 POP POP PUSH1 0x20 PUSH2 0x2A5 DUP9 DUP3 DUP10 ADD PUSH2 0x216 JUMP JUMPDEST SWAP5 POP POP PUSH1 0x40 PUSH2 0x2B6 DUP9 DUP3 DUP10 ADD PUSH2 0x22B JUMP JUMPDEST SWAP4 POP POP PUSH1 0x60 PUSH2 0x2C7 DUP9 DUP3 DUP10 ADD PUSH2 0x22B JUMP JUMPDEST SWAP3 POP POP PUSH1 0x80 PUSH2 0x2D8 DUP9 DUP3 DUP10 ADD PUSH2 0x240 JUMP JUMPDEST SWAP2 POP POP SWAP3 SWAP6 POP SWAP3 SWAP6 SWAP1 SWAP4 POP JUMP JUMPDEST PUSH1 0x0 PUSH1 0x20 DUP3 DUP5 SUB SLT ISZERO PUSH2 0x2FB JUMPI PUSH2 0x2FA PUSH2 0x3F1 JUMP JUMPDEST JUMPDEST PUSH1 0x0 PUSH2 0x309 DUP5 DUP3 DUP6 ADD PUSH2 0x255 JUMP JUMPDEST SWAP2 POP POP SWAP3 SWAP2 POP POP JUMP JUMPDEST PUSH1 0x0 PUSH2 0x31F PUSH1 0x13 DUP4 PUSH2 0x3A9 JUMP JUMPDEST SWAP2 POP PUSH2 0x32A DUP3 PUSH2 0x3F6 JUMP JUMPDEST PUSH1 0x20 DUP3 ADD SWAP1 POP SWAP2 SWAP1 POP JUMP JUMPDEST PUSH2 0x33E DUP2 PUSH2 0x3C4 JUMP JUMPDEST DUP3 MSTORE POP POP JUMP JUMPDEST PUSH2 0x34D DUP2 PUSH2 0x3CE JUMP JUMPDEST DUP3 MSTORE POP POP JUMP JUMPDEST PUSH1 0x0 PUSH1 0x20 DUP3 ADD SWAP1 POP DUP2 DUP2 SUB PUSH1 0x0 DUP4 ADD MSTORE PUSH2 0x36C DUP2 PUSH2 0x312 JUMP JUMPDEST SWAP1 POP SWAP2 SWAP1 POP JUMP JUMPDEST PUSH1 0x0 PUSH1 0x20 DUP3 ADD SWAP1 POP PUSH2 0x388 PUSH1 0x0 DUP4 ADD DUP5 PUSH2 0x335 JUMP JUMPDEST SWAP3 SWAP2 POP POP JUMP JUMPDEST PUSH1 0x0 PUSH1 0x20 DUP3 ADD SWAP1 POP PUSH2 0x3A3 PUSH1 0x0 DUP4 ADD DUP5 PUSH2 0x344 JUMP JUMPDEST SWAP3 SWAP2 POP POP JUMP JUMPDEST PUSH1 0x0 DUP3 DUP3 MSTORE PUSH1 0x20 DUP3 ADD SWAP1 POP SWAP3 SWAP2 POP POP JUMP JUMPDEST PUSH1 0x0 DUP2 SWAP1 POP SWAP2 SWAP1 POP JUMP JUMPDEST PUSH1 0x0 DUP2 SWAP1 POP SWAP2 SWAP1 POP JUMP JUMPDEST PUSH1 0x0 PUSH1 0xFF DUP3 AND SWAP1 POP SWAP2 SWAP1 POP JUMP JUMPDEST PUSH1 0x0 PUSH10 0xFFFFFFFFFFFFFFFFFFFF DUP3 AND SWAP1 POP SWAP2 SWAP1 POP JUMP JUMPDEST PUSH1 0x0 DUP1 REVERT JUMPDEST PUSH32 0x446964206E6F742073656E6420656E6F75676800000000000000000000000000 PUSH1 0x0 DUP3 ADD MSTORE POP JUMP JUMPDEST PUSH2 0x428 DUP2 PUSH2 0x3BA JUMP JUMPDEST DUP2 EQ PUSH2 0x433 JUMPI PUSH1 0x0 DUP1 REVERT JUMPDEST POP JUMP JUMPDEST PUSH2 0x43F DUP2 PUSH2 0x3C4 JUMP JUMPDEST DUP2 EQ PUSH2 0x44A JUMPI PUSH1 0x0 DUP1 REVERT JUMPDEST POP JUMP JUMPDEST PUSH2 0x456 DUP2 PUSH2 0x3CE JUMP JUMPDEST DUP2 EQ PUSH2 0x461 JUMPI PUSH1 0x0 DUP1 REVERT JUMPDEST POP JUMP JUMPDEST PUSH2 0x46D DUP2 PUSH2 0x3DB JUMP JUMPDEST DUP2 EQ PUSH2 0x478 JUMPI PUSH1 0x0 DUP1 REVERT JUMPDEST POP JUMP INVALID LOG2 PUSH5 0x6970667358 0x22 SLT KECCAK256 0xCF PUSH17 0x1A2E23BE4542267A1EE209DC509291B85E 0x4C 0xC3 0x5F 0xC4 PUSH31 0xD168A9902A4DC1E064736F6C63430008070033000000000000000000000000 "
				},
				"gasEstimates": {
					"creation": {
						"codeDepositCost": "240200",
						"executionCost": "281",
						"totalCost": "240481"
					},
					"external": {
						"MINIMUM_USD()": "307",
						"fund()": "453",
						"getPrice()": "infinite"
					}
				},
				"methodIdentifiers": {
					"MINIMUM_USD()": "6b69a592",
					"fund()": "b60d4288",
					"getPrice()": "98d5fdca"
				}
			},
			"storageLayout": {
				"storage": [],
				"types": null
			},
			"userdoc": {
				"kind": "user",
				"methods": {},
				"version": 1
			}
		}
	}
}