{
	"contracts/FundMe.sol": {
		"FundMe": {
			"abi": [
				{
					"inputs": [],
					"name": "MINIMUM_USD",
					"outputs": [
						{
							"internalType": "uint256",
							"name": "",
							"type": "uint256"
						}
					],
					"stateMutability": "view",
					"type": "function"
				},
				{
					"inputs": [],
					"name": "fund",
					"outputs": [],
					"stateMutability": "payable",
					"type": "function"
				},
				{
					"inputs": [
						{
							"internalType": "uint256",
							"name": "ethAmount",
							"type": "uint256"
						}
					],
					"name": "getConversionRate",
					"outputs": [
						{
							"internalType": "uint256",
							"name": "",
							"type": "uint256"
						}
					],
					"stateMutability": "view",
					"type": "function"
				},
				{
					"inputs": [],
					"name": "getPrice",
					"outputs": [
						{
							"internalType": "uint256",
							"name": "",
							"type": "uint256"
						}
					],
					"stateMutability": "view",
					"type": "function"
				}
			],
			"devdoc": {
				"kind": "dev",
				"methods": {},
				"version": 1
			},
			"evm": {
				"assembly": "    /* \"contracts/FundMe.sol\":136:835  contract FundMe{... */\n  mstore(0x40, 0x80)\n  callvalue\n  dup1\n  iszero\n  tag_1\n  jumpi\n  0x00\n  dup1\n  revert\ntag_1:\n  pop\n  dataSize(sub_0)\n  dup1\n  dataOffset(sub_0)\n  0x00\n  codecopy\n  0x00\n  return\nstop\n\nsub_0: assembly {\n        /* \"contracts/FundMe.sol\":136:835  contract FundMe{... */\n      mstore(0x40, 0x80)\n      jumpi(tag_1, lt(calldatasize, 0x04))\n      shr(0xe0, calldataload(0x00))\n      dup1\n      0x6b69a592\n      eq\n      tag_2\n      jumpi\n      dup1\n      0x6e5b6b28\n      eq\n      tag_3\n      jumpi\n      dup1\n      0x98d5fdca\n      eq\n      tag_4\n      jumpi\n      dup1\n      0xb60d4288\n      eq\n      tag_5\n      jumpi\n    tag_1:\n      0x00\n      dup1\n      revert\n        /* \"contracts/FundMe.sol\":158:202  uint256 public constant MINIMUM_USD=50* 1e18 */\n    tag_2:\n      callvalue\n      dup1\n      iszero\n      tag_6\n      jumpi\n      0x00\n      dup1\n      revert\n    tag_6:\n      pop\n      tag_7\n      tag_8\n      jump\t// in\n    tag_7:\n      mload(0x40)\n      tag_9\n      swap2\n      swap1\n      tag_10\n      jump\t// in\n    tag_9:\n      mload(0x40)\n      dup1\n      swap2\n      sub\n      swap1\n      return\n        /* \"contracts/FundMe.sol\":704:833  function getConversionRate(uint256 ethAmount) public view returns(uint256){... */\n    tag_3:\n      callvalue\n      dup1\n      iszero\n      tag_11\n      jumpi\n      0x00\n      dup1\n      revert\n    tag_11:\n      pop\n      tag_12\n      0x04\n      dup1\n      calldatasize\n      sub\n      dup2\n      add\n      swap1\n      tag_13\n      swap2\n      swap1\n      tag_14\n      jump\t// in\n    tag_13:\n      tag_15\n      jump\t// in\n    tag_12:\n      mload(0x40)\n      tag_16\n      swap2\n      swap1\n      tag_10\n      jump\t// in\n    tag_16:\n      mload(0x40)\n      dup1\n      swap2\n      sub\n      swap1\n      return\n        /* \"contracts/FundMe.sol\":336:698  function getPrice() view public returns(uint256){... */\n    tag_4:\n      callvalue\n      dup1\n      iszero\n      tag_17\n      jumpi\n      0x00\n      dup1\n      revert\n    tag_17:\n      pop\n      tag_18\n      tag_19\n      jump\t// in\n    tag_18:\n      mload(0x40)\n      tag_20\n      swap2\n      swap1\n      tag_10\n      jump\t// in\n    tag_20:\n      mload(0x40)\n      dup1\n      swap2\n      sub\n      swap1\n      return\n        /* \"contracts/FundMe.sol\":209:330  function fund() public payable{... */\n    tag_5:\n      tag_21\n      tag_22\n      jump\t// in\n    tag_21:\n      stop\n        /* \"contracts/FundMe.sol\":158:202  uint256 public constant MINIMUM_USD=50* 1e18 */\n    tag_8:\n        /* \"contracts/FundMe.sol\":194:202  50* 1e18 */\n      0x02b5e3af16b1880000\n        /* \"contracts/FundMe.sol\":158:202  uint256 public constant MINIMUM_USD=50* 1e18 */\n      dup2\n      jump\t// out\n        /* \"contracts/FundMe.sol\":704:833  function getConversionRate(uint256 ethAmount) public view returns(uint256){... */\n    tag_15:\n        /* \"contracts/FundMe.sol\":770:777  uint256 */\n      0x00\n        /* \"contracts/FundMe.sol\":822:826  1e18 */\n      0x0de0b6b3a7640000\n        /* \"contracts/FundMe.sol\":809:818  ethAmount */\n      dup3\n        /* \"contracts/FundMe.sol\":796:806  getPrice() */\n      tag_24\n        /* \"contracts/FundMe.sol\":796:804  getPrice */\n      tag_19\n        /* \"contracts/FundMe.sol\":796:806  getPrice() */\n      jump\t// in\n    tag_24:\n        /* \"contracts/FundMe.sol\":796:818  getPrice() * ethAmount */\n      tag_25\n      swap2\n      swap1\n      tag_26\n      jump\t// in\n    tag_25:\n        /* \"contracts/FundMe.sol\":795:826  (getPrice() * ethAmount) / 1e18 */\n      tag_27\n      swap2\n      swap1\n      tag_28\n      jump\t// in\n    tag_27:\n        /* \"contracts/FundMe.sol\":788:826  return (getPrice() * ethAmount) / 1e18 */\n      swap1\n      pop\n        /* \"contracts/FundMe.sol\":704:833  function getConversionRate(uint256 ethAmount) public view returns(uint256){... */\n      swap2\n      swap1\n      pop\n      jump\t// out\n        /* \"contracts/FundMe.sol\":336:698  function getPrice() view public returns(uint256){... */\n    tag_19:\n        /* \"contracts/FundMe.sol\":376:383  uint256 */\n      0x00\n        /* \"contracts/FundMe.sol\":440:452  int256 price */\n      dup1\n        /* \"contracts/FundMe.sol\":591:633  0xD4a33860578De61DBAbDc8BFdb98FD742fA7028e */\n      0xd4a33860578de61dbabdc8bfdb98fd742fa7028e\n        /* \"contracts/FundMe.sol\":569:650  AggregatorV3Interface(0xD4a33860578De61DBAbDc8BFdb98FD742fA7028e).latestRoundData */\n      0xffffffffffffffffffffffffffffffffffffffff\n      and\n      0xfeaf968c\n        /* \"contracts/FundMe.sol\":569:652  AggregatorV3Interface(0xD4a33860578De61DBAbDc8BFdb98FD742fA7028e).latestRoundData() */\n      mload(0x40)\n      dup2\n      0xffffffff\n      and\n      0xe0\n      shl\n      dup2\n      mstore\n      0x04\n      add\n      0xa0\n      mload(0x40)\n      dup1\n      dup4\n      sub\n      dup2\n      dup7\n      dup1\n      extcodesize\n      iszero\n      dup1\n      iszero\n      tag_30\n      jumpi\n      0x00\n      dup1\n      revert\n    tag_30:\n      pop\n      gas\n      staticcall\n      iszero\n      dup1\n      iszero\n      tag_32\n      jumpi\n      returndatasize\n      0x00\n      dup1\n      returndatacopy\n      revert(0x00, returndatasize)\n    tag_32:\n      pop\n      pop\n      pop\n      pop\n      mload(0x40)\n      returndatasize\n      not(0x1f)\n      0x1f\n      dup3\n      add\n      and\n      dup3\n      add\n      dup1\n      0x40\n      mstore\n      pop\n      dup2\n      add\n      swap1\n      tag_33\n      swap2\n      swap1\n      tag_34\n      jump\t// in\n    tag_33:\n        /* \"contracts/FundMe.sol\":394:652  (... */\n      pop\n      pop\n      pop\n      swap2\n      pop\n      pop\n        /* \"contracts/FundMe.sol\":685:689  1e10 */\n      0x02540be400\n        /* \"contracts/FundMe.sol\":677:682  price */\n      dup2\n        /* \"contracts/FundMe.sol\":677:689  price * 1e10 */\n      tag_35\n      swap2\n      swap1\n      tag_36\n      jump\t// in\n    tag_35:\n        /* \"contracts/FundMe.sol\":662:690  return uint256(price * 1e10) */\n      swap2\n      pop\n      pop\n        /* \"contracts/FundMe.sol\":336:698  function getPrice() view public returns(uint256){... */\n      swap1\n      jump\t// out\n        /* \"contracts/FundMe.sol\":209:330  function fund() public payable{... */\n    tag_22:\n        /* \"contracts/FundMe.sol\":194:202  50* 1e18 */\n      0x02b5e3af16b1880000\n        /* \"contracts/FundMe.sol\":257:285  getConversionRate(msg.value) */\n      tag_38\n        /* \"contracts/FundMe.sol\":275:284  msg.value */\n      callvalue\n        /* \"contracts/FundMe.sol\":257:274  getConversionRate */\n      tag_15\n        /* \"contracts/FundMe.sol\":257:285  getConversionRate(msg.value) */\n      jump\t// in\n    tag_38:\n        /* \"contracts/FundMe.sol\":257:299  getConversionRate(msg.value) > MINIMUM_USD */\n      gt\n        /* \"contracts/FundMe.sol\":249:323  require(getConversionRate(msg.value) > MINIMUM_USD, \"Did not send enough\") */\n      tag_39\n      jumpi\n      mload(0x40)\n      0x08c379a000000000000000000000000000000000000000000000000000000000\n      dup2\n      mstore\n      0x04\n      add\n      tag_40\n      swap1\n      tag_41\n      jump\t// in\n    tag_40:\n      mload(0x40)\n      dup1\n      swap2\n      sub\n      swap1\n      revert\n    tag_39:\n        /* \"contracts/FundMe.sol\":209:330  function fund() public payable{... */\n      jump\t// out\n        /* \"#utility.yul\":7:148   */\n    tag_43:\n        /* \"#utility.yul\":63:68   */\n      0x00\n        /* \"#utility.yul\":94:100   */\n      dup2\n        /* \"#utility.yul\":88:101   */\n      mload\n        /* \"#utility.yul\":79:101   */\n      swap1\n      pop\n        /* \"#utility.yul\":110:142   */\n      tag_45\n        /* \"#utility.yul\":136:141   */\n      dup2\n        /* \"#utility.yul\":110:142   */\n      tag_46\n      jump\t// in\n    tag_45:\n        /* \"#utility.yul\":7:148   */\n      swap3\n      swap2\n      pop\n      pop\n      jump\t// out\n        /* \"#utility.yul\":154:293   */\n    tag_47:\n        /* \"#utility.yul\":200:205   */\n      0x00\n        /* \"#utility.yul\":238:244   */\n      dup2\n        /* \"#utility.yul\":225:245   */\n      calldataload\n        /* \"#utility.yul\":216:245   */\n      swap1\n      pop\n        /* \"#utility.yul\":254:287   */\n      tag_49\n        /* \"#utility.yul\":281:286   */\n      dup2\n        /* \"#utility.yul\":254:287   */\n      tag_50\n      jump\t// in\n    tag_49:\n        /* \"#utility.yul\":154:293   */\n      swap3\n      swap2\n      pop\n      pop\n      jump\t// out\n        /* \"#utility.yul\":299:442   */\n    tag_51:\n        /* \"#utility.yul\":356:361   */\n      0x00\n        /* \"#utility.yul\":387:393   */\n      dup2\n        /* \"#utility.yul\":381:394   */\n      mload\n        /* \"#utility.yul\":372:394   */\n      swap1\n      pop\n        /* \"#utility.yul\":403:436   */\n      tag_53\n        /* \"#utility.yul\":430:435   */\n      dup2\n        /* \"#utility.yul\":403:436   */\n      tag_50\n      jump\t// in\n    tag_53:\n        /* \"#utility.yul\":299:442   */\n      swap3\n      swap2\n      pop\n      pop\n      jump\t// out\n        /* \"#utility.yul\":448:589   */\n    tag_54:\n        /* \"#utility.yul\":504:509   */\n      0x00\n        /* \"#utility.yul\":535:541   */\n      dup2\n        /* \"#utility.yul\":529:542   */\n      mload\n        /* \"#utility.yul\":520:542   */\n      swap1\n      pop\n        /* \"#utility.yul\":551:583   */\n      tag_56\n        /* \"#utility.yul\":577:582   */\n      dup2\n        /* \"#utility.yul\":551:583   */\n      tag_57\n      jump\t// in\n    tag_56:\n        /* \"#utility.yul\":448:589   */\n      swap3\n      swap2\n      pop\n      pop\n      jump\t// out\n        /* \"#utility.yul\":595:924   */\n    tag_14:\n        /* \"#utility.yul\":654:660   */\n      0x00\n        /* \"#utility.yul\":703:705   */\n      0x20\n        /* \"#utility.yul\":691:700   */\n      dup3\n        /* \"#utility.yul\":682:689   */\n      dup5\n        /* \"#utility.yul\":678:701   */\n      sub\n        /* \"#utility.yul\":674:706   */\n      slt\n        /* \"#utility.yul\":671:790   */\n      iszero\n      tag_59\n      jumpi\n        /* \"#utility.yul\":709:788   */\n      tag_60\n      tag_61\n      jump\t// in\n    tag_60:\n        /* \"#utility.yul\":671:790   */\n    tag_59:\n        /* \"#utility.yul\":829:830   */\n      0x00\n        /* \"#utility.yul\":854:907   */\n      tag_62\n        /* \"#utility.yul\":899:906   */\n      dup5\n        /* \"#utility.yul\":890:896   */\n      dup3\n        /* \"#utility.yul\":879:888   */\n      dup6\n        /* \"#utility.yul\":875:897   */\n      add\n        /* \"#utility.yul\":854:907   */\n      tag_47\n      jump\t// in\n    tag_62:\n        /* \"#utility.yul\":844:907   */\n      swap2\n      pop\n        /* \"#utility.yul\":800:917   */\n      pop\n        /* \"#utility.yul\":595:924   */\n      swap3\n      swap2\n      pop\n      pop\n      jump\t// out\n        /* \"#utility.yul\":930:1901   */\n    tag_34:\n        /* \"#utility.yul\":1033:1039   */\n      0x00\n        /* \"#utility.yul\":1041:1047   */\n      dup1\n        /* \"#utility.yul\":1049:1055   */\n      0x00\n        /* \"#utility.yul\":1057:1063   */\n      dup1\n        /* \"#utility.yul\":1065:1071   */\n      0x00\n        /* \"#utility.yul\":1114:1117   */\n      0xa0\n        /* \"#utility.yul\":1102:1111   */\n      dup7\n        /* \"#utility.yul\":1093:1100   */\n      dup9\n        /* \"#utility.yul\":1089:1112   */\n      sub\n        /* \"#utility.yul\":1085:1118   */\n      slt\n        /* \"#utility.yul\":1082:1202   */\n      iszero\n      tag_64\n      jumpi\n        /* \"#utility.yul\":1121:1200   */\n      tag_65\n      tag_61\n      jump\t// in\n    tag_65:\n        /* \"#utility.yul\":1082:1202   */\n    tag_64:\n        /* \"#utility.yul\":1241:1242   */\n      0x00\n        /* \"#utility.yul\":1266:1329   */\n      tag_66\n        /* \"#utility.yul\":1321:1328   */\n      dup9\n        /* \"#utility.yul\":1312:1318   */\n      dup3\n        /* \"#utility.yul\":1301:1310   */\n      dup10\n        /* \"#utility.yul\":1297:1319   */\n      add\n        /* \"#utility.yul\":1266:1329   */\n      tag_54\n      jump\t// in\n    tag_66:\n        /* \"#utility.yul\":1256:1329   */\n      swap6\n      pop\n        /* \"#utility.yul\":1212:1339   */\n      pop\n        /* \"#utility.yul\":1378:1380   */\n      0x20\n        /* \"#utility.yul\":1404:1467   */\n      tag_67\n        /* \"#utility.yul\":1459:1466   */\n      dup9\n        /* \"#utility.yul\":1450:1456   */\n      dup3\n        /* \"#utility.yul\":1439:1448   */\n      dup10\n        /* \"#utility.yul\":1435:1457   */\n      add\n        /* \"#utility.yul\":1404:1467   */\n      tag_43\n      jump\t// in\n    tag_67:\n        /* \"#utility.yul\":1394:1467   */\n      swap5\n      pop\n        /* \"#utility.yul\":1349:1477   */\n      pop\n        /* \"#utility.yul\":1516:1518   */\n      0x40\n        /* \"#utility.yul\":1542:1606   */\n      tag_68\n        /* \"#utility.yul\":1598:1605   */\n      dup9\n        /* \"#utility.yul\":1589:1595   */\n      dup3\n        /* \"#utility.yul\":1578:1587   */\n      dup10\n        /* \"#utility.yul\":1574:1596   */\n      add\n        /* \"#utility.yul\":1542:1606   */\n      tag_51\n      jump\t// in\n    tag_68:\n        /* \"#utility.yul\":1532:1606   */\n      swap4\n      pop\n        /* \"#utility.yul\":1487:1616   */\n      pop\n        /* \"#utility.yul\":1655:1657   */\n      0x60\n        /* \"#utility.yul\":1681:1745   */\n      tag_69\n        /* \"#utility.yul\":1737:1744   */\n      dup9\n        /* \"#utility.yul\":1728:1734   */\n      dup3\n        /* \"#utility.yul\":1717:1726   */\n      dup10\n        /* \"#utility.yul\":1713:1735   */\n      add\n        /* \"#utility.yul\":1681:1745   */\n      tag_51\n      jump\t// in\n    tag_69:\n        /* \"#utility.yul\":1671:1745   */\n      swap3\n      pop\n        /* \"#utility.yul\":1626:1755   */\n      pop\n        /* \"#utility.yul\":1794:1797   */\n      0x80\n        /* \"#utility.yul\":1821:1884   */\n      tag_70\n        /* \"#utility.yul\":1876:1883   */\n      dup9\n        /* \"#utility.yul\":1867:1873   */\n      dup3\n        /* \"#utility.yul\":1856:1865   */\n      dup10\n        /* \"#utility.yul\":1852:1874   */\n      add\n        /* \"#utility.yul\":1821:1884   */\n      tag_54\n      jump\t// in\n    tag_70:\n        /* \"#utility.yul\":1811:1884   */\n      swap2\n      pop\n        /* \"#utility.yul\":1765:1894   */\n      pop\n        /* \"#utility.yul\":930:1901   */\n      swap3\n      swap6\n      pop\n      swap3\n      swap6\n      swap1\n      swap4\n      pop\n      jump\t// out\n        /* \"#utility.yul\":1907:2273   */\n    tag_71:\n        /* \"#utility.yul\":2049:2052   */\n      0x00\n        /* \"#utility.yul\":2070:2137   */\n      tag_73\n        /* \"#utility.yul\":2134:2136   */\n      0x13\n        /* \"#utility.yul\":2129:2132   */\n      dup4\n        /* \"#utility.yul\":2070:2137   */\n      tag_74\n      jump\t// in\n    tag_73:\n        /* \"#utility.yul\":2063:2137   */\n      swap2\n      pop\n        /* \"#utility.yul\":2146:2239   */\n      tag_75\n        /* \"#utility.yul\":2235:2238   */\n      dup3\n        /* \"#utility.yul\":2146:2239   */\n      tag_76\n      jump\t// in\n    tag_75:\n        /* \"#utility.yul\":2264:2266   */\n      0x20\n        /* \"#utility.yul\":2259:2262   */\n      dup3\n        /* \"#utility.yul\":2255:2267   */\n      add\n        /* \"#utility.yul\":2248:2267   */\n      swap1\n      pop\n        /* \"#utility.yul\":1907:2273   */\n      swap2\n      swap1\n      pop\n      jump\t// out\n        /* \"#utility.yul\":2279:2397   */\n    tag_77:\n        /* \"#utility.yul\":2366:2390   */\n      tag_79\n        /* \"#utility.yul\":2384:2389   */\n      dup2\n        /* \"#utility.yul\":2366:2390   */\n      tag_80\n      jump\t// in\n    tag_79:\n        /* \"#utility.yul\":2361:2364   */\n      dup3\n        /* \"#utility.yul\":2354:2391   */\n      mstore\n        /* \"#utility.yul\":2279:2397   */\n      pop\n      pop\n      jump\t// out\n        /* \"#utility.yul\":2403:2822   */\n    tag_41:\n        /* \"#utility.yul\":2569:2573   */\n      0x00\n        /* \"#utility.yul\":2607:2609   */\n      0x20\n        /* \"#utility.yul\":2596:2605   */\n      dup3\n        /* \"#utility.yul\":2592:2610   */\n      add\n        /* \"#utility.yul\":2584:2610   */\n      swap1\n      pop\n        /* \"#utility.yul\":2656:2665   */\n      dup2\n        /* \"#utility.yul\":2650:2654   */\n      dup2\n        /* \"#utility.yul\":2646:2666   */\n      sub\n        /* \"#utility.yul\":2642:2643   */\n      0x00\n        /* \"#utility.yul\":2631:2640   */\n      dup4\n        /* \"#utility.yul\":2627:2644   */\n      add\n        /* \"#utility.yul\":2620:2667   */\n      mstore\n        /* \"#utility.yul\":2684:2815   */\n      tag_82\n        /* \"#utility.yul\":2810:2814   */\n      dup2\n        /* \"#utility.yul\":2684:2815   */\n      tag_71\n      jump\t// in\n    tag_82:\n        /* \"#utility.yul\":2676:2815   */\n      swap1\n      pop\n        /* \"#utility.yul\":2403:2822   */\n      swap2\n      swap1\n      pop\n      jump\t// out\n        /* \"#utility.yul\":2828:3050   */\n    tag_10:\n        /* \"#utility.yul\":2921:2925   */\n      0x00\n        /* \"#utility.yul\":2959:2961   */\n      0x20\n        /* \"#utility.yul\":2948:2957   */\n      dup3\n        /* \"#utility.yul\":2944:2962   */\n      add\n        /* \"#utility.yul\":2936:2962   */\n      swap1\n      pop\n        /* \"#utility.yul\":2972:3043   */\n      tag_84\n        /* \"#utility.yul\":3040:3041   */\n      0x00\n        /* \"#utility.yul\":3029:3038   */\n      dup4\n        /* \"#utility.yul\":3025:3042   */\n      add\n        /* \"#utility.yul\":3016:3022   */\n      dup5\n        /* \"#utility.yul\":2972:3043   */\n      tag_77\n      jump\t// in\n    tag_84:\n        /* \"#utility.yul\":2828:3050   */\n      swap3\n      swap2\n      pop\n      pop\n      jump\t// out\n        /* \"#utility.yul\":3137:3306   */\n    tag_74:\n        /* \"#utility.yul\":3221:3232   */\n      0x00\n        /* \"#utility.yul\":3255:3261   */\n      dup3\n        /* \"#utility.yul\":3250:3253   */\n      dup3\n        /* \"#utility.yul\":3243:3262   */\n      mstore\n        /* \"#utility.yul\":3295:3299   */\n      0x20\n        /* \"#utility.yul\":3290:3293   */\n      dup3\n        /* \"#utility.yul\":3286:3300   */\n      add\n        /* \"#utility.yul\":3271:3300   */\n      swap1\n      pop\n        /* \"#utility.yul\":3137:3306   */\n      swap3\n      swap2\n      pop\n      pop\n      jump\t// out\n        /* \"#utility.yul\":3312:3497   */\n    tag_28:\n        /* \"#utility.yul\":3352:3353   */\n      0x00\n        /* \"#utility.yul\":3369:3389   */\n      tag_89\n        /* \"#utility.yul\":3387:3388   */\n      dup3\n        /* \"#utility.yul\":3369:3389   */\n      tag_80\n      jump\t// in\n    tag_89:\n        /* \"#utility.yul\":3364:3389   */\n      swap2\n      pop\n        /* \"#utility.yul\":3403:3423   */\n      tag_90\n        /* \"#utility.yul\":3421:3422   */\n      dup4\n        /* \"#utility.yul\":3403:3423   */\n      tag_80\n      jump\t// in\n    tag_90:\n        /* \"#utility.yul\":3398:3423   */\n      swap3\n      pop\n        /* \"#utility.yul\":3442:3443   */\n      dup3\n        /* \"#utility.yul\":3432:3467   */\n      tag_91\n      jumpi\n        /* \"#utility.yul\":3447:3465   */\n      tag_92\n      tag_93\n      jump\t// in\n    tag_92:\n        /* \"#utility.yul\":3432:3467   */\n    tag_91:\n        /* \"#utility.yul\":3489:3490   */\n      dup3\n        /* \"#utility.yul\":3486:3487   */\n      dup3\n        /* \"#utility.yul\":3482:3491   */\n      div\n        /* \"#utility.yul\":3477:3491   */\n      swap1\n      pop\n        /* \"#utility.yul\":3312:3497   */\n      swap3\n      swap2\n      pop\n      pop\n      jump\t// out\n        /* \"#utility.yul\":3503:4494   */\n    tag_36:\n        /* \"#utility.yul\":3542:3549   */\n      0x00\n        /* \"#utility.yul\":3565:3584   */\n      tag_95\n        /* \"#utility.yul\":3582:3583   */\n      dup3\n        /* \"#utility.yul\":3565:3584   */\n      tag_96\n      jump\t// in\n    tag_95:\n        /* \"#utility.yul\":3560:3584   */\n      swap2\n      pop\n        /* \"#utility.yul\":3598:3617   */\n      tag_97\n        /* \"#utility.yul\":3615:3616   */\n      dup4\n        /* \"#utility.yul\":3598:3617   */\n      tag_96\n      jump\t// in\n    tag_97:\n        /* \"#utility.yul\":3593:3617   */\n      swap3\n      pop\n        /* \"#utility.yul\":3799:3800   */\n      dup3\n        /* \"#utility.yul\":3731:3797   */\n      0x7fffffffffffffffffffffffffffffffffffffffffffffffffffffffffffffff\n        /* \"#utility.yul\":3727:3801   */\n      div\n        /* \"#utility.yul\":3724:3725   */\n      dup3\n        /* \"#utility.yul\":3721:3802   */\n      gt\n        /* \"#utility.yul\":3716:3717   */\n      0x00\n        /* \"#utility.yul\":3713:3714   */\n      dup5\n        /* \"#utility.yul\":3709:3718   */\n      sgt\n        /* \"#utility.yul\":3705:3706   */\n      0x00\n        /* \"#utility.yul\":3702:3703   */\n      dup5\n        /* \"#utility.yul\":3698:3707   */\n      sgt\n        /* \"#utility.yul\":3694:3719   */\n      and\n        /* \"#utility.yul\":3690:3803   */\n      and\n        /* \"#utility.yul\":3687:3826   */\n      iszero\n      tag_98\n      jumpi\n        /* \"#utility.yul\":3806:3824   */\n      tag_99\n      tag_100\n      jump\t// in\n    tag_99:\n        /* \"#utility.yul\":3687:3826   */\n    tag_98:\n        /* \"#utility.yul\":4010:4011   */\n      dup2\n        /* \"#utility.yul\":3942:4008   */\n      0x8000000000000000000000000000000000000000000000000000000000000000\n        /* \"#utility.yul\":3937:4012   */\n      sdiv\n        /* \"#utility.yul\":3934:3935   */\n      dup4\n        /* \"#utility.yul\":3930:4013   */\n      slt\n        /* \"#utility.yul\":3925:3926   */\n      0x00\n        /* \"#utility.yul\":3922:3923   */\n      dup5\n        /* \"#utility.yul\":3918:3927   */\n      slt\n        /* \"#utility.yul\":3914:3915   */\n      0x00\n        /* \"#utility.yul\":3911:3912   */\n      dup5\n        /* \"#utility.yul\":3907:3916   */\n      sgt\n        /* \"#utility.yul\":3903:3928   */\n      and\n        /* \"#utility.yul\":3899:4014   */\n      and\n        /* \"#utility.yul\":3896:4037   */\n      iszero\n      tag_101\n      jumpi\n        /* \"#utility.yul\":4017:4035   */\n      tag_102\n      tag_100\n      jump\t// in\n    tag_102:\n        /* \"#utility.yul\":3896:4037   */\n    tag_101:\n        /* \"#utility.yul\":4221:4222   */\n      dup3\n        /* \"#utility.yul\":4153:4219   */\n      0x8000000000000000000000000000000000000000000000000000000000000000\n        /* \"#utility.yul\":4148:4223   */\n      sdiv\n        /* \"#utility.yul\":4145:4146   */\n      dup3\n        /* \"#utility.yul\":4141:4224   */\n      slt\n        /* \"#utility.yul\":4136:4137   */\n      0x00\n        /* \"#utility.yul\":4133:4134   */\n      dup5\n        /* \"#utility.yul\":4129:4138   */\n      sgt\n        /* \"#utility.yul\":4125:4126   */\n      0x00\n        /* \"#utility.yul\":4122:4123   */\n      dup5\n        /* \"#utility.yul\":4118:4127   */\n      slt\n        /* \"#utility.yul\":4114:4139   */\n      and\n        /* \"#utility.yul\":4110:4225   */\n      and\n        /* \"#utility.yul\":4107:4248   */\n      iszero\n      tag_103\n      jumpi\n        /* \"#utility.yul\":4228:4246   */\n      tag_104\n      tag_100\n      jump\t// in\n    tag_104:\n        /* \"#utility.yul\":4107:4248   */\n    tag_103:\n        /* \"#utility.yul\":4431:4432   */\n      dup3\n        /* \"#utility.yul\":4363:4429   */\n      0x7fffffffffffffffffffffffffffffffffffffffffffffffffffffffffffffff\n        /* \"#utility.yul\":4358:4433   */\n      sdiv\n        /* \"#utility.yul\":4355:4356   */\n      dup3\n        /* \"#utility.yul\":4351:4434   */\n      slt\n        /* \"#utility.yul\":4346:4347   */\n      0x00\n        /* \"#utility.yul\":4343:4344   */\n      dup5\n        /* \"#utility.yul\":4339:4348   */\n      slt\n        /* \"#utility.yul\":4335:4336   */\n      0x00\n        /* \"#utility.yul\":4332:4333   */\n      dup5\n        /* \"#utility.yul\":4328:4337   */\n      slt\n        /* \"#utility.yul\":4324:4349   */\n      and\n        /* \"#utility.yul\":4320:4435   */\n      and\n        /* \"#utility.yul\":4317:4458   */\n      iszero\n      tag_105\n      jumpi\n        /* \"#utility.yul\":4438:4456   */\n      tag_106\n      tag_100\n      jump\t// in\n    tag_106:\n        /* \"#utility.yul\":4317:4458   */\n    tag_105:\n        /* \"#utility.yul\":4486:4487   */\n      dup3\n        /* \"#utility.yul\":4483:4484   */\n      dup3\n        /* \"#utility.yul\":4479:4488   */\n      mul\n        /* \"#utility.yul\":4468:4488   */\n      swap1\n      pop\n        /* \"#utility.yul\":3503:4494   */\n      swap3\n      swap2\n      pop\n      pop\n      jump\t// out\n        /* \"#utility.yul\":4500:4848   */\n    tag_26:\n        /* \"#utility.yul\":4540:4547   */\n      0x00\n        /* \"#utility.yul\":4563:4583   */\n      tag_108\n        /* \"#utility.yul\":4581:4582   */\n      dup3\n        /* \"#utility.yul\":4563:4583   */\n      tag_80\n      jump\t// in\n    tag_108:\n        /* \"#utility.yul\":4558:4583   */\n      swap2\n      pop\n        /* \"#utility.yul\":4597:4617   */\n      tag_109\n        /* \"#utility.yul\":4615:4616   */\n      dup4\n        /* \"#utility.yul\":4597:4617   */\n      tag_80\n      jump\t// in\n    tag_109:\n        /* \"#utility.yul\":4592:4617   */\n      swap3\n      pop\n        /* \"#utility.yul\":4785:4786   */\n      dup2\n        /* \"#utility.yul\":4717:4783   */\n      0xffffffffffffffffffffffffffffffffffffffffffffffffffffffffffffffff\n        /* \"#utility.yul\":4713:4787   */\n      div\n        /* \"#utility.yul\":4710:4711   */\n      dup4\n        /* \"#utility.yul\":4707:4788   */\n      gt\n        /* \"#utility.yul\":4702:4703   */\n      dup3\n        /* \"#utility.yul\":4695:4704   */\n      iszero\n        /* \"#utility.yul\":4688:4705   */\n      iszero\n        /* \"#utility.yul\":4684:4789   */\n      and\n        /* \"#utility.yul\":4681:4812   */\n      iszero\n      tag_110\n      jumpi\n        /* \"#utility.yul\":4792:4810   */\n      tag_111\n      tag_100\n      jump\t// in\n    tag_111:\n        /* \"#utility.yul\":4681:4812   */\n    tag_110:\n        /* \"#utility.yul\":4840:4841   */\n      dup3\n        /* \"#utility.yul\":4837:4838   */\n      dup3\n        /* \"#utility.yul\":4833:4842   */\n      mul\n        /* \"#utility.yul\":4822:4842   */\n      swap1\n      pop\n        /* \"#utility.yul\":4500:4848   */\n      swap3\n      swap2\n      pop\n      pop\n      jump\t// out\n        /* \"#utility.yul\":4854:4930   */\n    tag_96:\n        /* \"#utility.yul\":4890:4897   */\n      0x00\n        /* \"#utility.yul\":4919:4924   */\n      dup2\n        /* \"#utility.yul\":4908:4924   */\n      swap1\n      pop\n        /* \"#utility.yul\":4854:4930   */\n      swap2\n      swap1\n      pop\n      jump\t// out\n        /* \"#utility.yul\":4936:5013   */\n    tag_80:\n        /* \"#utility.yul\":4973:4980   */\n      0x00\n        /* \"#utility.yul\":5002:5007   */\n      dup2\n        /* \"#utility.yul\":4991:5007   */\n      swap1\n      pop\n        /* \"#utility.yul\":4936:5013   */\n      swap2\n      swap1\n      pop\n      jump\t// out\n        /* \"#utility.yul\":5019:5124   */\n    tag_114:\n        /* \"#utility.yul\":5055:5062   */\n      0x00\n        /* \"#utility.yul\":5095:5117   */\n      0xffffffffffffffffffff\n        /* \"#utility.yul\":5088:5093   */\n      dup3\n        /* \"#utility.yul\":5084:5118   */\n      and\n        /* \"#utility.yul\":5073:5118   */\n      swap1\n      pop\n        /* \"#utility.yul\":5019:5124   */\n      swap2\n      swap1\n      pop\n      jump\t// out\n        /* \"#utility.yul\":5130:5310   */\n    tag_100:\n        /* \"#utility.yul\":5178:5255   */\n      0x4e487b7100000000000000000000000000000000000000000000000000000000\n        /* \"#utility.yul\":5175:5176   */\n      0x00\n        /* \"#utility.yul\":5168:5256   */\n      mstore\n        /* \"#utility.yul\":5275:5279   */\n      0x11\n        /* \"#utility.yul\":5272:5273   */\n      0x04\n        /* \"#utility.yul\":5265:5280   */\n      mstore\n        /* \"#utility.yul\":5299:5303   */\n      0x24\n        /* \"#utility.yul\":5296:5297   */\n      0x00\n        /* \"#utility.yul\":5289:5304   */\n      revert\n        /* \"#utility.yul\":5316:5496   */\n    tag_93:\n        /* \"#utility.yul\":5364:5441   */\n      0x4e487b7100000000000000000000000000000000000000000000000000000000\n        /* \"#utility.yul\":5361:5362   */\n      0x00\n        /* \"#utility.yul\":5354:5442   */\n      mstore\n        /* \"#utility.yul\":5461:5465   */\n      0x12\n        /* \"#utility.yul\":5458:5459   */\n      0x04\n        /* \"#utility.yul\":5451:5466   */\n      mstore\n        /* \"#utility.yul\":5485:5489   */\n      0x24\n        /* \"#utility.yul\":5482:5483   */\n      0x00\n        /* \"#utility.yul\":5475:5490   */\n      revert\n        /* \"#utility.yul\":5625:5742   */\n    tag_61:\n        /* \"#utility.yul\":5734:5735   */\n      0x00\n        /* \"#utility.yul\":5731:5732   */\n      dup1\n        /* \"#utility.yul\":5724:5736   */\n      revert\n        /* \"#utility.yul\":5748:5917   */\n    tag_76:\n        /* \"#utility.yul\":5888:5909   */\n      0x446964206e6f742073656e6420656e6f75676800000000000000000000000000\n        /* \"#utility.yul\":5884:5885   */\n      0x00\n        /* \"#utility.yul\":5876:5882   */\n      dup3\n        /* \"#utility.yul\":5872:5886   */\n      add\n        /* \"#utility.yul\":5865:5910   */\n      mstore\n        /* \"#utility.yul\":5748:5917   */\n      pop\n      jump\t// out\n        /* \"#utility.yul\":5923:6043   */\n    tag_46:\n        /* \"#utility.yul\":5995:6018   */\n      tag_123\n        /* \"#utility.yul\":6012:6017   */\n      dup2\n        /* \"#utility.yul\":5995:6018   */\n      tag_96\n      jump\t// in\n    tag_123:\n        /* \"#utility.yul\":5988:5993   */\n      dup2\n        /* \"#utility.yul\":5985:6019   */\n      eq\n        /* \"#utility.yul\":5975:6037   */\n      tag_124\n      jumpi\n        /* \"#utility.yul\":6033:6034   */\n      0x00\n        /* \"#utility.yul\":6030:6031   */\n      dup1\n        /* \"#utility.yul\":6023:6035   */\n      revert\n        /* \"#utility.yul\":5975:6037   */\n    tag_124:\n        /* \"#utility.yul\":5923:6043   */\n      pop\n      jump\t// out\n        /* \"#utility.yul\":6049:6171   */\n    tag_50:\n        /* \"#utility.yul\":6122:6146   */\n      tag_126\n        /* \"#utility.yul\":6140:6145   */\n      dup2\n        /* \"#utility.yul\":6122:6146   */\n      tag_80\n      jump\t// in\n    tag_126:\n        /* \"#utility.yul\":6115:6120   */\n      dup2\n        /* \"#utility.yul\":6112:6147   */\n      eq\n        /* \"#utility.yul\":6102:6165   */\n      tag_127\n      jumpi\n        /* \"#utility.yul\":6161:6162   */\n      0x00\n        /* \"#utility.yul\":6158:6159   */\n      dup1\n        /* \"#utility.yul\":6151:6163   */\n      revert\n        /* \"#utility.yul\":6102:6165   */\n    tag_127:\n        /* \"#utility.yul\":6049:6171   */\n      pop\n      jump\t// out\n        /* \"#utility.yul\":6177:6297   */\n    tag_57:\n        /* \"#utility.yul\":6249:6272   */\n      tag_129\n        /* \"#utility.yul\":6266:6271   */\n      dup2\n        /* \"#utility.yul\":6249:6272   */\n      tag_114\n      jump\t// in\n    tag_129:\n        /* \"#utility.yul\":6242:6247   */\n      dup2\n        /* \"#utility.yul\":6239:6273   */\n      eq\n        /* \"#utility.yul\":6229:6291   */\n      tag_130\n      jumpi\n        /* \"#utility.yul\":6287:6288   */\n      0x00\n        /* \"#utility.yul\":6284:6285   */\n      dup1\n        /* \"#utility.yul\":6277:6289   */\n      revert\n        /* \"#utility.yul\":6229:6291   */\n    tag_130:\n        /* \"#utility.yul\":6177:6297   */\n      pop\n      jump\t// out\n\n    auxdata: 0xa264697066735822122061add099307437a6f72b9af3d57a4db0819e7d5df23928248529b92d3db8bc5f64736f6c63430008070033\n}\n",
				"bytecode": {
					"linkReferences": {},
					"object": "608060405234801561001057600080fd5b50610671806100206000396000f3fe60806040526004361061003f5760003560e01c80636b69a592146100445780636e5b6b281461006f57806398d5fdca146100ac578063b60d4288146100d7575b600080fd5b34801561005057600080fd5b506100596100e1565b6040516100669190610372565b60405180910390f35b34801561007b57600080fd5b5061009660048036038101906100919190610278565b6100ee565b6040516100a39190610372565b60405180910390f35b3480156100b857600080fd5b506100c161011d565b6040516100ce9190610372565b60405180910390f35b6100df6101cf565b005b6802b5e3af16b188000081565b6000670de0b6b3a76400008261010261011d565b61010c91906104e6565b610116919061039e565b9050919050565b60008073d4a33860578de61dbabdc8bfdb98fd742fa7028e73ffffffffffffffffffffffffffffffffffffffff1663feaf968c6040518163ffffffff1660e01b815260040160a06040518083038186803b15801561017a57600080fd5b505afa15801561018e573d6000803e3d6000fd5b505050506040513d601f19601f820116820180604052508101906101b291906102a5565b5050509150506402540be400816101c991906103cf565b91505090565b6802b5e3af16b18800006101e2346100ee565b11610222576040517f08c379a000000000000000000000000000000000000000000000000000000000815260040161021990610352565b60405180910390fd5b565b600081519050610233816105f6565b92915050565b6000813590506102488161060d565b92915050565b60008151905061025d8161060d565b92915050565b60008151905061027281610624565b92915050565b60006020828403121561028e5761028d6105c8565b5b600061029c84828501610239565b91505092915050565b600080600080600060a086880312156102c1576102c06105c8565b5b60006102cf88828901610263565b95505060206102e088828901610224565b94505060406102f18882890161024e565b93505060606103028882890161024e565b925050608061031388828901610263565b9150509295509295909350565b600061032d60138361038d565b9150610338826105cd565b602082019050919050565b61034c8161054a565b82525050565b6000602082019050818103600083015261036b81610320565b9050919050565b60006020820190506103876000830184610343565b92915050565b600082825260208201905092915050565b60006103a98261054a565b91506103b48361054a565b9250826103c4576103c3610599565b5b828204905092915050565b60006103da82610540565b91506103e583610540565b9250827f7fffffffffffffffffffffffffffffffffffffffffffffffffffffffffffffff04821160008413600084131616156104245761042361056a565b5b817f800000000000000000000000000000000000000000000000000000000000000005831260008412600084131616156104615761046061056a565b5b827f8000000000000000000000000000000000000000000000000000000000000000058212600084136000841216161561049e5761049d61056a565b5b827f7fffffffffffffffffffffffffffffffffffffffffffffffffffffffffffffff05821260008412600084121616156104db576104da61056a565b5b828202905092915050565b60006104f18261054a565b91506104fc8361054a565b9250817fffffffffffffffffffffffffffffffffffffffffffffffffffffffffffffffff04831182151516156105355761053461056a565b5b828202905092915050565b6000819050919050565b6000819050919050565b600069ffffffffffffffffffff82169050919050565b7f4e487b7100000000000000000000000000000000000000000000000000000000600052601160045260246000fd5b7f4e487b7100000000000000000000000000000000000000000000000000000000600052601260045260246000fd5b600080fd5b7f446964206e6f742073656e6420656e6f75676800000000000000000000000000600082015250565b6105ff81610540565b811461060a57600080fd5b50565b6106168161054a565b811461062157600080fd5b50565b61062d81610554565b811461063857600080fd5b5056fea264697066735822122061add099307437a6f72b9af3d57a4db0819e7d5df23928248529b92d3db8bc5f64736f6c63430008070033",
					"opcodes": "PUSH1 0x80 PUSH1 0x40 MSTORE CALLVALUE DUP1 ISZERO PUSH2 0x10 JUMPI PUSH1 0x0 DUP1 REVERT JUMPDEST POP PUSH2 0x671 DUP1 PUSH2 0x20 PUSH1 0x0 CODECOPY PUSH1 0x0 RETURN INVALID PUSH1 0x80 PUSH1 0x40 MSTORE PUSH1 0x4 CALLDATASIZE LT PUSH2 0x3F JUMPI PUSH1 0x0 CALLDATALOAD PUSH1 0xE0 SHR DUP1 PUSH4 0x6B69A592 EQ PUSH2 0x44 JUMPI DUP1 PUSH4 0x6E5B6B28 EQ PUSH2 0x6F JUMPI DUP1 PUSH4 0x98D5FDCA EQ PUSH2 0xAC JUMPI DUP1 PUSH4 0xB60D4288 EQ PUSH2 0xD7 JUMPI JUMPDEST PUSH1 0x0 DUP1 REVERT JUMPDEST CALLVALUE DUP1 ISZERO PUSH2 0x50 JUMPI PUSH1 0x0 DUP1 REVERT JUMPDEST POP PUSH2 0x59 PUSH2 0xE1 JUMP JUMPDEST PUSH1 0x40 MLOAD PUSH2 0x66 SWAP2 SWAP1 PUSH2 0x372 JUMP JUMPDEST PUSH1 0x40 MLOAD DUP1 SWAP2 SUB SWAP1 RETURN JUMPDEST CALLVALUE DUP1 ISZERO PUSH2 0x7B JUMPI PUSH1 0x0 DUP1 REVERT JUMPDEST POP PUSH2 0x96 PUSH1 0x4 DUP1 CALLDATASIZE SUB DUP2 ADD SWAP1 PUSH2 0x91 SWAP2 SWAP1 PUSH2 0x278 JUMP JUMPDEST PUSH2 0xEE JUMP JUMPDEST PUSH1 0x40 MLOAD PUSH2 0xA3 SWAP2 SWAP1 PUSH2 0x372 JUMP JUMPDEST PUSH1 0x40 MLOAD DUP1 SWAP2 SUB SWAP1 RETURN JUMPDEST CALLVALUE DUP1 ISZERO PUSH2 0xB8 JUMPI PUSH1 0x0 DUP1 REVERT JUMPDEST POP PUSH2 0xC1 PUSH2 0x11D JUMP JUMPDEST PUSH1 0x40 MLOAD PUSH2 0xCE SWAP2 SWAP1 PUSH2 0x372 JUMP JUMPDEST PUSH1 0x40 MLOAD DUP1 SWAP2 SUB SWAP1 RETURN JUMPDEST PUSH2 0xDF PUSH2 0x1CF JUMP JUMPDEST STOP JUMPDEST PUSH9 0x2B5E3AF16B1880000 DUP2 JUMP JUMPDEST PUSH1 0x0 PUSH8 0xDE0B6B3A7640000 DUP3 PUSH2 0x102 PUSH2 0x11D JUMP JUMPDEST PUSH2 0x10C SWAP2 SWAP1 PUSH2 0x4E6 JUMP JUMPDEST PUSH2 0x116 SWAP2 SWAP1 PUSH2 0x39E JUMP JUMPDEST SWAP1 POP SWAP2 SWAP1 POP JUMP JUMPDEST PUSH1 0x0 DUP1 PUSH20 0xD4A33860578DE61DBABDC8BFDB98FD742FA7028E PUSH20 0xFFFFFFFFFFFFFFFFFFFFFFFFFFFFFFFFFFFFFFFF AND PUSH4 0xFEAF968C PUSH1 0x40 MLOAD DUP2 PUSH4 0xFFFFFFFF AND PUSH1 0xE0 SHL DUP2 MSTORE PUSH1 0x4 ADD PUSH1 0xA0 PUSH1 0x40 MLOAD DUP1 DUP4 SUB DUP2 DUP7 DUP1 EXTCODESIZE ISZERO DUP1 ISZERO PUSH2 0x17A JUMPI PUSH1 0x0 DUP1 REVERT JUMPDEST POP GAS STATICCALL ISZERO DUP1 ISZERO PUSH2 0x18E JUMPI RETURNDATASIZE PUSH1 0x0 DUP1 RETURNDATACOPY RETURNDATASIZE PUSH1 0x0 REVERT JUMPDEST POP POP POP POP PUSH1 0x40 MLOAD RETURNDATASIZE PUSH1 0x1F NOT PUSH1 0x1F DUP3 ADD AND DUP3 ADD DUP1 PUSH1 0x40 MSTORE POP DUP2 ADD SWAP1 PUSH2 0x1B2 SWAP2 SWAP1 PUSH2 0x2A5 JUMP JUMPDEST POP POP POP SWAP2 POP POP PUSH5 0x2540BE400 DUP2 PUSH2 0x1C9 SWAP2 SWAP1 PUSH2 0x3CF JUMP JUMPDEST SWAP2 POP POP SWAP1 JUMP JUMPDEST PUSH9 0x2B5E3AF16B1880000 PUSH2 0x1E2 CALLVALUE PUSH2 0xEE JUMP JUMPDEST GT PUSH2 0x222 JUMPI PUSH1 0x40 MLOAD PUSH32 0x8C379A000000000000000000000000000000000000000000000000000000000 DUP2 MSTORE PUSH1 0x4 ADD PUSH2 0x219 SWAP1 PUSH2 0x352 JUMP JUMPDEST PUSH1 0x40 MLOAD DUP1 SWAP2 SUB SWAP1 REVERT JUMPDEST JUMP JUMPDEST PUSH1 0x0 DUP2 MLOAD SWAP1 POP PUSH2 0x233 DUP2 PUSH2 0x5F6 JUMP JUMPDEST SWAP3 SWAP2 POP POP JUMP JUMPDEST PUSH1 0x0 DUP2 CALLDATALOAD SWAP1 POP PUSH2 0x248 DUP2 PUSH2 0x60D JUMP JUMPDEST SWAP3 SWAP2 POP POP JUMP JUMPDEST PUSH1 0x0 DUP2 MLOAD SWAP1 POP PUSH2 0x25D DUP2 PUSH2 0x60D JUMP JUMPDEST SWAP3 SWAP2 POP POP JUMP JUMPDEST PUSH1 0x0 DUP2 MLOAD SWAP1 POP PUSH2 0x272 DUP2 PUSH2 0x624 JUMP JUMPDEST SWAP3 SWAP2 POP POP JUMP JUMPDEST PUSH1 0x0 PUSH1 0x20 DUP3 DUP5 SUB SLT ISZERO PUSH2 0x28E JUMPI PUSH2 0x28D PUSH2 0x5C8 JUMP JUMPDEST JUMPDEST PUSH1 0x0 PUSH2 0x29C DUP5 DUP3 DUP6 ADD PUSH2 0x239 JUMP JUMPDEST SWAP2 POP POP SWAP3 SWAP2 POP POP JUMP JUMPDEST PUSH1 0x0 DUP1 PUSH1 0x0 DUP1 PUSH1 0x0 PUSH1 0xA0 DUP7 DUP9 SUB SLT ISZERO PUSH2 0x2C1 JUMPI PUSH2 0x2C0 PUSH2 0x5C8 JUMP JUMPDEST JUMPDEST PUSH1 0x0 PUSH2 0x2CF DUP9 DUP3 DUP10 ADD PUSH2 0x263 JUMP JUMPDEST SWAP6 POP POP PUSH1 0x20 PUSH2 0x2E0 DUP9 DUP3 DUP10 ADD PUSH2 0x224 JUMP JUMPDEST SWAP5 POP POP PUSH1 0x40 PUSH2 0x2F1 DUP9 DUP3 DUP10 ADD PUSH2 0x24E JUMP JUMPDEST SWAP4 POP POP PUSH1 0x60 PUSH2 0x302 DUP9 DUP3 DUP10 ADD PUSH2 0x24E JUMP JUMPDEST SWAP3 POP POP PUSH1 0x80 PUSH2 0x313 DUP9 DUP3 DUP10 ADD PUSH2 0x263 JUMP JUMPDEST SWAP2 POP POP SWAP3 SWAP6 POP SWAP3 SWAP6 SWAP1 SWAP4 POP JUMP JUMPDEST PUSH1 0x0 PUSH2 0x32D PUSH1 0x13 DUP4 PUSH2 0x38D JUMP JUMPDEST SWAP2 POP PUSH2 0x338 DUP3 PUSH2 0x5CD JUMP JUMPDEST PUSH1 0x20 DUP3 ADD SWAP1 POP SWAP2 SWAP1 POP JUMP JUMPDEST PUSH2 0x34C DUP2 PUSH2 0x54A JUMP JUMPDEST DUP3 MSTORE POP POP JUMP JUMPDEST PUSH1 0x0 PUSH1 0x20 DUP3 ADD SWAP1 POP DUP2 DUP2 SUB PUSH1 0x0 DUP4 ADD MSTORE PUSH2 0x36B DUP2 PUSH2 0x320 JUMP JUMPDEST SWAP1 POP SWAP2 SWAP1 POP JUMP JUMPDEST PUSH1 0x0 PUSH1 0x20 DUP3 ADD SWAP1 POP PUSH2 0x387 PUSH1 0x0 DUP4 ADD DUP5 PUSH2 0x343 JUMP JUMPDEST SWAP3 SWAP2 POP POP JUMP JUMPDEST PUSH1 0x0 DUP3 DUP3 MSTORE PUSH1 0x20 DUP3 ADD SWAP1 POP SWAP3 SWAP2 POP POP JUMP JUMPDEST PUSH1 0x0 PUSH2 0x3A9 DUP3 PUSH2 0x54A JUMP JUMPDEST SWAP2 POP PUSH2 0x3B4 DUP4 PUSH2 0x54A JUMP JUMPDEST SWAP3 POP DUP3 PUSH2 0x3C4 JUMPI PUSH2 0x3C3 PUSH2 0x599 JUMP JUMPDEST JUMPDEST DUP3 DUP3 DIV SWAP1 POP SWAP3 SWAP2 POP POP JUMP JUMPDEST PUSH1 0x0 PUSH2 0x3DA DUP3 PUSH2 0x540 JUMP JUMPDEST SWAP2 POP PUSH2 0x3E5 DUP4 PUSH2 0x540 JUMP JUMPDEST SWAP3 POP DUP3 PUSH32 0x7FFFFFFFFFFFFFFFFFFFFFFFFFFFFFFFFFFFFFFFFFFFFFFFFFFFFFFFFFFFFFFF DIV DUP3 GT PUSH1 0x0 DUP5 SGT PUSH1 0x0 DUP5 SGT AND AND ISZERO PUSH2 0x424 JUMPI PUSH2 0x423 PUSH2 0x56A JUMP JUMPDEST JUMPDEST DUP2 PUSH32 0x8000000000000000000000000000000000000000000000000000000000000000 SDIV DUP4 SLT PUSH1 0x0 DUP5 SLT PUSH1 0x0 DUP5 SGT AND AND ISZERO PUSH2 0x461 JUMPI PUSH2 0x460 PUSH2 0x56A JUMP JUMPDEST JUMPDEST DUP3 PUSH32 0x8000000000000000000000000000000000000000000000000000000000000000 SDIV DUP3 SLT PUSH1 0x0 DUP5 SGT PUSH1 0x0 DUP5 SLT AND AND ISZERO PUSH2 0x49E JUMPI PUSH2 0x49D PUSH2 0x56A JUMP JUMPDEST JUMPDEST DUP3 PUSH32 0x7FFFFFFFFFFFFFFFFFFFFFFFFFFFFFFFFFFFFFFFFFFFFFFFFFFFFFFFFFFFFFFF SDIV DUP3 SLT PUSH1 0x0 DUP5 SLT PUSH1 0x0 DUP5 SLT AND AND ISZERO PUSH2 0x4DB JUMPI PUSH2 0x4DA PUSH2 0x56A JUMP JUMPDEST JUMPDEST DUP3 DUP3 MUL SWAP1 POP SWAP3 SWAP2 POP POP JUMP JUMPDEST PUSH1 0x0 PUSH2 0x4F1 DUP3 PUSH2 0x54A JUMP JUMPDEST SWAP2 POP PUSH2 0x4FC DUP4 PUSH2 0x54A JUMP JUMPDEST SWAP3 POP DUP2 PUSH32 0xFFFFFFFFFFFFFFFFFFFFFFFFFFFFFFFFFFFFFFFFFFFFFFFFFFFFFFFFFFFFFFFF DIV DUP4 GT DUP3 ISZERO ISZERO AND ISZERO PUSH2 0x535 JUMPI PUSH2 0x534 PUSH2 0x56A JUMP JUMPDEST JUMPDEST DUP3 DUP3 MUL SWAP1 POP SWAP3 SWAP2 POP POP JUMP JUMPDEST PUSH1 0x0 DUP2 SWAP1 POP SWAP2 SWAP1 POP JUMP JUMPDEST PUSH1 0x0 DUP2 SWAP1 POP SWAP2 SWAP1 POP JUMP JUMPDEST PUSH1 0x0 PUSH10 0xFFFFFFFFFFFFFFFFFFFF DUP3 AND SWAP1 POP SWAP2 SWAP1 POP JUMP JUMPDEST PUSH32 0x4E487B7100000000000000000000000000000000000000000000000000000000 PUSH1 0x0 MSTORE PUSH1 0x11 PUSH1 0x4 MSTORE PUSH1 0x24 PUSH1 0x0 REVERT JUMPDEST PUSH32 0x4E487B7100000000000000000000000000000000000000000000000000000000 PUSH1 0x0 MSTORE PUSH1 0x12 PUSH1 0x4 MSTORE PUSH1 0x24 PUSH1 0x0 REVERT JUMPDEST PUSH1 0x0 DUP1 REVERT JUMPDEST PUSH32 0x446964206E6F742073656E6420656E6F75676800000000000000000000000000 PUSH1 0x0 DUP3 ADD MSTORE POP JUMP JUMPDEST PUSH2 0x5FF DUP2 PUSH2 0x540 JUMP JUMPDEST DUP2 EQ PUSH2 0x60A JUMPI PUSH1 0x0 DUP1 REVERT JUMPDEST POP JUMP JUMPDEST PUSH2 0x616 DUP2 PUSH2 0x54A JUMP JUMPDEST DUP2 EQ PUSH2 0x621 JUMPI PUSH1 0x0 DUP1 REVERT JUMPDEST POP JUMP JUMPDEST PUSH2 0x62D DUP2 PUSH2 0x554 JUMP JUMPDEST DUP2 EQ PUSH2 0x638 JUMPI PUSH1 0x0 DUP1 REVERT JUMPDEST POP JUMP INVALID LOG2 PUSH5 0x6970667358 0x22 SLT KECCAK256 PUSH2 0xADD0 SWAP10 ADDRESS PUSH21 0x37A6F72B9AF3D57A4DB0819E7D5DF23928248529B9 0x2D RETURNDATASIZE 0xB8 0xBC 0x5F PUSH5 0x736F6C6343 STOP ADDMOD SMOD STOP CALLER "
				},
				"gasEstimates": {
					"creation": {
						"codeDepositCost": "329800",
						"executionCost": "368",
						"totalCost": "330168"
					},
					"external": {
						"MINIMUM_USD()": "307",
						"fund()": "infinite",
						"getConversionRate(uint256)": "infinite",
						"getPrice()": "infinite"
					}
				},
				"methodIdentifiers": {
					"MINIMUM_USD()": "6b69a592",
					"fund()": "b60d4288",
					"getConversionRate(uint256)": "6e5b6b28",
					"getPrice()": "98d5fdca"
				}
			},
			"storageLayout": {
				"storage": [],
				"types": null
			},
			"userdoc": {
				"kind": "user",
				"methods": {},
				"version": 1
			}
		}
	}
}