{
	"contracts/FundMe.sol": {
		"FundMe": {
			"abi": [
				{
					"inputs": [],
					"name": "MINIMUM_USD",
					"outputs": [
						{
							"internalType": "uint256",
							"name": "",
							"type": "uint256"
						}
					],
					"stateMutability": "view",
					"type": "function"
				},
				{
					"inputs": [],
					"name": "fund",
					"outputs": [],
					"stateMutability": "payable",
					"type": "function"
				},
				{
					"inputs": [
						{
							"internalType": "uint256",
							"name": "",
							"type": "uint256"
						}
					],
					"name": "funders",
					"outputs": [
						{
							"internalType": "address",
							"name": "",
							"type": "address"
						}
					],
					"stateMutability": "view",
					"type": "function"
				},
				{
					"inputs": [
						{
							"internalType": "uint256",
							"name": "ethAmount",
							"type": "uint256"
						}
					],
					"name": "getConversionRate",
					"outputs": [
						{
							"internalType": "uint256",
							"name": "",
							"type": "uint256"
						}
					],
					"stateMutability": "view",
					"type": "function"
				},
				{
					"inputs": [],
					"name": "getMinimumEth",
					"outputs": [
						{
							"internalType": "uint256",
							"name": "",
							"type": "uint256"
						}
					],
					"stateMutability": "view",
					"type": "function"
				},
				{
					"inputs": [],
					"name": "getPrice",
					"outputs": [
						{
							"internalType": "uint256",
							"name": "",
							"type": "uint256"
						}
					],
					"stateMutability": "view",
					"type": "function"
				}
			],
			"devdoc": {
				"kind": "dev",
				"methods": {},
				"version": 1
			},
			"evm": {
				"assembly": "    /* \"contracts/FundMe.sol\":136:1016  contract FundMe{... */\n  mstore(0x40, 0x80)\n  callvalue\n  dup1\n  iszero\n  tag_1\n  jumpi\n  0x00\n  dup1\n  revert\ntag_1:\n  pop\n  dataSize(sub_0)\n  dup1\n  dataOffset(sub_0)\n  0x00\n  codecopy\n  0x00\n  return\nstop\n\nsub_0: assembly {\n        /* \"contracts/FundMe.sol\":136:1016  contract FundMe{... */\n      mstore(0x40, 0x80)\n      jumpi(tag_1, lt(calldatasize, 0x04))\n      shr(0xe0, calldataload(0x00))\n      dup1\n      0x311f70bc\n      eq\n      tag_2\n      jumpi\n      dup1\n      0x6b69a592\n      eq\n      tag_3\n      jumpi\n      dup1\n      0x6e5b6b28\n      eq\n      tag_4\n      jumpi\n      dup1\n      0x98d5fdca\n      eq\n      tag_5\n      jumpi\n      dup1\n      0xb60d4288\n      eq\n      tag_6\n      jumpi\n      dup1\n      0xdc0d3dff\n      eq\n      tag_7\n      jumpi\n    tag_1:\n      0x00\n      dup1\n      revert\n        /* \"contracts/FundMe.sol\":769:879  function getMinimumEth() view public returns(uint256){... */\n    tag_2:\n      callvalue\n      dup1\n      iszero\n      tag_8\n      jumpi\n      0x00\n      dup1\n      revert\n    tag_8:\n      pop\n      tag_9\n      tag_10\n      jump\t// in\n    tag_9:\n      mload(0x40)\n      tag_11\n      swap2\n      swap1\n      tag_12\n      jump\t// in\n    tag_11:\n      mload(0x40)\n      dup1\n      swap2\n      sub\n      swap1\n      return\n        /* \"contracts/FundMe.sol\":158:202  uint256 public constant MINIMUM_USD=50* 1e18 */\n    tag_3:\n      callvalue\n      dup1\n      iszero\n      tag_13\n      jumpi\n      0x00\n      dup1\n      revert\n    tag_13:\n      pop\n      tag_14\n      tag_15\n      jump\t// in\n    tag_14:\n      mload(0x40)\n      tag_16\n      swap2\n      swap1\n      tag_12\n      jump\t// in\n    tag_16:\n      mload(0x40)\n      dup1\n      swap2\n      sub\n      swap1\n      return\n        /* \"contracts/FundMe.sol\":885:1014  function getConversionRate(uint256 ethAmount) public view returns(uint256){... */\n    tag_4:\n      callvalue\n      dup1\n      iszero\n      tag_17\n      jumpi\n      0x00\n      dup1\n      revert\n    tag_17:\n      pop\n      tag_18\n      0x04\n      dup1\n      calldatasize\n      sub\n      dup2\n      add\n      swap1\n      tag_19\n      swap2\n      swap1\n      tag_20\n      jump\t// in\n    tag_19:\n      tag_21\n      jump\t// in\n    tag_18:\n      mload(0x40)\n      tag_22\n      swap2\n      swap1\n      tag_12\n      jump\t// in\n    tag_22:\n      mload(0x40)\n      dup1\n      swap2\n      sub\n      swap1\n      return\n        /* \"contracts/FundMe.sol\":401:763  function getPrice() view public returns(uint256){... */\n    tag_5:\n      callvalue\n      dup1\n      iszero\n      tag_23\n      jumpi\n      0x00\n      dup1\n      revert\n    tag_23:\n      pop\n      tag_24\n      tag_25\n      jump\t// in\n    tag_24:\n      mload(0x40)\n      tag_26\n      swap2\n      swap1\n      tag_12\n      jump\t// in\n    tag_26:\n      mload(0x40)\n      dup1\n      swap2\n      sub\n      swap1\n      return\n        /* \"contracts/FundMe.sol\":240:395  function fund() public payable{... */\n    tag_6:\n      tag_27\n      tag_28\n      jump\t// in\n    tag_27:\n      stop\n        /* \"contracts/FundMe.sol\":209:233  address[] public funders */\n    tag_7:\n      callvalue\n      dup1\n      iszero\n      tag_29\n      jumpi\n      0x00\n      dup1\n      revert\n    tag_29:\n      pop\n      tag_30\n      0x04\n      dup1\n      calldatasize\n      sub\n      dup2\n      add\n      swap1\n      tag_31\n      swap2\n      swap1\n      tag_20\n      jump\t// in\n    tag_31:\n      tag_32\n      jump\t// in\n    tag_30:\n      mload(0x40)\n      tag_33\n      swap2\n      swap1\n      tag_34\n      jump\t// in\n    tag_33:\n      mload(0x40)\n      dup1\n      swap2\n      sub\n      swap1\n      return\n        /* \"contracts/FundMe.sol\":769:879  function getMinimumEth() view public returns(uint256){... */\n    tag_10:\n        /* \"contracts/FundMe.sol\":814:821  uint256 */\n      0x00\n        /* \"contracts/FundMe.sol\":862:872  getPrice() */\n      tag_36\n        /* \"contracts/FundMe.sol\":862:870  getPrice */\n      tag_25\n        /* \"contracts/FundMe.sol\":862:872  getPrice() */\n      jump\t// in\n    tag_36:\n        /* \"contracts/FundMe.sol\":854:858  1e18 */\n      0x0de0b6b3a7640000\n        /* \"contracts/FundMe.sol\":194:202  50* 1e18 */\n      0x02b5e3af16b1880000\n        /* \"contracts/FundMe.sol\":840:858  MINIMUM_USD * 1e18 */\n      tag_37\n      swap2\n      swap1\n      tag_38\n      jump\t// in\n    tag_37:\n        /* \"contracts/FundMe.sol\":839:872  (MINIMUM_USD * 1e18) / getPrice() */\n      tag_39\n      swap2\n      swap1\n      tag_40\n      jump\t// in\n    tag_39:\n        /* \"contracts/FundMe.sol\":832:872  return (MINIMUM_USD * 1e18) / getPrice() */\n      swap1\n      pop\n        /* \"contracts/FundMe.sol\":769:879  function getMinimumEth() view public returns(uint256){... */\n      swap1\n      jump\t// out\n        /* \"contracts/FundMe.sol\":158:202  uint256 public constant MINIMUM_USD=50* 1e18 */\n    tag_15:\n        /* \"contracts/FundMe.sol\":194:202  50* 1e18 */\n      0x02b5e3af16b1880000\n        /* \"contracts/FundMe.sol\":158:202  uint256 public constant MINIMUM_USD=50* 1e18 */\n      dup2\n      jump\t// out\n        /* \"contracts/FundMe.sol\":885:1014  function getConversionRate(uint256 ethAmount) public view returns(uint256){... */\n    tag_21:\n        /* \"contracts/FundMe.sol\":951:958  uint256 */\n      0x00\n        /* \"contracts/FundMe.sol\":1003:1007  1e18 */\n      0x0de0b6b3a7640000\n        /* \"contracts/FundMe.sol\":990:999  ethAmount */\n      dup3\n        /* \"contracts/FundMe.sol\":977:987  getPrice() */\n      tag_42\n        /* \"contracts/FundMe.sol\":977:985  getPrice */\n      tag_25\n        /* \"contracts/FundMe.sol\":977:987  getPrice() */\n      jump\t// in\n    tag_42:\n        /* \"contracts/FundMe.sol\":977:999  getPrice() * ethAmount */\n      tag_43\n      swap2\n      swap1\n      tag_38\n      jump\t// in\n    tag_43:\n        /* \"contracts/FundMe.sol\":976:1007  (getPrice() * ethAmount) / 1e18 */\n      tag_44\n      swap2\n      swap1\n      tag_40\n      jump\t// in\n    tag_44:\n        /* \"contracts/FundMe.sol\":969:1007  return (getPrice() * ethAmount) / 1e18 */\n      swap1\n      pop\n        /* \"contracts/FundMe.sol\":885:1014  function getConversionRate(uint256 ethAmount) public view returns(uint256){... */\n      swap2\n      swap1\n      pop\n      jump\t// out\n        /* \"contracts/FundMe.sol\":401:763  function getPrice() view public returns(uint256){... */\n    tag_25:\n        /* \"contracts/FundMe.sol\":441:448  uint256 */\n      0x00\n        /* \"contracts/FundMe.sol\":505:517  int256 price */\n      dup1\n        /* \"contracts/FundMe.sol\":656:698  0xD4a33860578De61DBAbDc8BFdb98FD742fA7028e */\n      0xd4a33860578de61dbabdc8bfdb98fd742fa7028e\n        /* \"contracts/FundMe.sol\":634:715  AggregatorV3Interface(0xD4a33860578De61DBAbDc8BFdb98FD742fA7028e).latestRoundData */\n      0xffffffffffffffffffffffffffffffffffffffff\n      and\n      0xfeaf968c\n        /* \"contracts/FundMe.sol\":634:717  AggregatorV3Interface(0xD4a33860578De61DBAbDc8BFdb98FD742fA7028e).latestRoundData() */\n      mload(0x40)\n      dup2\n      0xffffffff\n      and\n      0xe0\n      shl\n      dup2\n      mstore\n      0x04\n      add\n      0xa0\n      mload(0x40)\n      dup1\n      dup4\n      sub\n      dup2\n      dup7\n      dup1\n      extcodesize\n      iszero\n      dup1\n      iszero\n      tag_46\n      jumpi\n      0x00\n      dup1\n      revert\n    tag_46:\n      pop\n      gas\n      staticcall\n      iszero\n      dup1\n      iszero\n      tag_48\n      jumpi\n      returndatasize\n      0x00\n      dup1\n      returndatacopy\n      revert(0x00, returndatasize)\n    tag_48:\n      pop\n      pop\n      pop\n      pop\n      mload(0x40)\n      returndatasize\n      not(0x1f)\n      0x1f\n      dup3\n      add\n      and\n      dup3\n      add\n      dup1\n      0x40\n      mstore\n      pop\n      dup2\n      add\n      swap1\n      tag_49\n      swap2\n      swap1\n      tag_50\n      jump\t// in\n    tag_49:\n        /* \"contracts/FundMe.sol\":459:717  (... */\n      pop\n      pop\n      pop\n      swap2\n      pop\n      pop\n        /* \"contracts/FundMe.sol\":750:754  1e10 */\n      0x02540be400\n        /* \"contracts/FundMe.sol\":742:747  price */\n      dup2\n        /* \"contracts/FundMe.sol\":742:754  price * 1e10 */\n      tag_51\n      swap2\n      swap1\n      tag_52\n      jump\t// in\n    tag_51:\n        /* \"contracts/FundMe.sol\":727:755  return uint256(price * 1e10) */\n      swap2\n      pop\n      pop\n        /* \"contracts/FundMe.sol\":401:763  function getPrice() view public returns(uint256){... */\n      swap1\n      jump\t// out\n        /* \"contracts/FundMe.sol\":240:395  function fund() public payable{... */\n    tag_28:\n        /* \"contracts/FundMe.sol\":194:202  50* 1e18 */\n      0x02b5e3af16b1880000\n        /* \"contracts/FundMe.sol\":288:316  getConversionRate(msg.value) */\n      tag_54\n        /* \"contracts/FundMe.sol\":306:315  msg.value */\n      callvalue\n        /* \"contracts/FundMe.sol\":288:305  getConversionRate */\n      tag_21\n        /* \"contracts/FundMe.sol\":288:316  getConversionRate(msg.value) */\n      jump\t// in\n    tag_54:\n        /* \"contracts/FundMe.sol\":288:330  getConversionRate(msg.value) > MINIMUM_USD */\n      gt\n        /* \"contracts/FundMe.sol\":280:354  require(getConversionRate(msg.value) > MINIMUM_USD, \"Did not send enough\") */\n      tag_55\n      jumpi\n      mload(0x40)\n      0x08c379a000000000000000000000000000000000000000000000000000000000\n      dup2\n      mstore\n      0x04\n      add\n      tag_56\n      swap1\n      tag_57\n      jump\t// in\n    tag_56:\n      mload(0x40)\n      dup1\n      swap2\n      sub\n      swap1\n      revert\n    tag_55:\n        /* \"contracts/FundMe.sol\":364:371  funders */\n      0x00\n        /* \"contracts/FundMe.sol\":377:387  msg.sender */\n      caller\n        /* \"contracts/FundMe.sol\":364:388  funders.push(msg.sender) */\n      swap1\n      dup1\n      0x01\n      dup2\n      sload\n      add\n      dup1\n      dup3\n      sstore\n      dup1\n      swap2\n      pop\n      pop\n      0x01\n      swap1\n      sub\n      swap1\n      0x00\n      mstore\n      keccak256(0x00, 0x20)\n      add\n      0x00\n      swap1\n      swap2\n      swap1\n      swap2\n      swap1\n      swap2\n      0x0100\n      exp\n      dup2\n      sload\n      dup2\n      0xffffffffffffffffffffffffffffffffffffffff\n      mul\n      not\n      and\n      swap1\n      dup4\n      0xffffffffffffffffffffffffffffffffffffffff\n      and\n      mul\n      or\n      swap1\n      sstore\n      pop\n        /* \"contracts/FundMe.sol\":240:395  function fund() public payable{... */\n      jump\t// out\n        /* \"contracts/FundMe.sol\":209:233  address[] public funders */\n    tag_32:\n      0x00\n      dup2\n      dup2\n      sload\n      dup2\n      lt\n      tag_59\n      jumpi\n      0x00\n      dup1\n      revert\n    tag_59:\n      swap1\n      0x00\n      mstore\n      keccak256(0x00, 0x20)\n      add\n      0x00\n      swap2\n      pop\n      sload\n      swap1\n      0x0100\n      exp\n      swap1\n      div\n      0xffffffffffffffffffffffffffffffffffffffff\n      and\n      dup2\n      jump\t// out\n        /* \"#utility.yul\":7:148   */\n    tag_62:\n        /* \"#utility.yul\":63:68   */\n      0x00\n        /* \"#utility.yul\":94:100   */\n      dup2\n        /* \"#utility.yul\":88:101   */\n      mload\n        /* \"#utility.yul\":79:101   */\n      swap1\n      pop\n        /* \"#utility.yul\":110:142   */\n      tag_64\n        /* \"#utility.yul\":136:141   */\n      dup2\n        /* \"#utility.yul\":110:142   */\n      tag_65\n      jump\t// in\n    tag_64:\n        /* \"#utility.yul\":7:148   */\n      swap3\n      swap2\n      pop\n      pop\n      jump\t// out\n        /* \"#utility.yul\":154:293   */\n    tag_66:\n        /* \"#utility.yul\":200:205   */\n      0x00\n        /* \"#utility.yul\":238:244   */\n      dup2\n        /* \"#utility.yul\":225:245   */\n      calldataload\n        /* \"#utility.yul\":216:245   */\n      swap1\n      pop\n        /* \"#utility.yul\":254:287   */\n      tag_68\n        /* \"#utility.yul\":281:286   */\n      dup2\n        /* \"#utility.yul\":254:287   */\n      tag_69\n      jump\t// in\n    tag_68:\n        /* \"#utility.yul\":154:293   */\n      swap3\n      swap2\n      pop\n      pop\n      jump\t// out\n        /* \"#utility.yul\":299:442   */\n    tag_70:\n        /* \"#utility.yul\":356:361   */\n      0x00\n        /* \"#utility.yul\":387:393   */\n      dup2\n        /* \"#utility.yul\":381:394   */\n      mload\n        /* \"#utility.yul\":372:394   */\n      swap1\n      pop\n        /* \"#utility.yul\":403:436   */\n      tag_72\n        /* \"#utility.yul\":430:435   */\n      dup2\n        /* \"#utility.yul\":403:436   */\n      tag_69\n      jump\t// in\n    tag_72:\n        /* \"#utility.yul\":299:442   */\n      swap3\n      swap2\n      pop\n      pop\n      jump\t// out\n        /* \"#utility.yul\":448:589   */\n    tag_73:\n        /* \"#utility.yul\":504:509   */\n      0x00\n        /* \"#utility.yul\":535:541   */\n      dup2\n        /* \"#utility.yul\":529:542   */\n      mload\n        /* \"#utility.yul\":520:542   */\n      swap1\n      pop\n        /* \"#utility.yul\":551:583   */\n      tag_75\n        /* \"#utility.yul\":577:582   */\n      dup2\n        /* \"#utility.yul\":551:583   */\n      tag_76\n      jump\t// in\n    tag_75:\n        /* \"#utility.yul\":448:589   */\n      swap3\n      swap2\n      pop\n      pop\n      jump\t// out\n        /* \"#utility.yul\":595:924   */\n    tag_20:\n        /* \"#utility.yul\":654:660   */\n      0x00\n        /* \"#utility.yul\":703:705   */\n      0x20\n        /* \"#utility.yul\":691:700   */\n      dup3\n        /* \"#utility.yul\":682:689   */\n      dup5\n        /* \"#utility.yul\":678:701   */\n      sub\n        /* \"#utility.yul\":674:706   */\n      slt\n        /* \"#utility.yul\":671:790   */\n      iszero\n      tag_78\n      jumpi\n        /* \"#utility.yul\":709:788   */\n      tag_79\n      tag_80\n      jump\t// in\n    tag_79:\n        /* \"#utility.yul\":671:790   */\n    tag_78:\n        /* \"#utility.yul\":829:830   */\n      0x00\n        /* \"#utility.yul\":854:907   */\n      tag_81\n        /* \"#utility.yul\":899:906   */\n      dup5\n        /* \"#utility.yul\":890:896   */\n      dup3\n        /* \"#utility.yul\":879:888   */\n      dup6\n        /* \"#utility.yul\":875:897   */\n      add\n        /* \"#utility.yul\":854:907   */\n      tag_66\n      jump\t// in\n    tag_81:\n        /* \"#utility.yul\":844:907   */\n      swap2\n      pop\n        /* \"#utility.yul\":800:917   */\n      pop\n        /* \"#utility.yul\":595:924   */\n      swap3\n      swap2\n      pop\n      pop\n      jump\t// out\n        /* \"#utility.yul\":930:1901   */\n    tag_50:\n        /* \"#utility.yul\":1033:1039   */\n      0x00\n        /* \"#utility.yul\":1041:1047   */\n      dup1\n        /* \"#utility.yul\":1049:1055   */\n      0x00\n        /* \"#utility.yul\":1057:1063   */\n      dup1\n        /* \"#utility.yul\":1065:1071   */\n      0x00\n        /* \"#utility.yul\":1114:1117   */\n      0xa0\n        /* \"#utility.yul\":1102:1111   */\n      dup7\n        /* \"#utility.yul\":1093:1100   */\n      dup9\n        /* \"#utility.yul\":1089:1112   */\n      sub\n        /* \"#utility.yul\":1085:1118   */\n      slt\n        /* \"#utility.yul\":1082:1202   */\n      iszero\n      tag_83\n      jumpi\n        /* \"#utility.yul\":1121:1200   */\n      tag_84\n      tag_80\n      jump\t// in\n    tag_84:\n        /* \"#utility.yul\":1082:1202   */\n    tag_83:\n        /* \"#utility.yul\":1241:1242   */\n      0x00\n        /* \"#utility.yul\":1266:1329   */\n      tag_85\n        /* \"#utility.yul\":1321:1328   */\n      dup9\n        /* \"#utility.yul\":1312:1318   */\n      dup3\n        /* \"#utility.yul\":1301:1310   */\n      dup10\n        /* \"#utility.yul\":1297:1319   */\n      add\n        /* \"#utility.yul\":1266:1329   */\n      tag_73\n      jump\t// in\n    tag_85:\n        /* \"#utility.yul\":1256:1329   */\n      swap6\n      pop\n        /* \"#utility.yul\":1212:1339   */\n      pop\n        /* \"#utility.yul\":1378:1380   */\n      0x20\n        /* \"#utility.yul\":1404:1467   */\n      tag_86\n        /* \"#utility.yul\":1459:1466   */\n      dup9\n        /* \"#utility.yul\":1450:1456   */\n      dup3\n        /* \"#utility.yul\":1439:1448   */\n      dup10\n        /* \"#utility.yul\":1435:1457   */\n      add\n        /* \"#utility.yul\":1404:1467   */\n      tag_62\n      jump\t// in\n    tag_86:\n        /* \"#utility.yul\":1394:1467   */\n      swap5\n      pop\n        /* \"#utility.yul\":1349:1477   */\n      pop\n        /* \"#utility.yul\":1516:1518   */\n      0x40\n        /* \"#utility.yul\":1542:1606   */\n      tag_87\n        /* \"#utility.yul\":1598:1605   */\n      dup9\n        /* \"#utility.yul\":1589:1595   */\n      dup3\n        /* \"#utility.yul\":1578:1587   */\n      dup10\n        /* \"#utility.yul\":1574:1596   */\n      add\n        /* \"#utility.yul\":1542:1606   */\n      tag_70\n      jump\t// in\n    tag_87:\n        /* \"#utility.yul\":1532:1606   */\n      swap4\n      pop\n        /* \"#utility.yul\":1487:1616   */\n      pop\n        /* \"#utility.yul\":1655:1657   */\n      0x60\n        /* \"#utility.yul\":1681:1745   */\n      tag_88\n        /* \"#utility.yul\":1737:1744   */\n      dup9\n        /* \"#utility.yul\":1728:1734   */\n      dup3\n        /* \"#utility.yul\":1717:1726   */\n      dup10\n        /* \"#utility.yul\":1713:1735   */\n      add\n        /* \"#utility.yul\":1681:1745   */\n      tag_70\n      jump\t// in\n    tag_88:\n        /* \"#utility.yul\":1671:1745   */\n      swap3\n      pop\n        /* \"#utility.yul\":1626:1755   */\n      pop\n        /* \"#utility.yul\":1794:1797   */\n      0x80\n        /* \"#utility.yul\":1821:1884   */\n      tag_89\n        /* \"#utility.yul\":1876:1883   */\n      dup9\n        /* \"#utility.yul\":1867:1873   */\n      dup3\n        /* \"#utility.yul\":1856:1865   */\n      dup10\n        /* \"#utility.yul\":1852:1874   */\n      add\n        /* \"#utility.yul\":1821:1884   */\n      tag_73\n      jump\t// in\n    tag_89:\n        /* \"#utility.yul\":1811:1884   */\n      swap2\n      pop\n        /* \"#utility.yul\":1765:1894   */\n      pop\n        /* \"#utility.yul\":930:1901   */\n      swap3\n      swap6\n      pop\n      swap3\n      swap6\n      swap1\n      swap4\n      pop\n      jump\t// out\n        /* \"#utility.yul\":1907:2025   */\n    tag_90:\n        /* \"#utility.yul\":1994:2018   */\n      tag_92\n        /* \"#utility.yul\":2012:2017   */\n      dup2\n        /* \"#utility.yul\":1994:2018   */\n      tag_93\n      jump\t// in\n    tag_92:\n        /* \"#utility.yul\":1989:1992   */\n      dup3\n        /* \"#utility.yul\":1982:2019   */\n      mstore\n        /* \"#utility.yul\":1907:2025   */\n      pop\n      pop\n      jump\t// out\n        /* \"#utility.yul\":2031:2397   */\n    tag_94:\n        /* \"#utility.yul\":2173:2176   */\n      0x00\n        /* \"#utility.yul\":2194:2261   */\n      tag_96\n        /* \"#utility.yul\":2258:2260   */\n      0x13\n        /* \"#utility.yul\":2253:2256   */\n      dup4\n        /* \"#utility.yul\":2194:2261   */\n      tag_97\n      jump\t// in\n    tag_96:\n        /* \"#utility.yul\":2187:2261   */\n      swap2\n      pop\n        /* \"#utility.yul\":2270:2363   */\n      tag_98\n        /* \"#utility.yul\":2359:2362   */\n      dup3\n        /* \"#utility.yul\":2270:2363   */\n      tag_99\n      jump\t// in\n    tag_98:\n        /* \"#utility.yul\":2388:2390   */\n      0x20\n        /* \"#utility.yul\":2383:2386   */\n      dup3\n        /* \"#utility.yul\":2379:2391   */\n      add\n        /* \"#utility.yul\":2372:2391   */\n      swap1\n      pop\n        /* \"#utility.yul\":2031:2397   */\n      swap2\n      swap1\n      pop\n      jump\t// out\n        /* \"#utility.yul\":2403:2521   */\n    tag_100:\n        /* \"#utility.yul\":2490:2514   */\n      tag_102\n        /* \"#utility.yul\":2508:2513   */\n      dup2\n        /* \"#utility.yul\":2490:2514   */\n      tag_103\n      jump\t// in\n    tag_102:\n        /* \"#utility.yul\":2485:2488   */\n      dup3\n        /* \"#utility.yul\":2478:2515   */\n      mstore\n        /* \"#utility.yul\":2403:2521   */\n      pop\n      pop\n      jump\t// out\n        /* \"#utility.yul\":2527:2749   */\n    tag_34:\n        /* \"#utility.yul\":2620:2624   */\n      0x00\n        /* \"#utility.yul\":2658:2660   */\n      0x20\n        /* \"#utility.yul\":2647:2656   */\n      dup3\n        /* \"#utility.yul\":2643:2661   */\n      add\n        /* \"#utility.yul\":2635:2661   */\n      swap1\n      pop\n        /* \"#utility.yul\":2671:2742   */\n      tag_105\n        /* \"#utility.yul\":2739:2740   */\n      0x00\n        /* \"#utility.yul\":2728:2737   */\n      dup4\n        /* \"#utility.yul\":2724:2741   */\n      add\n        /* \"#utility.yul\":2715:2721   */\n      dup5\n        /* \"#utility.yul\":2671:2742   */\n      tag_90\n      jump\t// in\n    tag_105:\n        /* \"#utility.yul\":2527:2749   */\n      swap3\n      swap2\n      pop\n      pop\n      jump\t// out\n        /* \"#utility.yul\":2755:3174   */\n    tag_57:\n        /* \"#utility.yul\":2921:2925   */\n      0x00\n        /* \"#utility.yul\":2959:2961   */\n      0x20\n        /* \"#utility.yul\":2948:2957   */\n      dup3\n        /* \"#utility.yul\":2944:2962   */\n      add\n        /* \"#utility.yul\":2936:2962   */\n      swap1\n      pop\n        /* \"#utility.yul\":3008:3017   */\n      dup2\n        /* \"#utility.yul\":3002:3006   */\n      dup2\n        /* \"#utility.yul\":2998:3018   */\n      sub\n        /* \"#utility.yul\":2994:2995   */\n      0x00\n        /* \"#utility.yul\":2983:2992   */\n      dup4\n        /* \"#utility.yul\":2979:2996   */\n      add\n        /* \"#utility.yul\":2972:3019   */\n      mstore\n        /* \"#utility.yul\":3036:3167   */\n      tag_107\n        /* \"#utility.yul\":3162:3166   */\n      dup2\n        /* \"#utility.yul\":3036:3167   */\n      tag_94\n      jump\t// in\n    tag_107:\n        /* \"#utility.yul\":3028:3167   */\n      swap1\n      pop\n        /* \"#utility.yul\":2755:3174   */\n      swap2\n      swap1\n      pop\n      jump\t// out\n        /* \"#utility.yul\":3180:3402   */\n    tag_12:\n        /* \"#utility.yul\":3273:3277   */\n      0x00\n        /* \"#utility.yul\":3311:3313   */\n      0x20\n        /* \"#utility.yul\":3300:3309   */\n      dup3\n        /* \"#utility.yul\":3296:3314   */\n      add\n        /* \"#utility.yul\":3288:3314   */\n      swap1\n      pop\n        /* \"#utility.yul\":3324:3395   */\n      tag_109\n        /* \"#utility.yul\":3392:3393   */\n      0x00\n        /* \"#utility.yul\":3381:3390   */\n      dup4\n        /* \"#utility.yul\":3377:3394   */\n      add\n        /* \"#utility.yul\":3368:3374   */\n      dup5\n        /* \"#utility.yul\":3324:3395   */\n      tag_100\n      jump\t// in\n    tag_109:\n        /* \"#utility.yul\":3180:3402   */\n      swap3\n      swap2\n      pop\n      pop\n      jump\t// out\n        /* \"#utility.yul\":3489:3658   */\n    tag_97:\n        /* \"#utility.yul\":3573:3584   */\n      0x00\n        /* \"#utility.yul\":3607:3613   */\n      dup3\n        /* \"#utility.yul\":3602:3605   */\n      dup3\n        /* \"#utility.yul\":3595:3614   */\n      mstore\n        /* \"#utility.yul\":3647:3651   */\n      0x20\n        /* \"#utility.yul\":3642:3645   */\n      dup3\n        /* \"#utility.yul\":3638:3652   */\n      add\n        /* \"#utility.yul\":3623:3652   */\n      swap1\n      pop\n        /* \"#utility.yul\":3489:3658   */\n      swap3\n      swap2\n      pop\n      pop\n      jump\t// out\n        /* \"#utility.yul\":3664:3849   */\n    tag_40:\n        /* \"#utility.yul\":3704:3705   */\n      0x00\n        /* \"#utility.yul\":3721:3741   */\n      tag_114\n        /* \"#utility.yul\":3739:3740   */\n      dup3\n        /* \"#utility.yul\":3721:3741   */\n      tag_103\n      jump\t// in\n    tag_114:\n        /* \"#utility.yul\":3716:3741   */\n      swap2\n      pop\n        /* \"#utility.yul\":3755:3775   */\n      tag_115\n        /* \"#utility.yul\":3773:3774   */\n      dup4\n        /* \"#utility.yul\":3755:3775   */\n      tag_103\n      jump\t// in\n    tag_115:\n        /* \"#utility.yul\":3750:3775   */\n      swap3\n      pop\n        /* \"#utility.yul\":3794:3795   */\n      dup3\n        /* \"#utility.yul\":3784:3819   */\n      tag_116\n      jumpi\n        /* \"#utility.yul\":3799:3817   */\n      tag_117\n      tag_118\n      jump\t// in\n    tag_117:\n        /* \"#utility.yul\":3784:3819   */\n    tag_116:\n        /* \"#utility.yul\":3841:3842   */\n      dup3\n        /* \"#utility.yul\":3838:3839   */\n      dup3\n        /* \"#utility.yul\":3834:3843   */\n      div\n        /* \"#utility.yul\":3829:3843   */\n      swap1\n      pop\n        /* \"#utility.yul\":3664:3849   */\n      swap3\n      swap2\n      pop\n      pop\n      jump\t// out\n        /* \"#utility.yul\":3855:4846   */\n    tag_52:\n        /* \"#utility.yul\":3894:3901   */\n      0x00\n        /* \"#utility.yul\":3917:3936   */\n      tag_120\n        /* \"#utility.yul\":3934:3935   */\n      dup3\n        /* \"#utility.yul\":3917:3936   */\n      tag_121\n      jump\t// in\n    tag_120:\n        /* \"#utility.yul\":3912:3936   */\n      swap2\n      pop\n        /* \"#utility.yul\":3950:3969   */\n      tag_122\n        /* \"#utility.yul\":3967:3968   */\n      dup4\n        /* \"#utility.yul\":3950:3969   */\n      tag_121\n      jump\t// in\n    tag_122:\n        /* \"#utility.yul\":3945:3969   */\n      swap3\n      pop\n        /* \"#utility.yul\":4151:4152   */\n      dup3\n        /* \"#utility.yul\":4083:4149   */\n      0x7fffffffffffffffffffffffffffffffffffffffffffffffffffffffffffffff\n        /* \"#utility.yul\":4079:4153   */\n      div\n        /* \"#utility.yul\":4076:4077   */\n      dup3\n        /* \"#utility.yul\":4073:4154   */\n      gt\n        /* \"#utility.yul\":4068:4069   */\n      0x00\n        /* \"#utility.yul\":4065:4066   */\n      dup5\n        /* \"#utility.yul\":4061:4070   */\n      sgt\n        /* \"#utility.yul\":4057:4058   */\n      0x00\n        /* \"#utility.yul\":4054:4055   */\n      dup5\n        /* \"#utility.yul\":4050:4059   */\n      sgt\n        /* \"#utility.yul\":4046:4071   */\n      and\n        /* \"#utility.yul\":4042:4155   */\n      and\n        /* \"#utility.yul\":4039:4178   */\n      iszero\n      tag_123\n      jumpi\n        /* \"#utility.yul\":4158:4176   */\n      tag_124\n      tag_125\n      jump\t// in\n    tag_124:\n        /* \"#utility.yul\":4039:4178   */\n    tag_123:\n        /* \"#utility.yul\":4362:4363   */\n      dup2\n        /* \"#utility.yul\":4294:4360   */\n      0x8000000000000000000000000000000000000000000000000000000000000000\n        /* \"#utility.yul\":4289:4364   */\n      sdiv\n        /* \"#utility.yul\":4286:4287   */\n      dup4\n        /* \"#utility.yul\":4282:4365   */\n      slt\n        /* \"#utility.yul\":4277:4278   */\n      0x00\n        /* \"#utility.yul\":4274:4275   */\n      dup5\n        /* \"#utility.yul\":4270:4279   */\n      slt\n        /* \"#utility.yul\":4266:4267   */\n      0x00\n        /* \"#utility.yul\":4263:4264   */\n      dup5\n        /* \"#utility.yul\":4259:4268   */\n      sgt\n        /* \"#utility.yul\":4255:4280   */\n      and\n        /* \"#utility.yul\":4251:4366   */\n      and\n        /* \"#utility.yul\":4248:4389   */\n      iszero\n      tag_126\n      jumpi\n        /* \"#utility.yul\":4369:4387   */\n      tag_127\n      tag_125\n      jump\t// in\n    tag_127:\n        /* \"#utility.yul\":4248:4389   */\n    tag_126:\n        /* \"#utility.yul\":4573:4574   */\n      dup3\n        /* \"#utility.yul\":4505:4571   */\n      0x8000000000000000000000000000000000000000000000000000000000000000\n        /* \"#utility.yul\":4500:4575   */\n      sdiv\n        /* \"#utility.yul\":4497:4498   */\n      dup3\n        /* \"#utility.yul\":4493:4576   */\n      slt\n        /* \"#utility.yul\":4488:4489   */\n      0x00\n        /* \"#utility.yul\":4485:4486   */\n      dup5\n        /* \"#utility.yul\":4481:4490   */\n      sgt\n        /* \"#utility.yul\":4477:4478   */\n      0x00\n        /* \"#utility.yul\":4474:4475   */\n      dup5\n        /* \"#utility.yul\":4470:4479   */\n      slt\n        /* \"#utility.yul\":4466:4491   */\n      and\n        /* \"#utility.yul\":4462:4577   */\n      and\n        /* \"#utility.yul\":4459:4600   */\n      iszero\n      tag_128\n      jumpi\n        /* \"#utility.yul\":4580:4598   */\n      tag_129\n      tag_125\n      jump\t// in\n    tag_129:\n        /* \"#utility.yul\":4459:4600   */\n    tag_128:\n        /* \"#utility.yul\":4783:4784   */\n      dup3\n        /* \"#utility.yul\":4715:4781   */\n      0x7fffffffffffffffffffffffffffffffffffffffffffffffffffffffffffffff\n        /* \"#utility.yul\":4710:4785   */\n      sdiv\n        /* \"#utility.yul\":4707:4708   */\n      dup3\n        /* \"#utility.yul\":4703:4786   */\n      slt\n        /* \"#utility.yul\":4698:4699   */\n      0x00\n        /* \"#utility.yul\":4695:4696   */\n      dup5\n        /* \"#utility.yul\":4691:4700   */\n      slt\n        /* \"#utility.yul\":4687:4688   */\n      0x00\n        /* \"#utility.yul\":4684:4685   */\n      dup5\n        /* \"#utility.yul\":4680:4689   */\n      slt\n        /* \"#utility.yul\":4676:4701   */\n      and\n        /* \"#utility.yul\":4672:4787   */\n      and\n        /* \"#utility.yul\":4669:4810   */\n      iszero\n      tag_130\n      jumpi\n        /* \"#utility.yul\":4790:4808   */\n      tag_131\n      tag_125\n      jump\t// in\n    tag_131:\n        /* \"#utility.yul\":4669:4810   */\n    tag_130:\n        /* \"#utility.yul\":4838:4839   */\n      dup3\n        /* \"#utility.yul\":4835:4836   */\n      dup3\n        /* \"#utility.yul\":4831:4840   */\n      mul\n        /* \"#utility.yul\":4820:4840   */\n      swap1\n      pop\n        /* \"#utility.yul\":3855:4846   */\n      swap3\n      swap2\n      pop\n      pop\n      jump\t// out\n        /* \"#utility.yul\":4852:5200   */\n    tag_38:\n        /* \"#utility.yul\":4892:4899   */\n      0x00\n        /* \"#utility.yul\":4915:4935   */\n      tag_133\n        /* \"#utility.yul\":4933:4934   */\n      dup3\n        /* \"#utility.yul\":4915:4935   */\n      tag_103\n      jump\t// in\n    tag_133:\n        /* \"#utility.yul\":4910:4935   */\n      swap2\n      pop\n        /* \"#utility.yul\":4949:4969   */\n      tag_134\n        /* \"#utility.yul\":4967:4968   */\n      dup4\n        /* \"#utility.yul\":4949:4969   */\n      tag_103\n      jump\t// in\n    tag_134:\n        /* \"#utility.yul\":4944:4969   */\n      swap3\n      pop\n        /* \"#utility.yul\":5137:5138   */\n      dup2\n        /* \"#utility.yul\":5069:5135   */\n      0xffffffffffffffffffffffffffffffffffffffffffffffffffffffffffffffff\n        /* \"#utility.yul\":5065:5139   */\n      div\n        /* \"#utility.yul\":5062:5063   */\n      dup4\n        /* \"#utility.yul\":5059:5140   */\n      gt\n        /* \"#utility.yul\":5054:5055   */\n      dup3\n        /* \"#utility.yul\":5047:5056   */\n      iszero\n        /* \"#utility.yul\":5040:5057   */\n      iszero\n        /* \"#utility.yul\":5036:5141   */\n      and\n        /* \"#utility.yul\":5033:5164   */\n      iszero\n      tag_135\n      jumpi\n        /* \"#utility.yul\":5144:5162   */\n      tag_136\n      tag_125\n      jump\t// in\n    tag_136:\n        /* \"#utility.yul\":5033:5164   */\n    tag_135:\n        /* \"#utility.yul\":5192:5193   */\n      dup3\n        /* \"#utility.yul\":5189:5190   */\n      dup3\n        /* \"#utility.yul\":5185:5194   */\n      mul\n        /* \"#utility.yul\":5174:5194   */\n      swap1\n      pop\n        /* \"#utility.yul\":4852:5200   */\n      swap3\n      swap2\n      pop\n      pop\n      jump\t// out\n        /* \"#utility.yul\":5206:5302   */\n    tag_93:\n        /* \"#utility.yul\":5243:5250   */\n      0x00\n        /* \"#utility.yul\":5272:5296   */\n      tag_138\n        /* \"#utility.yul\":5290:5295   */\n      dup3\n        /* \"#utility.yul\":5272:5296   */\n      tag_139\n      jump\t// in\n    tag_138:\n        /* \"#utility.yul\":5261:5296   */\n      swap1\n      pop\n        /* \"#utility.yul\":5206:5302   */\n      swap2\n      swap1\n      pop\n      jump\t// out\n        /* \"#utility.yul\":5308:5384   */\n    tag_121:\n        /* \"#utility.yul\":5344:5351   */\n      0x00\n        /* \"#utility.yul\":5373:5378   */\n      dup2\n        /* \"#utility.yul\":5362:5378   */\n      swap1\n      pop\n        /* \"#utility.yul\":5308:5384   */\n      swap2\n      swap1\n      pop\n      jump\t// out\n        /* \"#utility.yul\":5390:5516   */\n    tag_139:\n        /* \"#utility.yul\":5427:5434   */\n      0x00\n        /* \"#utility.yul\":5467:5509   */\n      0xffffffffffffffffffffffffffffffffffffffff\n        /* \"#utility.yul\":5460:5465   */\n      dup3\n        /* \"#utility.yul\":5456:5510   */\n      and\n        /* \"#utility.yul\":5445:5510   */\n      swap1\n      pop\n        /* \"#utility.yul\":5390:5516   */\n      swap2\n      swap1\n      pop\n      jump\t// out\n        /* \"#utility.yul\":5522:5599   */\n    tag_103:\n        /* \"#utility.yul\":5559:5566   */\n      0x00\n        /* \"#utility.yul\":5588:5593   */\n      dup2\n        /* \"#utility.yul\":5577:5593   */\n      swap1\n      pop\n        /* \"#utility.yul\":5522:5599   */\n      swap2\n      swap1\n      pop\n      jump\t// out\n        /* \"#utility.yul\":5605:5710   */\n    tag_143:\n        /* \"#utility.yul\":5641:5648   */\n      0x00\n        /* \"#utility.yul\":5681:5703   */\n      0xffffffffffffffffffff\n        /* \"#utility.yul\":5674:5679   */\n      dup3\n        /* \"#utility.yul\":5670:5704   */\n      and\n        /* \"#utility.yul\":5659:5704   */\n      swap1\n      pop\n        /* \"#utility.yul\":5605:5710   */\n      swap2\n      swap1\n      pop\n      jump\t// out\n        /* \"#utility.yul\":5716:5896   */\n    tag_125:\n        /* \"#utility.yul\":5764:5841   */\n      0x4e487b7100000000000000000000000000000000000000000000000000000000\n        /* \"#utility.yul\":5761:5762   */\n      0x00\n        /* \"#utility.yul\":5754:5842   */\n      mstore\n        /* \"#utility.yul\":5861:5865   */\n      0x11\n        /* \"#utility.yul\":5858:5859   */\n      0x04\n        /* \"#utility.yul\":5851:5866   */\n      mstore\n        /* \"#utility.yul\":5885:5889   */\n      0x24\n        /* \"#utility.yul\":5882:5883   */\n      0x00\n        /* \"#utility.yul\":5875:5890   */\n      revert\n        /* \"#utility.yul\":5902:6082   */\n    tag_118:\n        /* \"#utility.yul\":5950:6027   */\n      0x4e487b7100000000000000000000000000000000000000000000000000000000\n        /* \"#utility.yul\":5947:5948   */\n      0x00\n        /* \"#utility.yul\":5940:6028   */\n      mstore\n        /* \"#utility.yul\":6047:6051   */\n      0x12\n        /* \"#utility.yul\":6044:6045   */\n      0x04\n        /* \"#utility.yul\":6037:6052   */\n      mstore\n        /* \"#utility.yul\":6071:6075   */\n      0x24\n        /* \"#utility.yul\":6068:6069   */\n      0x00\n        /* \"#utility.yul\":6061:6076   */\n      revert\n        /* \"#utility.yul\":6211:6328   */\n    tag_80:\n        /* \"#utility.yul\":6320:6321   */\n      0x00\n        /* \"#utility.yul\":6317:6318   */\n      dup1\n        /* \"#utility.yul\":6310:6322   */\n      revert\n        /* \"#utility.yul\":6334:6503   */\n    tag_99:\n        /* \"#utility.yul\":6474:6495   */\n      0x446964206e6f742073656e6420656e6f75676800000000000000000000000000\n        /* \"#utility.yul\":6470:6471   */\n      0x00\n        /* \"#utility.yul\":6462:6468   */\n      dup3\n        /* \"#utility.yul\":6458:6472   */\n      add\n        /* \"#utility.yul\":6451:6496   */\n      mstore\n        /* \"#utility.yul\":6334:6503   */\n      pop\n      jump\t// out\n        /* \"#utility.yul\":6509:6629   */\n    tag_65:\n        /* \"#utility.yul\":6581:6604   */\n      tag_152\n        /* \"#utility.yul\":6598:6603   */\n      dup2\n        /* \"#utility.yul\":6581:6604   */\n      tag_121\n      jump\t// in\n    tag_152:\n        /* \"#utility.yul\":6574:6579   */\n      dup2\n        /* \"#utility.yul\":6571:6605   */\n      eq\n        /* \"#utility.yul\":6561:6623   */\n      tag_153\n      jumpi\n        /* \"#utility.yul\":6619:6620   */\n      0x00\n        /* \"#utility.yul\":6616:6617   */\n      dup1\n        /* \"#utility.yul\":6609:6621   */\n      revert\n        /* \"#utility.yul\":6561:6623   */\n    tag_153:\n        /* \"#utility.yul\":6509:6629   */\n      pop\n      jump\t// out\n        /* \"#utility.yul\":6635:6757   */\n    tag_69:\n        /* \"#utility.yul\":6708:6732   */\n      tag_155\n        /* \"#utility.yul\":6726:6731   */\n      dup2\n        /* \"#utility.yul\":6708:6732   */\n      tag_103\n      jump\t// in\n    tag_155:\n        /* \"#utility.yul\":6701:6706   */\n      dup2\n        /* \"#utility.yul\":6698:6733   */\n      eq\n        /* \"#utility.yul\":6688:6751   */\n      tag_156\n      jumpi\n        /* \"#utility.yul\":6747:6748   */\n      0x00\n        /* \"#utility.yul\":6744:6745   */\n      dup1\n        /* \"#utility.yul\":6737:6749   */\n      revert\n        /* \"#utility.yul\":6688:6751   */\n    tag_156:\n        /* \"#utility.yul\":6635:6757   */\n      pop\n      jump\t// out\n        /* \"#utility.yul\":6763:6883   */\n    tag_76:\n        /* \"#utility.yul\":6835:6858   */\n      tag_158\n        /* \"#utility.yul\":6852:6857   */\n      dup2\n        /* \"#utility.yul\":6835:6858   */\n      tag_143\n      jump\t// in\n    tag_158:\n        /* \"#utility.yul\":6828:6833   */\n      dup2\n        /* \"#utility.yul\":6825:6859   */\n      eq\n        /* \"#utility.yul\":6815:6877   */\n      tag_159\n      jumpi\n        /* \"#utility.yul\":6873:6874   */\n      0x00\n        /* \"#utility.yul\":6870:6871   */\n      dup1\n        /* \"#utility.yul\":6863:6875   */\n      revert\n        /* \"#utility.yul\":6815:6877   */\n    tag_159:\n        /* \"#utility.yul\":6763:6883   */\n      pop\n      jump\t// out\n\n    auxdata: 0xa2646970667358221220fa645eeca755e418310e5936b6a502f998ea4852dc5b5497fc07faec265dd4ba64736f6c63430008070033\n}\n",
				"bytecode": {
					"linkReferences": {},
					"object": "608060405234801561001057600080fd5b50610823806100206000396000f3fe6080604052600436106100555760003560e01c8063311f70bc1461005a5780636b69a592146100855780636e5b6b28146100b057806398d5fdca146100ed578063b60d428814610118578063dc0d3dff14610122575b600080fd5b34801561006657600080fd5b5061006f61015f565b60405161007c91906104f2565b60405180910390f35b34801561009157600080fd5b5061009a610195565b6040516100a791906104f2565b60405180910390f35b3480156100bc57600080fd5b506100d760048036038101906100d291906103ce565b6101a2565b6040516100e491906104f2565b60405180910390f35b3480156100f957600080fd5b506101026101d1565b60405161010f91906104f2565b60405180910390f35b610120610283565b005b34801561012e57600080fd5b50610149600480360381019061014491906103ce565b61033b565b60405161015691906104b7565b60405180910390f35b60006101696101d1565b670de0b6b3a76400006802b5e3af16b18800006101869190610666565b610190919061051e565b905090565b6802b5e3af16b188000081565b6000670de0b6b3a7640000826101b66101d1565b6101c09190610666565b6101ca919061051e565b9050919050565b60008073d4a33860578de61dbabdc8bfdb98fd742fa7028e73ffffffffffffffffffffffffffffffffffffffff1663feaf968c6040518163ffffffff1660e01b815260040160a06040518083038186803b15801561022e57600080fd5b505afa158015610242573d6000803e3d6000fd5b505050506040513d601f19601f8201168201806040525081019061026691906103fb565b5050509150506402540be4008161027d919061054f565b91505090565b6802b5e3af16b1880000610296346101a2565b116102d6576040517f08c379a00000000000000000000000000000000000000000000000000000000081526004016102cd906104d2565b60405180910390fd5b6000339080600181540180825580915050600190039060005260206000200160009091909190916101000a81548173ffffffffffffffffffffffffffffffffffffffff021916908373ffffffffffffffffffffffffffffffffffffffff160217905550565b6000818154811061034b57600080fd5b906000526020600020016000915054906101000a900473ffffffffffffffffffffffffffffffffffffffff1681565b600081519050610389816107a8565b92915050565b60008135905061039e816107bf565b92915050565b6000815190506103b3816107bf565b92915050565b6000815190506103c8816107d6565b92915050565b6000602082840312156103e4576103e361077a565b5b60006103f28482850161038f565b91505092915050565b600080600080600060a086880312156104175761041661077a565b5b6000610425888289016103b9565b95505060206104368882890161037a565b9450506040610447888289016103a4565b9350506060610458888289016103a4565b9250506080610469888289016103b9565b9150509295509295909350565b61047f816106c0565b82525050565b600061049260138361050d565b915061049d8261077f565b602082019050919050565b6104b1816106fc565b82525050565b60006020820190506104cc6000830184610476565b92915050565b600060208201905081810360008301526104eb81610485565b9050919050565b600060208201905061050760008301846104a8565b92915050565b600082825260208201905092915050565b6000610529826106fc565b9150610534836106fc565b9250826105445761054361074b565b5b828204905092915050565b600061055a826106d2565b9150610565836106d2565b9250827f7fffffffffffffffffffffffffffffffffffffffffffffffffffffffffffffff04821160008413600084131616156105a4576105a361071c565b5b817f800000000000000000000000000000000000000000000000000000000000000005831260008412600084131616156105e1576105e061071c565b5b827f8000000000000000000000000000000000000000000000000000000000000000058212600084136000841216161561061e5761061d61071c565b5b827f7fffffffffffffffffffffffffffffffffffffffffffffffffffffffffffffff058212600084126000841216161561065b5761065a61071c565b5b828202905092915050565b6000610671826106fc565b915061067c836106fc565b9250817fffffffffffffffffffffffffffffffffffffffffffffffffffffffffffffffff04831182151516156106b5576106b461071c565b5b828202905092915050565b60006106cb826106dc565b9050919050565b6000819050919050565b600073ffffffffffffffffffffffffffffffffffffffff82169050919050565b6000819050919050565b600069ffffffffffffffffffff82169050919050565b7f4e487b7100000000000000000000000000000000000000000000000000000000600052601160045260246000fd5b7f4e487b7100000000000000000000000000000000000000000000000000000000600052601260045260246000fd5b600080fd5b7f446964206e6f742073656e6420656e6f75676800000000000000000000000000600082015250565b6107b1816106d2565b81146107bc57600080fd5b50565b6107c8816106fc565b81146107d357600080fd5b50565b6107df81610706565b81146107ea57600080fd5b5056fea2646970667358221220fa645eeca755e418310e5936b6a502f998ea4852dc5b5497fc07faec265dd4ba64736f6c63430008070033",
					"opcodes": "PUSH1 0x80 PUSH1 0x40 MSTORE CALLVALUE DUP1 ISZERO PUSH2 0x10 JUMPI PUSH1 0x0 DUP1 REVERT JUMPDEST POP PUSH2 0x823 DUP1 PUSH2 0x20 PUSH1 0x0 CODECOPY PUSH1 0x0 RETURN INVALID PUSH1 0x80 PUSH1 0x40 MSTORE PUSH1 0x4 CALLDATASIZE LT PUSH2 0x55 JUMPI PUSH1 0x0 CALLDATALOAD PUSH1 0xE0 SHR DUP1 PUSH4 0x311F70BC EQ PUSH2 0x5A JUMPI DUP1 PUSH4 0x6B69A592 EQ PUSH2 0x85 JUMPI DUP1 PUSH4 0x6E5B6B28 EQ PUSH2 0xB0 JUMPI DUP1 PUSH4 0x98D5FDCA EQ PUSH2 0xED JUMPI DUP1 PUSH4 0xB60D4288 EQ PUSH2 0x118 JUMPI DUP1 PUSH4 0xDC0D3DFF EQ PUSH2 0x122 JUMPI JUMPDEST PUSH1 0x0 DUP1 REVERT JUMPDEST CALLVALUE DUP1 ISZERO PUSH2 0x66 JUMPI PUSH1 0x0 DUP1 REVERT JUMPDEST POP PUSH2 0x6F PUSH2 0x15F JUMP JUMPDEST PUSH1 0x40 MLOAD PUSH2 0x7C SWAP2 SWAP1 PUSH2 0x4F2 JUMP JUMPDEST PUSH1 0x40 MLOAD DUP1 SWAP2 SUB SWAP1 RETURN JUMPDEST CALLVALUE DUP1 ISZERO PUSH2 0x91 JUMPI PUSH1 0x0 DUP1 REVERT JUMPDEST POP PUSH2 0x9A PUSH2 0x195 JUMP JUMPDEST PUSH1 0x40 MLOAD PUSH2 0xA7 SWAP2 SWAP1 PUSH2 0x4F2 JUMP JUMPDEST PUSH1 0x40 MLOAD DUP1 SWAP2 SUB SWAP1 RETURN JUMPDEST CALLVALUE DUP1 ISZERO PUSH2 0xBC JUMPI PUSH1 0x0 DUP1 REVERT JUMPDEST POP PUSH2 0xD7 PUSH1 0x4 DUP1 CALLDATASIZE SUB DUP2 ADD SWAP1 PUSH2 0xD2 SWAP2 SWAP1 PUSH2 0x3CE JUMP JUMPDEST PUSH2 0x1A2 JUMP JUMPDEST PUSH1 0x40 MLOAD PUSH2 0xE4 SWAP2 SWAP1 PUSH2 0x4F2 JUMP JUMPDEST PUSH1 0x40 MLOAD DUP1 SWAP2 SUB SWAP1 RETURN JUMPDEST CALLVALUE DUP1 ISZERO PUSH2 0xF9 JUMPI PUSH1 0x0 DUP1 REVERT JUMPDEST POP PUSH2 0x102 PUSH2 0x1D1 JUMP JUMPDEST PUSH1 0x40 MLOAD PUSH2 0x10F SWAP2 SWAP1 PUSH2 0x4F2 JUMP JUMPDEST PUSH1 0x40 MLOAD DUP1 SWAP2 SUB SWAP1 RETURN JUMPDEST PUSH2 0x120 PUSH2 0x283 JUMP JUMPDEST STOP JUMPDEST CALLVALUE DUP1 ISZERO PUSH2 0x12E JUMPI PUSH1 0x0 DUP1 REVERT JUMPDEST POP PUSH2 0x149 PUSH1 0x4 DUP1 CALLDATASIZE SUB DUP2 ADD SWAP1 PUSH2 0x144 SWAP2 SWAP1 PUSH2 0x3CE JUMP JUMPDEST PUSH2 0x33B JUMP JUMPDEST PUSH1 0x40 MLOAD PUSH2 0x156 SWAP2 SWAP1 PUSH2 0x4B7 JUMP JUMPDEST PUSH1 0x40 MLOAD DUP1 SWAP2 SUB SWAP1 RETURN JUMPDEST PUSH1 0x0 PUSH2 0x169 PUSH2 0x1D1 JUMP JUMPDEST PUSH8 0xDE0B6B3A7640000 PUSH9 0x2B5E3AF16B1880000 PUSH2 0x186 SWAP2 SWAP1 PUSH2 0x666 JUMP JUMPDEST PUSH2 0x190 SWAP2 SWAP1 PUSH2 0x51E JUMP JUMPDEST SWAP1 POP SWAP1 JUMP JUMPDEST PUSH9 0x2B5E3AF16B1880000 DUP2 JUMP JUMPDEST PUSH1 0x0 PUSH8 0xDE0B6B3A7640000 DUP3 PUSH2 0x1B6 PUSH2 0x1D1 JUMP JUMPDEST PUSH2 0x1C0 SWAP2 SWAP1 PUSH2 0x666 JUMP JUMPDEST PUSH2 0x1CA SWAP2 SWAP1 PUSH2 0x51E JUMP JUMPDEST SWAP1 POP SWAP2 SWAP1 POP JUMP JUMPDEST PUSH1 0x0 DUP1 PUSH20 0xD4A33860578DE61DBABDC8BFDB98FD742FA7028E PUSH20 0xFFFFFFFFFFFFFFFFFFFFFFFFFFFFFFFFFFFFFFFF AND PUSH4 0xFEAF968C PUSH1 0x40 MLOAD DUP2 PUSH4 0xFFFFFFFF AND PUSH1 0xE0 SHL DUP2 MSTORE PUSH1 0x4 ADD PUSH1 0xA0 PUSH1 0x40 MLOAD DUP1 DUP4 SUB DUP2 DUP7 DUP1 EXTCODESIZE ISZERO DUP1 ISZERO PUSH2 0x22E JUMPI PUSH1 0x0 DUP1 REVERT JUMPDEST POP GAS STATICCALL ISZERO DUP1 ISZERO PUSH2 0x242 JUMPI RETURNDATASIZE PUSH1 0x0 DUP1 RETURNDATACOPY RETURNDATASIZE PUSH1 0x0 REVERT JUMPDEST POP POP POP POP PUSH1 0x40 MLOAD RETURNDATASIZE PUSH1 0x1F NOT PUSH1 0x1F DUP3 ADD AND DUP3 ADD DUP1 PUSH1 0x40 MSTORE POP DUP2 ADD SWAP1 PUSH2 0x266 SWAP2 SWAP1 PUSH2 0x3FB JUMP JUMPDEST POP POP POP SWAP2 POP POP PUSH5 0x2540BE400 DUP2 PUSH2 0x27D SWAP2 SWAP1 PUSH2 0x54F JUMP JUMPDEST SWAP2 POP POP SWAP1 JUMP JUMPDEST PUSH9 0x2B5E3AF16B1880000 PUSH2 0x296 CALLVALUE PUSH2 0x1A2 JUMP JUMPDEST GT PUSH2 0x2D6 JUMPI PUSH1 0x40 MLOAD PUSH32 0x8C379A000000000000000000000000000000000000000000000000000000000 DUP2 MSTORE PUSH1 0x4 ADD PUSH2 0x2CD SWAP1 PUSH2 0x4D2 JUMP JUMPDEST PUSH1 0x40 MLOAD DUP1 SWAP2 SUB SWAP1 REVERT JUMPDEST PUSH1 0x0 CALLER SWAP1 DUP1 PUSH1 0x1 DUP2 SLOAD ADD DUP1 DUP3 SSTORE DUP1 SWAP2 POP POP PUSH1 0x1 SWAP1 SUB SWAP1 PUSH1 0x0 MSTORE PUSH1 0x20 PUSH1 0x0 KECCAK256 ADD PUSH1 0x0 SWAP1 SWAP2 SWAP1 SWAP2 SWAP1 SWAP2 PUSH2 0x100 EXP DUP2 SLOAD DUP2 PUSH20 0xFFFFFFFFFFFFFFFFFFFFFFFFFFFFFFFFFFFFFFFF MUL NOT AND SWAP1 DUP4 PUSH20 0xFFFFFFFFFFFFFFFFFFFFFFFFFFFFFFFFFFFFFFFF AND MUL OR SWAP1 SSTORE POP JUMP JUMPDEST PUSH1 0x0 DUP2 DUP2 SLOAD DUP2 LT PUSH2 0x34B JUMPI PUSH1 0x0 DUP1 REVERT JUMPDEST SWAP1 PUSH1 0x0 MSTORE PUSH1 0x20 PUSH1 0x0 KECCAK256 ADD PUSH1 0x0 SWAP2 POP SLOAD SWAP1 PUSH2 0x100 EXP SWAP1 DIV PUSH20 0xFFFFFFFFFFFFFFFFFFFFFFFFFFFFFFFFFFFFFFFF AND DUP2 JUMP JUMPDEST PUSH1 0x0 DUP2 MLOAD SWAP1 POP PUSH2 0x389 DUP2 PUSH2 0x7A8 JUMP JUMPDEST SWAP3 SWAP2 POP POP JUMP JUMPDEST PUSH1 0x0 DUP2 CALLDATALOAD SWAP1 POP PUSH2 0x39E DUP2 PUSH2 0x7BF JUMP JUMPDEST SWAP3 SWAP2 POP POP JUMP JUMPDEST PUSH1 0x0 DUP2 MLOAD SWAP1 POP PUSH2 0x3B3 DUP2 PUSH2 0x7BF JUMP JUMPDEST SWAP3 SWAP2 POP POP JUMP JUMPDEST PUSH1 0x0 DUP2 MLOAD SWAP1 POP PUSH2 0x3C8 DUP2 PUSH2 0x7D6 JUMP JUMPDEST SWAP3 SWAP2 POP POP JUMP JUMPDEST PUSH1 0x0 PUSH1 0x20 DUP3 DUP5 SUB SLT ISZERO PUSH2 0x3E4 JUMPI PUSH2 0x3E3 PUSH2 0x77A JUMP JUMPDEST JUMPDEST PUSH1 0x0 PUSH2 0x3F2 DUP5 DUP3 DUP6 ADD PUSH2 0x38F JUMP JUMPDEST SWAP2 POP POP SWAP3 SWAP2 POP POP JUMP JUMPDEST PUSH1 0x0 DUP1 PUSH1 0x0 DUP1 PUSH1 0x0 PUSH1 0xA0 DUP7 DUP9 SUB SLT ISZERO PUSH2 0x417 JUMPI PUSH2 0x416 PUSH2 0x77A JUMP JUMPDEST JUMPDEST PUSH1 0x0 PUSH2 0x425 DUP9 DUP3 DUP10 ADD PUSH2 0x3B9 JUMP JUMPDEST SWAP6 POP POP PUSH1 0x20 PUSH2 0x436 DUP9 DUP3 DUP10 ADD PUSH2 0x37A JUMP JUMPDEST SWAP5 POP POP PUSH1 0x40 PUSH2 0x447 DUP9 DUP3 DUP10 ADD PUSH2 0x3A4 JUMP JUMPDEST SWAP4 POP POP PUSH1 0x60 PUSH2 0x458 DUP9 DUP3 DUP10 ADD PUSH2 0x3A4 JUMP JUMPDEST SWAP3 POP POP PUSH1 0x80 PUSH2 0x469 DUP9 DUP3 DUP10 ADD PUSH2 0x3B9 JUMP JUMPDEST SWAP2 POP POP SWAP3 SWAP6 POP SWAP3 SWAP6 SWAP1 SWAP4 POP JUMP JUMPDEST PUSH2 0x47F DUP2 PUSH2 0x6C0 JUMP JUMPDEST DUP3 MSTORE POP POP JUMP JUMPDEST PUSH1 0x0 PUSH2 0x492 PUSH1 0x13 DUP4 PUSH2 0x50D JUMP JUMPDEST SWAP2 POP PUSH2 0x49D DUP3 PUSH2 0x77F JUMP JUMPDEST PUSH1 0x20 DUP3 ADD SWAP1 POP SWAP2 SWAP1 POP JUMP JUMPDEST PUSH2 0x4B1 DUP2 PUSH2 0x6FC JUMP JUMPDEST DUP3 MSTORE POP POP JUMP JUMPDEST PUSH1 0x0 PUSH1 0x20 DUP3 ADD SWAP1 POP PUSH2 0x4CC PUSH1 0x0 DUP4 ADD DUP5 PUSH2 0x476 JUMP JUMPDEST SWAP3 SWAP2 POP POP JUMP JUMPDEST PUSH1 0x0 PUSH1 0x20 DUP3 ADD SWAP1 POP DUP2 DUP2 SUB PUSH1 0x0 DUP4 ADD MSTORE PUSH2 0x4EB DUP2 PUSH2 0x485 JUMP JUMPDEST SWAP1 POP SWAP2 SWAP1 POP JUMP JUMPDEST PUSH1 0x0 PUSH1 0x20 DUP3 ADD SWAP1 POP PUSH2 0x507 PUSH1 0x0 DUP4 ADD DUP5 PUSH2 0x4A8 JUMP JUMPDEST SWAP3 SWAP2 POP POP JUMP JUMPDEST PUSH1 0x0 DUP3 DUP3 MSTORE PUSH1 0x20 DUP3 ADD SWAP1 POP SWAP3 SWAP2 POP POP JUMP JUMPDEST PUSH1 0x0 PUSH2 0x529 DUP3 PUSH2 0x6FC JUMP JUMPDEST SWAP2 POP PUSH2 0x534 DUP4 PUSH2 0x6FC JUMP JUMPDEST SWAP3 POP DUP3 PUSH2 0x544 JUMPI PUSH2 0x543 PUSH2 0x74B JUMP JUMPDEST JUMPDEST DUP3 DUP3 DIV SWAP1 POP SWAP3 SWAP2 POP POP JUMP JUMPDEST PUSH1 0x0 PUSH2 0x55A DUP3 PUSH2 0x6D2 JUMP JUMPDEST SWAP2 POP PUSH2 0x565 DUP4 PUSH2 0x6D2 JUMP JUMPDEST SWAP3 POP DUP3 PUSH32 0x7FFFFFFFFFFFFFFFFFFFFFFFFFFFFFFFFFFFFFFFFFFFFFFFFFFFFFFFFFFFFFFF DIV DUP3 GT PUSH1 0x0 DUP5 SGT PUSH1 0x0 DUP5 SGT AND AND ISZERO PUSH2 0x5A4 JUMPI PUSH2 0x5A3 PUSH2 0x71C JUMP JUMPDEST JUMPDEST DUP2 PUSH32 0x8000000000000000000000000000000000000000000000000000000000000000 SDIV DUP4 SLT PUSH1 0x0 DUP5 SLT PUSH1 0x0 DUP5 SGT AND AND ISZERO PUSH2 0x5E1 JUMPI PUSH2 0x5E0 PUSH2 0x71C JUMP JUMPDEST JUMPDEST DUP3 PUSH32 0x8000000000000000000000000000000000000000000000000000000000000000 SDIV DUP3 SLT PUSH1 0x0 DUP5 SGT PUSH1 0x0 DUP5 SLT AND AND ISZERO PUSH2 0x61E JUMPI PUSH2 0x61D PUSH2 0x71C JUMP JUMPDEST JUMPDEST DUP3 PUSH32 0x7FFFFFFFFFFFFFFFFFFFFFFFFFFFFFFFFFFFFFFFFFFFFFFFFFFFFFFFFFFFFFFF SDIV DUP3 SLT PUSH1 0x0 DUP5 SLT PUSH1 0x0 DUP5 SLT AND AND ISZERO PUSH2 0x65B JUMPI PUSH2 0x65A PUSH2 0x71C JUMP JUMPDEST JUMPDEST DUP3 DUP3 MUL SWAP1 POP SWAP3 SWAP2 POP POP JUMP JUMPDEST PUSH1 0x0 PUSH2 0x671 DUP3 PUSH2 0x6FC JUMP JUMPDEST SWAP2 POP PUSH2 0x67C DUP4 PUSH2 0x6FC JUMP JUMPDEST SWAP3 POP DUP2 PUSH32 0xFFFFFFFFFFFFFFFFFFFFFFFFFFFFFFFFFFFFFFFFFFFFFFFFFFFFFFFFFFFFFFFF DIV DUP4 GT DUP3 ISZERO ISZERO AND ISZERO PUSH2 0x6B5 JUMPI PUSH2 0x6B4 PUSH2 0x71C JUMP JUMPDEST JUMPDEST DUP3 DUP3 MUL SWAP1 POP SWAP3 SWAP2 POP POP JUMP JUMPDEST PUSH1 0x0 PUSH2 0x6CB DUP3 PUSH2 0x6DC JUMP JUMPDEST SWAP1 POP SWAP2 SWAP1 POP JUMP JUMPDEST PUSH1 0x0 DUP2 SWAP1 POP SWAP2 SWAP1 POP JUMP JUMPDEST PUSH1 0x0 PUSH20 0xFFFFFFFFFFFFFFFFFFFFFFFFFFFFFFFFFFFFFFFF DUP3 AND SWAP1 POP SWAP2 SWAP1 POP JUMP JUMPDEST PUSH1 0x0 DUP2 SWAP1 POP SWAP2 SWAP1 POP JUMP JUMPDEST PUSH1 0x0 PUSH10 0xFFFFFFFFFFFFFFFFFFFF DUP3 AND SWAP1 POP SWAP2 SWAP1 POP JUMP JUMPDEST PUSH32 0x4E487B7100000000000000000000000000000000000000000000000000000000 PUSH1 0x0 MSTORE PUSH1 0x11 PUSH1 0x4 MSTORE PUSH1 0x24 PUSH1 0x0 REVERT JUMPDEST PUSH32 0x4E487B7100000000000000000000000000000000000000000000000000000000 PUSH1 0x0 MSTORE PUSH1 0x12 PUSH1 0x4 MSTORE PUSH1 0x24 PUSH1 0x0 REVERT JUMPDEST PUSH1 0x0 DUP1 REVERT JUMPDEST PUSH32 0x446964206E6F742073656E6420656E6F75676800000000000000000000000000 PUSH1 0x0 DUP3 ADD MSTORE POP JUMP JUMPDEST PUSH2 0x7B1 DUP2 PUSH2 0x6D2 JUMP JUMPDEST DUP2 EQ PUSH2 0x7BC JUMPI PUSH1 0x0 DUP1 REVERT JUMPDEST POP JUMP JUMPDEST PUSH2 0x7C8 DUP2 PUSH2 0x6FC JUMP JUMPDEST DUP2 EQ PUSH2 0x7D3 JUMPI PUSH1 0x0 DUP1 REVERT JUMPDEST POP JUMP JUMPDEST PUSH2 0x7DF DUP2 PUSH2 0x706 JUMP JUMPDEST DUP2 EQ PUSH2 0x7EA JUMPI PUSH1 0x0 DUP1 REVERT JUMPDEST POP JUMP INVALID LOG2 PUSH5 0x6970667358 0x22 SLT KECCAK256 STATICCALL PUSH5 0x5EECA755E4 XOR BALANCE 0xE MSIZE CALLDATASIZE 0xB6 0xA5 MUL 0xF9 SWAP9 0xEA BASEFEE MSTORE 0xDC JUMPDEST SLOAD SWAP8 0xFC SMOD STATICCALL 0xEC 0x26 0x5D 0xD4 0xBA PUSH5 0x736F6C6343 STOP ADDMOD SMOD STOP CALLER "
				},
				"gasEstimates": {
					"creation": {
						"codeDepositCost": "416600",
						"executionCost": "455",
						"totalCost": "417055"
					},
					"external": {
						"MINIMUM_USD()": "329",
						"fund()": "infinite",
						"funders(uint256)": "5044",
						"getConversionRate(uint256)": "infinite",
						"getMinimumEth()": "infinite",
						"getPrice()": "infinite"
					}
				},
				"methodIdentifiers": {
					"MINIMUM_USD()": "6b69a592",
					"fund()": "b60d4288",
					"funders(uint256)": "dc0d3dff",
					"getConversionRate(uint256)": "6e5b6b28",
					"getMinimumEth()": "311f70bc",
					"getPrice()": "98d5fdca"
				}
			},
			"storageLayout": {
				"storage": [
					{
						"astId": 56,
						"contract": "contracts/FundMe.sol:FundMe",
						"label": "funders",
						"offset": 0,
						"slot": "0",
						"type": "t_array(t_address)dyn_storage"
					}
				],
				"types": {
					"t_address": {
						"encoding": "inplace",
						"label": "address",
						"numberOfBytes": "20"
					},
					"t_array(t_address)dyn_storage": {
						"base": "t_address",
						"encoding": "dynamic_array",
						"label": "address[]",
						"numberOfBytes": "32"
					}
				}
			},
			"userdoc": {
				"kind": "user",
				"methods": {},
				"version": 1
			}
		}
	}
}